{
  "_format": "hh-sol-artifact-1",
  "contractName": "CoreVault",
  "sourceName": "contracts/vault/CoreVault.sol",
  "abi": [
    {
      "inputs": [
        {
          "internalType": "address",
          "name": "_asset",
          "type": "address"
        },
        {
          "internalType": "address",
          "name": "_lpToken",
          "type": "address"
        },
        {
          "internalType": "string",
          "name": "_name",
          "type": "string"
        },
        {
          "internalType": "string",
          "name": "_symbol",
          "type": "string"
        }
      ],
      "stateMutability": "nonpayable",
      "type": "constructor"
    },
    {
      "anonymous": false,
      "inputs": [
        {
          "indexed": true,
          "internalType": "address",
          "name": "owner",
          "type": "address"
        },
        {
          "indexed": true,
          "internalType": "address",
          "name": "spender",
          "type": "address"
        },
        {
          "indexed": false,
          "internalType": "uint256",
          "name": "value",
          "type": "uint256"
        }
      ],
      "name": "Approval",
      "type": "event"
    },
    {
      "anonymous": false,
      "inputs": [
        {
          "indexed": true,
          "internalType": "address",
          "name": "sender",
          "type": "address"
        },
        {
          "indexed": true,
          "internalType": "address",
          "name": "owner",
          "type": "address"
        },
        {
          "indexed": false,
          "internalType": "uint256",
          "name": "assets",
          "type": "uint256"
        },
        {
          "indexed": false,
          "internalType": "uint256",
          "name": "shares",
          "type": "uint256"
        }
      ],
      "name": "Deposit",
      "type": "event"
    },
    {
      "anonymous": false,
      "inputs": [
        {
          "indexed": true,
          "internalType": "bytes32",
          "name": "role",
          "type": "bytes32"
        },
        {
          "indexed": true,
          "internalType": "bytes32",
          "name": "previousAdminRole",
          "type": "bytes32"
        },
        {
          "indexed": true,
          "internalType": "bytes32",
          "name": "newAdminRole",
          "type": "bytes32"
        }
      ],
      "name": "RoleAdminChanged",
      "type": "event"
    },
    {
      "anonymous": false,
      "inputs": [
        {
          "indexed": true,
          "internalType": "bytes32",
          "name": "role",
          "type": "bytes32"
        },
        {
          "indexed": true,
          "internalType": "address",
          "name": "account",
          "type": "address"
        },
        {
          "indexed": true,
          "internalType": "address",
          "name": "sender",
          "type": "address"
        }
      ],
      "name": "RoleGranted",
      "type": "event"
    },
    {
      "anonymous": false,
      "inputs": [
        {
          "indexed": true,
          "internalType": "bytes32",
          "name": "role",
          "type": "bytes32"
        },
        {
          "indexed": true,
          "internalType": "address",
          "name": "account",
          "type": "address"
        },
        {
          "indexed": true,
          "internalType": "address",
          "name": "sender",
          "type": "address"
        }
      ],
      "name": "RoleRevoked",
      "type": "event"
    },
    {
      "anonymous": false,
      "inputs": [
        {
          "indexed": true,
          "internalType": "address",
          "name": "from",
          "type": "address"
        },
        {
          "indexed": true,
          "internalType": "address",
          "name": "to",
          "type": "address"
        },
        {
          "indexed": false,
          "internalType": "uint256",
          "name": "value",
          "type": "uint256"
        }
      ],
      "name": "Transfer",
      "type": "event"
    },
    {
      "anonymous": false,
      "inputs": [
        {
          "indexed": true,
          "internalType": "address",
          "name": "sender",
          "type": "address"
        },
        {
          "indexed": true,
          "internalType": "address",
          "name": "receiver",
          "type": "address"
        },
        {
          "indexed": true,
          "internalType": "address",
          "name": "owner",
          "type": "address"
        },
        {
          "indexed": false,
          "internalType": "uint256",
          "name": "assets",
          "type": "uint256"
        },
        {
          "indexed": false,
          "internalType": "uint256",
          "name": "shares",
          "type": "uint256"
        }
      ],
      "name": "Withdraw",
      "type": "event"
    },
    {
      "inputs": [],
      "name": "DEFAULT_ADMIN_ROLE",
      "outputs": [
        {
          "internalType": "bytes32",
          "name": "",
          "type": "bytes32"
        }
      ],
      "stateMutability": "view",
      "type": "function"
    },
    {
      "inputs": [],
      "name": "ROUTER_ROLE",
      "outputs": [
        {
          "internalType": "bytes32",
          "name": "",
          "type": "bytes32"
        }
      ],
      "stateMutability": "view",
      "type": "function"
    },
    {
      "inputs": [
        {
          "internalType": "address",
          "name": "owner",
          "type": "address"
        },
        {
          "internalType": "address",
          "name": "spender",
          "type": "address"
        }
      ],
      "name": "allowance",
      "outputs": [
        {
          "internalType": "uint256",
          "name": "",
          "type": "uint256"
        }
      ],
      "stateMutability": "view",
      "type": "function"
    },
    {
      "inputs": [
        {
          "internalType": "address",
          "name": "spender",
          "type": "address"
        },
        {
          "internalType": "uint256",
          "name": "amount",
          "type": "uint256"
        }
      ],
      "name": "approve",
      "outputs": [
        {
          "internalType": "bool",
          "name": "",
          "type": "bool"
        }
      ],
      "stateMutability": "nonpayable",
      "type": "function"
    },
    {
      "inputs": [],
      "name": "asset",
      "outputs": [
        {
          "internalType": "address",
          "name": "",
          "type": "address"
        }
      ],
      "stateMutability": "view",
      "type": "function"
    },
    {
      "inputs": [
        {
          "internalType": "address",
          "name": "account",
          "type": "address"
        }
      ],
      "name": "balanceOf",
      "outputs": [
        {
          "internalType": "uint256",
          "name": "",
          "type": "uint256"
        }
      ],
      "stateMutability": "view",
      "type": "function"
    },
    {
      "inputs": [
        {
          "internalType": "uint256",
          "name": "shares",
          "type": "uint256"
        }
      ],
      "name": "convertToAssets",
      "outputs": [
        {
          "internalType": "uint256",
          "name": "assets",
          "type": "uint256"
        }
      ],
      "stateMutability": "view",
      "type": "function"
    },
    {
      "inputs": [
        {
          "internalType": "uint256",
          "name": "assets",
          "type": "uint256"
        }
      ],
      "name": "convertToShares",
      "outputs": [
        {
          "internalType": "uint256",
          "name": "shares",
          "type": "uint256"
        }
      ],
      "stateMutability": "view",
      "type": "function"
    },
    {
      "inputs": [],
      "name": "cooldownDuration",
      "outputs": [
        {
          "internalType": "uint256",
          "name": "",
          "type": "uint256"
        }
      ],
      "stateMutability": "view",
      "type": "function"
    },
    {
      "inputs": [],
      "name": "decimals",
      "outputs": [
        {
          "internalType": "uint8",
          "name": "",
          "type": "uint8"
        }
      ],
      "stateMutability": "view",
      "type": "function"
    },
    {
      "inputs": [
        {
          "internalType": "address",
          "name": "spender",
          "type": "address"
        },
        {
          "internalType": "uint256",
          "name": "subtractedValue",
          "type": "uint256"
        }
      ],
      "name": "decreaseAllowance",
      "outputs": [
        {
          "internalType": "bool",
          "name": "",
          "type": "bool"
        }
      ],
      "stateMutability": "nonpayable",
      "type": "function"
    },
    {
      "inputs": [
        {
          "internalType": "uint256",
          "name": "assets",
          "type": "uint256"
        },
        {
          "internalType": "address",
          "name": "receiver",
          "type": "address"
        }
      ],
      "name": "deposit",
      "outputs": [
        {
          "internalType": "uint256",
          "name": "",
          "type": "uint256"
        }
      ],
      "stateMutability": "nonpayable",
      "type": "function"
    },
    {
      "inputs": [
        {
          "internalType": "bytes32",
          "name": "role",
          "type": "bytes32"
        }
      ],
      "name": "getRoleAdmin",
      "outputs": [
        {
          "internalType": "bytes32",
          "name": "",
          "type": "bytes32"
        }
      ],
      "stateMutability": "view",
      "type": "function"
    },
    {
      "inputs": [
        {
          "internalType": "bytes32",
          "name": "role",
          "type": "bytes32"
        },
        {
          "internalType": "address",
          "name": "account",
          "type": "address"
        }
      ],
      "name": "grantRole",
      "outputs": [],
      "stateMutability": "nonpayable",
      "type": "function"
    },
    {
      "inputs": [
        {
          "internalType": "bytes32",
          "name": "role",
          "type": "bytes32"
        },
        {
          "internalType": "address",
          "name": "account",
          "type": "address"
        }
      ],
      "name": "hasRole",
      "outputs": [
        {
          "internalType": "bool",
          "name": "",
          "type": "bool"
        }
      ],
      "stateMutability": "view",
      "type": "function"
    },
    {
      "inputs": [
        {
          "internalType": "address",
          "name": "spender",
          "type": "address"
        },
        {
          "internalType": "uint256",
          "name": "addedValue",
          "type": "uint256"
        }
      ],
      "name": "increaseAllowance",
      "outputs": [
        {
          "internalType": "bool",
          "name": "",
          "type": "bool"
        }
      ],
      "stateMutability": "nonpayable",
      "type": "function"
    },
    {
      "inputs": [
        {
          "internalType": "address",
          "name": "",
          "type": "address"
        }
      ],
      "name": "lastDepositAt",
      "outputs": [
        {
          "internalType": "uint256",
          "name": "",
          "type": "uint256"
        }
      ],
      "stateMutability": "view",
      "type": "function"
    },
    {
      "inputs": [],
      "name": "lpToken",
      "outputs": [
        {
          "internalType": "contract ILPToken",
          "name": "",
          "type": "address"
        }
      ],
      "stateMutability": "view",
      "type": "function"
    },
    {
      "inputs": [
        {
          "internalType": "address",
          "name": "",
          "type": "address"
        }
      ],
      "name": "maxDeposit",
      "outputs": [
        {
          "internalType": "uint256",
          "name": "",
          "type": "uint256"
        }
      ],
      "stateMutability": "view",
      "type": "function"
    },
    {
      "inputs": [
        {
          "internalType": "address",
          "name": "",
          "type": "address"
        }
      ],
      "name": "maxMint",
      "outputs": [
        {
          "internalType": "uint256",
          "name": "",
          "type": "uint256"
        }
      ],
      "stateMutability": "view",
      "type": "function"
    },
    {
      "inputs": [
        {
          "internalType": "address",
          "name": "owner",
          "type": "address"
        }
      ],
      "name": "maxRedeem",
      "outputs": [
        {
          "internalType": "uint256",
          "name": "",
          "type": "uint256"
        }
      ],
      "stateMutability": "view",
      "type": "function"
    },
    {
      "inputs": [
        {
          "internalType": "address",
          "name": "owner",
          "type": "address"
        }
      ],
      "name": "maxWithdraw",
      "outputs": [
        {
          "internalType": "uint256",
          "name": "",
          "type": "uint256"
        }
      ],
      "stateMutability": "view",
      "type": "function"
    },
    {
      "inputs": [
        {
          "internalType": "uint256",
          "name": "shares",
          "type": "uint256"
        },
        {
          "internalType": "address",
          "name": "receiver",
          "type": "address"
        }
      ],
      "name": "mint",
      "outputs": [
        {
          "internalType": "uint256",
          "name": "",
          "type": "uint256"
        }
      ],
      "stateMutability": "nonpayable",
      "type": "function"
    },
    {
      "inputs": [],
      "name": "name",
      "outputs": [
        {
          "internalType": "string",
          "name": "",
          "type": "string"
        }
      ],
      "stateMutability": "view",
      "type": "function"
    },
    {
      "inputs": [
        {
          "internalType": "uint256",
          "name": "assets",
          "type": "uint256"
        }
      ],
      "name": "previewDeposit",
      "outputs": [
        {
          "internalType": "uint256",
          "name": "",
          "type": "uint256"
        }
      ],
      "stateMutability": "view",
      "type": "function"
    },
    {
      "inputs": [
        {
          "internalType": "uint256",
          "name": "shares",
          "type": "uint256"
        }
      ],
      "name": "previewMint",
      "outputs": [
        {
          "internalType": "uint256",
          "name": "",
          "type": "uint256"
        }
      ],
      "stateMutability": "view",
      "type": "function"
    },
    {
      "inputs": [
        {
          "internalType": "uint256",
          "name": "shares",
          "type": "uint256"
        }
      ],
      "name": "previewRedeem",
      "outputs": [
        {
          "internalType": "uint256",
          "name": "",
          "type": "uint256"
        }
      ],
      "stateMutability": "view",
      "type": "function"
    },
    {
      "inputs": [
        {
          "internalType": "uint256",
          "name": "assets",
          "type": "uint256"
        }
      ],
      "name": "previewWithdraw",
      "outputs": [
        {
          "internalType": "uint256",
          "name": "",
          "type": "uint256"
        }
      ],
      "stateMutability": "view",
      "type": "function"
    },
    {
      "inputs": [
        {
          "internalType": "uint256",
          "name": "shares",
          "type": "uint256"
        },
        {
          "internalType": "address",
          "name": "receiver",
          "type": "address"
        },
        {
          "internalType": "address",
          "name": "owner",
          "type": "address"
        }
      ],
      "name": "redeem",
      "outputs": [
        {
          "internalType": "uint256",
          "name": "",
          "type": "uint256"
        }
      ],
      "stateMutability": "nonpayable",
      "type": "function"
    },
    {
      "inputs": [
        {
          "internalType": "address",
          "name": "_router",
          "type": "address"
        },
        {
          "internalType": "address",
          "name": "_positionBook",
          "type": "address"
        }
      ],
      "name": "register",
      "outputs": [],
      "stateMutability": "nonpayable",
      "type": "function"
    },
    {
      "inputs": [
        {
          "internalType": "bytes32",
          "name": "role",
          "type": "bytes32"
        },
        {
          "internalType": "address",
          "name": "account",
          "type": "address"
        }
      ],
      "name": "renounceRole",
      "outputs": [],
      "stateMutability": "nonpayable",
      "type": "function"
    },
    {
      "inputs": [
        {
          "internalType": "bytes32",
          "name": "role",
          "type": "bytes32"
        },
        {
          "internalType": "address",
          "name": "account",
          "type": "address"
        }
      ],
      "name": "revokeRole",
      "outputs": [],
      "stateMutability": "nonpayable",
      "type": "function"
    },
    {
      "inputs": [
        {
          "internalType": "uint256",
          "name": "_duration",
          "type": "uint256"
        }
      ],
      "name": "setCooldownDuration",
      "outputs": [],
      "stateMutability": "nonpayable",
      "type": "function"
    },
    {
      "inputs": [
        {
          "internalType": "bytes4",
          "name": "interfaceId",
          "type": "bytes4"
        }
      ],
      "name": "supportsInterface",
      "outputs": [
        {
          "internalType": "bool",
          "name": "",
          "type": "bool"
        }
      ],
      "stateMutability": "view",
      "type": "function"
    },
    {
      "inputs": [],
      "name": "symbol",
      "outputs": [
        {
          "internalType": "string",
          "name": "",
          "type": "string"
        }
      ],
      "stateMutability": "view",
      "type": "function"
    },
    {
      "inputs": [],
      "name": "totalAssets",
      "outputs": [
        {
          "internalType": "uint256",
          "name": "",
          "type": "uint256"
        }
      ],
      "stateMutability": "view",
      "type": "function"
    },
    {
      "inputs": [],
      "name": "totalSupply",
      "outputs": [
        {
          "internalType": "uint256",
          "name": "",
          "type": "uint256"
        }
      ],
      "stateMutability": "view",
      "type": "function"
    },
    {
      "inputs": [
        {
          "internalType": "address",
          "name": "to",
          "type": "address"
        },
        {
          "internalType": "uint256",
          "name": "amount",
          "type": "uint256"
        }
      ],
      "name": "transfer",
      "outputs": [
        {
          "internalType": "bool",
          "name": "",
          "type": "bool"
        }
      ],
      "stateMutability": "nonpayable",
      "type": "function"
    },
    {
      "inputs": [
        {
          "internalType": "address",
          "name": "from",
          "type": "address"
        },
        {
          "internalType": "address",
          "name": "to",
          "type": "address"
        },
        {
          "internalType": "uint256",
          "name": "amount",
          "type": "uint256"
        }
      ],
      "name": "transferFrom",
      "outputs": [
        {
          "internalType": "bool",
          "name": "",
          "type": "bool"
        }
      ],
      "stateMutability": "nonpayable",
      "type": "function"
    },
    {
      "inputs": [
        {
          "internalType": "address",
          "name": "to",
          "type": "address"
        },
        {
          "internalType": "uint256",
          "name": "amount",
          "type": "uint256"
        }
      ],
      "name": "transferOutAssets",
      "outputs": [],
      "stateMutability": "nonpayable",
      "type": "function"
    },
    {
      "inputs": [
        {
          "internalType": "uint256",
          "name": "assets",
          "type": "uint256"
        },
        {
          "internalType": "address",
          "name": "receiver",
          "type": "address"
        },
        {
          "internalType": "address",
          "name": "owner",
          "type": "address"
        }
      ],
      "name": "withdraw",
      "outputs": [
        {
          "internalType": "uint256",
          "name": "",
          "type": "uint256"
        }
      ],
      "stateMutability": "nonpayable",
      "type": "function"
    }
  ],
  "bytecode": "0x60c06040523480156200001157600080fd5b5060405162002a9238038062002a9283398101604081905262000034916200035e565b8383838383828260036200004983826200047d565b5060046200005882826200047d565b5050506000806200006f83620000e560201b60201c565b915091508162000094576200008e620001ca60201b62000dce1760201c565b62000096565b805b60ff1660a05250506001600160a01b0316608052620000b7600033620001cf565b5050600880546001600160a01b0319166001600160a01b039290921691909117905550620005819350505050565b60408051600481526024810182526020810180516001600160e01b031663313ce56760e01b17905290516000918291829182916001600160a01b038716916200012e9162000549565b600060405180830381855afa9150503d80600081146200016b576040519150601f19603f3d011682016040523d82523d6000602084013e62000170565b606091505b50915091508180156200018557506020815110155b15620001bd57600081806020019051810190620001a3919062000567565b905060ff8111620001bb576001969095509350505050565b505b5060009485945092505050565b601290565b60008281526005602090815260408083206001600160a01b038516845290915290205460ff16620002705760008281526005602090815260408083206001600160a01b03851684529091529020805460ff191660011790556200022f3390565b6001600160a01b0316816001600160a01b0316837f2f8788117e7eff1d82e926ec794901d17c78024a50270940304540a733656f0d60405160405180910390a45b5050565b80516001600160a01b03811681146200028c57600080fd5b919050565b634e487b7160e01b600052604160045260246000fd5b60005b83811015620002c4578181015183820152602001620002aa565b50506000910152565b600082601f830112620002df57600080fd5b81516001600160401b0380821115620002fc57620002fc62000291565b604051601f8301601f19908116603f0116810190828211818310171562000327576200032762000291565b816040528381528660208588010111156200034157600080fd5b62000354846020830160208901620002a7565b9695505050505050565b600080600080608085870312156200037557600080fd5b620003808562000274565b9350620003906020860162000274565b60408601519093506001600160401b0380821115620003ae57600080fd5b620003bc88838901620002cd565b93506060870151915080821115620003d357600080fd5b50620003e287828801620002cd565b91505092959194509250565b600181811c908216806200040357607f821691505b6020821081036200042457634e487b7160e01b600052602260045260246000fd5b50919050565b601f8211156200047857600081815260208120601f850160051c81016020861015620004535750805b601f850160051c820191505b8181101562000474578281556001016200045f565b5050505b505050565b81516001600160401b0381111562000499576200049962000291565b620004b181620004aa8454620003ee565b846200042a565b602080601f831160018114620004e95760008415620004d05750858301515b600019600386901b1c1916600185901b17855562000474565b600085815260208120601f198616915b828110156200051a57888601518255948401946001909101908401620004f9565b5085821015620005395787850151600019600388901b60f8161c191681555b5050505050600190811b01905550565b600082516200055d818460208701620002a7565b9190910192915050565b6000602082840312156200057a57600080fd5b5051919050565b60805160a0516124e4620005ae60003960006102e601526000818161051d015261079e01526124e46000f3fe608060405234801561001057600080fd5b50600436106101e35760003560e01c806301e1d114146101e857806301ffc9a71461020357806306fdde031461022657806307a2d13a1461023b578063095ea7b31461024e5780630a28a477146102615780630c3b0df21461027457806318160ddd1461028957806323b872dd14610291578063248a9ca3146102a45780632f2ff15d146102b757806330d643b5146102ca578063313ce567146102df578063352693151461031057806336568abe1461031957806338d52e0f1461032c5780633950935114610341578063402d267d146103545780634cdad5061461023b5780635fcbd285146103675780636e553f651461037a57806370a082311461038d57806391d14854146103b657806394bf804d146103c957806395d89b41146103dc578063966be075146103e4578063a217fddf146103f7578063a457c2d7146103ff578063a9059cbb14610412578063aa67735414610425578063b3d7f6b914610438578063b460af941461044b578063ba0876521461045e578063c31295d414610471578063c63d75b614610491578063c6e6f592146104a4578063ce96cb77146104b7578063d547741f146104ca578063d905777e146104dd578063dd62ed3e146104f0578063ef8b30f7146104a4575b600080fd5b6101f0610503565b6040519081526020015b60405180910390f35b610216610211366004612013565b610598565b60405190151581526020016101fa565b61022e6105cf565b6040516101fa919061208d565b6101f06102493660046120a0565b610661565b61021661025c3660046120d5565b61066e565b6101f061026f3660046120a0565b610686565b6102876102823660046120d5565b610693565b005b6002546101f0565b61021661029f3660046120ff565b6106c2565b6101f06102b23660046120a0565b6106e8565b6102876102c536600461213b565b6106fd565b6101f060008051602061248f83398151915281565b60405160ff7f00000000000000000000000000000000000000000000000000000000000000001681526020016101fa565b6101f0600a5481565b61028761032736600461213b565b610719565b61033461079c565b6040516101fa9190612167565b61021661034f3660046120d5565b6107c0565b6101f061036236600461217b565b6107e2565b600854610334906001600160a01b031681565b6101f061038836600461213b565b610800565b6101f061039b36600461217b565b6001600160a01b031660009081526020819052604090205490565b6102166103c436600461213b565b6108b5565b6101f06103d736600461213b565b6108e0565b61022e610927565b6102876103f23660046120a0565b610936565b6101f0600081565b61021661040d3660046120d5565b610947565b6102166104203660046120d5565b6109cd565b610287610433366004612196565b6109db565b6101f06104463660046120a0565b610a15565b6101f06104593660046121c0565b610a22565b6101f061046c3660046121c0565b610b89565b6101f061047f36600461217b565b60096020526000908152604090205481565b6101f061049f36600461217b565b610c82565b6101f06104b23660046120a0565b610c89565b6101f06104c536600461217b565b610c96565b6102876104d836600461213b565b610d15565b6101f06104eb36600461217b565b610d31565b6101f06104fe366004612196565b610da3565b6040516370a0823160e01b81526000906001600160a01b037f000000000000000000000000000000000000000000000000000000000000000016906370a0823190610552903090600401612167565b602060405180830381865afa15801561056f573d6000803e3d6000fd5b505050506040513d601f19601f8201168201806040525081019061059391906121fc565b905090565b60006001600160e01b03198216637965db0b60e01b14806105c957506301ffc9a760e01b6001600160e01b03198316145b92915050565b6060600380546105de90612215565b80601f016020809104026020016040519081016040528092919081815260200182805461060a90612215565b80156106575780601f1061062c57610100808354040283529160200191610657565b820191906000526020600020905b81548152906001019060200180831161063a57829003601f168201915b5050505050905090565b60006105c9826000610dd3565b60003361067c818585610f97565b5060019392505050565b60006105c98260016110bb565b60008051602061248f8339815191526106ab816112e4565b6106bd6106b661079c565b84846112f1565b505050565b6000336106d0858285611347565b6106db8585856113c1565b60019150505b9392505050565b60009081526005602052604090206001015490565b610706826106e8565b61070f816112e4565b6106bd8383611553565b6001600160a01b038116331461078e5760405162461bcd60e51b815260206004820152602f60248201527f416363657373436f6e74726f6c3a2063616e206f6e6c792072656e6f756e636560448201526e103937b632b9903337b91039b2b63360891b60648201526084015b60405180910390fd5b61079882826115d9565b5050565b7f000000000000000000000000000000000000000000000000000000000000000090565b60003361067c8185856107d38383610da3565b6107dd9190612265565b610f97565b60006107ec611640565b6107f75760006105c9565b60001992915050565b600060008051602061248f83398151915261081a816112e4565b6001600160a01b03808416600090815260096020526040812042905560065490916108479187911661165a565b6008546040516340c10f1960e01b81529192506001600160a01b0316906340c10f199061087a9087908590600401612278565b600060405180830381600087803b15801561089457600080fd5b505af11580156108a8573d6000803e3d6000fd5b5092979650505050505050565b60009182526005602090815260408084206001600160a01b0393909316845291905290205460ff1690565b600060008051602061248f8339815191526108fa816112e4565b6001600160a01b0380841660009081526009602052604081204290556006549091610847918791166116cd565b6060600480546105de90612215565b6000610941816112e4565b50600a55565b600033816109558286610da3565b9050838110156109b55760405162461bcd60e51b815260206004820152602560248201527f45524332303a2064656372656173656420616c6c6f77616e63652062656c6f77604482015264207a65726f60d81b6064820152608401610785565b6109c28286868403610f97565b506001949350505050565b60003361067c8185856113c1565b60006109e6816112e4565b50600680546001600160a01b039384166001600160a01b03199182161790915560078054929093169116179055565b60006105c9826001610dd3565b600060008051602061248f833981519152610a3c816112e4565b6001600160a01b0383163214610a645760405162461bcd60e51b815260040161078590612291565b600a546001600160a01b0384166000908152600960205260409020544291610a8b91612265565b1115610aa95760405162461bcd60e51b8152600401610785906122b5565b610ab283610c96565b851115610b015760405162461bcd60e51b815260206004820152601f60248201527f455243343632363a207769746864726177206d6f7265207468616e206d6178006044820152606401610785565b6000610b0c86610686565b9050610b1b338686898561173e565b600854604051632770a7eb60e21b81526001600160a01b0390911690639dc29fac90610b4d9087908590600401612278565b600060405180830381600087803b158015610b6757600080fd5b505af1158015610b7b573d6000803e3d6000fd5b509298975050505050505050565b600060008051602061248f833981519152610ba3816112e4565b6001600160a01b0383163214610bcb5760405162461bcd60e51b815260040161078590612291565b600a546001600160a01b0384166000908152600960205260409020544291610bf291612265565b1115610c105760405162461bcd60e51b8152600401610785906122b5565b610c1983610d31565b851115610c685760405162461bcd60e51b815260206004820152601d60248201527f455243343632363a2072656465656d206d6f7265207468616e206d61780000006044820152606401610785565b6000610c7386610661565b9050610b1b338686848a61173e565b5060001990565b60006105c98260006110bb565b6008546040516370a0823160e01b81526000916105c9916001600160a01b03909116906370a0823190610ccd908690600401612167565b602060405180830381865afa158015610cea573d6000803e3d6000fd5b505050506040513d601f19601f82011682018060405250810190610d0e91906121fc565b6000610dd3565b610d1e826106e8565b610d27816112e4565b6106bd83836115d9565b6008546040516370a0823160e01b81526000916001600160a01b0316906370a0823190610d62908590600401612167565b602060405180830381865afa158015610d7f573d6000803e3d6000fd5b505050506040513d601f19601f820116820180604052508101906105c991906121fc565b6001600160a01b03918216600090815260016020908152604080832093909416825291909152205490565b601290565b600080610ddf60025490565b905080600003610df357835b9150506105c9565b60075460408051636f2a14c560e01b815290516000926001600160a01b031691636f2a14c59160048083019260209291908290030181865afa158015610e3d573d6000803e3d6000fd5b505050506040513d601f19601f82011682018060405250810190610e6191906121fc565b90506000808213610efb57610e75826122ea565b600660009054906101000a90046001600160a01b03166001600160a01b031663c12010546040518163ffffffff1660e01b8152600401602060405180830381865afa158015610ec8573d6000803e3d6000fd5b505050506040513d601f19601f82011682018060405250810190610eec91906121fc565b610ef69190612306565b610f72565b60065460408051633048041560e21b8152905184926001600160a01b03169163c12010549160048083019260209291908290030181865afa158015610f44573d6000803e3d6000fd5b505050506040513d601f19601f82011682018060405250810190610f6891906121fc565b610f729190612265565b905060008111610f8157600080fd5b610f8d868483886117c1565b9695505050505050565b6001600160a01b038316610ff95760405162461bcd60e51b8152602060048201526024808201527f45524332303a20617070726f76652066726f6d20746865207a65726f206164646044820152637265737360e01b6064820152608401610785565b6001600160a01b03821661105a5760405162461bcd60e51b815260206004820152602260248201527f45524332303a20617070726f766520746f20746865207a65726f206164647265604482015261737360f01b6064820152608401610785565b6001600160a01b0383811660008181526001602090815260408083209487168084529482529182902085905590518481527f8c5be1e5ebec7d5bd14f71427d1e84f3dd0314c0f7b2291e5b200ac8c7c3b925910160405180910390a3505050565b6000826000036110cd575060006105c9565b60006110d860025490565b9050806000036110e85783610deb565b60075460408051636f2a14c560e01b815290516000926001600160a01b031691636f2a14c59160048083019260209291908290030181865afa158015611132573d6000803e3d6000fd5b505050506040513d601f19601f8201168201806040525081019061115691906121fc565b905060008082136111f05761116a826122ea565b600660009054906101000a90046001600160a01b03166001600160a01b031663c12010546040518163ffffffff1660e01b8152600401602060405180830381865afa1580156111bd573d6000803e3d6000fd5b505050506040513d601f19601f820116820180604052508101906111e191906121fc565b6111eb9190612306565b611267565b60065460408051633048041560e21b8152905184926001600160a01b03169163c12010549160048083019260209291908290030181865afa158015611239573d6000803e3d6000fd5b505050506040513d601f19601f8201168201806040525081019061125d91906121fc565b6112679190612265565b9050600081116112a45760405162461bcd60e51b8152602060048201526008602482015267061756d203c3d20360c41b6044820152606401610785565b6112af868285611820565b93506112db60405180604001604052806008815260200167039b430b932b99d160c51b815250856118cf565b50505092915050565b6112ee8133611914565b50565b6106bd8363a9059cbb60e01b8484604051602401611310929190612278565b60408051601f198184030181529190526020810180516001600160e01b03166001600160e01b03199093169290921790915261196d565b60006113538484610da3565b905060001981146113bb57818110156113ae5760405162461bcd60e51b815260206004820152601d60248201527f45524332303a20696e73756666696369656e7420616c6c6f77616e63650000006044820152606401610785565b6113bb8484848403610f97565b50505050565b6001600160a01b0383166114255760405162461bcd60e51b815260206004820152602560248201527f45524332303a207472616e736665722066726f6d20746865207a65726f206164604482015264647265737360d81b6064820152608401610785565b6001600160a01b0382166114875760405162461bcd60e51b815260206004820152602360248201527f45524332303a207472616e7366657220746f20746865207a65726f206164647260448201526265737360e81b6064820152608401610785565b6001600160a01b038316600090815260208190526040902054818110156114ff5760405162461bcd60e51b815260206004820152602660248201527f45524332303a207472616e7366657220616d6f756e7420657863656564732062604482015265616c616e636560d01b6064820152608401610785565b6001600160a01b038481166000818152602081815260408083208787039055938716808352918490208054870190559251858152909260008051602061246f833981519152910160405180910390a36113bb565b61155d82826108b5565b6107985760008281526005602090815260408083206001600160a01b03851684529091529020805460ff191660011790556115953390565b6001600160a01b0316816001600160a01b0316837f2f8788117e7eff1d82e926ec794901d17c78024a50270940304540a733656f0d60405160405180910390a45050565b6115e382826108b5565b156107985760008281526005602090815260408083206001600160a01b0385168085529252808320805460ff1916905551339285917ff6391f5c32d9c69d2a47ea670b442974b53935d1edc7fd64eb21e047a839171b9190a45050565b60008061164b610503565b11806105935750506002541590565b6000611665826107e2565b8311156116b45760405162461bcd60e51b815260206004820152601e60248201527f455243343632363a206465706f736974206d6f7265207468616e206d617800006044820152606401610785565b60006116bf84610c89565b90506106e133848684611a3f565b60006116d882610c82565b8311156117255760405162461bcd60e51b815260206004820152601b60248201527a08aa486686c646c7440dad2dce840dadee4ca40e8d0c2dc40dac2f602b1b6044820152606401610785565b600061173084610a15565b90506106e133848387611a3f565b6117488582611ab8565b61175a61175361079c565b85846112f1565b826001600160a01b0316846001600160a01b0316866001600160a01b03167ffbde797d201c681b91056529119e0b02407c7bb96a4a2c75c01fc9667232c8db85856040516117b2929190918252602082015260400190565b60405180910390a45050505050565b6000806117cf868686611820565b905060018360028111156117e5576117e5612319565b1480156118025750600084806117fd576117fd61232f565b868809115b1561181557611812600182612265565b90505b90505b949350505050565b600080806000198587098587029250828110838203039150508060000361185a578382816118505761185061232f565b04925050506106e1565b80841161186657600080fd5b60008486880960026001871981018816978890046003810283188082028403028082028403028082028403028082028403028082028403029081029092039091026000889003889004909101858311909403939093029303949094049190911702949350505050565b61079882826040516024016118e5929190612345565b60408051601f198184030181529190526020810180516001600160e01b0316632d839cb360e21b179052611bd8565b61191e82826108b5565b6107985761192b81611bf9565b611936836020611c0b565b604051602001611947929190612367565b60408051601f198184030181529082905262461bcd60e51b82526107859160040161208d565b60006119c2826040518060400160405280602081526020017f5361666545524332303a206c6f772d6c6576656c2063616c6c206661696c6564815250856001600160a01b0316611da69092919063ffffffff16565b8051909150156106bd57808060200190518101906119e091906123d6565b6106bd5760405162461bcd60e51b815260206004820152602a60248201527f5361666545524332303a204552433230206f7065726174696f6e20646964206e6044820152691bdd081cdd58d8d9595960b21b6064820152608401610785565b611a52611a4a61079c565b853085611db5565b611a5c8382611ded565b826001600160a01b0316846001600160a01b03167fdcbc1c05240f31ff3ad067ef1ee35ce4997762752e3a095284754544f4c709d78484604051611aaa929190918252602082015260400190565b60405180910390a350505050565b6001600160a01b038216611b185760405162461bcd60e51b815260206004820152602160248201527f45524332303a206275726e2066726f6d20746865207a65726f206164647265736044820152607360f81b6064820152608401610785565b6001600160a01b03821660009081526020819052604090205481811015611b8c5760405162461bcd60e51b815260206004820152602260248201527f45524332303a206275726e20616d6f756e7420657863656564732062616c616e604482015261636560f01b6064820152608401610785565b6001600160a01b03831660008181526020818152604080832086860390556002805487900390555185815291929160008051602061246f833981519152910160405180910390a3505050565b80516a636f6e736f6c652e6c6f67602083016000808483855afa5050505050565b60606105c96001600160a01b03831660145b60606000611c1a8360026123f8565b611c25906002612265565b6001600160401b03811115611c3c57611c3c61240f565b6040519080825280601f01601f191660200182016040528015611c66576020820181803683370190505b509050600360fc1b81600081518110611c8157611c81612425565b60200101906001600160f81b031916908160001a905350600f60fb1b81600181518110611cb057611cb0612425565b60200101906001600160f81b031916908160001a9053506000611cd48460026123f8565b611cdf906001612265565b90505b6001811115611d57576f181899199a1a9b1b9c1cb0b131b232b360811b85600f1660108110611d1357611d13612425565b1a60f81b828281518110611d2957611d29612425565b60200101906001600160f81b031916908160001a90535060049490941c93611d508161243b565b9050611ce2565b5083156106e15760405162461bcd60e51b815260206004820181905260248201527f537472696e67733a20686578206c656e67746820696e73756666696369656e746044820152606401610785565b60606118188484600085611e9a565b6040516001600160a01b03808516602483015283166044820152606481018290526113bb9085906323b872dd60e01b90608401611310565b6001600160a01b038216611e435760405162461bcd60e51b815260206004820152601f60248201527f45524332303a206d696e7420746f20746865207a65726f2061646472657373006044820152606401610785565b8060026000828254611e559190612265565b90915550506001600160a01b0382166000818152602081815260408083208054860190555184815260008051602061246f833981519152910160405180910390a35050565b606082471015611efb5760405162461bcd60e51b815260206004820152602660248201527f416464726573733a20696e73756666696369656e742062616c616e636520666f6044820152651c8818d85b1b60d21b6064820152608401610785565b600080866001600160a01b03168587604051611f179190612452565b60006040518083038185875af1925050503d8060008114611f54576040519150601f19603f3d011682016040523d82523d6000602084013e611f59565b606091505b5091509150611f6a87838387611f75565b979650505050505050565b60608315611fe4578251600003611fdd576001600160a01b0385163b611fdd5760405162461bcd60e51b815260206004820152601d60248201527f416464726573733a2063616c6c20746f206e6f6e2d636f6e74726163740000006044820152606401610785565b5081611818565b6118188383815115611ff95781518083602001fd5b8060405162461bcd60e51b8152600401610785919061208d565b60006020828403121561202557600080fd5b81356001600160e01b0319811681146106e157600080fd5b60005b83811015612058578181015183820152602001612040565b50506000910152565b6000815180845261207981602086016020860161203d565b601f01601f19169290920160200192915050565b6020815260006106e16020830184612061565b6000602082840312156120b257600080fd5b5035919050565b80356001600160a01b03811681146120d057600080fd5b919050565b600080604083850312156120e857600080fd5b6120f1836120b9565b946020939093013593505050565b60008060006060848603121561211457600080fd5b61211d846120b9565b925061212b602085016120b9565b9150604084013590509250925092565b6000806040838503121561214e57600080fd5b8235915061215e602084016120b9565b90509250929050565b6001600160a01b0391909116815260200190565b60006020828403121561218d57600080fd5b6106e1826120b9565b600080604083850312156121a957600080fd5b6121b2836120b9565b915061215e602084016120b9565b6000806000606084860312156121d557600080fd5b833592506121e5602085016120b9565b91506121f3604085016120b9565b90509250925092565b60006020828403121561220e57600080fd5b5051919050565b600181811c9082168061222957607f821691505b60208210810361224957634e487b7160e01b600052602260045260246000fd5b50919050565b634e487b7160e01b600052601160045260246000fd5b808201808211156105c9576105c961224f565b6001600160a01b03929092168252602082015260400190565b6020808252600a908201526937b7363c9037bbb732b960b11b604082015260600190565b6020808252818101527f636f6f6c646f776e206475726174696f6e206e6f742079657420706173736564604082015260600190565b6000600160ff1b82016122ff576122ff61224f565b5060000390565b818103818111156105c9576105c961224f565b634e487b7160e01b600052602160045260246000fd5b634e487b7160e01b600052601260045260246000fd5b6040815260006123586040830185612061565b90508260208301529392505050565b76020b1b1b2b9b9a1b7b73a3937b61d1030b1b1b7bab73a1604d1b81526000835161239981601785016020880161203d565b7001034b99036b4b9b9b4b733903937b6329607d1b60179184019182015283516123ca81602884016020880161203d565b01602801949350505050565b6000602082840312156123e857600080fd5b815180151581146106e157600080fd5b80820281158282048414176105c9576105c961224f565b634e487b7160e01b600052604160045260246000fd5b634e487b7160e01b600052603260045260246000fd5b60008161244a5761244a61224f565b506000190190565b6000825161246481846020870161203d565b919091019291505056feddf252ad1be2c89b69c2b068fc378daa952ba7f163c4a11628f55a4df523b3ef7a05a596cb0ce7fdea8a1e1ec73be300bdb35097c944ce1897202f7a13122eb2a264697066735822122049621143230e6ec07ea7bcccbc4849c54d9783d594dcfa50f513743d6aefab6c64736f6c63430008110033",
  "linkReferences": {},
  "deployedLinkReferences": {}
}