{
  "_format": "hh-sol-artifact-1",
  "contractName": "ERC4626Router",
  "sourceName": "contracts/vault/ERC4626Router.sol",
  "abi": [
    {
      "inputs": [],
      "stateMutability": "nonpayable",
      "type": "constructor"
    },
    {
      "inputs": [],
      "name": "MaxAmountError",
      "type": "error"
    },
    {
      "inputs": [],
      "name": "MaxSharesError",
      "type": "error"
    },
    {
      "inputs": [],
      "name": "MinAmountError",
      "type": "error"
    },
    {
      "inputs": [],
      "name": "MinSharesError",
      "type": "error"
    },
    {
      "inputs": [],
      "name": "registerInternalVaultError",
      "type": "error"
    },
    {
      "inputs": [],
      "name": "unregisterInternalVaultError",
      "type": "error"
    },
    {
      "anonymous": false,
      "inputs": [
        {
          "indexed": true,
          "internalType": "bytes32",
          "name": "role",
          "type": "bytes32"
        },
        {
          "indexed": true,
          "internalType": "bytes32",
          "name": "previousAdminRole",
          "type": "bytes32"
        },
        {
          "indexed": true,
          "internalType": "bytes32",
          "name": "newAdminRole",
          "type": "bytes32"
        }
      ],
      "name": "RoleAdminChanged",
      "type": "event"
    },
    {
      "anonymous": false,
      "inputs": [
        {
          "indexed": true,
          "internalType": "bytes32",
          "name": "role",
          "type": "bytes32"
        },
        {
          "indexed": true,
          "internalType": "address",
          "name": "account",
          "type": "address"
        },
        {
          "indexed": true,
          "internalType": "address",
          "name": "sender",
          "type": "address"
        }
      ],
      "name": "RoleGranted",
      "type": "event"
    },
    {
      "anonymous": false,
      "inputs": [
        {
          "indexed": true,
          "internalType": "bytes32",
          "name": "role",
          "type": "bytes32"
        },
        {
          "indexed": true,
          "internalType": "address",
          "name": "account",
          "type": "address"
        },
        {
          "indexed": true,
          "internalType": "address",
          "name": "sender",
          "type": "address"
        }
      ],
      "name": "RoleRevoked",
      "type": "event"
    },
    {
      "inputs": [],
      "name": "DEFAULT_ADMIN_ROLE",
      "outputs": [
        {
          "internalType": "bytes32",
          "name": "",
          "type": "bytes32"
        }
      ],
      "stateMutability": "view",
      "type": "function"
    },
    {
      "inputs": [],
      "name": "MARKET_ROLE",
      "outputs": [
        {
          "internalType": "bytes32",
          "name": "",
          "type": "bytes32"
        }
      ],
      "stateMutability": "view",
      "type": "function"
    },
    {
      "inputs": [],
      "name": "POSITIONBOOK_ROLE",
      "outputs": [
        {
          "internalType": "bytes32",
          "name": "",
          "type": "bytes32"
        }
      ],
      "stateMutability": "view",
      "type": "function"
    },
    {
      "inputs": [],
      "name": "VAULT_ROLE",
      "outputs": [
        {
          "internalType": "bytes32",
          "name": "",
          "type": "bytes32"
        }
      ],
      "stateMutability": "view",
      "type": "function"
    },
    {
      "inputs": [
        {
          "internalType": "address",
          "name": "market",
          "type": "address"
        },
        {
          "internalType": "uint256",
          "name": "amount",
          "type": "uint256"
        }
      ],
      "name": "borrowFromVault",
      "outputs": [],
      "stateMutability": "nonpayable",
      "type": "function"
    },
    {
      "inputs": [],
      "name": "calimLPReward",
      "outputs": [
        {
          "internalType": "uint256",
          "name": "",
          "type": "uint256"
        }
      ],
      "stateMutability": "nonpayable",
      "type": "function"
    },
    {
      "inputs": [],
      "name": "coreVault",
      "outputs": [
        {
          "internalType": "contract BaseVault",
          "name": "",
          "type": "address"
        }
      ],
      "stateMutability": "view",
      "type": "function"
    },
    {
      "inputs": [
        {
          "internalType": "contract IERC4626",
          "name": "vault",
          "type": "address"
        },
        {
          "internalType": "address",
          "name": "to",
          "type": "address"
        },
        {
          "internalType": "uint256",
          "name": "amount",
          "type": "uint256"
        },
        {
          "internalType": "uint256",
          "name": "minSharesOut",
          "type": "uint256"
        }
      ],
      "name": "deposit",
      "outputs": [
        {
          "internalType": "uint256",
          "name": "sharesOut",
          "type": "uint256"
        }
      ],
      "stateMutability": "payable",
      "type": "function"
    },
    {
      "inputs": [
        {
          "internalType": "contract IERC4626",
          "name": "vault",
          "type": "address"
        },
        {
          "internalType": "address",
          "name": "to",
          "type": "address"
        },
        {
          "internalType": "uint256",
          "name": "minSharesOut",
          "type": "uint256"
        }
      ],
      "name": "depositMax",
      "outputs": [
        {
          "internalType": "uint256",
          "name": "sharesOut",
          "type": "uint256"
        }
      ],
      "stateMutability": "payable",
      "type": "function"
    },
    {
      "inputs": [
        {
          "internalType": "contract IERC4626",
          "name": "vault",
          "type": "address"
        },
        {
          "internalType": "address",
          "name": "to",
          "type": "address"
        },
        {
          "internalType": "uint256",
          "name": "amount",
          "type": "uint256"
        },
        {
          "internalType": "uint256",
          "name": "minSharesOut",
          "type": "uint256"
        }
      ],
      "name": "depositToVault",
      "outputs": [
        {
          "internalType": "uint256",
          "name": "sharesOut",
          "type": "uint256"
        }
      ],
      "stateMutability": "payable",
      "type": "function"
    },
    {
      "inputs": [
        {
          "internalType": "address",
          "name": "",
          "type": "address"
        }
      ],
      "name": "fundsUsed",
      "outputs": [
        {
          "internalType": "uint256",
          "name": "",
          "type": "uint256"
        }
      ],
      "stateMutability": "view",
      "type": "function"
    },
    {
      "inputs": [],
      "name": "getAPR",
      "outputs": [
        {
          "internalType": "uint256",
          "name": "",
          "type": "uint256"
        }
      ],
      "stateMutability": "view",
      "type": "function"
    },
    {
      "inputs": [],
      "name": "getAUM",
      "outputs": [
        {
          "internalType": "uint256",
          "name": "",
          "type": "uint256"
        }
      ],
      "stateMutability": "view",
      "type": "function"
    },
    {
      "inputs": [],
      "name": "getLPFeeRate",
      "outputs": [
        {
          "internalType": "uint256",
          "name": "",
          "type": "uint256"
        }
      ],
      "stateMutability": "nonpayable",
      "type": "function"
    },
    {
      "inputs": [],
      "name": "getLPPrice",
      "outputs": [
        {
          "internalType": "uint256",
          "name": "",
          "type": "uint256"
        }
      ],
      "stateMutability": "view",
      "type": "function"
    },
    {
      "inputs": [],
      "name": "getLPReward",
      "outputs": [
        {
          "internalType": "uint256",
          "name": "",
          "type": "uint256"
        }
      ],
      "stateMutability": "view",
      "type": "function"
    },
    {
      "inputs": [
        {
          "internalType": "bytes32",
          "name": "role",
          "type": "bytes32"
        }
      ],
      "name": "getRoleAdmin",
      "outputs": [
        {
          "internalType": "bytes32",
          "name": "",
          "type": "bytes32"
        }
      ],
      "stateMutability": "view",
      "type": "function"
    },
    {
      "inputs": [],
      "name": "getUSDBalance",
      "outputs": [
        {
          "internalType": "uint256",
          "name": "",
          "type": "uint256"
        }
      ],
      "stateMutability": "view",
      "type": "function"
    },
    {
      "inputs": [
        {
          "internalType": "bytes32",
          "name": "role",
          "type": "bytes32"
        },
        {
          "internalType": "address",
          "name": "account",
          "type": "address"
        }
      ],
      "name": "grantRole",
      "outputs": [],
      "stateMutability": "nonpayable",
      "type": "function"
    },
    {
      "inputs": [
        {
          "internalType": "bytes32",
          "name": "role",
          "type": "bytes32"
        },
        {
          "internalType": "address",
          "name": "account",
          "type": "address"
        }
      ],
      "name": "hasRole",
      "outputs": [
        {
          "internalType": "bool",
          "name": "",
          "type": "bool"
        }
      ],
      "stateMutability": "view",
      "type": "function"
    },
    {
      "inputs": [
        {
          "internalType": "address",
          "name": "_lptoken",
          "type": "address"
        },
        {
          "internalType": "address",
          "name": "_positionBook",
          "type": "address"
        },
        {
          "internalType": "address",
          "name": "_coreVault",
          "type": "address"
        }
      ],
      "name": "initialize",
      "outputs": [],
      "stateMutability": "nonpayable",
      "type": "function"
    },
    {
      "inputs": [],
      "name": "liquidationProportionRatio",
      "outputs": [
        {
          "internalType": "uint256",
          "name": "",
          "type": "uint256"
        }
      ],
      "stateMutability": "view",
      "type": "function"
    },
    {
      "inputs": [],
      "name": "lpToken",
      "outputs": [
        {
          "internalType": "contract LPToken",
          "name": "",
          "type": "address"
        }
      ],
      "stateMutability": "view",
      "type": "function"
    },
    {
      "inputs": [
        {
          "internalType": "contract IERC4626",
          "name": "vault",
          "type": "address"
        },
        {
          "internalType": "address",
          "name": "to",
          "type": "address"
        },
        {
          "internalType": "uint256",
          "name": "shares",
          "type": "uint256"
        },
        {
          "internalType": "uint256",
          "name": "maxAmountIn",
          "type": "uint256"
        }
      ],
      "name": "mint",
      "outputs": [
        {
          "internalType": "uint256",
          "name": "amountIn",
          "type": "uint256"
        }
      ],
      "stateMutability": "payable",
      "type": "function"
    },
    {
      "inputs": [],
      "name": "pendingRewards",
      "outputs": [
        {
          "internalType": "uint256",
          "name": "",
          "type": "uint256"
        }
      ],
      "stateMutability": "view",
      "type": "function"
    },
    {
      "inputs": [],
      "name": "positionBook",
      "outputs": [
        {
          "internalType": "contract IPositionBook",
          "name": "",
          "type": "address"
        }
      ],
      "stateMutability": "view",
      "type": "function"
    },
    {
      "inputs": [],
      "name": "priceDecimals",
      "outputs": [
        {
          "internalType": "uint256",
          "name": "",
          "type": "uint256"
        }
      ],
      "stateMutability": "view",
      "type": "function"
    },
    {
      "inputs": [
        {
          "internalType": "contract IERC4626",
          "name": "vault",
          "type": "address"
        },
        {
          "internalType": "address",
          "name": "to",
          "type": "address"
        },
        {
          "internalType": "uint256",
          "name": "shares",
          "type": "uint256"
        },
        {
          "internalType": "uint256",
          "name": "minAmountOut",
          "type": "uint256"
        }
      ],
      "name": "redeem",
      "outputs": [
        {
          "internalType": "uint256",
          "name": "amountOut",
          "type": "uint256"
        }
      ],
      "stateMutability": "payable",
      "type": "function"
    },
    {
      "inputs": [
        {
          "internalType": "contract IERC4626",
          "name": "vault",
          "type": "address"
        },
        {
          "internalType": "address",
          "name": "to",
          "type": "address"
        },
        {
          "internalType": "uint256",
          "name": "minAmountOut",
          "type": "uint256"
        }
      ],
      "name": "redeemMax",
      "outputs": [
        {
          "internalType": "uint256",
          "name": "amountOut",
          "type": "uint256"
        }
      ],
      "stateMutability": "payable",
      "type": "function"
    },
    {
      "inputs": [
        {
          "internalType": "contract IERC4626",
          "name": "fromVault",
          "type": "address"
        },
        {
          "internalType": "contract IERC4626",
          "name": "toVault",
          "type": "address"
        },
        {
          "internalType": "address",
          "name": "to",
          "type": "address"
        },
        {
          "internalType": "uint256",
          "name": "shares",
          "type": "uint256"
        },
        {
          "internalType": "uint256",
          "name": "minSharesOut",
          "type": "uint256"
        }
      ],
      "name": "redeemToDeposit",
      "outputs": [
        {
          "internalType": "uint256",
          "name": "sharesOut",
          "type": "uint256"
        }
      ],
      "stateMutability": "payable",
      "type": "function"
    },
    {
      "inputs": [
        {
          "internalType": "bytes32",
          "name": "role",
          "type": "bytes32"
        },
        {
          "internalType": "address",
          "name": "account",
          "type": "address"
        }
      ],
      "name": "renounceRole",
      "outputs": [],
      "stateMutability": "nonpayable",
      "type": "function"
    },
    {
      "inputs": [
        {
          "internalType": "address",
          "name": "market",
          "type": "address"
        },
        {
          "internalType": "uint256",
          "name": "amount",
          "type": "uint256"
        }
      ],
      "name": "repayToVault",
      "outputs": [],
      "stateMutability": "nonpayable",
      "type": "function"
    },
    {
      "inputs": [
        {
          "internalType": "bytes32",
          "name": "role",
          "type": "bytes32"
        },
        {
          "internalType": "address",
          "name": "account",
          "type": "address"
        }
      ],
      "name": "revokeRole",
      "outputs": [],
      "stateMutability": "nonpayable",
      "type": "function"
    },
    {
      "inputs": [
        {
          "internalType": "bytes4",
          "name": "interfaceId",
          "type": "bytes4"
        }
      ],
      "name": "supportsInterface",
      "outputs": [
        {
          "internalType": "bool",
          "name": "",
          "type": "bool"
        }
      ],
      "stateMutability": "view",
      "type": "function"
    },
    {
      "inputs": [],
      "name": "totalFundsUsed",
      "outputs": [
        {
          "internalType": "uint256",
          "name": "",
          "type": "uint256"
        }
      ],
      "stateMutability": "view",
      "type": "function"
    },
    {
      "inputs": [
        {
          "internalType": "address",
          "name": "to",
          "type": "address"
        },
        {
          "internalType": "uint256",
          "name": "amount",
          "type": "uint256"
        }
      ],
      "name": "transferFromVault",
      "outputs": [],
      "stateMutability": "nonpayable",
      "type": "function"
    },
    {
      "inputs": [
        {
          "internalType": "address",
          "name": "account",
          "type": "address"
        },
        {
          "internalType": "uint256",
          "name": "amount",
          "type": "uint256"
        }
      ],
      "name": "transferToVault",
      "outputs": [],
      "stateMutability": "nonpayable",
      "type": "function"
    },
    {
      "inputs": [
        {
          "internalType": "contract IERC4626",
          "name": "vault",
          "type": "address"
        },
        {
          "internalType": "address",
          "name": "to",
          "type": "address"
        },
        {
          "internalType": "uint256",
          "name": "amount",
          "type": "uint256"
        },
        {
          "internalType": "uint256",
          "name": "maxSharesOut",
          "type": "uint256"
        }
      ],
      "name": "withdraw",
      "outputs": [
        {
          "internalType": "uint256",
          "name": "sharesOut",
          "type": "uint256"
        }
      ],
      "stateMutability": "payable",
      "type": "function"
    },
    {
      "inputs": [
        {
          "internalType": "contract IERC4626",
          "name": "fromVault",
          "type": "address"
        },
        {
          "internalType": "contract IERC4626",
          "name": "toVault",
          "type": "address"
        },
        {
          "internalType": "address",
          "name": "to",
          "type": "address"
        },
        {
          "internalType": "uint256",
          "name": "amount",
          "type": "uint256"
        },
        {
          "internalType": "uint256",
          "name": "maxSharesIn",
          "type": "uint256"
        },
        {
          "internalType": "uint256",
          "name": "minSharesOut",
          "type": "uint256"
        }
      ],
      "name": "withdrawToDeposit",
      "outputs": [
        {
          "internalType": "uint256",
          "name": "sharesOut",
          "type": "uint256"
        }
      ],
      "stateMutability": "payable",
      "type": "function"
    }
  ],
  "bytecode": "0x60806040526005600455600860055534801561001a57600080fd5b5061002660003361002b565b6100ca565b6000828152602081815260408083206001600160a01b038516845290915290205460ff166100c6576000828152602081815260408083206001600160a01b03851684529091529020805460ff191660011790556100853390565b6001600160a01b0316816001600160a01b0316837f2f8788117e7eff1d82e926ec794901d17c78024a50270940304540a733656f0d60405160405180910390a45b5050565b6120e180620000da6000396000f3fe6080604052600436106101c05760003560e01c806301ffc9a7146101c557806305300b28146101fa57806311a2ad491461021e578063186d013e1461023457806320e8c56514610249578063248a9ca31461025c5780632b8a00121461027c5780632c7550c3146102a95780632f2ff15d146102cb57806336568abe146102eb5780633d0767cd1461030b5780633e27ec9b1461031f5780634be47418146103535780635fcbd28514610366578063674ce1b5146103935780636dc7b0a1146103b35780637bfe950c146103c857806389a71faa146103db5780638f089d651461030b57806390f328c9146103fb57806391d148541461040e57806398c4f1ac1461042e578063a217fddf14610462578063a246bd3014610477578063aa7c91441461048a578063ac0b05a6146104be578063b01a9aba146104de578063b3f1c93d146104f4578063b592e40614610507578063b77905ae1461051a578063c0c53b8b1461052f578063c12010541461054f578063c89d5b8b14610564578063d547741f14610579578063da8ddc7414610599578063ed01c6e5146105b9578063eded3fda1461030b578063f943028c146105cc578063fce0e5ae146105df575b600080fd5b3480156101d157600080fd5b506101e56101e0366004611ab1565b6105ff565b60405190151581526020015b60405180910390f35b34801561020657600080fd5b5061021060055481565b6040519081526020016101f1565b34801561022a57600080fd5b5061021060065481565b34801561024057600080fd5b50610210610636565b610210610257366004611af0565b610658565b34801561026857600080fd5b50610210610277366004611b36565b61086e565b34801561028857600080fd5b50610210610297366004611b4f565b60076020526000908152604090205481565b3480156102b557600080fd5b506102c96102c4366004611b6c565b610883565b005b3480156102d757600080fd5b506102c96102e6366004611b98565b610893565b3480156102f757600080fd5b506102c9610306366004611b98565b6108b4565b34801561031757600080fd5b506064610210565b34801561032b57600080fd5b506102107f395f08be531c0d7403cba7c5ffd2b57329184452bcebcd6a48299ebbbf39db6f81565b610210610361366004611af0565b610933565b34801561037257600080fd5b50600354610386906001600160a01b031681565b6040516101f19190611bc8565b34801561039f57600080fd5b50600154610386906001600160a01b031681565b3480156103bf57600080fd5b506102106109cc565b6102106103d6366004611af0565b610af0565b3480156103e757600080fd5b506102c96103f6366004611b6c565b610b88565b610210610409366004611bdc565b610c0b565b34801561041a57600080fd5b506101e5610429366004611b98565b610c34565b34801561043a57600080fd5b506102107f31e0210044b4f6757ce6aa31f9c6e8d4896d24a755014887391a926c5224d95981565b34801561046e57600080fd5b50610210600081565b610210610485366004611c37565b610c5d565b34801561049657600080fd5b506102107f046df66692fdf3d717ef1cc7ad9de107663d4badf5354321d09c390828eb62a481565b3480156104ca57600080fd5b50600254610386906001600160a01b031681565b3480156104ea57600080fd5b5061021060045481565b610210610502366004611af0565b610d5f565b610210610515366004611c78565b610fc3565b34801561052657600080fd5b50610210610fde565b34801561053b57600080fd5b506102c961054a366004611cdd565b6110b8565b34801561055b57600080fd5b50610210611103565b34801561057057600080fd5b50610210611170565b34801561058557600080fd5b506102c9610594366004611b98565b61118c565b3480156105a557600080fd5b506102c96105b4366004611b6c565b6111a8565b6102106105c7366004611c37565b611210565b6102106105da366004611af0565b611384565b3480156105eb57600080fd5b506102c96105fa366004611b6c565b61139b565b60006001600160e01b03198216637965db0b60e01b148061063057506301ffc9a760e01b6001600160e01b03198316145b92915050565b60006064600554600a6106499190611e22565b6106539190611e2e565b905090565b60006106c7856001600160a01b03166338d52e0f6040518163ffffffff1660e01b8152600401602060405180830381865afa15801561069b573d6000803e3d6000fd5b505050506040513d601f19601f820116820180604052508101906106bf9190611e50565b3330866113a7565b846001600160a01b03166338d52e0f6040518163ffffffff1660e01b8152600401602060405180830381865afa158015610705573d6000803e3d6000fd5b505050506040513d601f19601f820116820180604052508101906107299190611e50565b6001600160a01b031663095ea7b386856040518363ffffffff1660e01b8152600401610756929190611e6d565b6020604051808303816000875af1158015610775573d6000803e3d6000fd5b505050506040513d601f19601f820116820180604052508101906107999190611e86565b506107d1604051806040016040528060158152602001744945524334363236526f757465724261736520746f60581b81525085611407565b604051636e553f6560e01b815282906001600160a01b03871690636e553f65906108019087908990600401611ea8565b6020604051808303816000875af1158015610820573d6000803e3d6000fd5b505050506040513d601f19601f820116820180604052508101906108449190611ebf565b9150811015610866576040516305133e6360e51b815260040160405180910390fd5b949350505050565b60009081526020819052604090206001015490565b61088f8282600061144c565b5050565b61089c8261086e565b6108a58161154a565b6108af8383611557565b505050565b6001600160a01b03811633146109295760405162461bcd60e51b815260206004820152602f60248201527f416363657373436f6e74726f6c3a2063616e206f6e6c792072656e6f756e636560448201526e103937b632b9903337b91039b2b63360891b60648201526084015b60405180910390fd5b61088f82826115db565b604051635d043b2960e11b81526000906001600160a01b0386169063ba0876529061096690869088903390600401611ed8565b6020604051808303816000875af1158015610985573d6000803e3d6000fd5b505050506040513d601f19601f820116820180604052508101906109a99190611ebf565b90508181101561086657604051636e8c873b60e01b815260040160405180910390fd5b600080600260009054906101000a90046001600160a01b03166001600160a01b0316636f2a14c56040518163ffffffff1660e01b8152600401602060405180830381865afa158015610a22573d6000803e3d6000fd5b505050506040513d601f19601f82011682018060405250810190610a469190611ebf565b90506000610a52611103565b9050600080831315610a6f57610a688383611ef7565b9050610ae9565b610a7883611f0a565b6007610a8584600a611f26565b610a8f9190611e2e565b11610ad35760405162461bcd60e51b81526020600482015260146024820152731b195cdcc81d1a185b880dcc081c195c98d95b9d60621b6044820152606401610920565b610adc83611f0a565b610ae69083611f3d565b90505b9392505050565b6000816001600160a01b03861663b460af948587336040518463ffffffff1660e01b8152600401610b2393929190611ed8565b6020604051808303816000875af1158015610b42573d6000803e3d6000fd5b505050506040513d601f19601f82011682018060405250810190610b669190611ebf565b91508111156108665760405163ac11961360e01b815260040160405180910390fd5b600154604080516338d52e0f60e01b8152905161088f926001600160a01b0316916338d52e0f9160048083019260209291908290030181865afa158015610bd3573d6000803e3d6000fd5b505050506040513d601f19601f82011682018060405250810190610bf79190611e50565b60015484906001600160a01b0316846113a7565b600080610c1b8730866000610933565b9050610c2986868386610658565b979650505050505050565b6000918252602082815260408084206001600160a01b0393909316845291905290205460ff1690565b6000806001600160a01b0385166370a08231336040518263ffffffff1660e01b8152600401610c8c9190611bc8565b602060405180830381865afa158015610ca9573d6000803e3d6000fd5b505050506040513d601f19601f82011682018060405250810190610ccd9190611ebf565b905060006001600160a01b03861663d905777e336040518263ffffffff1660e01b8152600401610cfd9190611bc8565b602060405180830381865afa158015610d1a573d6000803e3d6000fd5b505050506040513d601f19601f82011682018060405250810190610d3e9190611ebf565b90506000828210610d4f5782610d51565b815b9050610c2987878388610933565b60405163b3d7f6b960e01b8152600481018390526000906001600160a01b0386169063b3d7f6b990602401602060405180830381865afa158015610da7573d6000803e3d6000fd5b505050506040513d601f19601f82011682018060405250810190610dcb9190611ebf565b905081811115610dee57604051634e3c485360e01b815260040160405180910390fd5b610e5b856001600160a01b03166338d52e0f6040518163ffffffff1660e01b8152600401602060405180830381865afa158015610e2f573d6000803e3d6000fd5b505050506040513d601f19601f82011682018060405250810190610e539190611e50565b3330846113a7565b846001600160a01b03166338d52e0f6040518163ffffffff1660e01b8152600401602060405180830381865afa158015610e99573d6000803e3d6000fd5b505050506040513d601f19601f82011682018060405250810190610ebd9190611e50565b6001600160a01b031663095ea7b386836040518363ffffffff1660e01b8152600401610eea929190611e6d565b6020604051808303816000875af1158015610f09573d6000803e3d6000fd5b505050506040513d601f19601f82011682018060405250810190610f2d9190611e86565b506040516394bf804d60e01b815282906001600160a01b038716906394bf804d90610f5e9087908990600401611ea8565b6020604051808303816000875af1158015610f7d573d6000803e3d6000fd5b505050506040513d601f19601f82011682018060405250810190610fa19190611ebf565b915081111561086657604051634e3c485360e01b815260040160405180910390fd5b6000610fd187308686610af0565b50610c2986868685610658565b600080600360009054906101000a90046001600160a01b03166001600160a01b03166318160ddd6040518163ffffffff1660e01b8152600401602060405180830381865afa158015611034573d6000803e3d6000fd5b505050506040513d601f19601f820116820180604052508101906110589190611ebf565b9050806000036110815760055461107090600a611e22565b61107b906001611f26565b91505090565b600061108b6109cc565b905081600554600a61109d9190611e22565b6110a79083611f26565b6110b19190611e2e565b9250505090565b60006110c38161154a565b50600380546001600160a01b039485166001600160a01b031991821617909155600280549385169382169390931790925560018054919093169116179055565b600154604080516278744560e21b815290516000926001600160a01b0316916301e1d1149160048083019260209291908290030181865afa15801561114c573d6000803e3d6000fd5b505050506040513d601f19601f820116820180604052508101906106539190611ebf565b6000600554600a6111819190611e22565b610653906002611f26565b6111958261086e565b61119e8161154a565b6108af83836115db565b60015460405163061d86f960e11b81526001600160a01b0390911690630c3b0df2906111da9085908590600401611e6d565b600060405180830381600087803b1580156111f457600080fd5b505af1158015611208573d6000803e3d6000fd5b505050505050565b600080846001600160a01b03166338d52e0f6040518163ffffffff1660e01b8152600401602060405180830381865afa158015611251573d6000803e3d6000fd5b505050506040513d601f19601f820116820180604052508101906112759190611e50565b905060006001600160a01b0382166370a08231336040518263ffffffff1660e01b81526004016112a59190611bc8565b602060405180830381865afa1580156112c2573d6000803e3d6000fd5b505050506040513d601f19601f820116820180604052508101906112e69190611ebf565b90506000866001600160a01b031663402d267d876040518263ffffffff1660e01b81526004016113169190611bc8565b602060405180830381865afa158015611333573d6000803e3d6000fd5b505050506040513d601f19601f820116820180604052508101906113579190611ebf565b90506000828210611368578261136a565b815b905061137888888389610658565b98975050505050505050565b600061139285858585610658565b95945050505050565b61088f8282600161144c565b604080516001600160a01b0385811660248301528416604482015260648082018490528251808303909101815260849091019091526020810180516001600160e01b03166323b872dd60e01b179052611401908590611640565b50505050565b61088f828260405160240161141d929190611fa0565b60408051601f198184030181529190526020810180516001600160e01b031663319af33360e01b179052611712565b80156114ff576000826006546114629190611ef7565b9050600061146e6109cc565b90506000811161147d57600080fd5b8082106114c95760405162461bcd60e51b815260206004820152601a6024820152796e6f7420656e6f7567682066756e647320746f20626f72726f7760301b6044820152606401610920565b6001600160a01b038516600090815260076020526040812080548692906114f1908490611ef7565b909155505050600655505050565b6001600160a01b03831660009081526007602052604081208054849290611527908490611f3d565b9250508190555081600660008282546115409190611f3d565b9091555050505050565b6115548133611733565b50565b6115618282610c34565b61088f576000828152602081815260408083206001600160a01b03851684529091529020805460ff191660011790556115973390565b6001600160a01b0316816001600160a01b0316837f2f8788117e7eff1d82e926ec794901d17c78024a50270940304540a733656f0d60405160405180910390a45050565b6115e58282610c34565b1561088f576000828152602081815260408083206001600160a01b0385168085529252808320805460ff1916905551339285917ff6391f5c32d9c69d2a47ea670b442974b53935d1edc7fd64eb21e047a839171b9190a45050565b6000611695826040518060400160405280602081526020017f5361666545524332303a206c6f772d6c6576656c2063616c6c206661696c6564815250856001600160a01b031661178c9092919063ffffffff16565b8051909150156108af57808060200190518101906116b39190611e86565b6108af5760405162461bcd60e51b815260206004820152602a60248201527f5361666545524332303a204552433230206f7065726174696f6e20646964206e6044820152691bdd081cdd58d8d9595960b21b6064820152608401610920565b80516a636f6e736f6c652e6c6f67602083016000808483855afa5050505050565b61173d8282610c34565b61088f5761174a8161179b565b6117558360206117ad565b604051602001611766929190611fca565b60408051601f198184030181529082905262461bcd60e51b825261092091600401612039565b6060610ae68484600085611948565b60606106306001600160a01b03831660145b606060006117bc836002611f26565b6117c7906002611ef7565b6001600160401b038111156117de576117de61204c565b6040519080825280601f01601f191660200182016040528015611808576020820181803683370190505b509050600360fc1b8160008151811061182357611823612062565b60200101906001600160f81b031916908160001a905350600f60fb1b8160018151811061185257611852612062565b60200101906001600160f81b031916908160001a9053506000611876846002611f26565b611881906001611ef7565b90505b60018111156118f9576f181899199a1a9b1b9c1cb0b131b232b360811b85600f16601081106118b5576118b5612062565b1a60f81b8282815181106118cb576118cb612062565b60200101906001600160f81b031916908160001a90535060049490941c936118f281612078565b9050611884565b508315610ae95760405162461bcd60e51b815260206004820181905260248201527f537472696e67733a20686578206c656e67746820696e73756666696369656e746044820152606401610920565b6060824710156119a95760405162461bcd60e51b815260206004820152602660248201527f416464726573733a20696e73756666696369656e742062616c616e636520666f6044820152651c8818d85b1b60d21b6064820152608401610920565b600080866001600160a01b031685876040516119c5919061208f565b60006040518083038185875af1925050503d8060008114611a02576040519150601f19603f3d011682016040523d82523d6000602084013e611a07565b606091505b5091509150610c298783838760608315611a82578251600003611a7b576001600160a01b0385163b611a7b5760405162461bcd60e51b815260206004820152601d60248201527f416464726573733a2063616c6c20746f206e6f6e2d636f6e74726163740000006044820152606401610920565b5081610866565b6108668383815115611a975781518083602001fd5b8060405162461bcd60e51b81526004016109209190612039565b600060208284031215611ac357600080fd5b81356001600160e01b031981168114610ae957600080fd5b6001600160a01b038116811461155457600080fd5b60008060008060808587031215611b0657600080fd5b8435611b1181611adb565b93506020850135611b2181611adb565b93969395505050506040820135916060013590565b600060208284031215611b4857600080fd5b5035919050565b600060208284031215611b6157600080fd5b8135610ae981611adb565b60008060408385031215611b7f57600080fd5b8235611b8a81611adb565b946020939093013593505050565b60008060408385031215611bab57600080fd5b823591506020830135611bbd81611adb565b809150509250929050565b6001600160a01b0391909116815260200190565b600080600080600060a08688031215611bf457600080fd5b8535611bff81611adb565b94506020860135611c0f81611adb565b93506040860135611c1f81611adb565b94979396509394606081013594506080013592915050565b600080600060608486031215611c4c57600080fd5b8335611c5781611adb565b92506020840135611c6781611adb565b929592945050506040919091013590565b60008060008060008060c08789031215611c9157600080fd5b8635611c9c81611adb565b95506020870135611cac81611adb565b94506040870135611cbc81611adb565b959894975094956060810135955060808101359460a0909101359350915050565b600080600060608486031215611cf257600080fd5b8335611cfd81611adb565b92506020840135611d0d81611adb565b91506040840135611d1d81611adb565b809150509250925092565b634e487b7160e01b600052601160045260246000fd5b600181815b80851115611d79578160001904821115611d5f57611d5f611d28565b80851615611d6c57918102915b93841c9390800290611d43565b509250929050565b600082611d9057506001610630565b81611d9d57506000610630565b8160018114611db35760028114611dbd57611dd9565b6001915050610630565b60ff841115611dce57611dce611d28565b50506001821b610630565b5060208310610133831016604e8410600b8410161715611dfc575081810a610630565b611e068383611d3e565b8060001904821115611e1a57611e1a611d28565b029392505050565b6000610ae98383611d81565b600082611e4b57634e487b7160e01b600052601260045260246000fd5b500490565b600060208284031215611e6257600080fd5b8151610ae981611adb565b6001600160a01b03929092168252602082015260400190565b600060208284031215611e9857600080fd5b81518015158114610ae957600080fd5b9182526001600160a01b0316602082015260400190565b600060208284031215611ed157600080fd5b5051919050565b9283526001600160a01b03918216602084015216604082015260600190565b8082018082111561063057610630611d28565b6000600160ff1b8201611f1f57611f1f611d28565b5060000390565b808202811582820484141761063057610630611d28565b8181038181111561063057610630611d28565b60005b83811015611f6b578181015183820152602001611f53565b50506000910152565b60008151808452611f8c816020860160208601611f50565b601f01601f19169290920160200192915050565b604081526000611fb36040830185611f74565b905060018060a01b03831660208301529392505050565b76020b1b1b2b9b9a1b7b73a3937b61d1030b1b1b7bab73a1604d1b815260008351611ffc816017850160208801611f50565b7001034b99036b4b9b9b4b733903937b6329607d1b601791840191820152835161202d816028840160208801611f50565b01602801949350505050565b602081526000610ae96020830184611f74565b634e487b7160e01b600052604160045260246000fd5b634e487b7160e01b600052603260045260246000fd5b60008161208757612087611d28565b506000190190565b600082516120a1818460208701611f50565b919091019291505056fea26469706673582212204d4a07a1e7edbc99afd05e14e5b6fe82466fb952cd354dee053f29ccbe7f47f164736f6c63430008110033",
  "linkReferences": {},
  "deployedLinkReferences": {}
}