{
  "_format": "hh-sol-artifact-1",
  "contractName": "ERC4626Router",
  "sourceName": "contracts/vault/ERC4626Router.sol",
  "abi": [
    {
      "inputs": [],
      "stateMutability": "nonpayable",
      "type": "constructor"
    },
    {
      "inputs": [],
      "name": "MaxAmountError",
      "type": "error"
    },
    {
      "inputs": [],
      "name": "MaxSharesError",
      "type": "error"
    },
    {
      "inputs": [],
      "name": "MinAmountError",
      "type": "error"
    },
    {
      "inputs": [],
      "name": "MinSharesError",
      "type": "error"
    },
    {
      "inputs": [],
      "name": "registerInternalVaultError",
      "type": "error"
    },
    {
      "inputs": [],
      "name": "unregisterInternalVaultError",
      "type": "error"
    },
    {
      "anonymous": false,
      "inputs": [
        {
          "indexed": true,
          "internalType": "bytes32",
          "name": "role",
          "type": "bytes32"
        },
        {
          "indexed": true,
          "internalType": "bytes32",
          "name": "previousAdminRole",
          "type": "bytes32"
        },
        {
          "indexed": true,
          "internalType": "bytes32",
          "name": "newAdminRole",
          "type": "bytes32"
        }
      ],
      "name": "RoleAdminChanged",
      "type": "event"
    },
    {
      "anonymous": false,
      "inputs": [
        {
          "indexed": true,
          "internalType": "bytes32",
          "name": "role",
          "type": "bytes32"
        },
        {
          "indexed": true,
          "internalType": "address",
          "name": "account",
          "type": "address"
        },
        {
          "indexed": true,
          "internalType": "address",
          "name": "sender",
          "type": "address"
        }
      ],
      "name": "RoleGranted",
      "type": "event"
    },
    {
      "anonymous": false,
      "inputs": [
        {
          "indexed": true,
          "internalType": "bytes32",
          "name": "role",
          "type": "bytes32"
        },
        {
          "indexed": true,
          "internalType": "address",
          "name": "account",
          "type": "address"
        },
        {
          "indexed": true,
          "internalType": "address",
          "name": "sender",
          "type": "address"
        }
      ],
      "name": "RoleRevoked",
      "type": "event"
    },
    {
      "inputs": [],
      "name": "DEFAULT_ADMIN_ROLE",
      "outputs": [
        {
          "internalType": "bytes32",
          "name": "",
          "type": "bytes32"
        }
      ],
      "stateMutability": "view",
      "type": "function"
    },
    {
      "inputs": [],
      "name": "MARKET_ROLE",
      "outputs": [
        {
          "internalType": "bytes32",
          "name": "",
          "type": "bytes32"
        }
      ],
      "stateMutability": "view",
      "type": "function"
    },
    {
      "inputs": [],
      "name": "POSITIONBOOK_ROLE",
      "outputs": [
        {
          "internalType": "bytes32",
          "name": "",
          "type": "bytes32"
        }
      ],
      "stateMutability": "view",
      "type": "function"
    },
    {
      "inputs": [],
      "name": "VAULT_ROLE",
      "outputs": [
        {
          "internalType": "bytes32",
          "name": "",
          "type": "bytes32"
        }
      ],
      "stateMutability": "view",
      "type": "function"
    },
    {
      "inputs": [
        {
          "internalType": "address",
          "name": "market",
          "type": "address"
        },
        {
          "internalType": "uint256",
          "name": "amount",
          "type": "uint256"
        }
      ],
      "name": "borrowFromVault",
      "outputs": [],
      "stateMutability": "nonpayable",
      "type": "function"
    },
    {
      "inputs": [],
      "name": "calimLPReward",
      "outputs": [
        {
          "internalType": "uint256",
          "name": "",
          "type": "uint256"
        }
      ],
      "stateMutability": "nonpayable",
      "type": "function"
    },
    {
      "inputs": [],
      "name": "coreVault",
      "outputs": [
        {
          "internalType": "contract BaseVault",
          "name": "",
          "type": "address"
        }
      ],
      "stateMutability": "view",
      "type": "function"
    },
    {
      "inputs": [
        {
          "internalType": "contract IERC4626",
          "name": "vault",
          "type": "address"
        },
        {
          "internalType": "address",
          "name": "to",
          "type": "address"
        },
        {
          "internalType": "uint256",
          "name": "amount",
          "type": "uint256"
        },
        {
          "internalType": "uint256",
          "name": "minSharesOut",
          "type": "uint256"
        }
      ],
      "name": "deposit",
      "outputs": [
        {
          "internalType": "uint256",
          "name": "sharesOut",
          "type": "uint256"
        }
      ],
      "stateMutability": "payable",
      "type": "function"
    },
    {
      "inputs": [
        {
          "internalType": "contract IERC4626",
          "name": "vault",
          "type": "address"
        },
        {
          "internalType": "address",
          "name": "to",
          "type": "address"
        },
        {
          "internalType": "uint256",
          "name": "minSharesOut",
          "type": "uint256"
        }
      ],
      "name": "depositMax",
      "outputs": [
        {
          "internalType": "uint256",
          "name": "sharesOut",
          "type": "uint256"
        }
      ],
      "stateMutability": "payable",
      "type": "function"
    },
    {
      "inputs": [
        {
          "internalType": "contract IERC4626",
          "name": "vault",
          "type": "address"
        },
        {
          "internalType": "address",
          "name": "to",
          "type": "address"
        },
        {
          "internalType": "uint256",
          "name": "amount",
          "type": "uint256"
        },
        {
          "internalType": "uint256",
          "name": "minSharesOut",
          "type": "uint256"
        }
      ],
      "name": "depositToVault",
      "outputs": [
        {
          "internalType": "uint256",
          "name": "sharesOut",
          "type": "uint256"
        }
      ],
      "stateMutability": "payable",
      "type": "function"
    },
    {
      "inputs": [
        {
          "internalType": "address",
          "name": "",
          "type": "address"
        }
      ],
      "name": "fundsUsed",
      "outputs": [
        {
          "internalType": "uint256",
          "name": "",
          "type": "uint256"
        }
      ],
      "stateMutability": "view",
      "type": "function"
    },
    {
      "inputs": [],
      "name": "getAPR",
      "outputs": [
        {
          "internalType": "uint256",
          "name": "",
          "type": "uint256"
        }
      ],
      "stateMutability": "view",
      "type": "function"
    },
    {
      "inputs": [],
      "name": "getAUM",
      "outputs": [
        {
          "internalType": "uint256",
          "name": "",
          "type": "uint256"
        }
      ],
      "stateMutability": "view",
      "type": "function"
    },
    {
      "inputs": [],
      "name": "getLPFeeRate",
      "outputs": [
        {
          "internalType": "uint256",
          "name": "",
          "type": "uint256"
        }
      ],
      "stateMutability": "nonpayable",
      "type": "function"
    },
    {
      "inputs": [],
      "name": "getLPPrice",
      "outputs": [
        {
          "internalType": "uint256",
          "name": "",
          "type": "uint256"
        }
      ],
      "stateMutability": "view",
      "type": "function"
    },
    {
      "inputs": [],
      "name": "getLPReward",
      "outputs": [
        {
          "internalType": "uint256",
          "name": "",
          "type": "uint256"
        }
      ],
      "stateMutability": "view",
      "type": "function"
    },
    {
      "inputs": [
        {
          "internalType": "bytes32",
          "name": "role",
          "type": "bytes32"
        }
      ],
      "name": "getRoleAdmin",
      "outputs": [
        {
          "internalType": "bytes32",
          "name": "",
          "type": "bytes32"
        }
      ],
      "stateMutability": "view",
      "type": "function"
    },
    {
      "inputs": [],
      "name": "getUSDBalance",
      "outputs": [
        {
          "internalType": "uint256",
          "name": "",
          "type": "uint256"
        }
      ],
      "stateMutability": "view",
      "type": "function"
    },
    {
      "inputs": [
        {
          "internalType": "bytes32",
          "name": "role",
          "type": "bytes32"
        },
        {
          "internalType": "address",
          "name": "account",
          "type": "address"
        }
      ],
      "name": "grantRole",
      "outputs": [],
      "stateMutability": "nonpayable",
      "type": "function"
    },
    {
      "inputs": [
        {
          "internalType": "bytes32",
          "name": "role",
          "type": "bytes32"
        },
        {
          "internalType": "address",
          "name": "account",
          "type": "address"
        }
      ],
      "name": "hasRole",
      "outputs": [
        {
          "internalType": "bool",
          "name": "",
          "type": "bool"
        }
      ],
      "stateMutability": "view",
      "type": "function"
    },
    {
      "inputs": [
        {
          "internalType": "address",
          "name": "_lptoken",
          "type": "address"
        },
        {
          "internalType": "address",
          "name": "_positionBook",
          "type": "address"
        },
        {
          "internalType": "address",
          "name": "_coreVault",
          "type": "address"
        }
      ],
      "name": "initialize",
      "outputs": [],
      "stateMutability": "nonpayable",
      "type": "function"
    },
    {
      "inputs": [],
      "name": "liquidationProportionRatio",
      "outputs": [
        {
          "internalType": "uint256",
          "name": "",
          "type": "uint256"
        }
      ],
      "stateMutability": "view",
      "type": "function"
    },
    {
      "inputs": [],
      "name": "lpToken",
      "outputs": [
        {
          "internalType": "contract LPToken",
          "name": "",
          "type": "address"
        }
      ],
      "stateMutability": "view",
      "type": "function"
    },
    {
      "inputs": [
        {
          "internalType": "contract IERC4626",
          "name": "vault",
          "type": "address"
        },
        {
          "internalType": "address",
          "name": "to",
          "type": "address"
        },
        {
          "internalType": "uint256",
          "name": "shares",
          "type": "uint256"
        },
        {
          "internalType": "uint256",
          "name": "maxAmountIn",
          "type": "uint256"
        }
      ],
      "name": "mint",
      "outputs": [
        {
          "internalType": "uint256",
          "name": "amountIn",
          "type": "uint256"
        }
      ],
      "stateMutability": "payable",
      "type": "function"
    },
    {
      "inputs": [],
      "name": "pendingRewards",
      "outputs": [
        {
          "internalType": "uint256",
          "name": "",
          "type": "uint256"
        }
      ],
      "stateMutability": "view",
      "type": "function"
    },
    {
      "inputs": [],
      "name": "positionBook",
      "outputs": [
        {
          "internalType": "contract IPositionBook",
          "name": "",
          "type": "address"
        }
      ],
      "stateMutability": "view",
      "type": "function"
    },
    {
      "inputs": [],
      "name": "priceDecimals",
      "outputs": [
        {
          "internalType": "uint256",
          "name": "",
          "type": "uint256"
        }
      ],
      "stateMutability": "view",
      "type": "function"
    },
    {
      "inputs": [
        {
          "internalType": "contract IERC4626",
          "name": "vault",
          "type": "address"
        },
        {
          "internalType": "address",
          "name": "to",
          "type": "address"
        },
        {
          "internalType": "uint256",
          "name": "shares",
          "type": "uint256"
        },
        {
          "internalType": "uint256",
          "name": "minAmountOut",
          "type": "uint256"
        }
      ],
      "name": "redeem",
      "outputs": [
        {
          "internalType": "uint256",
          "name": "amountOut",
          "type": "uint256"
        }
      ],
      "stateMutability": "payable",
      "type": "function"
    },
    {
      "inputs": [
        {
          "internalType": "contract IERC4626",
          "name": "vault",
          "type": "address"
        },
        {
          "internalType": "address",
          "name": "to",
          "type": "address"
        },
        {
          "internalType": "uint256",
          "name": "minAmountOut",
          "type": "uint256"
        }
      ],
      "name": "redeemMax",
      "outputs": [
        {
          "internalType": "uint256",
          "name": "amountOut",
          "type": "uint256"
        }
      ],
      "stateMutability": "payable",
      "type": "function"
    },
    {
      "inputs": [
        {
          "internalType": "contract IERC4626",
          "name": "fromVault",
          "type": "address"
        },
        {
          "internalType": "contract IERC4626",
          "name": "toVault",
          "type": "address"
        },
        {
          "internalType": "address",
          "name": "to",
          "type": "address"
        },
        {
          "internalType": "uint256",
          "name": "shares",
          "type": "uint256"
        },
        {
          "internalType": "uint256",
          "name": "minSharesOut",
          "type": "uint256"
        }
      ],
      "name": "redeemToDeposit",
      "outputs": [
        {
          "internalType": "uint256",
          "name": "sharesOut",
          "type": "uint256"
        }
      ],
      "stateMutability": "payable",
      "type": "function"
    },
    {
      "inputs": [
        {
          "internalType": "bytes32",
          "name": "role",
          "type": "bytes32"
        },
        {
          "internalType": "address",
          "name": "account",
          "type": "address"
        }
      ],
      "name": "renounceRole",
      "outputs": [],
      "stateMutability": "nonpayable",
      "type": "function"
    },
    {
      "inputs": [
        {
          "internalType": "address",
          "name": "market",
          "type": "address"
        },
        {
          "internalType": "uint256",
          "name": "amount",
          "type": "uint256"
        }
      ],
      "name": "repayToVault",
      "outputs": [],
      "stateMutability": "nonpayable",
      "type": "function"
    },
    {
      "inputs": [
        {
          "internalType": "bytes32",
          "name": "role",
          "type": "bytes32"
        },
        {
          "internalType": "address",
          "name": "account",
          "type": "address"
        }
      ],
      "name": "revokeRole",
      "outputs": [],
      "stateMutability": "nonpayable",
      "type": "function"
    },
    {
      "inputs": [
        {
          "internalType": "bytes4",
          "name": "interfaceId",
          "type": "bytes4"
        }
      ],
      "name": "supportsInterface",
      "outputs": [
        {
          "internalType": "bool",
          "name": "",
          "type": "bool"
        }
      ],
      "stateMutability": "view",
      "type": "function"
    },
    {
      "inputs": [],
      "name": "totalFundsUsed",
      "outputs": [
        {
          "internalType": "uint256",
          "name": "",
          "type": "uint256"
        }
      ],
      "stateMutability": "view",
      "type": "function"
    },
    {
      "inputs": [
        {
          "internalType": "address",
          "name": "to",
          "type": "address"
        },
        {
          "internalType": "uint256",
          "name": "amount",
          "type": "uint256"
        }
      ],
      "name": "transferFromVault",
      "outputs": [],
      "stateMutability": "nonpayable",
      "type": "function"
    },
    {
      "inputs": [
        {
          "internalType": "address",
          "name": "account",
          "type": "address"
        },
        {
          "internalType": "uint256",
          "name": "amount",
          "type": "uint256"
        }
      ],
      "name": "transferToVault",
      "outputs": [],
      "stateMutability": "nonpayable",
      "type": "function"
    },
    {
      "inputs": [
        {
          "internalType": "contract IERC4626",
          "name": "vault",
          "type": "address"
        },
        {
          "internalType": "address",
          "name": "to",
          "type": "address"
        },
        {
          "internalType": "uint256",
          "name": "amount",
          "type": "uint256"
        },
        {
          "internalType": "uint256",
          "name": "maxSharesOut",
          "type": "uint256"
        }
      ],
      "name": "withdraw",
      "outputs": [
        {
          "internalType": "uint256",
          "name": "sharesOut",
          "type": "uint256"
        }
      ],
      "stateMutability": "payable",
      "type": "function"
    },
    {
      "inputs": [
        {
          "internalType": "contract IERC4626",
          "name": "fromVault",
          "type": "address"
        },
        {
          "internalType": "contract IERC4626",
          "name": "toVault",
          "type": "address"
        },
        {
          "internalType": "address",
          "name": "to",
          "type": "address"
        },
        {
          "internalType": "uint256",
          "name": "amount",
          "type": "uint256"
        },
        {
          "internalType": "uint256",
          "name": "maxSharesIn",
          "type": "uint256"
        },
        {
          "internalType": "uint256",
          "name": "minSharesOut",
          "type": "uint256"
        }
      ],
      "name": "withdrawToDeposit",
      "outputs": [
        {
          "internalType": "uint256",
          "name": "sharesOut",
          "type": "uint256"
        }
      ],
      "stateMutability": "payable",
      "type": "function"
    }
  ],
  "bytecode": "0x60806040526005600455600860055534801561001a57600080fd5b5061002660003361002b565b6100ca565b6000828152602081815260408083206001600160a01b038516845290915290205460ff166100c6576000828152602081815260408083206001600160a01b03851684529091529020805460ff191660011790556100853390565b6001600160a01b0316816001600160a01b0316837f2f8788117e7eff1d82e926ec794901d17c78024a50270940304540a733656f0d60405160405180910390a45b5050565b61200e806100d96000396000f3fe6080604052600436106101c05760003560e01c806301ffc9a7146101c557806305300b28146101fa57806311a2ad491461021e578063186d013e1461023457806320e8c56514610249578063248a9ca31461025c5780632b8a00121461027c5780632c7550c3146102a95780632f2ff15d146102cb57806336568abe146102eb5780633d0767cd1461030b5780633e27ec9b1461031f5780634be47418146103535780635fcbd28514610366578063674ce1b5146103935780636dc7b0a1146103b35780637bfe950c146103c857806389a71faa146103db5780638f089d651461030b57806390f328c9146103fb57806391d148541461040e57806398c4f1ac1461042e578063a217fddf14610462578063a246bd3014610477578063aa7c91441461048a578063ac0b05a6146104be578063b01a9aba146104de578063b3f1c93d146104f4578063b592e40614610507578063b77905ae1461051a578063c0c53b8b1461052f578063c12010541461054f578063c89d5b8b14610564578063d547741f14610579578063da8ddc7414610599578063ed01c6e5146105b9578063eded3fda1461030b578063f943028c146105cc578063fce0e5ae146105df575b600080fd5b3480156101d157600080fd5b506101e56101e0366004611a14565b6105ff565b60405190151581526020015b60405180910390f35b34801561020657600080fd5b5061021060055481565b6040519081526020016101f1565b34801561022a57600080fd5b5061021060065481565b34801561024057600080fd5b50610210610636565b610210610257366004611a53565b610658565b34801561026857600080fd5b50610210610277366004611a99565b610837565b34801561028857600080fd5b50610210610297366004611ab2565b60076020526000908152604090205481565b3480156102b557600080fd5b506102c96102c4366004611acf565b61084c565b005b3480156102d757600080fd5b506102c96102e6366004611afb565b61085c565b3480156102f757600080fd5b506102c9610306366004611afb565b61087d565b34801561031757600080fd5b506064610210565b34801561032b57600080fd5b506102107f395f08be531c0d7403cba7c5ffd2b57329184452bcebcd6a48299ebbbf39db6f81565b610210610361366004611a53565b6108fc565b34801561037257600080fd5b50600354610386906001600160a01b031681565b6040516101f19190611b2b565b34801561039f57600080fd5b50600154610386906001600160a01b031681565b3480156103bf57600080fd5b50610210610995565b6102106103d6366004611a53565b610ab9565b3480156103e757600080fd5b506102c96103f6366004611acf565b610b51565b610210610409366004611b3f565b610bd4565b34801561041a57600080fd5b506101e5610429366004611afb565b610bfd565b34801561043a57600080fd5b506102107f31e0210044b4f6757ce6aa31f9c6e8d4896d24a755014887391a926c5224d95981565b34801561046e57600080fd5b50610210600081565b610210610485366004611b9a565b610c26565b34801561049657600080fd5b506102107f046df66692fdf3d717ef1cc7ad9de107663d4badf5354321d09c390828eb62a481565b3480156104ca57600080fd5b50600254610386906001600160a01b031681565b3480156104ea57600080fd5b5061021060045481565b610210610502366004611a53565b610d28565b610210610515366004611bdb565b610f8c565b34801561052657600080fd5b50610210610fa7565b34801561053b57600080fd5b506102c961054a366004611c40565b611081565b34801561055b57600080fd5b506102106110cc565b34801561057057600080fd5b50610210611139565b34801561058557600080fd5b506102c9610594366004611afb565b611155565b3480156105a557600080fd5b506102c96105b4366004611acf565b611171565b6102106105c7366004611b9a565b6111d9565b6102106105da366004611a53565b61134d565b3480156105eb57600080fd5b506102c96105fa366004611acf565b611364565b60006001600160e01b03198216637965db0b60e01b148061063057506301ffc9a760e01b6001600160e01b03198316145b92915050565b60006064600554600a6106499190611d85565b6106539190611d91565b905090565b60006106c7856001600160a01b03166338d52e0f6040518163ffffffff1660e01b8152600401602060405180830381865afa15801561069b573d6000803e3d6000fd5b505050506040513d601f19601f820116820180604052508101906106bf9190611db3565b333086611370565b846001600160a01b03166338d52e0f6040518163ffffffff1660e01b8152600401602060405180830381865afa158015610705573d6000803e3d6000fd5b505050506040513d601f19601f820116820180604052508101906107299190611db3565b6001600160a01b031663095ea7b386856040518363ffffffff1660e01b8152600401610756929190611dd0565b6020604051808303816000875af1158015610775573d6000803e3d6000fd5b505050506040513d601f19601f820116820180604052508101906107999190611de9565b50604051636e553f6560e01b815282906001600160a01b03871690636e553f65906107ca9087908990600401611e0b565b6020604051808303816000875af11580156107e9573d6000803e3d6000fd5b505050506040513d601f19601f8201168201806040525081019061080d9190611e22565b915081101561082f576040516305133e6360e51b815260040160405180910390fd5b949350505050565b60009081526020819052604090206001015490565b610858828260006113d0565b5050565b61086582610837565b61086e816114ce565b61087883836114db565b505050565b6001600160a01b03811633146108f25760405162461bcd60e51b815260206004820152602f60248201527f416363657373436f6e74726f6c3a2063616e206f6e6c792072656e6f756e636560448201526e103937b632b9903337b91039b2b63360891b60648201526084015b60405180910390fd5b610858828261155f565b604051635d043b2960e11b81526000906001600160a01b0386169063ba0876529061092f90869088903390600401611e3b565b6020604051808303816000875af115801561094e573d6000803e3d6000fd5b505050506040513d601f19601f820116820180604052508101906109729190611e22565b90508181101561082f57604051636e8c873b60e01b815260040160405180910390fd5b600080600260009054906101000a90046001600160a01b03166001600160a01b0316636f2a14c56040518163ffffffff1660e01b8152600401602060405180830381865afa1580156109eb573d6000803e3d6000fd5b505050506040513d601f19601f82011682018060405250810190610a0f9190611e22565b90506000610a1b6110cc565b9050600080831315610a3857610a318383611e5a565b9050610ab2565b610a4183611e6d565b6007610a4e84600a611e89565b610a589190611d91565b11610a9c5760405162461bcd60e51b81526020600482015260146024820152731b195cdcc81d1a185b880dcc081c195c98d95b9d60621b60448201526064016108e9565b610aa583611e6d565b610aaf9083611ea0565b90505b9392505050565b6000816001600160a01b03861663b460af948587336040518463ffffffff1660e01b8152600401610aec93929190611e3b565b6020604051808303816000875af1158015610b0b573d6000803e3d6000fd5b505050506040513d601f19601f82011682018060405250810190610b2f9190611e22565b915081111561082f5760405163ac11961360e01b815260040160405180910390fd5b600154604080516338d52e0f60e01b81529051610858926001600160a01b0316916338d52e0f9160048083019260209291908290030181865afa158015610b9c573d6000803e3d6000fd5b505050506040513d601f19601f82011682018060405250810190610bc09190611db3565b60015484906001600160a01b031684611370565b600080610be487308660006108fc565b9050610bf286868386610658565b979650505050505050565b6000918252602082815260408084206001600160a01b0393909316845291905290205460ff1690565b6000806001600160a01b0385166370a08231336040518263ffffffff1660e01b8152600401610c559190611b2b565b602060405180830381865afa158015610c72573d6000803e3d6000fd5b505050506040513d601f19601f82011682018060405250810190610c969190611e22565b905060006001600160a01b03861663d905777e336040518263ffffffff1660e01b8152600401610cc69190611b2b565b602060405180830381865afa158015610ce3573d6000803e3d6000fd5b505050506040513d601f19601f82011682018060405250810190610d079190611e22565b90506000828210610d185782610d1a565b815b9050610bf2878783886108fc565b60405163b3d7f6b960e01b8152600481018390526000906001600160a01b0386169063b3d7f6b990602401602060405180830381865afa158015610d70573d6000803e3d6000fd5b505050506040513d601f19601f82011682018060405250810190610d949190611e22565b905081811115610db757604051634e3c485360e01b815260040160405180910390fd5b610e24856001600160a01b03166338d52e0f6040518163ffffffff1660e01b8152600401602060405180830381865afa158015610df8573d6000803e3d6000fd5b505050506040513d601f19601f82011682018060405250810190610e1c9190611db3565b333084611370565b846001600160a01b03166338d52e0f6040518163ffffffff1660e01b8152600401602060405180830381865afa158015610e62573d6000803e3d6000fd5b505050506040513d601f19601f82011682018060405250810190610e869190611db3565b6001600160a01b031663095ea7b386836040518363ffffffff1660e01b8152600401610eb3929190611dd0565b6020604051808303816000875af1158015610ed2573d6000803e3d6000fd5b505050506040513d601f19601f82011682018060405250810190610ef69190611de9565b506040516394bf804d60e01b815282906001600160a01b038716906394bf804d90610f279087908990600401611e0b565b6020604051808303816000875af1158015610f46573d6000803e3d6000fd5b505050506040513d601f19601f82011682018060405250810190610f6a9190611e22565b915081111561082f57604051634e3c485360e01b815260040160405180910390fd5b6000610f9a87308686610ab9565b50610bf286868685610658565b600080600360009054906101000a90046001600160a01b03166001600160a01b03166318160ddd6040518163ffffffff1660e01b8152600401602060405180830381865afa158015610ffd573d6000803e3d6000fd5b505050506040513d601f19601f820116820180604052508101906110219190611e22565b90508060000361104a5760055461103990600a611d85565b611044906001611e89565b91505090565b6000611054610995565b905081600554600a6110669190611d85565b6110709083611e89565b61107a9190611d91565b9250505090565b600061108c816114ce565b50600380546001600160a01b039485166001600160a01b031991821617909155600280549385169382169390931790925560018054919093169116179055565b600154604080516278744560e21b815290516000926001600160a01b0316916301e1d1149160048083019260209291908290030181865afa158015611115573d6000803e3d6000fd5b505050506040513d601f19601f820116820180604052508101906106539190611e22565b6000600554600a61114a9190611d85565b610653906002611e89565b61115e82610837565b611167816114ce565b610878838361155f565b60015460405163061d86f960e11b81526001600160a01b0390911690630c3b0df2906111a39085908590600401611dd0565b600060405180830381600087803b1580156111bd57600080fd5b505af11580156111d1573d6000803e3d6000fd5b505050505050565b600080846001600160a01b03166338d52e0f6040518163ffffffff1660e01b8152600401602060405180830381865afa15801561121a573d6000803e3d6000fd5b505050506040513d601f19601f8201168201806040525081019061123e9190611db3565b905060006001600160a01b0382166370a08231336040518263ffffffff1660e01b815260040161126e9190611b2b565b602060405180830381865afa15801561128b573d6000803e3d6000fd5b505050506040513d601f19601f820116820180604052508101906112af9190611e22565b90506000866001600160a01b031663402d267d876040518263ffffffff1660e01b81526004016112df9190611b2b565b602060405180830381865afa1580156112fc573d6000803e3d6000fd5b505050506040513d601f19601f820116820180604052508101906113209190611e22565b905060008282106113315782611333565b815b905061134188888389610658565b98975050505050505050565b600061135b85858585610658565b95945050505050565b610858828260016113d0565b604080516001600160a01b0385811660248301528416604482015260648082018490528251808303909101815260849091019091526020810180516001600160e01b03166323b872dd60e01b1790526113ca9085906115c4565b50505050565b8015611483576000826006546113e69190611e5a565b905060006113f2610995565b90506000811161140157600080fd5b80821061144d5760405162461bcd60e51b815260206004820152601a6024820152796e6f7420656e6f7567682066756e647320746f20626f72726f7760301b60448201526064016108e9565b6001600160a01b03851660009081526007602052604081208054869290611475908490611e5a565b909155505050600655505050565b6001600160a01b038316600090815260076020526040812080548492906114ab908490611ea0565b9250508190555081600660008282546114c49190611ea0565b9091555050505050565b6114d88133611696565b50565b6114e58282610bfd565b610858576000828152602081815260408083206001600160a01b03851684529091529020805460ff1916600117905561151b3390565b6001600160a01b0316816001600160a01b0316837f2f8788117e7eff1d82e926ec794901d17c78024a50270940304540a733656f0d60405160405180910390a45050565b6115698282610bfd565b15610858576000828152602081815260408083206001600160a01b0385168085529252808320805460ff1916905551339285917ff6391f5c32d9c69d2a47ea670b442974b53935d1edc7fd64eb21e047a839171b9190a45050565b6000611619826040518060400160405280602081526020017f5361666545524332303a206c6f772d6c6576656c2063616c6c206661696c6564815250856001600160a01b03166116ef9092919063ffffffff16565b80519091501561087857808060200190518101906116379190611de9565b6108785760405162461bcd60e51b815260206004820152602a60248201527f5361666545524332303a204552433230206f7065726174696f6e20646964206e6044820152691bdd081cdd58d8d9595960b21b60648201526084016108e9565b6116a08282610bfd565b610858576116ad816116fe565b6116b8836020611710565b6040516020016116c9929190611ed7565b60408051601f198184030181529082905262461bcd60e51b82526108e991600401611f46565b6060610aaf84846000856118ab565b60606106306001600160a01b03831660145b6060600061171f836002611e89565b61172a906002611e5a565b6001600160401b0381111561174157611741611f79565b6040519080825280601f01601f19166020018201604052801561176b576020820181803683370190505b509050600360fc1b8160008151811061178657611786611f8f565b60200101906001600160f81b031916908160001a905350600f60fb1b816001815181106117b5576117b5611f8f565b60200101906001600160f81b031916908160001a90535060006117d9846002611e89565b6117e4906001611e5a565b90505b600181111561185c576f181899199a1a9b1b9c1cb0b131b232b360811b85600f166010811061181857611818611f8f565b1a60f81b82828151811061182e5761182e611f8f565b60200101906001600160f81b031916908160001a90535060049490941c9361185581611fa5565b90506117e7565b508315610ab25760405162461bcd60e51b815260206004820181905260248201527f537472696e67733a20686578206c656e67746820696e73756666696369656e7460448201526064016108e9565b60608247101561190c5760405162461bcd60e51b815260206004820152602660248201527f416464726573733a20696e73756666696369656e742062616c616e636520666f6044820152651c8818d85b1b60d21b60648201526084016108e9565b600080866001600160a01b031685876040516119289190611fbc565b60006040518083038185875af1925050503d8060008114611965576040519150601f19603f3d011682016040523d82523d6000602084013e61196a565b606091505b5091509150610bf287838387606083156119e55782516000036119de576001600160a01b0385163b6119de5760405162461bcd60e51b815260206004820152601d60248201527f416464726573733a2063616c6c20746f206e6f6e2d636f6e747261637400000060448201526064016108e9565b508161082f565b61082f83838151156119fa5781518083602001fd5b8060405162461bcd60e51b81526004016108e99190611f46565b600060208284031215611a2657600080fd5b81356001600160e01b031981168114610ab257600080fd5b6001600160a01b03811681146114d857600080fd5b60008060008060808587031215611a6957600080fd5b8435611a7481611a3e565b93506020850135611a8481611a3e565b93969395505050506040820135916060013590565b600060208284031215611aab57600080fd5b5035919050565b600060208284031215611ac457600080fd5b8135610ab281611a3e565b60008060408385031215611ae257600080fd5b8235611aed81611a3e565b946020939093013593505050565b60008060408385031215611b0e57600080fd5b823591506020830135611b2081611a3e565b809150509250929050565b6001600160a01b0391909116815260200190565b600080600080600060a08688031215611b5757600080fd5b8535611b6281611a3e565b94506020860135611b7281611a3e565b93506040860135611b8281611a3e565b94979396509394606081013594506080013592915050565b600080600060608486031215611baf57600080fd5b8335611bba81611a3e565b92506020840135611bca81611a3e565b929592945050506040919091013590565b60008060008060008060c08789031215611bf457600080fd5b8635611bff81611a3e565b95506020870135611c0f81611a3e565b94506040870135611c1f81611a3e565b959894975094956060810135955060808101359460a0909101359350915050565b600080600060608486031215611c5557600080fd5b8335611c6081611a3e565b92506020840135611c7081611a3e565b91506040840135611c8081611a3e565b809150509250925092565b634e487b7160e01b600052601160045260246000fd5b600181815b80851115611cdc578160001904821115611cc257611cc2611c8b565b80851615611ccf57918102915b93841c9390800290611ca6565b509250929050565b600082611cf357506001610630565b81611d0057506000610630565b8160018114611d165760028114611d2057611d3c565b6001915050610630565b60ff841115611d3157611d31611c8b565b50506001821b610630565b5060208310610133831016604e8410600b8410161715611d5f575081810a610630565b611d698383611ca1565b8060001904821115611d7d57611d7d611c8b565b029392505050565b6000610ab28383611ce4565b600082611dae57634e487b7160e01b600052601260045260246000fd5b500490565b600060208284031215611dc557600080fd5b8151610ab281611a3e565b6001600160a01b03929092168252602082015260400190565b600060208284031215611dfb57600080fd5b81518015158114610ab257600080fd5b9182526001600160a01b0316602082015260400190565b600060208284031215611e3457600080fd5b5051919050565b9283526001600160a01b03918216602084015216604082015260600190565b8082018082111561063057610630611c8b565b6000600160ff1b8201611e8257611e82611c8b565b5060000390565b808202811582820484141761063057610630611c8b565b8181038181111561063057610630611c8b565b60005b83811015611ece578181015183820152602001611eb6565b50506000910152565b76020b1b1b2b9b9a1b7b73a3937b61d1030b1b1b7bab73a1604d1b815260008351611f09816017850160208801611eb3565b7001034b99036b4b9b9b4b733903937b6329607d1b6017918401918201528351611f3a816028840160208801611eb3565b01602801949350505050565b6020815260008251806020840152611f65816040850160208701611eb3565b601f01601f19169190910160400192915050565b634e487b7160e01b600052604160045260246000fd5b634e487b7160e01b600052603260045260246000fd5b600081611fb457611fb4611c8b565b506000190190565b60008251611fce818460208701611eb3565b919091019291505056fea2646970667358221220eb765640a3910f56799303b7ad2c335ba1083568b4454215691cd0bf68990d8264736f6c63430008110033",
  "linkReferences": {},
  "deployedLinkReferences": {}
}