{
  "_format": "hh-sol-artifact-1",
  "contractName": "MarketFactory",
  "sourceName": "contracts/market/MarketFactory.sol",
  "abi": [
    {
      "inputs": [],
      "stateMutability": "nonpayable",
      "type": "constructor"
    },
    {
      "anonymous": false,
      "inputs": [
        {
          "indexed": true,
          "internalType": "address",
          "name": "market",
          "type": "address"
        },
        {
          "indexed": false,
          "internalType": "address",
          "name": "marketValid",
          "type": "address"
        },
        {
          "indexed": false,
          "internalType": "address",
          "name": "orderBookLong",
          "type": "address"
        },
        {
          "indexed": false,
          "internalType": "address",
          "name": "orderBookShort",
          "type": "address"
        }
      ],
      "name": "Create",
      "type": "event"
    },
    {
      "anonymous": false,
      "inputs": [
        {
          "indexed": true,
          "internalType": "bytes32",
          "name": "role",
          "type": "bytes32"
        },
        {
          "indexed": true,
          "internalType": "bytes32",
          "name": "previousAdminRole",
          "type": "bytes32"
        },
        {
          "indexed": true,
          "internalType": "bytes32",
          "name": "newAdminRole",
          "type": "bytes32"
        }
      ],
      "name": "RoleAdminChanged",
      "type": "event"
    },
    {
      "anonymous": false,
      "inputs": [
        {
          "indexed": true,
          "internalType": "bytes32",
          "name": "role",
          "type": "bytes32"
        },
        {
          "indexed": true,
          "internalType": "address",
          "name": "account",
          "type": "address"
        },
        {
          "indexed": true,
          "internalType": "address",
          "name": "sender",
          "type": "address"
        }
      ],
      "name": "RoleGranted",
      "type": "event"
    },
    {
      "anonymous": false,
      "inputs": [
        {
          "indexed": true,
          "internalType": "bytes32",
          "name": "role",
          "type": "bytes32"
        },
        {
          "indexed": true,
          "internalType": "address",
          "name": "account",
          "type": "address"
        },
        {
          "indexed": true,
          "internalType": "address",
          "name": "sender",
          "type": "address"
        }
      ],
      "name": "RoleRevoked",
      "type": "event"
    },
    {
      "inputs": [],
      "name": "DEFAULT_ADMIN_ROLE",
      "outputs": [
        {
          "internalType": "bytes32",
          "name": "",
          "type": "bytes32"
        }
      ],
      "stateMutability": "view",
      "type": "function"
    },
    {
      "inputs": [],
      "name": "allMarketsLength",
      "outputs": [
        {
          "internalType": "uint256",
          "name": "",
          "type": "uint256"
        }
      ],
      "stateMutability": "view",
      "type": "function"
    },
    {
      "inputs": [
        {
          "components": [
            {
              "internalType": "string",
              "name": "_name",
              "type": "string"
            },
            {
              "internalType": "address",
              "name": "_marketAddress",
              "type": "address"
            },
            {
              "internalType": "address",
              "name": "_marketValid",
              "type": "address"
            },
            {
              "internalType": "address",
              "name": "_marketRouter",
              "type": "address"
            },
            {
              "internalType": "address",
              "name": "_orderBookLong",
              "type": "address"
            },
            {
              "internalType": "address",
              "name": "_orderBookShort",
              "type": "address"
            },
            {
              "internalType": "address",
              "name": "_indexToken",
              "type": "address"
            },
            {
              "internalType": "address",
              "name": "_feeRouter",
              "type": "address"
            },
            {
              "internalType": "address",
              "name": "_feeVault",
              "type": "address"
            },
            {
              "internalType": "address",
              "name": "_positionBook",
              "type": "address"
            },
            {
              "internalType": "address",
              "name": "_openStoreLong",
              "type": "address"
            },
            {
              "internalType": "address",
              "name": "_closeStoreLong",
              "type": "address"
            },
            {
              "internalType": "address",
              "name": "_openStoreShort",
              "type": "address"
            },
            {
              "internalType": "address",
              "name": "_closeStoreShort",
              "type": "address"
            },
            {
              "internalType": "address",
              "name": "_addressProvider",
              "type": "address"
            },
            {
              "internalType": "uint256",
              "name": "_minSlippage",
              "type": "uint256"
            },
            {
              "internalType": "uint256",
              "name": "_maxSlippage",
              "type": "uint256"
            },
            {
              "internalType": "uint256",
              "name": "_minLeverage",
              "type": "uint256"
            },
            {
              "internalType": "uint256",
              "name": "_maxLeverage",
              "type": "uint256"
            },
            {
              "internalType": "uint256",
              "name": "_maxTradeAmount",
              "type": "uint256"
            },
            {
              "internalType": "uint256",
              "name": "_minPay",
              "type": "uint256"
            },
            {
              "internalType": "uint256",
              "name": "_minCollateral",
              "type": "uint256"
            },
            {
              "internalType": "bool",
              "name": "_allowOpen",
              "type": "bool"
            },
            {
              "internalType": "bool",
              "name": "_allowClose",
              "type": "bool"
            },
            {
              "internalType": "uint256",
              "name": "_tokenDigits",
              "type": "uint256"
            },
            {
              "internalType": "address",
              "name": "_vault",
              "type": "address"
            },
            {
              "internalType": "address",
              "name": "_vaultRouter",
              "type": "address"
            },
            {
              "internalType": "address",
              "name": "_collateralToken",
              "type": "address"
            }
          ],
          "internalType": "struct MarketFactory.CreateInputs",
          "name": "_inputs",
          "type": "tuple"
        }
      ],
      "name": "create",
      "outputs": [],
      "stateMutability": "nonpayable",
      "type": "function"
    },
    {
      "inputs": [
        {
          "internalType": "address",
          "name": "_marketAddr",
          "type": "address"
        }
      ],
      "name": "getMarket",
      "outputs": [
        {
          "components": [
            {
              "internalType": "string",
              "name": "name",
              "type": "string"
            },
            {
              "internalType": "address",
              "name": "addr",
              "type": "address"
            }
          ],
          "internalType": "struct IMarketFactory.Props",
          "name": "",
          "type": "tuple"
        }
      ],
      "stateMutability": "view",
      "type": "function"
    },
    {
      "inputs": [],
      "name": "getMarkets",
      "outputs": [
        {
          "components": [
            {
              "internalType": "string",
              "name": "name",
              "type": "string"
            },
            {
              "internalType": "address",
              "name": "addr",
              "type": "address"
            }
          ],
          "internalType": "struct IMarketFactory.Props[]",
          "name": "_markets",
          "type": "tuple[]"
        }
      ],
      "stateMutability": "view",
      "type": "function"
    },
    {
      "inputs": [],
      "name": "getMarketsV2",
      "outputs": [
        {
          "components": [
            {
              "internalType": "string",
              "name": "name",
              "type": "string"
            },
            {
              "internalType": "address",
              "name": "addr",
              "type": "address"
            },
            {
              "internalType": "bool",
              "name": "allowOpen",
              "type": "bool"
            },
            {
              "internalType": "bool",
              "name": "allowClose",
              "type": "bool"
            }
          ],
          "internalType": "struct IMarketFactory.Outs[]",
          "name": "_outs",
          "type": "tuple[]"
        }
      ],
      "stateMutability": "view",
      "type": "function"
    },
    {
      "inputs": [
        {
          "internalType": "bytes32",
          "name": "role",
          "type": "bytes32"
        }
      ],
      "name": "getRoleAdmin",
      "outputs": [
        {
          "internalType": "bytes32",
          "name": "",
          "type": "bytes32"
        }
      ],
      "stateMutability": "view",
      "type": "function"
    },
    {
      "inputs": [
        {
          "internalType": "bytes32",
          "name": "role",
          "type": "bytes32"
        },
        {
          "internalType": "address",
          "name": "account",
          "type": "address"
        }
      ],
      "name": "grantRole",
      "outputs": [],
      "stateMutability": "nonpayable",
      "type": "function"
    },
    {
      "inputs": [
        {
          "internalType": "bytes32",
          "name": "role",
          "type": "bytes32"
        },
        {
          "internalType": "address",
          "name": "account",
          "type": "address"
        }
      ],
      "name": "hasRole",
      "outputs": [
        {
          "internalType": "bool",
          "name": "",
          "type": "bool"
        }
      ],
      "stateMutability": "view",
      "type": "function"
    },
    {
      "inputs": [
        {
          "internalType": "uint256",
          "name": "",
          "type": "uint256"
        }
      ],
      "name": "markets",
      "outputs": [
        {
          "internalType": "string",
          "name": "name",
          "type": "string"
        },
        {
          "internalType": "address",
          "name": "addr",
          "type": "address"
        }
      ],
      "stateMutability": "view",
      "type": "function"
    },
    {
      "inputs": [
        {
          "internalType": "bytes32",
          "name": "role",
          "type": "bytes32"
        },
        {
          "internalType": "address",
          "name": "account",
          "type": "address"
        }
      ],
      "name": "renounceRole",
      "outputs": [],
      "stateMutability": "nonpayable",
      "type": "function"
    },
    {
      "inputs": [
        {
          "internalType": "bytes32",
          "name": "role",
          "type": "bytes32"
        },
        {
          "internalType": "address",
          "name": "account",
          "type": "address"
        }
      ],
      "name": "revokeRole",
      "outputs": [],
      "stateMutability": "nonpayable",
      "type": "function"
    },
    {
      "inputs": [
        {
          "internalType": "bytes4",
          "name": "interfaceId",
          "type": "bytes4"
        }
      ],
      "name": "supportsInterface",
      "outputs": [
        {
          "internalType": "bool",
          "name": "",
          "type": "bool"
        }
      ],
      "stateMutability": "view",
      "type": "function"
    },
    {
      "inputs": [
        {
          "internalType": "address",
          "name": "_marketAddr",
          "type": "address"
        },
        {
          "internalType": "address",
          "name": "_newMarketAddr",
          "type": "address"
        }
      ],
      "name": "update",
      "outputs": [],
      "stateMutability": "nonpayable",
      "type": "function"
    }
  ],
  "bytecode": "0x608060405234801561001057600080fd5b5061001c600033610036565b610031672927a622afa3a7ab60c11b33610036565b6100d5565b6000828152602081815260408083206001600160a01b038516845290915290205460ff166100d1576000828152602081815260408083206001600160a01b03851684529091529020805460ff191660011790556100903390565b6001600160a01b0316816001600160a01b0316837f2f8788117e7eff1d82e926ec794901d17c78024a50270940304540a733656f0d60405160405180910390a45b5050565b611b4b80620000e56000396000f3fe608060405234801561001057600080fd5b50600436106100ba5760003560e01c806301ffc9a7146100bf578063248a9ca3146100e75780632f2ff15d1461010857806336568abe1461011d57806364f956ff1461013057806388dd46a11461014357806391d148541461014b57806398b160221461015e578063a217fddf14610173578063b1283e771461017b578063c640752d1461019c578063d4dfadbf146101af578063d547741f146101cf578063ec2c9016146101e2575b600080fd5b6100d26100cd3660046112a5565b6101f7565b60405190151581526020015b60405180910390f35b6100fa6100f53660046112cf565b61022e565b6040519081526020016100de565b61011b61011636600461130d565b610243565b005b61011b61012b36600461130d565b610264565b61011b61013e366004611418565b6102e7565b6001546100fa565b6100d261015936600461130d565b61062d565b610166610656565b6040516100de919061169a565b6100fa600081565b61018e6101893660046112cf565b6109c3565b6040516100de929190611732565b61011b6101aa36600461175c565b610a88565b6101c26101bd36600461178a565b610ca7565b6040516100de91906117d9565b61011b6101dd36600461130d565b610e6a565b6101ea610e86565b6040516100de91906117ec565b60006001600160e01b03198216637965db0b60e01b148061022857506301ffc9a760e01b6001600160e01b03198316145b92915050565b60009081526020819052604090206001015490565b61024c8261022e565b61025581610f8a565b61025f8383610f97565b505050565b6001600160a01b03811633146102d95760405162461bcd60e51b815260206004820152602f60248201527f416363657373436f6e74726f6c3a2063616e206f6e6c792072656e6f756e636560448201526e103937b632b9903337b91039b2b63360891b60648201526084015b60405180910390fd5b6102e3828261101b565b5050565b6102fb672927a622afa3a7ab60c11b610f8a565b6040808201516101e08301516102008401516102208501516102408601516102608701516102808801516102a08901516102c08a01516102e08b01516103008c01519a5163d04093d560e01b81526004810199909952602489019790975260448801959095526064870193909352608486019190915260a485015260c4840152151560e48301521515610104820152610124810192909252906001600160a01b0382169063d04093d59061014401600060405180830381600087803b1580156103c357600080fd5b505af11580156103d7573d6000803e3d6000fd5b50505050608082015161014083015161016084015160405163485cc95560e01b81526001600160a01b0384169263485cc955926104169260040161184e565b600060405180830381600087803b15801561043057600080fd5b505af1158015610444573d6000803e3d6000fd5b5050505060a08301516101808401516101a085015160405163485cc95560e01b81526001600160a01b0384169263485cc955926104839260040161184e565b600060405180830381600087803b15801561049d57600080fd5b505af11580156104b1573d6000803e3d6000fd5b50505060208501516101208601516101c087015160c088015160e08901516101008a015160608b01516103208c01516103408d01516103608e01516040516376902b8360e01b81526001600160a01b03998a1660048201528d8a1660248201528c8a1660448201529789166064890152958816608488015293871660a487015291861660c4860152851660e4850152841661010484015283166101248301528216610144820152911691506376902b839061016401600060405180830381600087803b15801561058057600080fd5b505af1158015610594573d6000803e3d6000fd5b505050506105a061128d565b845181526020808601516001600160a01b031690820152600180548082018255600091909152815182916002027fb10e2d527612073b26eecdfd717e6a320cf44b4afac2b0732d9fcbe2b7fa0cf6019081906105fc90826118f0565b5060209190910151600190910180546001600160a01b0319166001600160a01b039092169190911790555050505050565b6000918252602082815260408084206001600160a01b0393909316845291905290205460ff1690565b606060006001805480602002602001604051908101604052809291908181526020016000905b8282101561075357838290600052602060002090600202016040518060400160405290816000820180546106af90611868565b80601f01602080910402602001604051908101604052809291908181526020018280546106db90611868565b80156107285780601f106106fd57610100808354040283529160200191610728565b820191906000526020600020905b81548152906001019060200180831161070b57829003601f168201915b50505091835250506001918201546001600160a01b031660209182015291835292909201910161067c565b50508251929350829150506001600160401b038111156107755761077561133d565b6040519080825280602002602001820160405280156107c857816020015b604080516080810182526060808252600060208084018290529383018190529082015282526000199092019101816107935790505b50925060005b818110156109bd5760008382815181106107ea576107ea6119af565b602002602001015190506000816020015190506000816001600160a01b0316630c9def416040518163ffffffff1660e01b8152600401602060405180830381865afa15801561083d573d6000803e3d6000fd5b505050506040513d601f19601f8201168201806040525081019061086191906119c5565b60405163563eccdb60e11b81526001600160a01b038481166004830152919091169063ac7d99b690602401602060405180830381865afa1580156108a9573d6000803e3d6000fd5b505050506040513d601f19601f820116820180604052508101906108cd91906119c5565b90506000816001600160a01b031663177927296040518163ffffffff1660e01b8152600401602060405180830381865afa15801561090f573d6000803e3d6000fd5b505050506040513d601f19601f8201168201806040525081019061093391906119e2565b905060405180608001604052808560000151815260200185602001516001600160a01b0316815260200161096d8351600f606c1b16151590565b151581526020016109848351600f60681b16151590565b151581525088868151811061099b5761099b6119af565b60200260200101819052505050505080806109b590611a39565b9150506107ce565b50505090565b600181815481106109d357600080fd5b90600052602060002090600202016000915090508060000180546109f690611868565b80601f0160208091040260200160405190810160405280929190818152602001828054610a2290611868565b8015610a6f5780601f10610a4457610100808354040283529160200191610a6f565b820191906000526020600020905b815481529060010190602001808311610a5257829003601f168201915b505050600190930154919250506001600160a01b031682565b610a9c672927a622afa3a7ab60c11b610f8a565b60006001805480602002602001604051908101604052809291908181526020016000905b82821015610b975783829060005260206000209060020201604051806040016040529081600082018054610af390611868565b80601f0160208091040260200160405190810160405280929190818152602001828054610b1f90611868565b8015610b6c5780601f10610b4157610100808354040283529160200191610b6c565b820191906000526020600020905b815481529060010190602001808311610b4f57829003601f168201915b50505091835250506001918201546001600160a01b0316602091820152918352929092019101610ac0565b50505050905060005b8151811015610c6c576000828281518110610bbd57610bbd6119af565b60200260200101519050846001600160a01b031681602001516001600160a01b031603610c59576001600160a01b03841660208201526001805482919084908110610c0a57610c0a6119af565b600091825260209091208251600290920201908190610c2990826118f0565b5060209190910151600190910180546001600160a01b0319166001600160a01b0390921691909117905550610c6c565b5080610c6481611a39565b915050610ba0565b5060405162461bcd60e51b815260206004820152600f60248201526e1b585c9ad95d081b9bdd08199bdd59608a1b60448201526064016102d0565b610caf61128d565b60006001805480602002602001604051908101604052809291908181526020016000905b82821015610daa5783829060005260206000209060020201604051806040016040529081600082018054610d0690611868565b80601f0160208091040260200160405190810160405280929190818152602001828054610d3290611868565b8015610d7f5780601f10610d5457610100808354040283529160200191610d7f565b820191906000526020600020905b815481529060010190602001808311610d6257829003601f168201915b50505091835250506001918201546001600160a01b0316602091820152918352929092019101610cd3565b50505050905060005b8151811015610e2e576000828281518110610dd057610dd06119af565b60200260200101519050846001600160a01b031681602001516001600160a01b031603610e1b57828281518110610e0957610e096119af565b60200260200101519350505050919050565b5080610e2681611a39565b915050610db3565b5060405162461bcd60e51b815260206004820152601060248201526f1b585c9ad95d081b9bdd08199bdd5b9960821b60448201526064016102d0565b610e738261022e565b610e7c81610f8a565b61025f838361101b565b60606001805480602002602001604051908101604052809291908181526020016000905b82821015610f815783829060005260206000209060020201604051806040016040529081600082018054610edd90611868565b80601f0160208091040260200160405190810160405280929190818152602001828054610f0990611868565b8015610f565780601f10610f2b57610100808354040283529160200191610f56565b820191906000526020600020905b815481529060010190602001808311610f3957829003601f168201915b50505091835250506001918201546001600160a01b0316602091820152918352929092019101610eaa565b50505050905090565b610f948133611080565b50565b610fa1828261062d565b6102e3576000828152602081815260408083206001600160a01b03851684529091529020805460ff19166001179055610fd73390565b6001600160a01b0316816001600160a01b0316837f2f8788117e7eff1d82e926ec794901d17c78024a50270940304540a733656f0d60405160405180910390a45050565b611025828261062d565b156102e3576000828152602081815260408083206001600160a01b0385168085529252808320805460ff1916905551339285917ff6391f5c32d9c69d2a47ea670b442974b53935d1edc7fd64eb21e047a839171b9190a45050565b61108a828261062d565b6102e357611097816110d9565b6110a28360206110eb565b6040516020016110b3929190611a52565b60408051601f198184030181529082905262461bcd60e51b82526102d091600401611ac1565b60606102286001600160a01b03831660145b606060006110fa836002611ad4565b611105906002611aeb565b6001600160401b0381111561111c5761111c61133d565b6040519080825280601f01601f191660200182016040528015611146576020820181803683370190505b509050600360fc1b81600081518110611161576111616119af565b60200101906001600160f81b031916908160001a905350600f60fb1b81600181518110611190576111906119af565b60200101906001600160f81b031916908160001a90535060006111b4846002611ad4565b6111bf906001611aeb565b90505b6001811115611237576f181899199a1a9b1b9c1cb0b131b232b360811b85600f16601081106111f3576111f36119af565b1a60f81b828281518110611209576112096119af565b60200101906001600160f81b031916908160001a90535060049490941c9361123081611afe565b90506111c2565b5083156112865760405162461bcd60e51b815260206004820181905260248201527f537472696e67733a20686578206c656e67746820696e73756666696369656e7460448201526064016102d0565b9392505050565b60408051808201909152606081526000602082015290565b6000602082840312156112b757600080fd5b81356001600160e01b03198116811461128657600080fd5b6000602082840312156112e157600080fd5b5035919050565b6001600160a01b0381168114610f9457600080fd5b8035611308816112e8565b919050565b6000806040838503121561132057600080fd5b823591506020830135611332816112e8565b809150509250929050565b634e487b7160e01b600052604160045260246000fd5b60405161038081016001600160401b03811182821017156113765761137661133d565b60405290565b600082601f83011261138d57600080fd5b81356001600160401b03808211156113a7576113a761133d565b604051601f8301601f19908116603f011681019082821181831017156113cf576113cf61133d565b816040528381528660208588010111156113e857600080fd5b836020870160208301376000602085830101528094505050505092915050565b8035801515811461130857600080fd5b60006020828403121561142a57600080fd5b81356001600160401b038082111561144157600080fd5b90830190610380828603121561145657600080fd5b61145e611353565b82358281111561146d57600080fd5b6114798782860161137c565b825250611488602084016112fd565b6020820152611499604084016112fd565b60408201526114aa606084016112fd565b60608201526114bb608084016112fd565b60808201526114cc60a084016112fd565b60a08201526114dd60c084016112fd565b60c08201526114ee60e084016112fd565b60e082015261010091506115038284016112fd565b8282015261012091506115178284016112fd565b82820152610140915061152b8284016112fd565b82820152610160915061153f8284016112fd565b8282015261018091506115538284016112fd565b828201526101a091506115678284016112fd565b828201526101c0915061157b8284016112fd565b918101919091526101e08281013590820152610200808301359082015261022080830135908201526102408083013590820152610260808301359082015261028080830135908201526102a080830135908201526102c0906115de828401611408565b828201526102e091506115f2828401611408565b828201526103009150818301358282015261032091506116138284016112fd565b8282015261034091506116278284016112fd565b82820152610360915061163b8284016112fd565b91810191909152949350505050565b60005b8381101561166557818101518382015260200161164d565b50506000910152565b6000815180845261168681602086016020860161164a565b601f01601f19169290920160200192915050565b60006020808301818452808551808352604092508286019150828160051b87010184880160005b8381101561172457603f198984030185528151608081518186526116e78287018261166e565b838b01516001600160a01b0316878c01528984015115158a88015260609384015115159390960192909252505093860193908601906001016116c1565b509098975050505050505050565b604081526000611745604083018561166e565b905060018060a01b03831660208301529392505050565b6000806040838503121561176f57600080fd5b823561177a816112e8565b91506020830135611332816112e8565b60006020828403121561179c57600080fd5b8135611286816112e8565b60008151604084526117bc604085018261166e565b6020938401516001600160a01b0316949093019390935250919050565b60208152600061128660208301846117a7565b6000602080830181845280855180835260408601915060408160051b870101925083870160005b8281101561184157603f1988860301845261182f8583516117a7565b94509285019290850190600101611813565b5092979650505050505050565b6001600160a01b0392831681529116602082015260400190565b600181811c9082168061187c57607f821691505b60208210810361189c57634e487b7160e01b600052602260045260246000fd5b50919050565b601f82111561025f57600081815260208120601f850160051c810160208610156118c95750805b601f850160051c820191505b818110156118e8578281556001016118d5565b505050505050565b81516001600160401b038111156119095761190961133d565b61191d816119178454611868565b846118a2565b602080601f831160018114611952576000841561193a5750858301515b600019600386901b1c1916600185901b1785556118e8565b600085815260208120601f198616915b8281101561198157888601518255948401946001909101908401611962565b508582101561199f5787850151600019600388901b60f8161c191681555b5050505050600190811b01905550565b634e487b7160e01b600052603260045260246000fd5b6000602082840312156119d757600080fd5b8151611286816112e8565b6000602082840312156119f457600080fd5b604051602081016001600160401b0381118282101715611a1657611a1661133d565b6040529151825250919050565b634e487b7160e01b600052601160045260246000fd5b600060018201611a4b57611a4b611a23565b5060010190565b76020b1b1b2b9b9a1b7b73a3937b61d1030b1b1b7bab73a1604d1b815260008351611a8481601785016020880161164a565b7001034b99036b4b9b9b4b733903937b6329607d1b6017918401918201528351611ab581602884016020880161164a565b01602801949350505050565b602081526000611286602083018461166e565b808202811582820484141761022857610228611a23565b8082018082111561022857610228611a23565b600081611b0d57611b0d611a23565b50600019019056fea264697066735822122045144f3737b8207717569e198ea0340b0cf6a72d0134f6f96b390d11ba57dfe664736f6c63430008110033",
  "linkReferences": {},
  "deployedLinkReferences": {}
}