{
  "_format": "hh-sol-artifact-1",
  "contractName": "MarketReader",
  "sourceName": "contracts/market/MarketReader.sol",
  "abi": [
    {
      "inputs": [],
      "stateMutability": "nonpayable",
      "type": "constructor"
    },
    {
      "inputs": [
        {
          "internalType": "address",
          "name": "_market",
          "type": "address"
        },
        {
          "internalType": "address",
          "name": "_account",
          "type": "address"
        }
      ],
      "name": "availableLiquidity",
      "outputs": [
        {
          "internalType": "uint256",
          "name": "",
          "type": "uint256"
        }
      ],
      "stateMutability": "view",
      "type": "function"
    },
    {
      "inputs": [
        {
          "internalType": "address",
          "name": "_account",
          "type": "address"
        },
        {
          "internalType": "address",
          "name": "_market",
          "type": "address"
        },
        {
          "internalType": "bool",
          "name": "_isLong",
          "type": "bool"
        }
      ],
      "name": "getFundingFee",
      "outputs": [
        {
          "internalType": "int256",
          "name": "",
          "type": "int256"
        }
      ],
      "stateMutability": "view",
      "type": "function"
    },
    {
      "inputs": [
        {
          "internalType": "address",
          "name": "_market",
          "type": "address"
        }
      ],
      "name": "getFundingRate",
      "outputs": [
        {
          "internalType": "int256",
          "name": "",
          "type": "int256"
        },
        {
          "internalType": "int256",
          "name": "",
          "type": "int256"
        }
      ],
      "stateMutability": "view",
      "type": "function"
    },
    {
      "inputs": [
        {
          "internalType": "address",
          "name": "_marketAddr",
          "type": "address"
        }
      ],
      "name": "getMarket",
      "outputs": [
        {
          "components": [
            {
              "internalType": "uint256",
              "name": "minSlippage",
              "type": "uint256"
            },
            {
              "internalType": "uint256",
              "name": "maxSlippage",
              "type": "uint256"
            },
            {
              "internalType": "uint256",
              "name": "slippageDigits",
              "type": "uint256"
            },
            {
              "internalType": "uint256",
              "name": "minLev",
              "type": "uint256"
            },
            {
              "internalType": "uint256",
              "name": "maxLev",
              "type": "uint256"
            },
            {
              "internalType": "uint256",
              "name": "minCollateral",
              "type": "uint256"
            },
            {
              "internalType": "uint256",
              "name": "maxTradeAmount",
              "type": "uint256"
            },
            {
              "internalType": "bool",
              "name": "allowOpen",
              "type": "bool"
            },
            {
              "internalType": "bool",
              "name": "allowClose",
              "type": "bool"
            }
          ],
          "internalType": "struct IMarketReader.ValidOuts",
          "name": "validOuts",
          "type": "tuple"
        },
        {
          "components": [
            {
              "internalType": "uint256",
              "name": "tokenDigits",
              "type": "uint256"
            },
            {
              "internalType": "uint256",
              "name": "closeFeeRate",
              "type": "uint256"
            },
            {
              "internalType": "uint256",
              "name": "openFeeRate",
              "type": "uint256"
            },
            {
              "internalType": "uint256",
              "name": "liquidationFeeUsd",
              "type": "uint256"
            },
            {
              "internalType": "uint256",
              "name": "spread",
              "type": "uint256"
            },
            {
              "internalType": "address",
              "name": "indexToken",
              "type": "address"
            },
            {
              "internalType": "address",
              "name": "collateralToken",
              "type": "address"
            },
            {
              "internalType": "address",
              "name": "vault",
              "type": "address"
            },
            {
              "internalType": "address",
              "name": "marketAddressesProvider",
              "type": "address"
            },
            {
              "internalType": "address",
              "name": "orderBookLong",
              "type": "address"
            },
            {
              "internalType": "address",
              "name": "orderBookShort",
              "type": "address"
            },
            {
              "internalType": "address",
              "name": "positionBook",
              "type": "address"
            }
          ],
          "internalType": "struct IMarketReader.MarketOuts",
          "name": "mktOuts",
          "type": "tuple"
        },
        {
          "components": [
            {
              "internalType": "uint256",
              "name": "closeFeeRate",
              "type": "uint256"
            },
            {
              "internalType": "uint256",
              "name": "openFeeRate",
              "type": "uint256"
            },
            {
              "internalType": "uint256",
              "name": "execFee",
              "type": "uint256"
            },
            {
              "internalType": "uint256",
              "name": "liquidateFee",
              "type": "uint256"
            },
            {
              "internalType": "uint256",
              "name": "digits",
              "type": "uint256"
            }
          ],
          "internalType": "struct IMarketReader.FeeOuts",
          "name": "feeOuts",
          "type": "tuple"
        }
      ],
      "stateMutability": "view",
      "type": "function"
    },
    {
      "inputs": [
        {
          "internalType": "address",
          "name": "_account",
          "type": "address"
        },
        {
          "internalType": "address",
          "name": "_market",
          "type": "address"
        }
      ],
      "name": "getPositions",
      "outputs": [
        {
          "components": [
            {
              "internalType": "uint256",
              "name": "size",
              "type": "uint256"
            },
            {
              "internalType": "uint256",
              "name": "collateral",
              "type": "uint256"
            },
            {
              "internalType": "uint256",
              "name": "averagePrice",
              "type": "uint256"
            },
            {
              "internalType": "int256",
              "name": "entryFundingRate",
              "type": "int256"
            },
            {
              "internalType": "uint256",
              "name": "realisedPnl",
              "type": "uint256"
            },
            {
              "internalType": "bool",
              "name": "hasProfit",
              "type": "bool"
            },
            {
              "internalType": "uint256",
              "name": "lastTime",
              "type": "uint256"
            },
            {
              "internalType": "bool",
              "name": "isLong",
              "type": "bool"
            },
            {
              "internalType": "uint256[]",
              "name": "orderIDs",
              "type": "uint256[]"
            }
          ],
          "internalType": "struct IMarketReader.PositionOuts[]",
          "name": "_positions",
          "type": "tuple[]"
        }
      ],
      "stateMutability": "view",
      "type": "function"
    },
    {
      "inputs": [
        {
          "internalType": "address",
          "name": "_mkt",
          "type": "address"
        },
        {
          "internalType": "address",
          "name": "_user",
          "type": "address"
        }
      ],
      "name": "getUserFee",
      "outputs": [
        {
          "components": [
            {
              "internalType": "uint256",
              "name": "openFee",
              "type": "uint256"
            },
            {
              "internalType": "uint256",
              "name": "closeFee",
              "type": "uint256"
            },
            {
              "internalType": "int256",
              "name": "fundFee",
              "type": "int256"
            },
            {
              "internalType": "uint256",
              "name": "liquidateFee",
              "type": "uint256"
            },
            {
              "internalType": "uint256",
              "name": "execFee",
              "type": "uint256"
            }
          ],
          "internalType": "struct IMarketReader.UserFeeOuts",
          "name": "_outs",
          "type": "tuple"
        }
      ],
      "stateMutability": "view",
      "type": "function"
    }
  ],
  "bytecode": "0x608060405234801561001057600080fd5b506119d5806100206000396000f3fe608060405234801561001057600080fd5b50600436106100625760003560e01c80630baaa528146100675780636133eeac1461009457806363b7a879146100b5578063739118a41461010a578063889be2851461012a578063d4dfadbf1461013d575b600080fd5b61007a610075366004611384565b61015f565b604080519283526020830191909152015b60405180910390f35b6100a76100a23660046113a8565b61031c565b60405190815260200161008b565b6100c86100c33660046113a8565b61032a565b60405161008b9190600060a082019050825182526020830151602083015260408301516040830152606083015160608301526080830151608083015292915050565b61011d6101183660046113a8565b61045a565b60405161008b919061141c565b6100a76101383660046114ed565b61072b565b61015061014b366004611384565b61080d565b60405161008b93929190611602565b6000806000836001600160a01b031663f29ebf616040518163ffffffff1660e01b8152600401602060405180830381865afa1580156101a2573d6000803e3d6000fd5b505050506040513d601f19601f820116820180604052508101906101c691906116af565b90506000846001600160a01b031663ac0b05a66040518163ffffffff1660e01b8152600401602060405180830381865afa158015610208573d6000803e3d6000fd5b505050506040513d601f19601f8201168201806040525081019061022c91906116af565b90506000826001600160a01b0316630baaa528876040518263ffffffff1660e01b815260040161025c91906116cc565b602060405180830381865afa158015610279573d6000803e3d6000fd5b505050506040513d601f19601f8201168201806040525081019061029d91906116e0565b90506000826001600160a01b031663c65bc7b1886040518263ffffffff1660e01b81526004016102cd91906116cc565b602060405180830381865afa1580156102ea573d6000803e3d6000fd5b505050506040513d601f19601f8201168201806040525081019061030e91906116e0565b919791965090945050505050565b65037b5cce6e575b92915050565b61035c6040518060a0016040528060008152602001600081526020016000815260200160008152602001600081525090565b60008390506000816001600160a01b031663f29ebf616040518163ffffffff1660e01b8152600401602060405180830381865afa1580156103a1573d6000803e3d6000fd5b505050506040513d601f19601f820116820180604052508101906103c591906116af565b60405163ba23329360e01b81526001600160a01b03878116600483015286811660248301529192509082169063ba2332939060440160a060405180830381865afa158015610417573d6000803e3d6000fd5b505050506040513d601f19601f8201168201806040525081019061043b91906116f9565b6080880152606087015260408601526020850152835250909392505050565b60606000826001600160a01b031663ac0b05a66040518163ffffffff1660e01b8152600401602060405180830381865afa15801561049c573d6000803e3d6000fd5b505050506040513d601f19601f820116820180604052508101906104c091906116af565b90506105016040518060400160405280601d81526020017f676574506f736974696f6e732e706f736974696f6e426f6f6b3a20257300000081525082611239565b6040805160028082526060820190925290816020015b61051f61131c565b81526020019060019003908161051757905050915061053c61131c565b60405163118272bf60e31b81526001600160a01b03831690638c1395f89061056d9088908890600190600401611739565b60e060405180830381865afa15801561058a573d6000803e3d6000fd5b505050506040513d601f19601f820116820180604052508101906105ae919061175d565b60c0880152151560a087015260808601526060850152604084015260208301528152600160e08201526000604051908082528060200260200182016040528015610602578160200160208202803683370190505b508161010001819052508083600081518110610620576106206117bd565b602002602001018190525061063361131c565b60405163118272bf60e31b81526001600160a01b03841690638c1395f8906106649089908990600090600401611739565b60e060405180830381865afa158015610681573d6000803e3d6000fd5b505050506040513d601f19601f820116820180604052508101906106a5919061175d565b60c0880152151560a087015260808601526060850152604084015260208301528152600060e082018190526040519080825280602002602001820160405280156106f9578160200160208202803683370190505b508161010001819052508084600181518110610717576107176117bd565b602002602001018190525050505092915050565b600080836001600160a01b031663f29ebf616040518163ffffffff1660e01b8152600401602060405180830381865afa15801561076c573d6000803e3d6000fd5b505050506040513d601f19601f8201168201806040525081019061079091906116af565b60405163889be28560e01b81529091506001600160a01b0382169063889be285906107c390889088908890600401611739565b602060405180830381865afa1580156107e0573d6000803e3d6000fd5b505050506040513d601f19601f8201168201806040525081019061080491906116e0565b95945050505050565b610860604051806101200160405280600081526020016000815260200160008152602001600081526020016000815260200160008152602001600081526020016000151581526020016000151581525090565b6040805161018081018252600080825260208201819052918101829052606081018290526080810182905260a0810182905260c0810182905260e081018290526101008101829052610120810182905261014081018290526101608101919091526108f36040518060a0016040528060008152602001600081526020016000815260200160008152602001600081525090565b61091e6040518060400160405280600981526020016819d95d13585c9ad95d60ba1b81525085611239565b60008490506000816001600160a01b031663f29ebf616040518163ffffffff1660e01b8152600401602060405180830381865afa158015610963573d6000803e3d6000fd5b505050506040513d601f19601f8201168201806040525081019061098791906116af565b90506000826001600160a01b0316630c9def416040518163ffffffff1660e01b8152600401602060405180830381865afa1580156109c9573d6000803e3d6000fd5b505050506040513d601f19601f820116820180604052508101906109ed91906116af565b90506000816001600160a01b031663ac7d99b6896040518263ffffffff1660e01b8152600401610a1d91906116cc565b602060405180830381865afa158015610a3a573d6000803e3d6000fd5b505050506040513d601f19601f82011682018060405250810190610a5e91906116af565b90506000816001600160a01b031663177927296040518163ffffffff1660e01b8152600401602060405180830381865afa158015610aa0573d6000803e3d6000fd5b505050506040513d601f19601f82011682018060405250810190610ac491906117d3565b9050604051806101200160405280610ade8351610fff1690565b81528251602090910190600c1c610fff168152602001610aff612710611282565b8152825160181c610fff9081166020830152835160241c166040820152606001610b28836112a7565b8152602001610b36836112c5565b8152602001610b4b8351600f606c1b16151590565b15158152602001610b628351600f60681b16151590565b15158152509750604051806101800160405280610b86835160ff60709190911c1690565b8152602001856001600160a01b03166362c6a895886040518263ffffffff1660e01b8152600401610bb791906116cc565b602060405180830381865afa158015610bd4573d6000803e3d6000fd5b505050506040513d601f19601f82011682018060405250810190610bf891906116e0565b8152602001856001600160a01b0316633408d625886040518263ffffffff1660e01b8152600401610c2991906116cc565b602060405180830381865afa158015610c46573d6000803e3d6000fd5b505050506040513d601f19601f82011682018060405250810190610c6a91906116e0565b815260200160008152602001866001600160a01b0316635c25c76c6040518163ffffffff1660e01b8152600401602060405180830381865afa158015610cb4573d6000803e3d6000fd5b505050506040513d601f19601f82011682018060405250810190610cd891906116e0565b8152602001866001600160a01b031663e7d015f26040518163ffffffff1660e01b8152600401602060405180830381865afa158015610d1b573d6000803e3d6000fd5b505050506040513d601f19601f82011682018060405250810190610d3f91906116af565b6001600160a01b03168152602001866001600160a01b031663b2016bd46040518163ffffffff1660e01b8152600401602060405180830381865afa158015610d8b573d6000803e3d6000fd5b505050506040513d601f19601f82011682018060405250810190610daf91906116af565b6001600160a01b03168152602001866001600160a01b031663fbfa77cf6040518163ffffffff1660e01b8152600401602060405180830381865afa158015610dfb573d6000803e3d6000fd5b505050506040513d601f19601f82011682018060405250810190610e1f91906116af565b6001600160a01b03168152602001866001600160a01b0316630c9def416040518163ffffffff1660e01b8152600401602060405180830381865afa158015610e6b573d6000803e3d6000fd5b505050506040513d601f19601f82011682018060405250810190610e8f91906116af565b6001600160a01b03168152602001866001600160a01b0316637b2fd1e56040518163ffffffff1660e01b8152600401602060405180830381865afa158015610edb573d6000803e3d6000fd5b505050506040513d601f19601f82011682018060405250810190610eff91906116af565b6001600160a01b03168152602001866001600160a01b03166305ba9ae96040518163ffffffff1660e01b8152600401602060405180830381865afa158015610f4b573d6000803e3d6000fd5b505050506040513d601f19601f82011682018060405250810190610f6f91906116af565b6001600160a01b03168152602001866001600160a01b031663ac0b05a66040518163ffffffff1660e01b8152600401602060405180830381865afa158015610fbb573d6000803e3d6000fd5b505050506040513d601f19601f82011682018060405250810190610fdf91906116af565b6001600160a01b031681525096506040518060a00160405280856001600160a01b03166362c6a8958c6040518263ffffffff1660e01b815260040161102491906116cc565b602060405180830381865afa158015611041573d6000803e3d6000fd5b505050506040513d601f19601f8201168201806040525081019061106591906116e0565b8152602001856001600160a01b0316633408d6258c6040518263ffffffff1660e01b815260040161109691906116cc565b602060405180830381865afa1580156110b3573d6000803e3d6000fd5b505050506040513d601f19601f820116820180604052508101906110d791906116e0565b8152602001856001600160a01b03166309d398978c6040518263ffffffff1660e01b815260040161110891906116cc565b602060405180830381865afa158015611125573d6000803e3d6000fd5b505050506040513d601f19601f8201168201806040525081019061114991906116e0565b8152602001856001600160a01b031663114300fc8c6040518263ffffffff1660e01b815260040161117a91906116cc565b602060405180830381865afa158015611197573d6000803e3d6000fd5b505050506040513d601f19601f820116820180604052508101906111bb91906116e0565b815260200161122a866001600160a01b0316639670c0bc6040518163ffffffff1660e01b8152600401602060405180830381865afa158015611201573d6000803e3d6000fd5b505050506040513d601f19601f8201168201806040525081019061122591906116e0565b611282565b90529799969850505050505050565b61127e828260405160240161124f929190611822565b60408051601f198184030181529190526020810180516001600160e01b031663319af33360e01b1790526112e5565b5050565b600060015b600190910190611298600a82611898565b90508281036112875750919050565b60006112b282611306565b82516103249190603c1c610fff16611898565b60006112d082611306565b8251610324919060481c63ffffffff16611898565b80516a636f6e736f6c652e6c6f67602083016000808483855afa5050505050565b80516000906103249060701c60ff16600a611993565b604051806101200160405280600081526020016000815260200160008152602001600081526020016000815260200160001515815260200160008152602001600015158152602001606081525090565b6001600160a01b038116811461138157600080fd5b50565b60006020828403121561139657600080fd5b81356113a18161136c565b9392505050565b600080604083850312156113bb57600080fd5b82356113c68161136c565b915060208301356113d68161136c565b809150509250929050565b600081518084526020808501945080840160005b83811015611411578151875295820195908201906001016113f5565b509495945050505050565b60006020808301818452808551808352604092508286019150828160051b87010184880160005b838110156114d157888303603f1901855281518051845287810151888501528681015187850152606080820151908501526080808201519085015260a08082015115159085015260c0808201519085015260e08082015115159085015261010090810151610120918501829052906114bd818601836113e1565b968901969450505090860190600101611443565b509098975050505050505050565b801515811461138157600080fd5b60008060006060848603121561150257600080fd5b833561150d8161136c565b9250602084013561151d8161136c565b9150604084013561152d816114df565b809150509250925092565b6001600160a01b03169052565b805182526020810151602083015260408101516040830152606081015160608301526080810151608083015260a081015161158360a0840182611538565b5060c081015161159660c0840182611538565b5060e08101516115a960e0840182611538565b50610100808201516115bd82850182611538565b5050610120808201516115d282850182611538565b5050610140808201516115e782850182611538565b5050610160808201516115fc82850182611538565b50505050565b600061034082019050845182526020850151602083015260408501516040830152606085015160608301526080850151608083015260a085015160a083015260c085015160c083015260e0850151151560e08301526101008086015115158184015250611673610120830185611545565b82516102a083015260208301516102c083015260408301516102e083015260608301516103008301526080830151610320830152949350505050565b6000602082840312156116c157600080fd5b81516113a18161136c565b6001600160a01b0391909116815260200190565b6000602082840312156116f257600080fd5b5051919050565b600080600080600060a0868803121561171157600080fd5b5050835160208501516040860151606087015160809097015192989197509594509092509050565b6001600160a01b039384168152919092166020820152901515604082015260600190565b600080600080600080600060e0888a03121561177857600080fd5b875196506020880151955060408801519450606088015193506080880151925060a08801516117a6816114df565b8092505060c0880151905092959891949750929550565b634e487b7160e01b600052603260045260246000fd5b6000602082840312156117e557600080fd5b604051602081016001600160401b038111828210171561181557634e487b7160e01b600052604160045260246000fd5b6040529151825250919050565b604081526000835180604084015260005b818110156118505760208187018101516060868401015201611833565b50600060608285018101919091526001600160a01b03949094166020840152601f01601f191690910190910192915050565b634e487b7160e01b600052601160045260246000fd5b808202811582820484141761032457610324611882565b600181815b808511156118ea5781600019048211156118d0576118d0611882565b808516156118dd57918102915b93841c93908002906118b4565b509250929050565b60008261190157506001610324565b8161190e57506000610324565b8160018114611924576002811461192e5761194a565b6001915050610324565b60ff84111561193f5761193f611882565b50506001821b610324565b5060208310610133831016604e8410600b841016171561196d575081810a610324565b61197783836118af565b806000190482111561198b5761198b611882565b029392505050565b60006113a183836118f256fea264697066735822122035a75c9368747b16dbe250a05da121e1fb0a94692bb5b8936a9c359a7f2b90f564736f6c63430008110033",
  "linkReferences": {},
  "deployedLinkReferences": {}
}