{
  "_format": "hh-sol-artifact-1",
  "contractName": "Market",
  "sourceName": "contracts/market/Market.sol",
  "abi": [
    {
      "inputs": [
        {
          "internalType": "string",
          "name": "_name",
          "type": "string"
        }
      ],
      "stateMutability": "nonpayable",
      "type": "constructor"
    },
    {
      "anonymous": false,
      "inputs": [
        {
          "indexed": true,
          "internalType": "address",
          "name": "account",
          "type": "address"
        },
        {
          "indexed": false,
          "internalType": "bool",
          "name": "isLong",
          "type": "bool"
        },
        {
          "indexed": false,
          "internalType": "bool",
          "name": "isIncrease",
          "type": "bool"
        },
        {
          "indexed": false,
          "internalType": "uint256",
          "name": "orderID",
          "type": "uint256"
        },
        {
          "indexed": false,
          "internalType": "address",
          "name": "market",
          "type": "address"
        }
      ],
      "name": "DeleteOrder",
      "type": "event"
    },
    {
      "anonymous": false,
      "inputs": [
        {
          "indexed": true,
          "internalType": "bytes32",
          "name": "role",
          "type": "bytes32"
        },
        {
          "indexed": true,
          "internalType": "bytes32",
          "name": "previousAdminRole",
          "type": "bytes32"
        },
        {
          "indexed": true,
          "internalType": "bytes32",
          "name": "newAdminRole",
          "type": "bytes32"
        }
      ],
      "name": "RoleAdminChanged",
      "type": "event"
    },
    {
      "anonymous": false,
      "inputs": [
        {
          "indexed": true,
          "internalType": "bytes32",
          "name": "role",
          "type": "bytes32"
        },
        {
          "indexed": true,
          "internalType": "address",
          "name": "account",
          "type": "address"
        },
        {
          "indexed": true,
          "internalType": "address",
          "name": "sender",
          "type": "address"
        }
      ],
      "name": "RoleGranted",
      "type": "event"
    },
    {
      "anonymous": false,
      "inputs": [
        {
          "indexed": true,
          "internalType": "bytes32",
          "name": "role",
          "type": "bytes32"
        },
        {
          "indexed": true,
          "internalType": "address",
          "name": "account",
          "type": "address"
        },
        {
          "indexed": true,
          "internalType": "address",
          "name": "sender",
          "type": "address"
        }
      ],
      "name": "RoleRevoked",
      "type": "event"
    },
    {
      "anonymous": false,
      "inputs": [
        {
          "indexed": true,
          "internalType": "address",
          "name": "account",
          "type": "address"
        },
        {
          "indexed": false,
          "internalType": "bool",
          "name": "isLong",
          "type": "bool"
        },
        {
          "indexed": false,
          "internalType": "bool",
          "name": "isIncrease",
          "type": "bool"
        },
        {
          "indexed": false,
          "internalType": "uint256",
          "name": "orderID",
          "type": "uint256"
        },
        {
          "indexed": false,
          "internalType": "address",
          "name": "market",
          "type": "address"
        },
        {
          "indexed": false,
          "internalType": "uint256",
          "name": "size",
          "type": "uint256"
        },
        {
          "indexed": false,
          "internalType": "uint256",
          "name": "collateral",
          "type": "uint256"
        },
        {
          "indexed": false,
          "internalType": "uint256",
          "name": "triggerPrice",
          "type": "uint256"
        },
        {
          "indexed": false,
          "internalType": "uint256",
          "name": "tp",
          "type": "uint256"
        },
        {
          "indexed": false,
          "internalType": "uint256",
          "name": "sl",
          "type": "uint256"
        }
      ],
      "name": "UpdateOrder",
      "type": "event"
    },
    {
      "anonymous": false,
      "inputs": [
        {
          "indexed": true,
          "internalType": "address",
          "name": "account",
          "type": "address"
        },
        {
          "indexed": false,
          "internalType": "uint256",
          "name": "collateralDelta",
          "type": "uint256"
        },
        {
          "indexed": false,
          "internalType": "uint256",
          "name": "sizeDelta",
          "type": "uint256"
        },
        {
          "indexed": false,
          "internalType": "bool",
          "name": "isLong",
          "type": "bool"
        },
        {
          "indexed": false,
          "internalType": "uint256",
          "name": "price",
          "type": "uint256"
        },
        {
          "indexed": false,
          "internalType": "int256",
          "name": "pnl",
          "type": "int256"
        },
        {
          "indexed": false,
          "internalType": "uint256",
          "name": "execFee",
          "type": "uint256"
        },
        {
          "indexed": false,
          "internalType": "int256",
          "name": "fundFee",
          "type": "int256"
        },
        {
          "indexed": false,
          "internalType": "uint256",
          "name": "tradeFee",
          "type": "uint256"
        },
        {
          "indexed": false,
          "internalType": "address",
          "name": "market",
          "type": "address"
        },
        {
          "indexed": false,
          "internalType": "address",
          "name": "collateralToken",
          "type": "address"
        },
        {
          "indexed": false,
          "internalType": "address",
          "name": "indexToken",
          "type": "address"
        },
        {
          "indexed": false,
          "internalType": "uint256",
          "name": "category",
          "type": "uint256"
        }
      ],
      "name": "UpdatePosition",
      "type": "event"
    },
    {
      "inputs": [],
      "name": "DEFAULT_ADMIN_ROLE",
      "outputs": [
        {
          "internalType": "bytes32",
          "name": "",
          "type": "bytes32"
        }
      ],
      "stateMutability": "view",
      "type": "function"
    },
    {
      "inputs": [],
      "name": "ROLE_FACTORY",
      "outputs": [
        {
          "internalType": "bytes32",
          "name": "",
          "type": "bytes32"
        }
      ],
      "stateMutability": "view",
      "type": "function"
    },
    {
      "inputs": [],
      "name": "ROLE_POS_KEEPER",
      "outputs": [
        {
          "internalType": "bytes32",
          "name": "",
          "type": "bytes32"
        }
      ],
      "stateMutability": "view",
      "type": "function"
    },
    {
      "inputs": [
        {
          "internalType": "bool",
          "name": "_isIncrease",
          "type": "bool"
        },
        {
          "internalType": "uint256",
          "name": "_orderID",
          "type": "uint256"
        },
        {
          "internalType": "bool",
          "name": "_isLong",
          "type": "bool"
        }
      ],
      "name": "cancelOrder",
      "outputs": [],
      "stateMutability": "nonpayable",
      "type": "function"
    },
    {
      "inputs": [
        {
          "internalType": "bool[]",
          "name": "_isIncreaseList",
          "type": "bool[]"
        },
        {
          "internalType": "uint256[]",
          "name": "_orderIDList",
          "type": "uint256[]"
        },
        {
          "internalType": "bool[]",
          "name": "_isLongList",
          "type": "bool[]"
        }
      ],
      "name": "cancelOrderList",
      "outputs": [],
      "stateMutability": "nonpayable",
      "type": "function"
    },
    {
      "inputs": [],
      "name": "collateralToken",
      "outputs": [
        {
          "internalType": "address",
          "name": "",
          "type": "address"
        }
      ],
      "stateMutability": "view",
      "type": "function"
    },
    {
      "inputs": [
        {
          "internalType": "uint256",
          "name": "",
          "type": "uint256"
        },
        {
          "internalType": "bool",
          "name": "",
          "type": "bool"
        }
      ],
      "name": "decreaseCollateral",
      "outputs": [],
      "stateMutability": "nonpayable",
      "type": "function"
    },
    {
      "inputs": [
        {
          "components": [
            {
              "internalType": "uint8",
              "name": "version",
              "type": "uint8"
            },
            {
              "internalType": "uint32",
              "name": "updatedAtBlock",
              "type": "uint32"
            },
            {
              "internalType": "uint8",
              "name": "triggerAbove",
              "type": "uint8"
            },
            {
              "internalType": "address",
              "name": "account",
              "type": "address"
            },
            {
              "internalType": "uint256",
              "name": "collateral",
              "type": "uint256"
            },
            {
              "internalType": "uint256",
              "name": "size",
              "type": "uint256"
            },
            {
              "internalType": "uint128",
              "name": "price",
              "type": "uint128"
            },
            {
              "internalType": "uint128",
              "name": "priceExtra",
              "type": "uint128"
            },
            {
              "internalType": "uint256",
              "name": "orderID",
              "type": "uint256"
            },
            {
              "internalType": "uint256",
              "name": "extra0",
              "type": "uint256"
            },
            {
              "internalType": "uint256",
              "name": "extra1",
              "type": "uint256"
            }
          ],
          "internalType": "struct Order.Props",
          "name": "",
          "type": "tuple"
        },
        {
          "internalType": "bool",
          "name": "",
          "type": "bool"
        }
      ],
      "name": "decreasePositionFromOrder",
      "outputs": [],
      "stateMutability": "nonpayable",
      "type": "function"
    },
    {
      "inputs": [
        {
          "internalType": "bool",
          "name": "_isLimit",
          "type": "bool"
        },
        {
          "internalType": "uint256",
          "name": "_sizeDelta",
          "type": "uint256"
        },
        {
          "internalType": "bool",
          "name": "_isKeepLev",
          "type": "bool"
        },
        {
          "internalType": "uint256",
          "name": "_price",
          "type": "uint256"
        },
        {
          "internalType": "uint256",
          "name": "_slippage",
          "type": "uint256"
        },
        {
          "internalType": "bool",
          "name": "_isLong",
          "type": "bool"
        },
        {
          "internalType": "bool",
          "name": "_isExec",
          "type": "bool"
        }
      ],
      "name": "decreaseTrade",
      "outputs": [],
      "stateMutability": "nonpayable",
      "type": "function"
    },
    {
      "inputs": [
        {
          "internalType": "bytes32",
          "name": "_orderKey",
          "type": "bytes32"
        },
        {
          "internalType": "contract IOrderBook",
          "name": "_orderBook",
          "type": "address"
        },
        {
          "internalType": "bool",
          "name": "_isLong",
          "type": "bool"
        },
        {
          "internalType": "bool",
          "name": "_isIncrease",
          "type": "bool"
        }
      ],
      "name": "execOrderKey",
      "outputs": [],
      "stateMutability": "nonpayable",
      "type": "function"
    },
    {
      "inputs": [
        {
          "internalType": "bytes32[]",
          "name": "_orderKeyList",
          "type": "bytes32[]"
        },
        {
          "internalType": "bool",
          "name": "_isLong",
          "type": "bool"
        },
        {
          "internalType": "bool",
          "name": "_isIncrease",
          "type": "bool"
        }
      ],
      "name": "execOrderKeys",
      "outputs": [],
      "stateMutability": "nonpayable",
      "type": "function"
    },
    {
      "inputs": [
        {
          "internalType": "uint256",
          "name": "_start",
          "type": "uint256"
        },
        {
          "internalType": "uint256",
          "name": "_end",
          "type": "uint256"
        },
        {
          "internalType": "bool",
          "name": "_isLong",
          "type": "bool"
        },
        {
          "internalType": "bool",
          "name": "_isIncrease",
          "type": "bool"
        }
      ],
      "name": "execOrders",
      "outputs": [],
      "stateMutability": "nonpayable",
      "type": "function"
    },
    {
      "inputs": [],
      "name": "feeRouter",
      "outputs": [
        {
          "internalType": "contract IFeeRouter",
          "name": "",
          "type": "address"
        }
      ],
      "stateMutability": "view",
      "type": "function"
    },
    {
      "inputs": [
        {
          "internalType": "bytes32",
          "name": "role",
          "type": "bytes32"
        }
      ],
      "name": "getRoleAdmin",
      "outputs": [
        {
          "internalType": "bytes32",
          "name": "",
          "type": "bytes32"
        }
      ],
      "stateMutability": "view",
      "type": "function"
    },
    {
      "inputs": [
        {
          "internalType": "bytes32",
          "name": "role",
          "type": "bytes32"
        },
        {
          "internalType": "address",
          "name": "account",
          "type": "address"
        }
      ],
      "name": "grantRole",
      "outputs": [],
      "stateMutability": "nonpayable",
      "type": "function"
    },
    {
      "inputs": [
        {
          "internalType": "bytes32",
          "name": "role",
          "type": "bytes32"
        },
        {
          "internalType": "address",
          "name": "account",
          "type": "address"
        }
      ],
      "name": "hasRole",
      "outputs": [
        {
          "internalType": "bool",
          "name": "",
          "type": "bool"
        }
      ],
      "stateMutability": "view",
      "type": "function"
    },
    {
      "inputs": [
        {
          "internalType": "uint256",
          "name": "_collateralDelta",
          "type": "uint256"
        },
        {
          "internalType": "bool",
          "name": "_isLong",
          "type": "bool"
        }
      ],
      "name": "increaseCollateral",
      "outputs": [],
      "stateMutability": "nonpayable",
      "type": "function"
    },
    {
      "inputs": [
        {
          "components": [
            {
              "internalType": "uint8",
              "name": "version",
              "type": "uint8"
            },
            {
              "internalType": "uint32",
              "name": "updatedAtBlock",
              "type": "uint32"
            },
            {
              "internalType": "uint8",
              "name": "triggerAbove",
              "type": "uint8"
            },
            {
              "internalType": "address",
              "name": "account",
              "type": "address"
            },
            {
              "internalType": "uint256",
              "name": "collateral",
              "type": "uint256"
            },
            {
              "internalType": "uint256",
              "name": "size",
              "type": "uint256"
            },
            {
              "internalType": "uint128",
              "name": "price",
              "type": "uint128"
            },
            {
              "internalType": "uint128",
              "name": "priceExtra",
              "type": "uint128"
            },
            {
              "internalType": "uint256",
              "name": "orderID",
              "type": "uint256"
            },
            {
              "internalType": "uint256",
              "name": "extra0",
              "type": "uint256"
            },
            {
              "internalType": "uint256",
              "name": "extra1",
              "type": "uint256"
            }
          ],
          "internalType": "struct Order.Props",
          "name": "order",
          "type": "tuple"
        },
        {
          "internalType": "bool",
          "name": "_isLong",
          "type": "bool"
        }
      ],
      "name": "increasePositionFromOrder",
      "outputs": [],
      "stateMutability": "nonpayable",
      "type": "function"
    },
    {
      "inputs": [
        {
          "internalType": "bool",
          "name": "_isLimit",
          "type": "bool"
        },
        {
          "internalType": "uint256",
          "name": "_payDelta",
          "type": "uint256"
        },
        {
          "internalType": "uint256",
          "name": "_sizeDelta",
          "type": "uint256"
        },
        {
          "internalType": "uint256",
          "name": "_price",
          "type": "uint256"
        },
        {
          "internalType": "uint256",
          "name": "_tpPrice",
          "type": "uint256"
        },
        {
          "internalType": "uint256",
          "name": "_slPrice",
          "type": "uint256"
        },
        {
          "internalType": "uint256",
          "name": "_slippage",
          "type": "uint256"
        },
        {
          "internalType": "bool",
          "name": "_isLong",
          "type": "bool"
        },
        {
          "internalType": "bool",
          "name": "_isExec",
          "type": "bool"
        }
      ],
      "name": "increaseTrade",
      "outputs": [],
      "stateMutability": "nonpayable",
      "type": "function"
    },
    {
      "inputs": [],
      "name": "indexToken",
      "outputs": [
        {
          "internalType": "address",
          "name": "",
          "type": "address"
        }
      ],
      "stateMutability": "view",
      "type": "function"
    },
    {
      "inputs": [
        {
          "internalType": "address",
          "name": "_positionBook",
          "type": "address"
        },
        {
          "internalType": "contract IOrderBook",
          "name": "_orderBookLong",
          "type": "address"
        },
        {
          "internalType": "contract IOrderBook",
          "name": "_orderBookShort",
          "type": "address"
        },
        {
          "internalType": "address",
          "name": "_addressProvider",
          "type": "address"
        },
        {
          "internalType": "address",
          "name": "_indexToken",
          "type": "address"
        },
        {
          "internalType": "address",
          "name": "_feeRouter",
          "type": "address"
        },
        {
          "internalType": "address",
          "name": "_feeVault",
          "type": "address"
        },
        {
          "internalType": "address",
          "name": "_marketRouter",
          "type": "address"
        },
        {
          "internalType": "address",
          "name": "_vault",
          "type": "address"
        },
        {
          "internalType": "address",
          "name": "_vaultRouter",
          "type": "address"
        },
        {
          "internalType": "address",
          "name": "_collateralToken",
          "type": "address"
        }
      ],
      "name": "initialize",
      "outputs": [],
      "stateMutability": "nonpayable",
      "type": "function"
    },
    {
      "inputs": [
        {
          "internalType": "address",
          "name": "_account",
          "type": "address"
        },
        {
          "internalType": "bool",
          "name": "",
          "type": "bool"
        }
      ],
      "name": "liquidatePosition",
      "outputs": [
        {
          "internalType": "uint256",
          "name": "",
          "type": "uint256"
        }
      ],
      "stateMutability": "nonpayable",
      "type": "function"
    },
    {
      "inputs": [
        {
          "internalType": "bytes32[]",
          "name": "keys",
          "type": "bytes32[]"
        },
        {
          "internalType": "bool",
          "name": "isLong",
          "type": "bool"
        }
      ],
      "name": "liquidatePositionByKey",
      "outputs": [],
      "stateMutability": "nonpayable",
      "type": "function"
    },
    {
      "inputs": [],
      "name": "marketAddressesProvider",
      "outputs": [
        {
          "internalType": "contract IMarketAddressesProvider",
          "name": "",
          "type": "address"
        }
      ],
      "stateMutability": "view",
      "type": "function"
    },
    {
      "inputs": [],
      "name": "orderBookLong",
      "outputs": [
        {
          "internalType": "contract IOrderBook",
          "name": "",
          "type": "address"
        }
      ],
      "stateMutability": "view",
      "type": "function"
    },
    {
      "inputs": [],
      "name": "orderBookShort",
      "outputs": [
        {
          "internalType": "contract IOrderBook",
          "name": "",
          "type": "address"
        }
      ],
      "stateMutability": "view",
      "type": "function"
    },
    {
      "inputs": [],
      "name": "positionBook",
      "outputs": [
        {
          "internalType": "contract IPositionBook",
          "name": "",
          "type": "address"
        }
      ],
      "stateMutability": "view",
      "type": "function"
    },
    {
      "inputs": [
        {
          "internalType": "bytes32",
          "name": "role",
          "type": "bytes32"
        },
        {
          "internalType": "address",
          "name": "account",
          "type": "address"
        }
      ],
      "name": "renounceRole",
      "outputs": [],
      "stateMutability": "nonpayable",
      "type": "function"
    },
    {
      "inputs": [
        {
          "internalType": "bytes32",
          "name": "role",
          "type": "bytes32"
        },
        {
          "internalType": "address",
          "name": "account",
          "type": "address"
        }
      ],
      "name": "revokeRole",
      "outputs": [],
      "stateMutability": "nonpayable",
      "type": "function"
    },
    {
      "inputs": [
        {
          "internalType": "bool",
          "name": "_p",
          "type": "bool"
        }
      ],
      "name": "setOpenDebug",
      "outputs": [],
      "stateMutability": "nonpayable",
      "type": "function"
    },
    {
      "inputs": [
        {
          "internalType": "uint256",
          "name": "_spread",
          "type": "uint256"
        }
      ],
      "name": "setSpread",
      "outputs": [],
      "stateMutability": "nonpayable",
      "type": "function"
    },
    {
      "inputs": [],
      "name": "spread",
      "outputs": [
        {
          "internalType": "uint256",
          "name": "",
          "type": "uint256"
        }
      ],
      "stateMutability": "view",
      "type": "function"
    },
    {
      "inputs": [
        {
          "internalType": "bytes4",
          "name": "interfaceId",
          "type": "bytes4"
        }
      ],
      "name": "supportsInterface",
      "outputs": [
        {
          "internalType": "bool",
          "name": "",
          "type": "bool"
        }
      ],
      "stateMutability": "view",
      "type": "function"
    },
    {
      "inputs": [
        {
          "internalType": "uint256",
          "name": "_orderID",
          "type": "uint256"
        },
        {
          "internalType": "uint256",
          "name": "_triggerPrice",
          "type": "uint256"
        },
        {
          "internalType": "bool",
          "name": "_isLong",
          "type": "bool"
        }
      ],
      "name": "updateDecreaseOrder",
      "outputs": [],
      "stateMutability": "nonpayable",
      "type": "function"
    },
    {
      "inputs": [
        {
          "internalType": "uint256",
          "name": "_orderID",
          "type": "uint256"
        },
        {
          "internalType": "uint256",
          "name": "_triggerPrice",
          "type": "uint256"
        },
        {
          "internalType": "uint256",
          "name": "_tpPrice",
          "type": "uint256"
        },
        {
          "internalType": "uint256",
          "name": "_slPrice",
          "type": "uint256"
        },
        {
          "internalType": "bool",
          "name": "_isLong",
          "type": "bool"
        }
      ],
      "name": "updateIncreaseOrder",
      "outputs": [],
      "stateMutability": "nonpayable",
      "type": "function"
    },
    {
      "inputs": [],
      "name": "vault",
      "outputs": [
        {
          "internalType": "address",
          "name": "",
          "type": "address"
        }
      ],
      "stateMutability": "view",
      "type": "function"
    }
  ],
  "bytecode": "0x60806040523480156200001157600080fd5b50604051620055ee380380620055ee833981016040819052620000349162000182565b6001600e556002620000478282620002e6565b50600c805460ff60a01b1916600160a01b17905562000068600033620000c7565b620000947f41821a71fcd4fd9aecd428014f9b7f61fb3bea3424e8a828796db51ad474a27533620000c7565b620000c07ffb248bbb6ca5a799a6bb9ba79f58aa5cdbe0e5979238a967315e7ffbfd119d1a33620000c7565b50620003b2565b6000828152600f602090815260408083206001600160a01b038516845290915290205460ff1662000168576000828152600f602090815260408083206001600160a01b03851684529091529020805460ff19166001179055620001273390565b6001600160a01b0316816001600160a01b0316837f2f8788117e7eff1d82e926ec794901d17c78024a50270940304540a733656f0d60405160405180910390a45b5050565b634e487b7160e01b600052604160045260246000fd5b600060208083850312156200019657600080fd5b82516001600160401b0380821115620001ae57600080fd5b818501915085601f830112620001c357600080fd5b815181811115620001d857620001d86200016c565b604051601f8201601f19908116603f011681019083821181831017156200020357620002036200016c565b8160405282815288868487010111156200021c57600080fd5b600093505b8284101562000240578484018601518185018701529285019262000221565b600086848301015280965050505050505092915050565b600181811c908216806200026c57607f821691505b6020821081036200028d57634e487b7160e01b600052602260045260246000fd5b50919050565b601f821115620002e157600081815260208120601f850160051c81016020861015620002bc5750805b601f850160051c820191505b81811015620002dd57828155600101620002c8565b5050505b505050565b81516001600160401b038111156200030257620003026200016c565b6200031a8162000313845462000257565b8462000293565b602080601f831160018114620003525760008415620003395750858301515b600019600386901b1c1916600185901b178555620002dd565b600085815260208120601f198616915b82811015620003835788860151825594840194600190910190840162000362565b5085821015620003a25787850151600019600388901b60f8161c191681555b5050505050600190811b01905550565b61522c80620003c26000396000f3fe608060405234801561001057600080fd5b50600436106101ac5760003560e01c806301ffc9a7146101b157806305ba9ae9146101d95780630ad074f8146101f35780630c9def4114610208578063112d3b7b146102195780631c8b58041461022c5780631f86cb541461023f578063248a9ca3146102525780632f2ff15d1461027357806336568abe14610286578063553107f9146102995780635c25c76c146102ae57806376902b83146102b65780637b2fd1e5146102c957806391d14854146102da57806392e1f776146102ed5780639b498f3c146103005780639cb9b65714610313578063a01ffe5b1461033f578063a217fddf14610352578063a22b50961461035a578063ac0b05a61461036d578063b057bfae1461037e578063b2016bd414610391578063b3f7edcf146103a2578063b66a261c146103b7578063d547741f146103ca578063e20965b5146103dd578063e52740f7146103f0578063e7d015f214610403578063e936fcfb14610414578063f105e28314610427578063f29ebf611461043a578063f65cf1571461044b578063f91599541461045e578063fbfa77cf14610471575b600080fd5b6101c46101bf3660046140bf565b610482565b60405190151581526020015b60405180910390f35b600b546001600160a01b03165b6040516101d091906140e9565b610206610201366004614130565b6104b9565b005b600c546001600160a01b03166101e6565b610206610227366004614183565b610728565b61020661023a366004614209565b610843565b61020661024d366004614351565b610ab0565b61026561026036600461442c565b610b4b565b6040519081526020016101d0565b610206610281366004614450565b610b60565b610206610294366004614450565b610b7c565b61026560008051602061516a83398151915281565b600054610265565b6102066102c4366004614480565b610bff565b600a546001600160a01b03166101e6565b6101c46102e8366004614450565b610d46565b6102066102fb36600461455e565b610d71565b61020661030e36600461458c565b6111f3565b6102066103213660046145b1565b600c8054911515600160a01b0260ff60a01b19909216919091179055565b61020661034d366004614629565b611377565b610265600081565b61020661036836600461466f565b6114d6565b6009546001600160a01b03166101e6565b61020661038c3660046146bc565b61188e565b6006546001600160a01b03166101e6565b61026560008051602061514a83398151915281565b6102066103c536600461442c565b6119b2565b6102066103d8366004614450565b6119d0565b6102656103eb366004614714565b6119ec565b6102066103fe366004614742565b611b22565b6005546001600160a01b03166101e6565b6102066104223660046147bd565b611d30565b610206610435366004614843565b611f9e565b6008546001600160a01b03166101e6565b610206610459366004614843565b6120c5565b61020661046c36600461458c565b612208565b6007546001600160a01b03166101e6565b60006001600160e01b03198216637965db0b60e01b14806104b357506301ffc9a760e01b6001600160e01b03198316145b92915050565b80156106a75760405163e3c5b96960e01b8152600481018590526000906001600160a01b0385169063e3c5b9699060240161016060405180830381865afa158015610508573d6000803e3d6000fd5b505050506040513d601f19601f8201168201806040525081019061052c919061494e565b90506105566040518060400160405280600781526020016633b2ba1037b13560c91b815250612551565b61056c8160c001516001600160801b0316612597565b6105f160405180610120016040528083606001516001600160a01b03168152602001836080015181526020018360a0015181526020018360c001516001600160801b031681526020018515158152602001600081526020016001151581526020016105d984610140015190565b81526020016105ea84610120015190565b90526125dc565b6040516398ddd31960e01b8152600481018690526000906001600160a01b038616906398ddd31990602401610160604051808303816000875af115801561063c573d6000803e3d6000fd5b505050506040513d601f19601f82011682018060405250810190610660919061494e565b905080606001516001600160a01b03166000805160206151d78339815191528585846101000151306040516106989493929190614a07565b60405180910390a25050610722565b604051630bdfa7eb60e11b8152600481018590526000906001600160a01b038516906317bf4fd69060240161016060405180830381865afa1580156106f0573d6000803e3d6000fd5b505050506040513d601f19601f82011682018060405250810190610714919061494e565b905061072081846120c5565b505b50505050565b6006543390610742906001600160a01b031682308c612840565b89156107e2576006546040516370a0823160e01b81526107c0916001600160a01b0316906370a082319061077a9085906004016140e9565b602060405180830381865afa158015610797573d6000803e3d6000fd5b505050506040513d601f19601f820116820180604052508101906107bb9190614a2d565b612597565b60006107cf828a8a8a8a612898565b90506107dc818b866128e0565b50610837565b610837604051806101200160405280836001600160a01b031681526020018b81526020018a815260200189815260200185151581526020018681526020018415158152602001888152602001878152506125dc565b50505050505050505050565b61084b612c69565b3360006108588285612cc2565b905060008361087257600b546001600160a01b031661087f565b600a546001600160a01b03165b9050610889614063565b861561098d5760405163e3c5b96960e01b8152600481018490526001600160a01b0383169063e3c5b9699060240161016060405180830381865afa1580156108d5573d6000803e3d6000fd5b505050506040513d601f19601f820116820180604052508101906108f9919061494e565b6040516398ddd31960e01b8152600481018590529091506001600160a01b038316906398ddd31990602401610160604051808303816000875af1158015610944573d6000803e3d6000fd5b505050506040513d601f19601f82011682018060405250810190610968919061494e565b506080810151600654610988916001600160a01b03909116908690612cf5565b610a68565b604051630bdfa7eb60e11b8152600481018490526001600160a01b038316906317bf4fd69060240161016060405180830381865afa1580156109d3573d6000803e3d6000fd5b505050506040513d601f19601f820116820180604052508101906109f7919061494e565b604051635008d4d160e11b8152600481018590529091506001600160a01b0383169063a011a9a290602401610160604051808303816000875af1158015610a42573d6000803e3d6000fd5b505050506040513d601f19601f82011682018060405250810190610a66919061494e565b505b836001600160a01b03166000805160206151d783398151915286898930604051610a959493929190614a07565b60405180910390a250505050610aab6001600e55565b505050565b610ab8612c69565b8151835114610ac657600080fd5b8151815114610ad457600080fd5b815160005b81811015610b3f57610b37858281518110610af657610af6614a46565b6020026020010151858381518110610b1057610b10614a46565b6020026020010151858481518110610b2a57610b2a614a46565b6020026020010151610843565b600101610ad9565b5050610aab6001600e55565b6000908152600f602052604090206001015490565b610b6982610b4b565b610b7281612d14565b610aab8383612d1e565b6001600160a01b0381163314610bf15760405162461bcd60e51b815260206004820152602f60248201527f416363657373436f6e74726f6c3a2063616e206f6e6c792072656e6f756e636560448201526e103937b632b9903337b91039b2b63360891b60648201526084015b60405180910390fd5b610bfb8282612da4565b5050565b60008051602061516a833981519152610c1781612d14565b610c386040518060600160405280602381526020016150fa60239139612551565b610c4189612e0b565b610c7f6040518060400160405280602081526020017f6d61726b65742f696e697469617a6c697a652f61646472657373287468697329815250612551565b610c8830612e0b565b50600980546001600160a01b03199081166001600160a01b039d8e1617909155600a805482169b8d169b909b17909a55600b80548b16998c1699909917909855600c80548a16978b1697909717909655600580548916958a16959095179094556004805488169289169290921790915560088054871692881692909217909155600d80548616918716919091179055600780548516918616919091179055600380548416918516919091179055600680549092169216919091179055565b6000918252600f602090815260408084206001600160a01b0393909316845291905290205460ff1690565b610d79612c69565b33600082610d9257600b546001600160a01b0316610d9f565b600a546001600160a01b03165b9050600080826001600160a01b031663554a0eb7610dbd868a612cc2565b6040518263ffffffff1660e01b8152600401610ddb91815260200190565b61014060405180830381865afa158015610df9573d6000803e3d6000fd5b505050506040513d601f19601f82011682018060405250810190610e1d9190614a5c565b505050505094505093505050600080600015610e51576801158e460913d000009150610e4a82600a614b05565b9050610ed2565b60095460405163118272bf60e31b81526001600160a01b0390911690638c1395f890610e8590899030908c90600401614b1c565b60e060405180830381865afa158015610ea2573d6000803e3d6000fd5b505050506040513d601f19601f82011682018060405250810190610ec69190614b40565b50939650939450505050505b600c5460405163563eccdb60e11b81526000916001600160a01b03169063ac7d99b690610f039030906004016140e9565b602060405180830381865afa158015610f20573d6000803e3d6000fd5b505050506040513d601f19601f82011682018060405250810190610f449190614ba0565b600c54909150600090600160a01b900460ff1615610fdc576008546040516347a994e960e01b81526001600160a01b03909116906347a994e990610f989060009030906001908b9082908590600401614bbd565b602060405180830381865afa158015610fb5573d6000803e3d6000fd5b505050506040513d601f19601f82011682018060405250810190610fd99190614a2d565b90505b60405163f6b8515b60e01b81526001600160a01b0383169063f6b8515b906110109087908a9088908b908890600401614bf5565b602060405180830381865afa15801561102d573d6000803e3d6000fd5b505050506040513d601f19601f820116820180604052508101906110519190614a2d565b506000876001600160a01b03166317bf4fd661106d338f612cc2565b6040518263ffffffff1660e01b815260040161108b91815260200190565b61016060405180830381865afa1580156110a9573d6000803e3d6000fd5b505050506040513d601f19601f820116820180604052508101906110cd919061494e565b90506110d88b612e4e565b6001600160801b031660c08201526111076040518060600160405280602d815260200161511d602d9139612551565b6111108c612597565b604051636b0243b560e01b81526001600160a01b03891690636b0243b59061113c908490600401614c25565b610160604051808303816000875af115801561115c573d6000803e3d6000fd5b505050506040513d601f19601f82011682018060405250810190611180919061494e565b5080606001516001600160a01b03166000805160206150da8339815191528b6001846101000151308660a0015187608001518860c001518961012001518a61014001516040516111d899989796959493929190614cdb565b60405180910390a2505050505050505050610aab6001600e55565b6111fb612c69565b6112266040518060400160405280600a8152602001696d6b742061646472657360b01b815250612551565b61122f30612e0b565b600c54604080516389be278160e01b815290516000926001600160a01b0316916389be27819160048083019260209291908290030181865afa158015611279573d6000803e3d6000fd5b505050506040513d601f19601f8201168201806040525081019061129d9190614ba0565b90506112c06040518060600160405280602581526020016150b560259139612551565b6112c933612e0b565b6000816001600160a01b03166000366040516112e6929190614d2e565b600060405180830381855af49150503d8060008114611321576040519150601f19603f3d011682016040523d82523d6000602084013e611326565b606091505b505090508061136b5760405162461bcd60e51b8152602060048201526011602482015270135add0e991958dc99585cd94818dbdb1b607a1b6044820152606401610be8565b5050610bfb6001600e55565b61137f612c69565b60008051602061514a83398151915261139781612d14565b600c54604080516389be278160e01b815290516000926001600160a01b0316916389be27819160048083019260209291908290030181865afa1580156113e1573d6000803e3d6000fd5b505050506040513d601f19601f820116820180604052508101906114059190614ba0565b90506000848460405160240161141c929190614d3e565b60408051601f198184030181529181526020820180516001600160e01b031663a01ffe5b60e01b1790525190915060009081906001600160a01b03851690611465908590614dad565b600060405180830381855af49150503d80600081146114a0576040519150601f19603f3d011682016040523d82523d6000602084013e6114a5565b606091505b5091509150816114c75760405162461bcd60e51b8152600401610be890614dc9565b5050505050610bfb6001600e55565b6114de612c69565b6000816114f657600b546001600160a01b0316611503565b600a546001600160a01b03165b90506000816001600160a01b031663e3c5b969611520338a612cc2565b6040518263ffffffff1660e01b815260040161153e91815260200190565b61016060405180830381865afa15801561155c573d6000803e3d6000fd5b505050506040513d601f19601f82011682018060405250810190611580919061494e565b905061158f8160600151612e0b565b600c5460405163563eccdb60e11b81526000916001600160a01b03169063ac7d99b6906115c09030906004016140e9565b602060405180830381865afa1580156115dd573d6000803e3d6000fd5b505050506040513d601f19601f820116820180604052508101906116019190614ba0565b60085460a08401516040516320b613eb60e21b81529293506001600160a01b039091169160009183916382d84fac9161163f91309190600401614dee565b602060405180830381865afa15801561165c573d6000803e3d6000fd5b505050506040513d601f19601f820116820180604052508101906116809190614a2d565b6040516309d3989760e01b81526001600160a01b038416906309d39897906116ac9030906004016140e9565b602060405180830381865afa1580156116c9573d6000803e3d6000fd5b505050506040513d601f19601f820116820180604052508101906116ed9190614a2d565b6116f79190614e07565b608085015160a0860151604051631ecaa84160e21b815260048101929092526024820152604481018b9052606481018a90526084810189905287151560a482015260c481018290529091506001600160a01b03841690637b2aa1049060e401602060405180830381865afa158015611773573d6000803e3d6000fd5b505050506040513d601f19601f820116820180604052508101906117979190614a2d565b5050506117a387612e4e565b6001600160801b031660c08301526101408201869052610120820185905260405162fde88d60e81b81526001600160a01b0384169063fde88d00906117ec908590600401614c25565b610160604051808303816000875af115801561180c573d6000803e3d6000fd5b505050506040513d601f19601f82011682018060405250810190611830919061494e565b5081606001516001600160a01b03166000805160206150da8339815191528560018b308760a0015188608001518960c001518d8f60405161187999989796959493929190614cdb565b60405180910390a25050506107206001600e55565b611896612c69565b6000826118ae57600b546001600160a01b03166118bb565b600a546001600160a01b03165b90506118eb6040518060400160405280600d81526020016c657865634f726465724b65797360981b815250612551565b6118f483612ebb565b6118fd82612ebb565b60005b8451811015610b3f57600085828151811061191d5761191d614a46565b602090810291909101015160405163015a0e9f60e31b8152600481018290526001600160a01b0385166024820152861515604482015285151560648201529091503090630ad074f890608401600060405180830381600087803b15801561198357600080fd5b505af1925050508015611994575060015b61199e57506119a0565b505b806119aa81614e1a565b915050611900565b60008051602061516a8339815191526119ca81612d14565b50600055565b6119d982610b4b565b6119e281612d14565b610aab8383612da4565b60006119f6612c69565b60008051602061514a833981519152611a0e81612d14565b600c54604080516389be278160e01b815290516000926001600160a01b0316916389be27819160048083019260209291908290030181865afa158015611a58573d6000803e3d6000fd5b505050506040513d601f19601f82011682018060405250810190611a7c9190614ba0565b9050600080826001600160a01b0316600036604051611a9c929190614d2e565b600060405180830381855af49150503d8060008114611ad7576040519150601f19603f3d011682016040523d82523d6000602084013e611adc565b606091505b509150915081611afe5760405162461bcd60e51b8152600401610be890614dc9565b80806020019051810190611b129190614a2d565b9450505050506104b36001600e55565b611b2a612c69565b338715611be45760008060095460405163118272bf60e31b81526001600160a01b0390911690638c1395f890611b6890869030908a90600401614b1c565b60e060405180830381865afa158015611b85573d6000803e3d6000fd5b505050506040513d601f19601f82011682018060405250810190611ba99190614b40565b50939650939450611bba9350505050565b6000611bc889838c86612efc565b9050611bdb848b838b8a88886000612f2c565b50505050611d1c565b600c54604080516389be278160e01b815290516000926001600160a01b0316916389be27819160048083019260209291908290030181865afa158015611c2e573d6000803e3d6000fd5b505050506040513d601f19601f82011682018060405250810190611c529190614ba0565b604051602481018a90528815156044820152606481018890526084810187905285151560a482015284151560c48201529091506000906001600160a01b0383169060e40160408051601f198184030181529181526020820180516001600160e01b0316630ff70bf960e31b17905251611ccb9190614dad565b600060405180830381855af49150503d8060008114611d06576040519150601f19603f3d011682016040523d82523d6000602084013e611d0b565b606091505b5050905080611d1957600080fd5b50505b50611d276001600e55565b50505050505050565b60008051602061514a833981519152611d4881612d14565b600083611d6057600b546001600160a01b0316611d6d565b600a546001600160a01b03165b604051635c95a1df60e11b815284151560048201529091506000906001600160a01b0383169063b92b43be90602401602060405180830381865afa158015611db9573d6000803e3d6000fd5b505050506040513d601f19601f82011682018060405250810190611ddd9190614a2d565b9050611de887612597565b611df186612597565b611dfa81612597565b808710611e08575050610720565b80861115611e14578095505b85871015611d2757604051630ebdfacf60e21b81526004810188905284151560248201526000906001600160a01b03841690633af7eb3c90604401602060405180830381865afa158015611e6c573d6000803e3d6000fd5b505050506040513d601f19601f82011682018060405250810190611e909190614a2d565b90508415611f175760405163e3c5b96960e01b8152600481018290526000906001600160a01b0385169063e3c5b9699060240161016060405180830381865afa158015611ee1573d6000803e3d6000fd5b505050506040513d601f19601f82011682018060405250810190611f05919061494e565b9050611f118188611f9e565b50611f92565b604051630bdfa7eb60e11b8152600481018290526000906001600160a01b038516906317bf4fd69060240161016060405180830381865afa158015611f60573d6000803e3d6000fd5b505050506040513d601f19601f82011682018060405250810190611f84919061494e565b9050611f9081886120c5565b505b87600101975050611e14565b611fa6612c69565b61202460405180610120016040528084606001516001600160a01b03168152602001846080015181526020018460a0015181526020018460c001516001600160801b0316815260200183151581526020016000815260200160011515815260200161201385610140015190565b81526020016105ea85610120015190565b60008161203c57600b546001600160a01b0316612049565b600a546001600160a01b03165b9050806001600160a01b03166398ddd31961206385613431565b6040518263ffffffff1660e01b815260040161208191815260200190565b610160604051808303816000875af11580156120a1573d6000803e3d6000fd5b505050506040513d601f19601f8201168201806040525081019061136b919061494e565b6120cd612c69565b600c54604080516389be278160e01b815290516000926001600160a01b0316916389be27819160048083019260209291908290030181865afa158015612117573d6000803e3d6000fd5b505050506040513d601f19601f8201168201806040525081019061213b9190614ba0565b9050600080826001600160a01b031660003660405161215b929190614d2e565b600060405180830381855af49150503d8060008114612196576040519150601f19603f3d011682016040523d82523d6000602084013e61219b565b606091505b5091509150816121fb5760405162461bcd60e51b815260206004820152602560248201527f6d61726b65743a6465637265617365506f736974696f6e46726f6d4f726465726044820152640819985a5b60da1b6064820152608401610be8565b505050610bfb6001600e55565b612210612c69565b60408051808201909152601a8152791a5b98dc99585cd950dbdb1b185d195c985b0bd858d8dbdd5b9d60321b6020820152339061224c90612551565b61225581612e0b565b60095460405163118272bf60e31b815260009182916001600160a01b0390911690638c1395f89061228e90869030908990600401614b1c565b60e060405180830381865afa1580156122ab573d6000803e3d6000fd5b505050506040513d601f19601f820116820180604052508101906122cf9190614b40565b5050505050915091506122e182612597565b6122ea81612597565b600c54600090600160a01b900460ff16156123775760085460405163ddb3d1a760e01b81526001600160a01b039091169063ddb3d1a79061233390879030908a90600401614b1c565b602060405180830381865afa158015612350573d6000803e3d6000fd5b505050506040513d601f19601f820116820180604052508101906123749190614a2d565b90505b600c5460405163563eccdb60e11b81526000916001600160a01b03169063ac7d99b6906123a89030906004016140e9565b602060405180830381865afa1580156123c5573d6000803e3d6000fd5b505050506040513d601f19601f820116820180604052508101906123e99190614ba0565b90506000819050806001600160a01b031663c74d92e6826001600160a01b031663177927296040518163ffffffff1660e01b8152600401602060405180830381865afa15801561243d573d6000803e3d6000fd5b505050506040513d601f19601f820116820180604052508101906124619190614e33565b6001878c8a60008a6040518863ffffffff1660e01b815260040161248b9796959493929190614e74565b60006040518083038186803b1580156124a357600080fd5b505afa1580156124b7573d6000803e3d6000fd5b50506006546124d492506001600160a01b0316905087308b612840565b600954604051630a2eb75760e11b81526001600160a01b039091169063145d6eae9061250f90899030908d9060009081908f90600401614ea5565b600060405180830381600087803b15801561252957600080fd5b505af115801561253d573d6000803e3d6000fd5b50505050505050505050610bfb6001600e55565b612594816040516024016125659190614f07565b60408051601f198184030181529190526020810180516001600160e01b031663104c13eb60e21b17905261346c565b50565b612594816040516024016125ad91815260200190565b60408051601f198184030181529190526020810180516001600160e01b031663f82c50f160e01b17905261346c565b6000806125ea81600a614b05565b600c54909150600160a01b900460ff161561268b576009548351608085015160405163118272bf60e31b81526001600160a01b0390931692638c1395f892612639929091309190600401614b1c565b60e060405180830381865afa158015612656573d6000803e3d6000fd5b505050506040513d601f19601f8201168201806040525081019061267a9190614b40565b509396509394506126c89350505050565b6126b66040518060400160405280600a8152602001696265666f7265202d2d2d60b01b815250612551565b6126bf82612597565b6126c881612597565b6126e68360405180604001604052808481526020018581525061348d565b60008360e0015160001415801561270d57506080840151606085015160e086015111901515145b905060008461010001516000141580156127395750846101000151856060015111151585608001511515145b90508180156127455750805b156127ed5760006127888660000151876040015160008960e001518a608001518a8c604001518d6080015115158b151503612781576002612f2c565b6001612f2c565b8651604088015161010089015160808a01519394506000936127bc93929185918b848a151583151514612781576002612f2c565b90506127d26127ca82613431565b610120840152565b6127e66127de83613431565b610120830152565b5050610720565b81806127f65750805b15610720576000611d278660000151876040015160008661281c57896101000151612822565b8960e001515b60808b015160408c01518b908215158b151503612781576002612f2c565b610722846323b872dd60e01b85858560405160240161286193929190614f1a565b60408051601f198184030181529190526020810180516001600160e01b03166001600160e01b031990931692909217909152613948565b6128a0614063565b6001600160a01b03861660608201526128b884612e4e565b6001600160801b031660c082015260a081019490945261012084015261014083015250919050565b60085460a08401516040516320b613eb60e21b81526001600160a01b039092169160009183916382d84fac9161291b91309190600401614dee565b602060405180830381865afa158015612938573d6000803e3d6000fd5b505050506040513d601f19601f8201168201806040525081019061295c9190614a2d565b6040516309d3989760e01b81526001600160a01b038416906309d39897906129889030906004016140e9565b602060405180830381865afa1580156129a5573d6000803e3d6000fd5b505050506040513d601f19601f820116820180604052508101906129c99190614a2d565b6129d39190614e07565b600c5460405163563eccdb60e11b81529192506001600160a01b03169063ac7d99b690612a049030906004016140e9565b602060405180830381865afa158015612a21573d6000803e3d6000fd5b505050506040513d601f19601f82011682018060405250810190612a459190614ba0565b6001600160a01b0316637b2aa104858760a001518860c00151612a6a8a610140015190565b6101208b01516040516001600160e01b031960e088901b168152600481019590955260248501939093526001600160801b0390911660448401526064830152608482015285151560a482015260c4810184905260e401602060405180830381865afa158015612add573d6000803e3d6000fd5b505050506040513d601f19601f82011682018060405250810190612b019190614a2d565b608086015260c0850151612b29906001600160801b0316612b2185613a1a565b879111613b0a565b600083612b4157600b546001600160a01b0316612b4e565b600a546001600160a01b03165b6001600160a01b031663832ca0c9876040518263ffffffff1660e01b8152600401612b799190614c25565b610160604051808303816000875af1158015612b99573d6000803e3d6000fd5b505050506040513d601f19601f82011682018060405250810190612bbd919061494e565b9050612bfc6040518060400160405280601781526020017667656e6572617465644f726465722e73697a653a20257360481b8152508260a00151613b28565b80606001516001600160a01b03166000805160206150da833981519152856001846101000151308660a0015187608001518860c00151612c3e8a610120015190565b6101408b0151604051612c5999989796959493929190614cdb565b60405180910390a2505050505050565b6002600e5403612cbb5760405162461bcd60e51b815260206004820152601f60248201527f5265656e7472616e637947756172643a207265656e7472616e742063616c6c006044820152606401610be8565b6002600e55565b60008282604051602001612cd7929190614f3e565b60405160208183030381529060405280519060200120905092915050565b610aab8363a9059cbb60e01b8484604051602401612861929190614dee565b6125948133613b6d565b612d288282610d46565b610bfb576000828152600f602090815260408083206001600160a01b03851684529091529020805460ff19166001179055612d603390565b6001600160a01b0316816001600160a01b0316837f2f8788117e7eff1d82e926ec794901d17c78024a50270940304540a733656f0d60405160405180910390a45050565b612dae8282610d46565b15610bfb576000828152600f602090815260408083206001600160a01b0385168085529252808320805460ff1916905551339285917ff6391f5c32d9c69d2a47ea670b442974b53935d1edc7fd64eb21e047a839171b9190a45050565b61259481604051602401612e1f91906140e9565b60408051601f198184030181529190526020810180516001600160e01b031663161765e160e11b17905261346c565b60006001600160801b03821115612eb75760405162461bcd60e51b815260206004820152602760248201527f53616665436173743a2076616c756520646f65736e27742066697420696e20316044820152663238206269747360c81b6064820152608401610be8565b5090565b60405181151560248201526125949060440160408051601f198184030181529190526020810180516001600160e01b03166332458eed60e01b17905261346c565b60008415612f205783612f0f8484614b05565b612f199190614f5b565b9050612f24565b5060005b949350505050565b612f34614063565b612f556040518060600160405280602581526020016151b260259139612551565b612f5e83612597565b612f6788612597565b600c5460405163563eccdb60e11b81526000916001600160a01b03169063ac7d99b690612f989030906004016140e9565b602060405180830381865afa158015612fb5573d6000803e3d6000fd5b505050506040513d601f19601f82011682018060405250810190612fd99190614ba0565b600c54909150600090600160a01b900460ff1615613071576008546040516347a994e960e01b81526001600160a01b03909116906347a994e99061302d9060009030906001908b9082908590600401614bbd565b602060405180830381865afa15801561304a573d6000803e3d6000fd5b505050506040513d601f19601f8201168201806040525081019061306e9190614a2d565b90505b816001600160a01b031663f6b8515b878b888e866040518663ffffffff1660e01b81526004016130a5959493929190614bf5565b602060405180830381865afa1580156130c2573d6000803e3d6000fd5b505050506040513d601f19601f820116820180604052508101906130e69190614a2d565b506040805160608d811b6001600160601b03199081166020808501919091523090921b16603483015289151560f81b604883015282516029818403018152604990920190925280519101208460ff1660000361323a5760c0840151600c5460405163b25b41b760e01b8152613235926001600160801b0316916001600160a01b03169063b25b41b79061317d9030906004016140e9565b602060405180830381865afa15801561319a573d6000803e3d6000fd5b505050506040513d601f19601f820116820180604052508101906131be9190614ba0565b6001600160a01b03166376d69760308c156040518363ffffffff1660e01b81526004016131ec929190614f7d565b602060405180830381865afa158015613209573d6000803e3d6000fd5b505050506040513d601f19601f8201168201806040525081019061322d9190614a2d565b869111613b0a565b613244565b60ff851660408501525b6001600160a01b038c16606085015261325c89612e4e565b6001600160801b031660c085015260a084018b9052610140840181905260008861329157600b546001600160a01b031661329e565b600a546001600160a01b03165b90506132c160405180606001604052806028815260200161518a60289139612551565b613346816001600160a01b03166317bf4fd66132dc88613431565b6040518263ffffffff1660e01b81526004016132fa91815260200190565b61016060405180830381865afa158015613318573d6000803e3d6000fd5b505050506040513d601f19601f8201168201806040525081019061333c919061494e565b6101000151612597565b604051634fb1cc1760e11b81526000906001600160a01b03831690639f63982e90613375908990600401614c25565b610160604051808303816000875af1158015613395573d6000803e3d6000fd5b505050506040513d601f19601f820116820180604052508101906133b9919061494e565b905080606001516001600160a01b03166000805160206150da8339815191528b6000846101000151308660a0015187608001518860c001516133fd8a610120015190565b6101408b015160405161341899989796959493929190614cdb565b60405180910390a2505050505098975050505050505050565b6000816060015182610100015160405160200161344f929190614f3e565b604051602081830303815290604052805190602001209050919050565b80516a636f6e736f6c652e6c6f67602083016000808483855afa5050505050565b600c5460405163563eccdb60e11b81526000916001600160a01b03169063ac7d99b6906134be9030906004016140e9565b602060405180830381865afa1580156134db573d6000803e3d6000fd5b505050506040513d601f19601f820116820180604052508101906134ff9190614ba0565b905060008190506000816001600160a01b031663177927296040518163ffffffff1660e01b8152600401602060405180830381865afa158015613546573d6000803e3d6000fd5b505050506040513d601f19601f8201168201806040525081019061356a9190614e33565b845160408781015190516335ab1cbf60e01b81528351600482015260248101929092526044820152600160648201529091506001600160a01b038316906335ab1cbf9060840160006040518083038186803b1580156135c857600080fd5b505afa1580156135dc573d6000803e3d6000fd5b5050600c5460009250600160a01b900460ff161590506136b55761362960405180604001604052806012815260200171666565526f757465725f2e6765744665657360701b815250612551565b600854865160808801516040808a015160c08b015191516347a994e960e01b81526001600160a01b03909516946347a994e99461367194909330939192600190600401614bbd565b602060405180830381865afa15801561368e573d6000803e3d6000fd5b505050506040513d601f19601f820116820180604052508101906136b29190614a2d565b90505b6020808601519087015186516040808a015190516363a6c97360e11b81526001600160a01b0388169463c74d92e6946136f79489946001948a90600401614e74565b60006040518083038186803b15801561370f57600080fd5b505afa158015613723573d6000803e3d6000fd5b5060009250505061375d6040518060400160405280601281526020017176616c6964536c697070616765507269636560701b815250612551565b6060870151608088015160a089015160405163037c3c9b60e01b815286516004820152602481019390935290151560448301526064820152600160848201526001600160a01b0385169063037c3c9b9060a401602060405180830381865afa1580156137cd573d6000803e3d6000fd5b505050506040513d601f19601f820116820180604052508101906137f19190614a2d565b90506000613815836138068a60200151613bc6565b6138109190614f98565b613c30565b60095489516040808c015160808d01519151630a2eb75760e11b81529495506001600160a01b039093169363145d6eae9361385a939230928892918a91600401614ea5565b600060405180830381600087803b15801561387457600080fd5b505af1158015613888573d6000803e3d6000fd5b505089516040808c01516080808e015160065460055485518a815260208101959095529115159484019490945260608301899052600091830182905260a0830182905260c0830182905260e0830191909152306101008301526001600160a01b0392831661012083015282166101408201526001610160820152911692507ffc1f8b40dd27177b575feb8190e47ed65af3a506a9e92b5df7e089b4b1a3626a91506101800160405180910390a261393e83613c82565b5050505050505050565b600061399d826040518060400160405280602081526020017f5361666545524332303a206c6f772d6c6576656c2063616c6c206661696c6564815250856001600160a01b0316613d279092919063ffffffff16565b805190915015610aab57808060200190518101906139bb9190614fbf565b610aab5760405162461bcd60e51b815260206004820152602a60248201527f5361666545524332303a204552433230206f7065726174696f6e20646964206e6044820152691bdd081cdd58d8d9595960b21b6064820152608401610be8565b600c5460405163b25b41b760e01b815260009182916001600160a01b039091169063b25b41b790613a4f9030906004016140e9565b602060405180830381865afa158015613a6c573d6000803e3d6000fd5b505050506040513d601f19601f82011682018060405250810190613a909190614ba0565b6005546040516303b6b4bb60e51b815291925082916001600160a01b03808416926376d6976092613ac992909116908890600401614f7d565b602060405180830381865afa158015613ae6573d6000803e3d6000fd5b505050506040513d601f19601f82011682018060405250810190612f249190614a2d565b80613b16576002613b19565b60015b60ff1660409092019190915250565b610bfb8282604051602401613b3e929190614fdc565b60408051601f198184030181529190526020810180516001600160e01b0316632d839cb360e21b17905261346c565b613b778282610d46565b610bfb57613b8481613d36565b613b8f836020613d48565b604051602001613ba0929190614ffe565b60408051601f198184030181529082905262461bcd60e51b8252610be891600401614f07565b60006001600160ff1b03821115612eb75760405162461bcd60e51b815260206004820152602860248201527f53616665436173743a2076616c756520646f65736e27742066697420696e2061604482015267371034b73a191a9b60c11b6064820152608401610be8565b600080821215612eb75760405162461bcd60e51b815260206004820181905260248201527f53616665436173743a2076616c7565206d75737420626520706f7369746976656044820152606401610be8565b6000811315613cef5760048054600654604051636ce5768960e11b81526001600160a01b039283169363d9caed1293613cc19316913091879101614f1a565b600060405180830381600087803b158015613cdb57600080fd5b505af1158015610720573d6000803e3d6000fd5b600081121561259457600454612594906001600160a01b0316613d148360001961506d565b6006546001600160a01b03169190612cf5565b6060612f248484600085613eea565b60606104b36001600160a01b03831660145b60606000613d57836002614b05565b613d62906002614e07565b6001600160401b03811115613d7957613d7961424b565b6040519080825280601f01601f191660200182016040528015613da3576020820181803683370190505b509050600360fc1b81600081518110613dbe57613dbe614a46565b60200101906001600160f81b031916908160001a905350600f60fb1b81600181518110613ded57613ded614a46565b60200101906001600160f81b031916908160001a9053506000613e11846002614b05565b613e1c906001614e07565b90505b6001811115613e94576f181899199a1a9b1b9c1cb0b131b232b360811b85600f1660108110613e5057613e50614a46565b1a60f81b828281518110613e6657613e66614a46565b60200101906001600160f81b031916908160001a90535060049490941c93613e8d8161509d565b9050613e1f565b508315613ee35760405162461bcd60e51b815260206004820181905260248201527f537472696e67733a20686578206c656e67746820696e73756666696369656e746044820152606401610be8565b9392505050565b606082471015613f4b5760405162461bcd60e51b815260206004820152602660248201527f416464726573733a20696e73756666696369656e742062616c616e636520666f6044820152651c8818d85b1b60d21b6064820152608401610be8565b600080866001600160a01b03168587604051613f679190614dad565b60006040518083038185875af1925050503d8060008114613fa4576040519150601f19603f3d011682016040523d82523d6000602084013e613fa9565b606091505b5091509150613fba87838387613fc5565b979650505050505050565b6060831561403457825160000361402d576001600160a01b0385163b61402d5760405162461bcd60e51b815260206004820152601d60248201527f416464726573733a2063616c6c20746f206e6f6e2d636f6e74726163740000006044820152606401610be8565b5081612f24565b612f2483838151156140495781518083602001fd5b8060405162461bcd60e51b8152600401610be89190614f07565b6040805161016081018252600080825260208201819052918101829052606081018290526080810182905260a0810182905260c0810182905260e081018290526101008101829052610120810182905261014081019190915290565b6000602082840312156140d157600080fd5b81356001600160e01b031981168114613ee357600080fd5b6001600160a01b0391909116815260200190565b6001600160a01b038116811461259457600080fd5b801515811461259457600080fd5b803561412b81614112565b919050565b6000806000806080858703121561414657600080fd5b843593506020850135614158816140fd565b9250604085013561416881614112565b9150606085013561417881614112565b939692955090935050565b60008060008060008060008060006101208a8c0312156141a257600080fd5b89356141ad81614112565b985060208a0135975060408a0135965060608a0135955060808a0135945060a08a0135935060c08a0135925060e08a01356141e781614112565b91506101008a01356141f881614112565b809150509295985092959850929598565b60008060006060848603121561421e57600080fd5b833561422981614112565b925060208401359150604084013561424081614112565b809150509250925092565b634e487b7160e01b600052604160045260246000fd5b60405161016081016001600160401b03811182821017156142845761428461424b565b60405290565b604051601f8201601f191681016001600160401b03811182821017156142b2576142b261424b565b604052919050565b60006001600160401b038211156142d3576142d361424b565b5060051b60200190565b600082601f8301126142ee57600080fd5b813560206143036142fe836142ba565b61428a565b82815260059290921b8401810191818101908684111561432257600080fd5b8286015b8481101561434657803561433981614112565b8352918301918301614326565b509695505050505050565b60008060006060848603121561436657600080fd5b83356001600160401b038082111561437d57600080fd5b614389878388016142dd565b94506020915081860135818111156143a057600080fd5b8601601f810188136143b157600080fd5b80356143bf6142fe826142ba565b81815260059190911b8201840190848101908a8311156143de57600080fd5b928501925b828410156143fc578335825292850192908501906143e3565b9650505050604086013591508082111561441557600080fd5b50614422868287016142dd565b9150509250925092565b60006020828403121561443e57600080fd5b5035919050565b803561412b816140fd565b6000806040838503121561446357600080fd5b823591506020830135614475816140fd565b809150509250929050565b60008060008060008060008060008060006101608c8e0312156144a257600080fd5b8b356144ad816140fd565b9a5060208c01356144bd816140fd565b995060408c01356144cd816140fd565b985060608c01356144dd816140fd565b975060808c01356144ed816140fd565b965060a08c01356144fd816140fd565b955060c08c013561450d816140fd565b945060e08c013561451d816140fd565b93506101008c013561452e816140fd565b925061453d6101208d01614445565b915061454c6101408d01614445565b90509295989b509295989b9093969950565b60008060006060848603121561457357600080fd5b8335925060208401359150604084013561424081614112565b6000806040838503121561459f57600080fd5b82359150602083013561447581614112565b6000602082840312156145c357600080fd5b8135613ee381614112565b600082601f8301126145df57600080fd5b813560206145ef6142fe836142ba565b82815260059290921b8401810191818101908684111561460e57600080fd5b8286015b848110156143465780358352918301918301614612565b6000806040838503121561463c57600080fd5b82356001600160401b0381111561465257600080fd5b61465e858286016145ce565b925050602083013561447581614112565b600080600080600060a0868803121561468757600080fd5b8535945060208601359350604086013592506060860135915060808601356146ae81614112565b809150509295509295909350565b6000806000606084860312156146d157600080fd5b83356001600160401b038111156146e757600080fd5b6146f3868287016145ce565b935050602084013561470481614112565b9150604084013561424081614112565b6000806040838503121561472757600080fd5b8235614732816140fd565b9150602083013561447581614112565b600080600080600080600060e0888a03121561475d57600080fd5b873561476881614112565b965060208801359550604088013561477f81614112565b9450606088013593506080880135925060a088013561479d81614112565b915060c08801356147ad81614112565b8091505092959891949750929550565b600080600080608085870312156147d357600080fd5b8435935060208501359250604085013561416881614112565b60ff8116811461259457600080fd5b803561412b816147ec565b63ffffffff8116811461259457600080fd5b803561412b81614806565b6001600160801b038116811461259457600080fd5b803561412b81614823565b60008082840361018081121561485857600080fd5b6101608082121561486857600080fd5b614870614261565b915061487b856147fb565b825261488960208601614818565b602083015261489a604086016147fb565b60408301526148ab60608601614445565b60608301526080850135608083015260a085013560a08301526148d060c08601614838565b60c08301526148e160e08601614838565b60e08301526101008581013590830152610120808601359083015261014080860135908301529092508290614917818601614120565b925050509250929050565b805161412b816147ec565b805161412b81614806565b805161412b816140fd565b805161412b81614823565b6000610160828403121561496157600080fd5b614969614261565b61497283614922565b81526149806020840161492d565b602082015261499160408401614922565b60408201526149a260608401614938565b60608201526080830151608082015260a083015160a08201526149c760c08401614943565b60c08201526149d860e08401614943565b60e082015261010083810151908201526101208084015190820152610140928301519281019290925250919050565b9315158452911515602084015260408301526001600160a01b0316606082015260800190565b600060208284031215614a3f57600080fd5b5051919050565b634e487b7160e01b600052603260045260246000fd5b6000806000806000806000806000806101408b8d031215614a7c57600080fd5b8a51614a8781614112565b60208c0151909a50614a98816147ec565b60408c015160608d0151919a509850614ab0816140fd565b8097505060808b0151955060a08b0151945060c08b0151935060e08b015192506101008b015191506101208b015190509295989b9194979a5092959850565b634e487b7160e01b600052601160045260246000fd5b80820281158282048414176104b3576104b3614aef565b6001600160a01b039384168152919092166020820152901515604082015260600190565b600080600080600080600060e0888a031215614b5b57600080fd5b875196506020880151955060408801519450606088015193506080880151925060a0880151614b8981614112565b8092505060c0880151905092959891949750929550565b600060208284031215614bb257600080fd5b8151613ee3816140fd565b6001600160a01b039687168152949095166020850152911515604084015260608301521515608082015290151560a082015260c00190565b948552602085019390935260408401919091526060830152608082015260a00190565b6001600160801b03169052565b815160ff16815261016081016020830151614c48602084018263ffffffff169052565b506040830151614c5d604084018260ff169052565b506060830151614c7860608401826001600160a01b03169052565b506080830151608083015260a083015160a083015260c0830151614c9f60c0840182614c18565b5060e0830151614cb260e0840182614c18565b506101008381015190830152610120808401519083015261014092830151929091019190915290565b9815158952961515602089015260408801959095526001600160a01b03939093166060870152608086019190915260a08501526001600160801b031660c084015260e08301526101008201526101200190565b8183823760009101908152919050565b604080825283519082018190526000906020906060840190828701845b82811015614d7757815184529284019290840190600101614d5b565b50505093151592019190915250919050565b60005b83811015614da4578181015183820152602001614d8c565b50506000910152565b60008251614dbf818460208701614d89565b9190910192915050565b6020808252600b908201526a6d6b743a6c697120706f7360a81b604082015260600190565b6001600160a01b03929092168252602082015260400190565b808201808211156104b3576104b3614aef565b600060018201614e2c57614e2c614aef565b5060010190565b600060208284031215614e4557600080fd5b604051602081016001600160401b0381118282101715614e6757614e6761424b565b6040529151825250919050565b96518752941515602087015260408601939093526060850191909152608084015260a083015260c082015260e00190565b6001600160a01b03968716815294909516602085015260408401929092526060830152608082015290151560a082015260c00190565b60008151808452614ef3816020860160208601614d89565b601f01601f19169290920160200192915050565b602081526000613ee36020830184614edb565b6001600160a01b039384168152919092166020820152604081019190915260600190565b60609290921b6001600160601b0319168252601482015260340190565b600082614f7857634e487b7160e01b600052601260045260246000fd5b500490565b6001600160a01b039290921682521515602082015260400190565b8181036000831280158383131683831282161715614fb857614fb8614aef565b5092915050565b600060208284031215614fd157600080fd5b8151613ee381614112565b604081526000614fef6040830185614edb565b90508260208301529392505050565b76020b1b1b2b9b9a1b7b73a3937b61d1030b1b1b7bab73a1604d1b815260008351615030816017850160208801614d89565b7001034b99036b4b9b9b4b733903937b6329607d1b6017918401918201528351615061816028840160208801614d89565b01602801949350505050565b80820260008212600160ff1b8414161561508957615089614aef565b81810583148215176104b3576104b3614aef565b6000816150ac576150ac614aef565b50600019019056fe4d61726b65742e736f6c2f6465637265617365436f6c6c61746572616c2f6163636f756e74d2ac4688baaf870dba21f18c3a385e1ae58b102c0d60258cf384dc361df60fe46d61726b65742f696e697469617a6c697a652f5f6164647265737350726f76696465722d2d2d2d2d2d2d2d2d2d2d2d2d756470617465206465637265617365206f726465722d2d2d2d2d2d2d2d2d2d2dfb248bbb6ca5a799a6bb9ba79f58aa5cdbe0e5979238a967315e7ffbfd119d1a41821a71fcd4fd9aecd428014f9b7f61fb3bea3424e8a828796db51ad474a2752d2d2d2d2d2d2d2d2d2d2d637265617465206465637265617365206f726465722069642d2d2d2d2d2d2d2d2d2d2d6d61726b65742e736f6c2f5f63726561746544656372656173654f7264657222a23cce23bf58a4bb883d7a75b1cff31ed1bd99fac269b47537be26f53235cda2646970667358221220731fd2bbce203e1443aa8989f9e6853f64bed6136e16ecde7e7ba99b34841c4364736f6c63430008110033",
  "linkReferences": {},
  "deployedLinkReferences": {}
}