{
  "_format": "hh-sol-artifact-1",
  "contractName": "MarketReader",
  "sourceName": "contracts/market/MarketReader.sol",
  "abi": [
    {
      "inputs": [],
      "stateMutability": "nonpayable",
      "type": "constructor"
    },
    {
      "inputs": [
        {
          "internalType": "address",
          "name": "_market",
          "type": "address"
        },
        {
          "internalType": "address",
          "name": "_account",
          "type": "address"
        }
      ],
      "name": "availableLiquidity",
      "outputs": [
        {
          "internalType": "uint256",
          "name": "",
          "type": "uint256"
        }
      ],
      "stateMutability": "view",
      "type": "function"
    },
    {
      "inputs": [
        {
          "internalType": "address",
          "name": "_account",
          "type": "address"
        },
        {
          "internalType": "address",
          "name": "_market",
          "type": "address"
        },
        {
          "internalType": "bool",
          "name": "_isLong",
          "type": "bool"
        }
      ],
      "name": "getFundingFee",
      "outputs": [
        {
          "internalType": "int256",
          "name": "",
          "type": "int256"
        }
      ],
      "stateMutability": "view",
      "type": "function"
    },
    {
      "inputs": [
        {
          "internalType": "address",
          "name": "_market",
          "type": "address"
        }
      ],
      "name": "getFundingRate",
      "outputs": [
        {
          "internalType": "int256",
          "name": "",
          "type": "int256"
        },
        {
          "internalType": "int256",
          "name": "",
          "type": "int256"
        }
      ],
      "stateMutability": "view",
      "type": "function"
    },
    {
      "inputs": [
        {
          "internalType": "address",
          "name": "_marketAddr",
          "type": "address"
        }
      ],
      "name": "getMarket",
      "outputs": [
        {
          "components": [
            {
              "internalType": "uint256",
              "name": "minSlippage",
              "type": "uint256"
            },
            {
              "internalType": "uint256",
              "name": "maxSlippage",
              "type": "uint256"
            },
            {
              "internalType": "uint256",
              "name": "slippageDigits",
              "type": "uint256"
            },
            {
              "internalType": "uint256",
              "name": "minLev",
              "type": "uint256"
            },
            {
              "internalType": "uint256",
              "name": "maxLev",
              "type": "uint256"
            },
            {
              "internalType": "uint256",
              "name": "minCollateral",
              "type": "uint256"
            },
            {
              "internalType": "uint256",
              "name": "maxTradeAmount",
              "type": "uint256"
            },
            {
              "internalType": "bool",
              "name": "allowOpen",
              "type": "bool"
            },
            {
              "internalType": "bool",
              "name": "allowClose",
              "type": "bool"
            }
          ],
          "internalType": "struct IMarketReader.ValidOuts",
          "name": "validOuts",
          "type": "tuple"
        },
        {
          "components": [
            {
              "internalType": "uint256",
              "name": "tokenDigits",
              "type": "uint256"
            },
            {
              "internalType": "uint256",
              "name": "closeFeeRate",
              "type": "uint256"
            },
            {
              "internalType": "uint256",
              "name": "openFeeRate",
              "type": "uint256"
            },
            {
              "internalType": "uint256",
              "name": "liquidationFeeUsd",
              "type": "uint256"
            },
            {
              "internalType": "uint256",
              "name": "spread",
              "type": "uint256"
            },
            {
              "internalType": "address",
              "name": "indexToken",
              "type": "address"
            },
            {
              "internalType": "address",
              "name": "collateralToken",
              "type": "address"
            },
            {
              "internalType": "address",
              "name": "vault",
              "type": "address"
            },
            {
              "internalType": "address",
              "name": "marketAddressesProvider",
              "type": "address"
            },
            {
              "internalType": "address",
              "name": "orderBookLong",
              "type": "address"
            },
            {
              "internalType": "address",
              "name": "orderBookShort",
              "type": "address"
            },
            {
              "internalType": "address",
              "name": "positionBook",
              "type": "address"
            }
          ],
          "internalType": "struct IMarketReader.MarketOuts",
          "name": "mktOuts",
          "type": "tuple"
        },
        {
          "components": [
            {
              "internalType": "uint256",
              "name": "closeFeeRate",
              "type": "uint256"
            },
            {
              "internalType": "uint256",
              "name": "openFeeRate",
              "type": "uint256"
            },
            {
              "internalType": "uint256",
              "name": "execFee",
              "type": "uint256"
            },
            {
              "internalType": "uint256",
              "name": "liquidateFee",
              "type": "uint256"
            },
            {
              "internalType": "uint256",
              "name": "digits",
              "type": "uint256"
            }
          ],
          "internalType": "struct IMarketReader.FeeOuts",
          "name": "feeOuts",
          "type": "tuple"
        }
      ],
      "stateMutability": "view",
      "type": "function"
    },
    {
      "inputs": [
        {
          "internalType": "address",
          "name": "_account",
          "type": "address"
        },
        {
          "internalType": "address",
          "name": "_market",
          "type": "address"
        }
      ],
      "name": "getPositions",
      "outputs": [
        {
          "components": [
            {
              "internalType": "uint256",
              "name": "size",
              "type": "uint256"
            },
            {
              "internalType": "uint256",
              "name": "collateral",
              "type": "uint256"
            },
            {
              "internalType": "uint256",
              "name": "averagePrice",
              "type": "uint256"
            },
            {
              "internalType": "int256",
              "name": "entryFundingRate",
              "type": "int256"
            },
            {
              "internalType": "uint256",
              "name": "realisedPnl",
              "type": "uint256"
            },
            {
              "internalType": "bool",
              "name": "hasProfit",
              "type": "bool"
            },
            {
              "internalType": "uint256",
              "name": "lastTime",
              "type": "uint256"
            },
            {
              "internalType": "bool",
              "name": "isLong",
              "type": "bool"
            }
          ],
          "internalType": "struct IMarketReader.PositionOuts[]",
          "name": "_positions",
          "type": "tuple[]"
        }
      ],
      "stateMutability": "view",
      "type": "function"
    }
  ],
  "bytecode": "0x608060405234801561001057600080fd5b506116ed806100206000396000f3fe608060405234801561001057600080fd5b50600436106100575760003560e01c80630baaa5281461005c5780636133eeac14610089578063739118a4146100aa578063889be285146100ca578063d4dfadbf146100dd575b600080fd5b61006f61006a366004611149565b6100ff565b604080519283526020830191909152015b60405180910390f35b61009c61009736600461116d565b6102bc565b604051908152602001610080565b6100bd6100b836600461116d565b6102ca565b60405161008091906111a6565b61009c6100d8366004611245565b6104f6565b6100f06100eb366004611149565b6105d8565b6040516100809392919061135a565b6000806000836001600160a01b031663f29ebf616040518163ffffffff1660e01b8152600401602060405180830381865afa158015610142573d6000803e3d6000fd5b505050506040513d601f19601f820116820180604052508101906101669190611407565b90506000846001600160a01b031663ac0b05a66040518163ffffffff1660e01b8152600401602060405180830381865afa1580156101a8573d6000803e3d6000fd5b505050506040513d601f19601f820116820180604052508101906101cc9190611407565b90506000826001600160a01b0316630baaa528876040518263ffffffff1660e01b81526004016101fc9190611424565b602060405180830381865afa158015610219573d6000803e3d6000fd5b505050506040513d601f19601f8201168201806040525081019061023d9190611438565b90506000826001600160a01b031663c65bc7b1886040518263ffffffff1660e01b815260040161026d9190611424565b602060405180830381865afa15801561028a573d6000803e3d6000fd5b505050506040513d601f19601f820116820180604052508101906102ae9190611438565b919791965090945050505050565b65037b5cce6e575b92915050565b60606000826001600160a01b031663ac0b05a66040518163ffffffff1660e01b8152600401602060405180830381865afa15801561030c573d6000803e3d6000fd5b505050506040513d601f19601f820116820180604052508101906103309190611407565b60408051600280825260608201909252919250816020015b6103506110e8565b81526020019060019003908161034857905050915061036d6110e8565b60405163118272bf60e31b81526001600160a01b03831690638c1395f89061039e9088908890600190600401611451565b60e060405180830381865afa1580156103bb573d6000803e3d6000fd5b505050506040513d601f19601f820116820180604052508101906103df9190611475565b60c0880152151560a087015260808601526060850152604084015260208301528152600160e082015282518190849060009061041d5761041d6114d5565b60200260200101819052506104306110e8565b60405163118272bf60e31b81526001600160a01b03841690638c1395f8906104619089908990600090600401611451565b60e060405180830381865afa15801561047e573d6000803e3d6000fd5b505050506040513d601f19601f820116820180604052508101906104a29190611475565b60c0880152151560a087015260808601526060850152604084015260208301528152600060e082015283518190859060019081106104e2576104e26114d5565b602002602001018190525050505092915050565b600080836001600160a01b031663f29ebf616040518163ffffffff1660e01b8152600401602060405180830381865afa158015610537573d6000803e3d6000fd5b505050506040513d601f19601f8201168201806040525081019061055b9190611407565b60405163889be28560e01b81529091506001600160a01b0382169063889be2859061058e90889088908890600401611451565b602060405180830381865afa1580156105ab573d6000803e3d6000fd5b505050506040513d601f19601f820116820180604052508101906105cf9190611438565b95945050505050565b61062b604051806101200160405280600081526020016000815260200160008152602001600081526020016000815260200160008152602001600081526020016000151581526020016000151581525090565b6040805161018081018252600080825260208201819052918101829052606081018290526080810182905260a0810182905260c0810182905260e081018290526101008101829052610120810182905261014081018290526101608101919091526106be6040518060a0016040528060008152602001600081526020016000815260200160008152602001600081525090565b6106e96040518060400160405280600981526020016819d95d13585c9ad95d60ba1b81525085611005565b60008490506000816001600160a01b031663f29ebf616040518163ffffffff1660e01b8152600401602060405180830381865afa15801561072e573d6000803e3d6000fd5b505050506040513d601f19601f820116820180604052508101906107529190611407565b90506000826001600160a01b0316630c9def416040518163ffffffff1660e01b8152600401602060405180830381865afa158015610794573d6000803e3d6000fd5b505050506040513d601f19601f820116820180604052508101906107b89190611407565b90506000816001600160a01b031663ac7d99b6896040518263ffffffff1660e01b81526004016107e89190611424565b602060405180830381865afa158015610805573d6000803e3d6000fd5b505050506040513d601f19601f820116820180604052508101906108299190611407565b90506000816001600160a01b031663177927296040518163ffffffff1660e01b8152600401602060405180830381865afa15801561086b573d6000803e3d6000fd5b505050506040513d601f19601f8201168201806040525081019061088f91906114eb565b90506040518061012001604052806108a98351610fff1690565b81528251602090910190600c1c610fff1681526020016108cb620186a061104e565b8152825160181c610fff9081166020830152835160241c1660408201526060016108f483611073565b815260200161090283611091565b81526020016109178351600f606c1b16151590565b1515815260200161092e8351600f60681b16151590565b15158152509750604051806101800160405280610952835160ff60709190911c1690565b8152602001856001600160a01b03166362c6a895886040518263ffffffff1660e01b81526004016109839190611424565b602060405180830381865afa1580156109a0573d6000803e3d6000fd5b505050506040513d601f19601f820116820180604052508101906109c49190611438565b8152602001856001600160a01b0316633408d625886040518263ffffffff1660e01b81526004016109f59190611424565b602060405180830381865afa158015610a12573d6000803e3d6000fd5b505050506040513d601f19601f82011682018060405250810190610a369190611438565b815260200160008152602001866001600160a01b0316635c25c76c6040518163ffffffff1660e01b8152600401602060405180830381865afa158015610a80573d6000803e3d6000fd5b505050506040513d601f19601f82011682018060405250810190610aa49190611438565b8152602001866001600160a01b031663e7d015f26040518163ffffffff1660e01b8152600401602060405180830381865afa158015610ae7573d6000803e3d6000fd5b505050506040513d601f19601f82011682018060405250810190610b0b9190611407565b6001600160a01b03168152602001866001600160a01b031663b2016bd46040518163ffffffff1660e01b8152600401602060405180830381865afa158015610b57573d6000803e3d6000fd5b505050506040513d601f19601f82011682018060405250810190610b7b9190611407565b6001600160a01b03168152602001866001600160a01b031663fbfa77cf6040518163ffffffff1660e01b8152600401602060405180830381865afa158015610bc7573d6000803e3d6000fd5b505050506040513d601f19601f82011682018060405250810190610beb9190611407565b6001600160a01b03168152602001866001600160a01b0316630c9def416040518163ffffffff1660e01b8152600401602060405180830381865afa158015610c37573d6000803e3d6000fd5b505050506040513d601f19601f82011682018060405250810190610c5b9190611407565b6001600160a01b03168152602001866001600160a01b0316637b2fd1e56040518163ffffffff1660e01b8152600401602060405180830381865afa158015610ca7573d6000803e3d6000fd5b505050506040513d601f19601f82011682018060405250810190610ccb9190611407565b6001600160a01b03168152602001866001600160a01b03166305ba9ae96040518163ffffffff1660e01b8152600401602060405180830381865afa158015610d17573d6000803e3d6000fd5b505050506040513d601f19601f82011682018060405250810190610d3b9190611407565b6001600160a01b03168152602001866001600160a01b031663ac0b05a66040518163ffffffff1660e01b8152600401602060405180830381865afa158015610d87573d6000803e3d6000fd5b505050506040513d601f19601f82011682018060405250810190610dab9190611407565b6001600160a01b031681525096506040518060a00160405280856001600160a01b03166362c6a8958c6040518263ffffffff1660e01b8152600401610df09190611424565b602060405180830381865afa158015610e0d573d6000803e3d6000fd5b505050506040513d601f19601f82011682018060405250810190610e319190611438565b8152602001856001600160a01b0316633408d6258c6040518263ffffffff1660e01b8152600401610e629190611424565b602060405180830381865afa158015610e7f573d6000803e3d6000fd5b505050506040513d601f19601f82011682018060405250810190610ea39190611438565b8152602001856001600160a01b03166309d398978c6040518263ffffffff1660e01b8152600401610ed49190611424565b602060405180830381865afa158015610ef1573d6000803e3d6000fd5b505050506040513d601f19601f82011682018060405250810190610f159190611438565b8152602001856001600160a01b031663114300fc8c6040518263ffffffff1660e01b8152600401610f469190611424565b602060405180830381865afa158015610f63573d6000803e3d6000fd5b505050506040513d601f19601f82011682018060405250810190610f879190611438565b8152602001610ff6866001600160a01b0316639670c0bc6040518163ffffffff1660e01b8152600401602060405180830381865afa158015610fcd573d6000803e3d6000fd5b505050506040513d601f19601f82011682018060405250810190610ff19190611438565b61104e565b90529799969850505050505050565b61104a828260405160240161101b92919061153a565b60408051601f198184030181529190526020810180516001600160e01b031663319af33360e01b1790526110b1565b5050565b600060015b600190910190611064600a826115b0565b90508281036110535750919050565b600061107e826110d2565b82516102c49190603c1c610fff166115b0565b600061109c826110d2565b82516102c4919060481c63ffffffff166115b0565b80516a636f6e736f6c652e6c6f67602083016000808483855afa5050505050565b80516000906102c49060701c60ff16600a6116ab565b6040518061010001604052806000815260200160008152602001600081526020016000815260200160008152602001600015158152602001600081526020016000151581525090565b6001600160a01b038116811461114657600080fd5b50565b60006020828403121561115b57600080fd5b813561116681611131565b9392505050565b6000806040838503121561118057600080fd5b823561118b81611131565b9150602083013561119b81611131565b809150509250929050565b602080825282518282018190526000919060409081850190868401855b8281101561122a5781518051855286810151878601528581015186860152606080820151908601526080808201519086015260a08082015115159086015260c0808201519086015260e09081015115159085015261010090930192908501906001016111c3565b5091979650505050505050565b801515811461114657600080fd5b60008060006060848603121561125a57600080fd5b833561126581611131565b9250602084013561127581611131565b9150604084013561128581611237565b809150509250925092565b6001600160a01b03169052565b805182526020810151602083015260408101516040830152606081015160608301526080810151608083015260a08101516112db60a0840182611290565b5060c08101516112ee60c0840182611290565b5060e081015161130160e0840182611290565b506101008082015161131582850182611290565b50506101208082015161132a82850182611290565b50506101408082015161133f82850182611290565b50506101608082015161135482850182611290565b50505050565b600061034082019050845182526020850151602083015260408501516040830152606085015160608301526080850151608083015260a085015160a083015260c085015160c083015260e0850151151560e083015261010080860151151581840152506113cb61012083018561129d565b82516102a083015260208301516102c083015260408301516102e083015260608301516103008301526080830151610320830152949350505050565b60006020828403121561141957600080fd5b815161116681611131565b6001600160a01b0391909116815260200190565b60006020828403121561144a57600080fd5b5051919050565b6001600160a01b039384168152919092166020820152901515604082015260600190565b600080600080600080600060e0888a03121561149057600080fd5b875196506020880151955060408801519450606088015193506080880151925060a08801516114be81611237565b8092505060c0880151905092959891949750929550565b634e487b7160e01b600052603260045260246000fd5b6000602082840312156114fd57600080fd5b604051602081016001600160401b038111828210171561152d57634e487b7160e01b600052604160045260246000fd5b6040529151825250919050565b604081526000835180604084015260005b81811015611568576020818701810151606086840101520161154b565b50600060608285018101919091526001600160a01b03949094166020840152601f01601f191690910190910192915050565b634e487b7160e01b600052601160045260246000fd5b80820281158282048414176102c4576102c461159a565b600181815b808511156116025781600019048211156115e8576115e861159a565b808516156115f557918102915b93841c93908002906115cc565b509250929050565b600082611619575060016102c4565b81611626575060006102c4565b816001811461163c576002811461164657611662565b60019150506102c4565b60ff8411156116575761165761159a565b50506001821b6102c4565b5060208310610133831016604e8410600b8410161715611685575081810a6102c4565b61168f83836115c7565b80600019048211156116a3576116a361159a565b029392505050565b6000611166838361160a56fea264697066735822122042f7b34e798ee6f406b2a29a87c53a74572ceff7bbf589bbb4554443cb8becfd64736f6c63430008110033",
  "linkReferences": {},
  "deployedLinkReferences": {}
}