{
  "_format": "hh-sol-artifact-1",
  "contractName": "Market",
  "sourceName": "contracts/market/Market.sol",
  "abi": [
    {
      "inputs": [
        {
          "internalType": "string",
          "name": "_name",
          "type": "string"
        }
      ],
      "stateMutability": "nonpayable",
      "type": "constructor"
    },
    {
      "anonymous": false,
      "inputs": [
        {
          "indexed": true,
          "internalType": "address",
          "name": "account",
          "type": "address"
        },
        {
          "indexed": false,
          "internalType": "bool",
          "name": "isLong",
          "type": "bool"
        },
        {
          "indexed": false,
          "internalType": "bool",
          "name": "isIncrease",
          "type": "bool"
        },
        {
          "indexed": false,
          "internalType": "uint256",
          "name": "orderID",
          "type": "uint256"
        },
        {
          "indexed": false,
          "internalType": "address",
          "name": "market",
          "type": "address"
        }
      ],
      "name": "DeleteOrder",
      "type": "event"
    },
    {
      "anonymous": false,
      "inputs": [
        {
          "indexed": true,
          "internalType": "bytes32",
          "name": "role",
          "type": "bytes32"
        },
        {
          "indexed": true,
          "internalType": "bytes32",
          "name": "previousAdminRole",
          "type": "bytes32"
        },
        {
          "indexed": true,
          "internalType": "bytes32",
          "name": "newAdminRole",
          "type": "bytes32"
        }
      ],
      "name": "RoleAdminChanged",
      "type": "event"
    },
    {
      "anonymous": false,
      "inputs": [
        {
          "indexed": true,
          "internalType": "bytes32",
          "name": "role",
          "type": "bytes32"
        },
        {
          "indexed": true,
          "internalType": "address",
          "name": "account",
          "type": "address"
        },
        {
          "indexed": true,
          "internalType": "address",
          "name": "sender",
          "type": "address"
        }
      ],
      "name": "RoleGranted",
      "type": "event"
    },
    {
      "anonymous": false,
      "inputs": [
        {
          "indexed": true,
          "internalType": "bytes32",
          "name": "role",
          "type": "bytes32"
        },
        {
          "indexed": true,
          "internalType": "address",
          "name": "account",
          "type": "address"
        },
        {
          "indexed": true,
          "internalType": "address",
          "name": "sender",
          "type": "address"
        }
      ],
      "name": "RoleRevoked",
      "type": "event"
    },
    {
      "anonymous": false,
      "inputs": [
        {
          "indexed": true,
          "internalType": "address",
          "name": "account",
          "type": "address"
        },
        {
          "indexed": false,
          "internalType": "bool",
          "name": "isLong",
          "type": "bool"
        },
        {
          "indexed": false,
          "internalType": "bool",
          "name": "isIncrease",
          "type": "bool"
        },
        {
          "indexed": false,
          "internalType": "uint256",
          "name": "orderID",
          "type": "uint256"
        },
        {
          "indexed": false,
          "internalType": "address",
          "name": "market",
          "type": "address"
        },
        {
          "indexed": false,
          "internalType": "uint256",
          "name": "size",
          "type": "uint256"
        },
        {
          "indexed": false,
          "internalType": "uint256",
          "name": "collateral",
          "type": "uint256"
        },
        {
          "indexed": false,
          "internalType": "uint256",
          "name": "triggerPrice",
          "type": "uint256"
        },
        {
          "indexed": false,
          "internalType": "bool",
          "name": "triggerAbove",
          "type": "bool"
        },
        {
          "indexed": false,
          "internalType": "uint256",
          "name": "tp",
          "type": "uint256"
        },
        {
          "indexed": false,
          "internalType": "uint256",
          "name": "sl",
          "type": "uint256"
        }
      ],
      "name": "UpdateOrder",
      "type": "event"
    },
    {
      "anonymous": false,
      "inputs": [
        {
          "indexed": true,
          "internalType": "address",
          "name": "account",
          "type": "address"
        },
        {
          "indexed": false,
          "internalType": "uint256",
          "name": "collateralDelta",
          "type": "uint256"
        },
        {
          "indexed": false,
          "internalType": "uint256",
          "name": "sizeDelta",
          "type": "uint256"
        },
        {
          "indexed": false,
          "internalType": "bool",
          "name": "isLong",
          "type": "bool"
        },
        {
          "indexed": false,
          "internalType": "uint256",
          "name": "price",
          "type": "uint256"
        },
        {
          "indexed": false,
          "internalType": "int256",
          "name": "pnl",
          "type": "int256"
        },
        {
          "indexed": false,
          "internalType": "uint256",
          "name": "execFee",
          "type": "uint256"
        },
        {
          "indexed": false,
          "internalType": "int256",
          "name": "fundFee",
          "type": "int256"
        },
        {
          "indexed": false,
          "internalType": "uint256",
          "name": "tradeFee",
          "type": "uint256"
        },
        {
          "indexed": false,
          "internalType": "address",
          "name": "market",
          "type": "address"
        },
        {
          "indexed": false,
          "internalType": "address",
          "name": "collateralToken",
          "type": "address"
        },
        {
          "indexed": false,
          "internalType": "address",
          "name": "indexToken",
          "type": "address"
        },
        {
          "indexed": false,
          "internalType": "uint256",
          "name": "category",
          "type": "uint256"
        }
      ],
      "name": "UpdatePosition",
      "type": "event"
    },
    {
      "inputs": [],
      "name": "DEFAULT_ADMIN_ROLE",
      "outputs": [
        {
          "internalType": "bytes32",
          "name": "",
          "type": "bytes32"
        }
      ],
      "stateMutability": "view",
      "type": "function"
    },
    {
      "inputs": [],
      "name": "ROLE_FACTORY",
      "outputs": [
        {
          "internalType": "bytes32",
          "name": "",
          "type": "bytes32"
        }
      ],
      "stateMutability": "view",
      "type": "function"
    },
    {
      "inputs": [],
      "name": "ROLE_POS_KEEPER",
      "outputs": [
        {
          "internalType": "bytes32",
          "name": "",
          "type": "bytes32"
        }
      ],
      "stateMutability": "view",
      "type": "function"
    },
    {
      "inputs": [
        {
          "internalType": "bool",
          "name": "_isIncrease",
          "type": "bool"
        },
        {
          "internalType": "uint256",
          "name": "_orderID",
          "type": "uint256"
        },
        {
          "internalType": "bool",
          "name": "_isLong",
          "type": "bool"
        }
      ],
      "name": "cancelOrder",
      "outputs": [],
      "stateMutability": "nonpayable",
      "type": "function"
    },
    {
      "inputs": [
        {
          "internalType": "bool[]",
          "name": "_isIncreaseList",
          "type": "bool[]"
        },
        {
          "internalType": "uint256[]",
          "name": "_orderIDList",
          "type": "uint256[]"
        },
        {
          "internalType": "bool[]",
          "name": "_isLongList",
          "type": "bool[]"
        }
      ],
      "name": "cancelOrderList",
      "outputs": [],
      "stateMutability": "nonpayable",
      "type": "function"
    },
    {
      "inputs": [],
      "name": "collateralToken",
      "outputs": [
        {
          "internalType": "address",
          "name": "",
          "type": "address"
        }
      ],
      "stateMutability": "view",
      "type": "function"
    },
    {
      "inputs": [
        {
          "internalType": "uint256",
          "name": "",
          "type": "uint256"
        },
        {
          "internalType": "bool",
          "name": "",
          "type": "bool"
        }
      ],
      "name": "decreaseCollateral",
      "outputs": [],
      "stateMutability": "nonpayable",
      "type": "function"
    },
    {
      "inputs": [
        {
          "internalType": "bool",
          "name": "_isLimit",
          "type": "bool"
        },
        {
          "internalType": "uint256",
          "name": "_sizeDelta",
          "type": "uint256"
        },
        {
          "internalType": "bool",
          "name": "_isKeepLev",
          "type": "bool"
        },
        {
          "internalType": "uint256",
          "name": "_price",
          "type": "uint256"
        },
        {
          "internalType": "uint256",
          "name": "_slippage",
          "type": "uint256"
        },
        {
          "internalType": "bool",
          "name": "_isLong",
          "type": "bool"
        },
        {
          "internalType": "bool",
          "name": "_isExec",
          "type": "bool"
        }
      ],
      "name": "decreaseTrade",
      "outputs": [],
      "stateMutability": "nonpayable",
      "type": "function"
    },
    {
      "inputs": [
        {
          "internalType": "bool",
          "name": "_isLimit",
          "type": "bool"
        },
        {
          "internalType": "uint256",
          "name": "_sizeDelta",
          "type": "uint256"
        },
        {
          "internalType": "bool",
          "name": "_isKeepLev",
          "type": "bool"
        },
        {
          "internalType": "uint256",
          "name": "_price",
          "type": "uint256"
        },
        {
          "internalType": "uint256",
          "name": "_slippage",
          "type": "uint256"
        },
        {
          "internalType": "bool",
          "name": "_isLong",
          "type": "bool"
        },
        {
          "internalType": "bool",
          "name": "_triggerAbove",
          "type": "bool"
        }
      ],
      "name": "decreaseTrade2",
      "outputs": [],
      "stateMutability": "nonpayable",
      "type": "function"
    },
    {
      "inputs": [
        {
          "internalType": "bytes32",
          "name": "_orderKey",
          "type": "bytes32"
        },
        {
          "internalType": "contract IOrderBook",
          "name": "_orderBook",
          "type": "address"
        },
        {
          "internalType": "bool",
          "name": "_isLong",
          "type": "bool"
        },
        {
          "internalType": "bool",
          "name": "_isIncrease",
          "type": "bool"
        }
      ],
      "name": "execOrderKey",
      "outputs": [],
      "stateMutability": "nonpayable",
      "type": "function"
    },
    {
      "inputs": [
        {
          "internalType": "bytes32[]",
          "name": "_orderKeyList",
          "type": "bytes32[]"
        },
        {
          "internalType": "bool",
          "name": "_isLong",
          "type": "bool"
        },
        {
          "internalType": "bool",
          "name": "_isIncrease",
          "type": "bool"
        }
      ],
      "name": "execOrderKeys",
      "outputs": [],
      "stateMutability": "nonpayable",
      "type": "function"
    },
    {
      "inputs": [
        {
          "internalType": "uint256",
          "name": "_start",
          "type": "uint256"
        },
        {
          "internalType": "uint256",
          "name": "_end",
          "type": "uint256"
        },
        {
          "internalType": "bool",
          "name": "_isLong",
          "type": "bool"
        },
        {
          "internalType": "bool",
          "name": "_isIncrease",
          "type": "bool"
        }
      ],
      "name": "execOrders",
      "outputs": [],
      "stateMutability": "nonpayable",
      "type": "function"
    },
    {
      "inputs": [],
      "name": "feeRouter",
      "outputs": [
        {
          "internalType": "contract IFeeRouter",
          "name": "",
          "type": "address"
        }
      ],
      "stateMutability": "view",
      "type": "function"
    },
    {
      "inputs": [
        {
          "internalType": "bytes32",
          "name": "role",
          "type": "bytes32"
        }
      ],
      "name": "getRoleAdmin",
      "outputs": [
        {
          "internalType": "bytes32",
          "name": "",
          "type": "bytes32"
        }
      ],
      "stateMutability": "view",
      "type": "function"
    },
    {
      "inputs": [
        {
          "internalType": "bytes32",
          "name": "role",
          "type": "bytes32"
        },
        {
          "internalType": "address",
          "name": "account",
          "type": "address"
        }
      ],
      "name": "grantRole",
      "outputs": [],
      "stateMutability": "nonpayable",
      "type": "function"
    },
    {
      "inputs": [
        {
          "internalType": "bytes32",
          "name": "role",
          "type": "bytes32"
        },
        {
          "internalType": "address",
          "name": "account",
          "type": "address"
        }
      ],
      "name": "hasRole",
      "outputs": [
        {
          "internalType": "bool",
          "name": "",
          "type": "bool"
        }
      ],
      "stateMutability": "view",
      "type": "function"
    },
    {
      "inputs": [
        {
          "internalType": "uint256",
          "name": "_collateralDelta",
          "type": "uint256"
        },
        {
          "internalType": "bool",
          "name": "_isLong",
          "type": "bool"
        }
      ],
      "name": "increaseCollateral",
      "outputs": [],
      "stateMutability": "nonpayable",
      "type": "function"
    },
    {
      "inputs": [
        {
          "components": [
            {
              "internalType": "uint8",
              "name": "version",
              "type": "uint8"
            },
            {
              "internalType": "uint32",
              "name": "updatedAtBlock",
              "type": "uint32"
            },
            {
              "internalType": "uint8",
              "name": "triggerAbove",
              "type": "uint8"
            },
            {
              "internalType": "address",
              "name": "account",
              "type": "address"
            },
            {
              "internalType": "uint256",
              "name": "collateral",
              "type": "uint256"
            },
            {
              "internalType": "uint256",
              "name": "size",
              "type": "uint256"
            },
            {
              "internalType": "uint128",
              "name": "price",
              "type": "uint128"
            },
            {
              "internalType": "uint128",
              "name": "priceExtra",
              "type": "uint128"
            },
            {
              "internalType": "uint256",
              "name": "orderID",
              "type": "uint256"
            },
            {
              "internalType": "uint256",
              "name": "extra0",
              "type": "uint256"
            },
            {
              "internalType": "uint256",
              "name": "extra1",
              "type": "uint256"
            }
          ],
          "internalType": "struct Order.Props",
          "name": "order",
          "type": "tuple"
        },
        {
          "internalType": "bool",
          "name": "_isLong",
          "type": "bool"
        }
      ],
      "name": "increasePositionFromOrder",
      "outputs": [],
      "stateMutability": "nonpayable",
      "type": "function"
    },
    {
      "inputs": [
        {
          "internalType": "bool",
          "name": "_isLimit",
          "type": "bool"
        },
        {
          "internalType": "uint256",
          "name": "_payDelta",
          "type": "uint256"
        },
        {
          "internalType": "uint256",
          "name": "_sizeDelta",
          "type": "uint256"
        },
        {
          "internalType": "uint256",
          "name": "_price",
          "type": "uint256"
        },
        {
          "internalType": "uint256",
          "name": "_tpPrice",
          "type": "uint256"
        },
        {
          "internalType": "uint256",
          "name": "_slPrice",
          "type": "uint256"
        },
        {
          "internalType": "uint256",
          "name": "_slippage",
          "type": "uint256"
        },
        {
          "internalType": "bool",
          "name": "_isLong",
          "type": "bool"
        },
        {
          "internalType": "bool",
          "name": "_isExec",
          "type": "bool"
        }
      ],
      "name": "increaseTrade",
      "outputs": [],
      "stateMutability": "nonpayable",
      "type": "function"
    },
    {
      "inputs": [
        {
          "internalType": "bool",
          "name": "_isLimit",
          "type": "bool"
        },
        {
          "internalType": "uint256",
          "name": "_payDelta",
          "type": "uint256"
        },
        {
          "internalType": "uint256",
          "name": "_sizeDelta",
          "type": "uint256"
        },
        {
          "internalType": "uint256",
          "name": "_price",
          "type": "uint256"
        },
        {
          "internalType": "uint256",
          "name": "_tpPrice",
          "type": "uint256"
        },
        {
          "internalType": "uint256",
          "name": "_slPrice",
          "type": "uint256"
        },
        {
          "internalType": "uint256",
          "name": "_slippage",
          "type": "uint256"
        },
        {
          "internalType": "bool",
          "name": "_isLong",
          "type": "bool"
        },
        {
          "internalType": "bool",
          "name": "_triggerAbove",
          "type": "bool"
        }
      ],
      "name": "increaseTrade2",
      "outputs": [],
      "stateMutability": "nonpayable",
      "type": "function"
    },
    {
      "inputs": [],
      "name": "indexToken",
      "outputs": [
        {
          "internalType": "address",
          "name": "",
          "type": "address"
        }
      ],
      "stateMutability": "view",
      "type": "function"
    },
    {
      "inputs": [
        {
          "internalType": "address",
          "name": "_positionBook",
          "type": "address"
        },
        {
          "internalType": "contract IOrderBook",
          "name": "_orderBookLong",
          "type": "address"
        },
        {
          "internalType": "contract IOrderBook",
          "name": "_orderBookShort",
          "type": "address"
        },
        {
          "internalType": "address",
          "name": "_addressProvider",
          "type": "address"
        },
        {
          "internalType": "address",
          "name": "_indexToken",
          "type": "address"
        },
        {
          "internalType": "address",
          "name": "_feeRouter",
          "type": "address"
        },
        {
          "internalType": "address",
          "name": "_feeVault",
          "type": "address"
        },
        {
          "internalType": "address",
          "name": "_marketRouter",
          "type": "address"
        },
        {
          "internalType": "address",
          "name": "_vault",
          "type": "address"
        },
        {
          "internalType": "address",
          "name": "_vaultRouter",
          "type": "address"
        },
        {
          "internalType": "address",
          "name": "_collateralToken",
          "type": "address"
        }
      ],
      "name": "initialize",
      "outputs": [],
      "stateMutability": "nonpayable",
      "type": "function"
    },
    {
      "inputs": [
        {
          "internalType": "bytes32",
          "name": "_key",
          "type": "bytes32"
        },
        {
          "internalType": "bool",
          "name": "_isLong",
          "type": "bool"
        }
      ],
      "name": "isLiquidate",
      "outputs": [
        {
          "internalType": "uint256",
          "name": "_state",
          "type": "uint256"
        }
      ],
      "stateMutability": "view",
      "type": "function"
    },
    {
      "inputs": [
        {
          "internalType": "address",
          "name": "",
          "type": "address"
        },
        {
          "internalType": "bool",
          "name": "",
          "type": "bool"
        }
      ],
      "name": "liquidatePosition",
      "outputs": [
        {
          "internalType": "uint256",
          "name": "",
          "type": "uint256"
        }
      ],
      "stateMutability": "nonpayable",
      "type": "function"
    },
    {
      "inputs": [
        {
          "internalType": "bytes32[]",
          "name": "keys",
          "type": "bytes32[]"
        },
        {
          "internalType": "bool",
          "name": "isLong",
          "type": "bool"
        }
      ],
      "name": "liquidatePositionByKey",
      "outputs": [],
      "stateMutability": "nonpayable",
      "type": "function"
    },
    {
      "inputs": [],
      "name": "marketAddressesProvider",
      "outputs": [
        {
          "internalType": "contract IMarketAddressesProvider",
          "name": "",
          "type": "address"
        }
      ],
      "stateMutability": "view",
      "type": "function"
    },
    {
      "inputs": [],
      "name": "orderBookLong",
      "outputs": [
        {
          "internalType": "contract IOrderBook",
          "name": "",
          "type": "address"
        }
      ],
      "stateMutability": "view",
      "type": "function"
    },
    {
      "inputs": [],
      "name": "orderBookShort",
      "outputs": [
        {
          "internalType": "contract IOrderBook",
          "name": "",
          "type": "address"
        }
      ],
      "stateMutability": "view",
      "type": "function"
    },
    {
      "inputs": [],
      "name": "positionBook",
      "outputs": [
        {
          "internalType": "contract IPositionBook",
          "name": "",
          "type": "address"
        }
      ],
      "stateMutability": "view",
      "type": "function"
    },
    {
      "inputs": [
        {
          "internalType": "bytes32",
          "name": "role",
          "type": "bytes32"
        },
        {
          "internalType": "address",
          "name": "account",
          "type": "address"
        }
      ],
      "name": "renounceRole",
      "outputs": [],
      "stateMutability": "nonpayable",
      "type": "function"
    },
    {
      "inputs": [
        {
          "internalType": "bytes32",
          "name": "role",
          "type": "bytes32"
        },
        {
          "internalType": "address",
          "name": "account",
          "type": "address"
        }
      ],
      "name": "revokeRole",
      "outputs": [],
      "stateMutability": "nonpayable",
      "type": "function"
    },
    {
      "inputs": [
        {
          "internalType": "bool",
          "name": "_delete",
          "type": "bool"
        }
      ],
      "name": "setDeleteOrdersWhenPositionClosed",
      "outputs": [],
      "stateMutability": "nonpayable",
      "type": "function"
    },
    {
      "inputs": [
        {
          "internalType": "bool",
          "name": "_p",
          "type": "bool"
        }
      ],
      "name": "setOpenDebug",
      "outputs": [],
      "stateMutability": "nonpayable",
      "type": "function"
    },
    {
      "inputs": [
        {
          "internalType": "uint256",
          "name": "_spread",
          "type": "uint256"
        }
      ],
      "name": "setSpread",
      "outputs": [],
      "stateMutability": "nonpayable",
      "type": "function"
    },
    {
      "inputs": [],
      "name": "spread",
      "outputs": [
        {
          "internalType": "uint256",
          "name": "",
          "type": "uint256"
        }
      ],
      "stateMutability": "view",
      "type": "function"
    },
    {
      "inputs": [
        {
          "internalType": "bytes4",
          "name": "interfaceId",
          "type": "bytes4"
        }
      ],
      "name": "supportsInterface",
      "outputs": [
        {
          "internalType": "bool",
          "name": "",
          "type": "bool"
        }
      ],
      "stateMutability": "view",
      "type": "function"
    },
    {
      "inputs": [
        {
          "internalType": "uint256",
          "name": "_orderID",
          "type": "uint256"
        },
        {
          "internalType": "uint256",
          "name": "_triggerPrice",
          "type": "uint256"
        },
        {
          "internalType": "bool",
          "name": "_isLong",
          "type": "bool"
        }
      ],
      "name": "updateDecreaseOrder",
      "outputs": [],
      "stateMutability": "nonpayable",
      "type": "function"
    },
    {
      "inputs": [
        {
          "internalType": "uint256",
          "name": "_orderID",
          "type": "uint256"
        },
        {
          "internalType": "uint256",
          "name": "_triggerPrice",
          "type": "uint256"
        },
        {
          "internalType": "uint256",
          "name": "_tpPrice",
          "type": "uint256"
        },
        {
          "internalType": "uint256",
          "name": "_slPrice",
          "type": "uint256"
        },
        {
          "internalType": "bool",
          "name": "_isLong",
          "type": "bool"
        }
      ],
      "name": "updateIncreaseOrder",
      "outputs": [],
      "stateMutability": "nonpayable",
      "type": "function"
    },
    {
      "inputs": [
        {
          "internalType": "address",
          "name": "newMarketAddr",
          "type": "address"
        }
      ],
      "name": "upgradeTo",
      "outputs": [],
      "stateMutability": "nonpayable",
      "type": "function"
    },
    {
      "inputs": [],
      "name": "vault",
      "outputs": [
        {
          "internalType": "address",
          "name": "",
          "type": "address"
        }
      ],
      "stateMutability": "view",
      "type": "function"
    }
  ],
  "bytecode": "0x60806040523480156200001157600080fd5b5060405162005f6238038062005f6283398101604081905262000034916200018f565b6001600e556002620000478282620002f3565b50600c805460ff60a01b1916600160a01b17905562000068600033620000d4565b620000947f41821a71fcd4fd9aecd428014f9b7f61fb3bea3424e8a828796db51ad474a27533620000d4565b620000c07ffb248bbb6ca5a799a6bb9ba79f58aa5cdbe0e5979238a967315e7ffbfd119d1a33620000d4565b50600c805460ff60a81b19169055620003bf565b6000828152600f602090815260408083206001600160a01b038516845290915290205460ff1662000175576000828152600f602090815260408083206001600160a01b03851684529091529020805460ff19166001179055620001343390565b6001600160a01b0316816001600160a01b0316837f2f8788117e7eff1d82e926ec794901d17c78024a50270940304540a733656f0d60405160405180910390a45b5050565b634e487b7160e01b600052604160045260246000fd5b60006020808385031215620001a357600080fd5b82516001600160401b0380821115620001bb57600080fd5b818501915085601f830112620001d057600080fd5b815181811115620001e557620001e562000179565b604051601f8201601f19908116603f0116810190838211818310171562000210576200021062000179565b8160405282815288868487010111156200022957600080fd5b600093505b828410156200024d57848401860151818501870152928501926200022e565b600086848301015280965050505050505092915050565b600181811c908216806200027957607f821691505b6020821081036200029a57634e487b7160e01b600052602260045260246000fd5b50919050565b601f821115620002ee57600081815260208120601f850160051c81016020861015620002c95750805b601f850160051c820191505b81811015620002ea57828155600101620002d5565b5050505b505050565b81516001600160401b038111156200030f576200030f62000179565b620003278162000320845462000264565b84620002a0565b602080601f8311600181146200035f5760008415620003465750858301515b600019600386901b1c1916600185901b178555620002ea565b600085815260208120601f198616915b8281101562000390578886015182559484019460019091019084016200036f565b5085821015620003af5787850151600019600388901b60f8161c191681555b5050505050600190811b01905550565b615b9380620003cf6000396000f3fe608060405234801561001057600080fd5b50600436106101d85760003560e01c806301ffc9a7146101dd57806305ba9ae9146102055780630ad074f81461021f5780630c9def4114610234578063112d3b7b146102455780631c8b5804146102585780631f86cb541461026b578063248a9ca31461027e5780632f2ff15d1461029f57806336568abe146102b25780633659cfe6146102c55780634ecf051c146102d8578063553107f9146102eb5780635c25c76c1461030057806368bf08a11461030857806376902b8314610334578063769ffb52146103475780637b2fd1e51461035a5780638fab7bd81461036b57806391d148541461037e57806392e1f776146103915780639b498f3c146103a45780639cb9b657146103b7578063a01ffe5b146103e3578063a217fddf146103f6578063a22b5096146103fe578063ac0b05a614610411578063b057bfae14610422578063b2016bd414610435578063b3f7edcf14610446578063b66a261c1461045b578063d547741f1461046e578063e20965b514610481578063e52740f714610494578063e7d015f2146104a7578063e936fcfb146104b8578063f105e283146104cb578063f29ebf61146104de578063f9159954146104ef578063fbfa77cf14610502575b600080fd5b6101f06101eb3660046147cf565b610513565b60405190151581526020015b60405180910390f35b600b546001600160a01b03165b6040516101fc91906147f9565b61023261022d366004614840565b61054a565b005b600c546001600160a01b0316610212565b610232610253366004614893565b61084d565b610232610266366004614919565b61086a565b610232610279366004614a61565b61087a565b61029161028c366004614b3c565b610908565b6040519081526020016101fc565b6102326102ad366004614b60565b61091d565b6102326102c0366004614b60565b610939565b6102326102d3366004614b90565b6109b7565b6102326102e6366004614893565b610b4a565b610291600080516020615a9183398151915281565b600054610291565b610232610316366004614bad565b600c8054911515600160a81b0260ff60a81b19909216919091179055565b610232610342366004614bca565b610d23565b610232610355366004614ca8565b610f22565b600a546001600160a01b0316610212565b610291610379366004614d23565b6110c9565b6101f061038c366004614b60565b611166565b61023261039f366004614d48565b611191565b6102326103b2366004614d23565b61165b565b6102326103c5366004614bad565b600c8054911515600160a01b0260ff60a01b19909216919091179055565b6102326103f1366004614dd1565b6116ce565b610291600081565b61023261040c366004614e17565b61174b565b6009546001600160a01b0316610212565b610232610430366004614e64565b611a9a565b6006546001600160a01b0316610212565b610291600080516020615a7183398151915281565b610232610469366004614b3c565b611bb3565b61023261047c366004614b60565b611bd1565b61029161048f366004614ebc565b611bed565b6102326104a2366004614ca8565b611c7b565b6005546001600160a01b0316610212565b6102326104c6366004614eea565b611c9e565b6102326104d9366004614f70565b611f0c565b6008546001600160a01b0316610212565b6102326104fd366004614d23565b612074565b6007546001600160a01b0316610212565b60006001600160e01b03198216637965db0b60e01b148061054457506301ffc9a760e01b6001600160e01b03198316145b92915050565b801561078e5760405163e3c5b96960e01b8152600481018590526000906001600160a01b0385169063e3c5b9699060240161016060405180830381865afa158015610599573d6000803e3d6000fd5b505050506040513d601f19601f820116820180604052508101906105bd919061507b565b90506105e76040518060400160405280600781526020016633b2ba1037b13560c91b815250612384565b6105fd8160c001516001600160801b03166123ca565b600061068460405180610120016040528084606001516001600160a01b03168152602001846080015181526020018460a0015181526020018460c001516001600160801b0316815260200186151581526020016000815260200160011515815260200161066c85610140015190565b815260200161067d85610120015190565b905261240f565b9050610690828261270e565b6106d75760405162461bcd60e51b81526020600482015260136024820152726d61726b65743a7472696767657261626f766560681b60448201526064015b60405180910390fd5b6040516398ddd31960e01b8152600481018790526000906001600160a01b038716906398ddd31990602401610160604051808303816000875af1158015610722573d6000803e3d6000fd5b505050506040513d601f19601f82011682018060405250810190610746919061507b565b905080606001516001600160a01b0316600080516020615b3e83398151915286868461010001513060405161077e9493929190615134565b60405180910390a2505050610847565b604051630bdfa7eb60e11b8152600481018590526000906001600160a01b038516906317bf4fd69060240161016060405180830381865afa1580156107d7573d6000803e3d6000fd5b505050506040513d601f19601f820116820180604052508101906107fb919061507b565b90506108078184612734565b80606001516001600160a01b0316600080516020615b3e83398151915284848461010001513060405161083d9493929190615134565b60405180910390a2505b50505050565b61085f89898989898989898a15610b4a565b505050505050505050565b6108758383836127b5565b505050565b815183511461088857600080fd5b815181511461089657600080fd5b815160005b81811015610901576108f98582815181106108b8576108b861515a565b60200260200101518583815181106108d2576108d261515a565b60200260200101518584815181106108ec576108ec61515a565b60200260200101516127b5565b60010161089b565b5050505050565b6000908152600f602052604090206001015490565b61092682610908565b61092f81612a11565b6108758383612a1b565b6001600160a01b03811633146109a95760405162461bcd60e51b815260206004820152602f60248201527f416363657373436f6e74726f6c3a2063616e206f6e6c792072656e6f756e636560448201526e103937b632b9903337b91039b2b63360891b60648201526084016106ce565b6109b38282612aa1565b5050565b6006546040516370a0823160e01b81526000916001600160a01b0316906370a08231906109e89030906004016147f9565b602060405180830381865afa158015610a05573d6000803e3d6000fd5b505050506040513d601f19601f82011682018060405250810190610a299190615170565b60065460405163a9059cbb60e01b81529192506001600160a01b03169063a9059cbb90610a5c9085908590600401615189565b6020604051808303816000875af1158015610a7b573d6000803e3d6000fd5b505050506040513d601f19601f82011682018060405250810190610a9f91906151a2565b50610aa8612b08565b60405163d04093d560e01b81526000600482018190526024820181905260448201819052606482018190526084820181905260a4820181905260c4820181905260e4820181905261010482015260126101248201526001600160a01b03919091169063d04093d59061014401600060405180830381600087803b158015610b2e57600080fd5b505af1158015610b42573d6000803e3d6000fd5b505050505050565b82600003610b5757601e92505b6040805180820190915260098152685f70617944656c746160b81b60208201523390610b8290612384565b610b8b896123ca565b610b93612b08565b6001600160a01b031663015fc6138a6040518263ffffffff1660e01b8152600401610bc091815260200190565b60006040518083038186803b158015610bd857600080fd5b505afa158015610bec573d6000803e3d6000fd5b5050600654600c54610c1e93506001600160a01b039182169250849130918e91811690600160b01b900460ff16612b7f565b8915610cbf576006546040516370a0823160e01b8152610c9c916001600160a01b0316906370a0823190610c569085906004016147f9565b602060405180830381865afa158015610c73573d6000803e3d6000fd5b505050506040513d601f19601f82011682018060405250810190610c979190615170565b6123ca565b6000610cab828a8a8a8a612bb5565b9050610cb9818b8686612c04565b50610d17565b610d15604051806101200160405280836001600160a01b031681526020018b81526020018a815260200189815260200185151581526020018681526020016000151581526020018881526020018781525061240f565b505b50505050505050505050565b600080516020615a91833981519152610d3b81612a11565b610d5c604051806060016040528060238152602001615a2160239139612384565b610d6589612f68565b610da36040518060400160405280602081526020017f6d61726b65742f696e697469617a6c697a652f61646472657373287468697329815250612384565b610dac30612f68565b600980546001600160a01b03199081166001600160a01b038f811691909117909255600a805482168e8416179055600b805482168d8416179055600c805482168c84161790556005805482168b84161790556004805482168984161781556008805483168b8516179055600d80548316898516179055600780548316888516179055600380548316878516179055600680549092169285169283179091556040805163313ce56760e01b8152905163313ce567928281019260209291908290030181865afa158015610e82573d6000803e3d6000fd5b505050506040513d601f19601f82011682018060405250810190610ea691906151bf565b600c805460ff60b01b1916600160b01b60ff93841681029190911791829055900416600614610f145760405162461bcd60e51b815260206004820152601a6024820152793932b6b7bb32903a3434b9903337b910383937b23ab1ba34b7b760311b60448201526064016106ce565b505050505050505050505050565b3387156110285760095460405163118272bf60e31b815260009182916001600160a01b0390911690638c1395f890610f6290869030908a906004016151dc565b60e060405180830381865afa158015610f7f573d6000803e3d6000fd5b505050506040513d601f19601f82011682018060405250810190610fa39190615200565b5093965093945060009350610fc092508b91508490508c86612fab565b905061101f604051806101000160405280866001600160a01b031681526020018c81526020018381526020018a8152602001881515815260200185815260200184815260200187611012576002611015565b60015b60ff169052612fda565b505050506110bf565b600c54604051602481018990528715156044820152606481018790526084810186905284151560a4820152600060c48201526110bf916001600160a01b03169060e40160408051601f19818403018152918152602080830180516001600160e01b0316630ff70bf960e31b1790528151808301909252601082526f3232b1b932b0b9b2a837b9b4ba34b7b760811b9082015261344d565b5050505050505050565b6000806110d4612b08565b600954600854604051630734f97160e41b81526004810188905286151560248201526001600160a01b039283166044820152908216606482015291925082169063734f971090608401602060405180830381865afa15801561113a573d6000803e3d6000fd5b505050506040513d601f19601f8201168201806040525081019061115e9190615170565b949350505050565b6000918252600f602090815260408084206001600160a01b0393909316845291905290205460ff1690565b6111e960405180610120016040528060006001600160a01b0316815260200160008152602001600081526020016000815260200160008152602001600081526020016000815260200160008152602001600081525090565b33815260008261120457600b546001600160a01b0316611211565b600a546001600160a01b03165b9050806001600160a01b031663554a0eb7611230846000015188613580565b6040518263ffffffff1660e01b815260040161124e91815260200190565b61014060405180830381865afa15801561126c573d6000803e3d6000fd5b505050506040513d601f19601f820116820180604052508101906112909190615260565b50505050604080890192909252506020870192909252506009548551915163118272bf60e31b81526001600160a01b039091169350638c1395f892506112dd9190309088906004016151dc565b60e060405180830381865afa1580156112fa573d6000803e3d6000fd5b505050506040513d601f19601f8201168201806040525081019061131e9190615200565b505050505060608401526080830152600c5460405163563eccdb60e11b81526000916001600160a01b03169063ac7d99b69061135e9030906004016147f9565b602060405180830381865afa15801561137b573d6000803e3d6000fd5b505050506040513d601f19601f8201168201806040525081019061139f91906152f3565b60085460408086015190516347a994e960e01b81529293506001600160a01b03909116916347a994e9916113e29160009130916001919082908590600401615310565b608060405180830381865afa1580156113ff573d6000803e3d6000fd5b505050506040513d601f19601f820116820180604052508101906114239190615348565b61010087015260e086015260c085015260a08401819052606084015160208501516080860151604080880151905163f6b8515b60e01b81526001600160a01b0387169563f6b8515b956114819590949093909290919060040161537e565b602060405180830381865afa15801561149e573d6000803e3d6000fd5b505050506040513d601f19601f820116820180604052508101906114c29190615170565b506000826001600160a01b03166317bf4fd66114de338a613580565b6040518263ffffffff1660e01b81526004016114fc91815260200190565b61016060405180830381865afa15801561151a573d6000803e3d6000fd5b505050506040513d601f19601f8201168201806040525081019061153e919061507b565b9050611549866135b3565b6001600160801b031660c08201526115786040518060600160405280602d8152602001615a44602d9139612384565b611581876123ca565b604051636b0243b560e01b81526001600160a01b03841690636b0243b5906115ad908490600401615459565b610160604051808303816000875af11580156115cd573d6000803e3d6000fd5b505050506040513d601f19601f820116820180604052508101906115f1919061507b565b5080606001516001600160a01b0316600080516020615b1e833981519152866000846101000151308660a0015187608001518860c001516116318a613620565b60008060405161164a9a99989796959493929190615468565b60405180910390a250505050505050565b600c5460408051602036601f81018290048202830182019093528282526109b3936001600160a01b0316926000918190840183828082843760009201919091525050604080518082019091526011815270135add0e991958dc99585cd94818dbdb1b607a1b6020820152915061344d9050565b600082826040516024016116e39291906154c3565b60408051601f19818403018152918152602080830180516001600160e01b031663a01ffe5b60e01b179052600c548251808401909352600b83526a6d6b743a6c697120706f7360a81b91830191909152919250610875916001600160a01b031690839061344d565b60008161176357600b546001600160a01b0316611770565b600a546001600160a01b03165b90506000816001600160a01b031663e3c5b96961178d338a613580565b6040518263ffffffff1660e01b81526004016117ab91815260200190565b61016060405180830381865afa1580156117c9573d6000803e3d6000fd5b505050506040513d601f19601f820116820180604052508101906117ed919061507b565b90506117fc8160600151612f68565b6000611806612b08565b60085460a08401516040516320b613eb60e21b81529293506001600160a01b039091169160009183916382d84fac9161184491309190600401615189565b602060405180830381865afa158015611861573d6000803e3d6000fd5b505050506040513d601f19601f820116820180604052508101906118859190615170565b6040516309d3989760e01b81526001600160a01b038416906309d39897906118b19030906004016147f9565b602060405180830381865afa1580156118ce573d6000803e3d6000fd5b505050506040513d601f19601f820116820180604052508101906118f29190615170565b6118fc9190615524565b608085015160a0860151604051631ecaa84160e21b815260048101929092526024820152604481018b9052606481018a90526084810189905287151560a482015260c481018290529091506001600160a01b03841690637b2aa1049060e401602060405180830381865afa158015611978573d6000803e3d6000fd5b505050506040513d601f19601f8201168201806040525081019061199c9190615170565b5050506119a8876135b3565b6001600160801b031660c08301526101408201869052610120820185905260405162fde88d60e81b81526001600160a01b0384169063fde88d00906119f1908590600401615459565b610160604051808303816000875af1158015611a11573d6000803e3d6000fd5b505050506040513d601f19601f82011682018060405250810190611a35919061507b565b5081606001516001600160a01b0316600080516020615b1e8339815191528560018b308760a0015188608001518960c00151611a708b613620565b8f8f604051611a889a99989796959493929190615468565b60405180910390a25050505050505050565b600082611ab257600b546001600160a01b0316611abf565b600a546001600160a01b03165b9050611aef6040518060400160405280600d81526020016c657865634f726465724b65797360981b815250612384565b611af883613696565b611b0182613696565b60005b8451811015610901576000858281518110611b2157611b2161515a565b602090810291909101015160405163015a0e9f60e31b8152600481018290526001600160a01b0385166024820152861515604482015285151560648201529091503090630ad074f890608401600060405180830381600087803b158015611b8757600080fd5b505af1158015611b9b573d6000803e3d6000fd5b50505050508080611bab90615537565b915050611b04565b600080516020615a91833981519152611bcb81612a11565b50600055565b611bda82610908565b611be381612a11565b6108758383612aa1565b6000600080516020615a71833981519152611c0781612a11565b600c5460408051602036601f8101829004820283018201909352828252611c74936001600160a01b031692600091819084018382808284376000920191909152505060408051808201909152600b81526a6d6b743a6c697120706f7360a81b6020820152915061344d9050565b5092915050565b611c958787878787878a611c8f8a156136d7565b10610f22565b50505050505050565b600080516020615a71833981519152611cb681612a11565b600083611cce57600b546001600160a01b0316611cdb565b600a546001600160a01b03165b604051635c95a1df60e11b815284151560048201529091506000906001600160a01b0383169063b92b43be90602401602060405180830381865afa158015611d27573d6000803e3d6000fd5b505050506040513d601f19601f82011682018060405250810190611d4b9190615170565b9050611d56876123ca565b611d5f866123ca565b611d68816123ca565b808710611d76575050610901565b80861115611d82578095505b85871015611c9557604051630ebdfacf60e21b81526004810188905284151560248201526000906001600160a01b03841690633af7eb3c90604401602060405180830381865afa158015611dda573d6000803e3d6000fd5b505050506040513d601f19601f82011682018060405250810190611dfe9190615170565b90508415611e855760405163e3c5b96960e01b8152600481018290526000906001600160a01b0385169063e3c5b9699060240161016060405180830381865afa158015611e4f573d6000803e3d6000fd5b505050506040513d601f19601f82011682018060405250810190611e73919061507b565b9050611e7f8188611f0c565b50611f00565b604051630bdfa7eb60e11b8152600481018290526000906001600160a01b038516906317bf4fd69060240161016060405180830381865afa158015611ece573d6000803e3d6000fd5b505050506040513d601f19601f82011682018060405250810190611ef2919061507b565b9050611efe8188612734565b505b87600101975050611d82565b6000611f8c60405180610120016040528085606001516001600160a01b03168152602001856080015181526020018560a0015181526020018560c001516001600160801b03168152602001841515815260200160008152602001600115158152602001611f7b86610140015190565b815260200161067d86610120015190565b9050611f98838261270e565b611fd35760405162461bcd60e51b815260206004820152600c60248201526b7472696767657241626f766560a01b60448201526064016106ce565b600082611feb57600b546001600160a01b0316611ff8565b600a546001600160a01b03165b9050806001600160a01b03166398ddd319612012866137a4565b6040518263ffffffff1660e01b815260040161203091815260200190565b610160604051808303816000875af1158015612050573d6000803e3d6000fd5b505050506040513d601f19601f82011682018060405250810190610901919061507b565b60408051808201909152601a8152791a5b98dc99585cd950dbdb1b185d195c985b0bd858d8dbdd5b9d60321b602082015233906120b090612384565b6120b981612f68565b60095460405163118272bf60e31b8152600091829182916001600160a01b031690638c1395f8906120f290879030908a906004016151dc565b60e060405180830381865afa15801561210f573d6000803e3d6000fd5b505050506040513d601f19601f820116820180604052508101906121339190615200565b50505050925092509250612146836123ca565b61214f826123ca565b60085460405163ddb3d1a760e01b81526000916001600160a01b03169063ddb3d1a79061218490889030908b906004016151dc565b602060405180830381865afa1580156121a1573d6000803e3d6000fd5b505050506040513d601f19601f820116820180604052508101906121c59190615170565b905060006121d1612b08565b9050806001600160a01b031663eb5f9ba6826001600160a01b031663177927296040518163ffffffff1660e01b8152600401602060405180830381865afa158015612220573d6000803e3d6000fd5b505050506040513d601f19601f820116820180604052508101906122449190615550565b6002878c8a6000896040518863ffffffff1660e01b815260040161226e9796959493929190615591565b60006040518083038186803b15801561228657600080fd5b505afa15801561229a573d6000803e3d6000fd5b5050600654600c546122cc93506001600160a01b039182169250899130918d91811690600160b01b900460ff16612b7f565b600954604051630a2eb75760e11b81526001600160a01b039091169063145d6eae9061230790899030908d9060009081908f906004016155c2565b600060405180830381600087803b15801561232157600080fd5b505af1158015612335573d6000803e3d6000fd5b50506006546005546040516001600160a01b03808c169550600080516020615ad98339815191529450611a88938e936000938f938c9386938493849384933093908216929116906002906155f8565b6123c78160405160240161239891906156ab565b60408051601f198184030181529190526020810180516001600160e01b031663104c13eb60e21b1790526137df565b50565b6123c7816040516024016123e091815260200190565b60408051601f198184030181529190526020810180516001600160e01b031663f82c50f160e01b1790526137df565b600061243560405180606001604052806000815260200160008152602001600081525090565b6009548351608085015160405163118272bf60e31b81526001600160a01b0390931692638c1395f89261246f9290913091906004016151dc565b60e060405180830381865afa15801561248c573d6000803e3d6000fd5b505050506040513d601f19601f820116820180604052508101906124b09190615200565b5050505050602083015281526124c68382613800565b915060008360e001516000141580156124ef57506080840151606085015160e086015111901515145b9050600084610100015160001415801561251b5750846101000151856060015111151585608001511515145b90508180156125275750805b1561263f57600061259b60405180610100016040528088600001516001600160a01b0316815260200188604001518152602001600081526020018860e00151815260200188608001511515815260200186602001518152602001886040015181526020018860800151611012576002611015565b9050600061260e60405180610100016040528089600001516001600160a01b03168152602001896040015181526020016000815260200189610100015181526020018960800151151581526020018760200151815260200189604001518152602001896080015115611012576002611015565b905061262461261c826137a4565b610120840152565b612638612630836137a4565b610120830152565b5050612706565b81806126485750805b15612706576000821561266f578560800151612665576002612668565b60015b9050612686565b856080015115612680576002612683565b60015b90505b600061270260405180610100016040528089600001516001600160a01b031681526020018960400151815260200160008152602001866126cb578961010001516126d1565b8960e001515b815260200189608001511515815260200187602001518152602001896040015181526020018460ff16815250612fda565b5050505b505050919050565b60c08201516000906001600160801b0316821161272a84613620565b1515149392505050565b600c546040516109b3916001600160a01b03169061275890859085906024016156be565b60408051601f19818403018152918152602080830180516001600160e01b031663f65cf15760e01b179052815180830190925260198252783232b1b932b0b9b2a837b9b4ba34b7b7233937b6a7b93232b960391b9082015261344d565b3360006127c28285613580565b90506000836127dc57600b546001600160a01b03166127e9565b600a546001600160a01b03165b90506127f361474b565b86156129095760405163e3c5b96960e01b8152600481018490526001600160a01b0383169063e3c5b9699060240161016060405180830381865afa15801561283f573d6000803e3d6000fd5b505050506040513d601f19601f82011682018060405250810190612863919061507b565b6040516398ddd31960e01b8152600481018590529091506001600160a01b038316906398ddd31990602401610160604051808303816000875af11580156128ae573d6000803e3d6000fd5b505050506040513d601f19601f820116820180604052508101906128d2919061507b565b506006546080820151600c54612904926001600160a01b039081169288929091811690600160b01b900460ff16613e9f565b6129e4565b604051630bdfa7eb60e11b8152600481018490526001600160a01b038316906317bf4fd69060240161016060405180830381865afa15801561294f573d6000803e3d6000fd5b505050506040513d601f19601f82011682018060405250810190612973919061507b565b604051635008d4d160e11b8152600481018590529091506001600160a01b0383169063a011a9a290602401610160604051808303816000875af11580156129be573d6000803e3d6000fd5b505050506040513d601f19601f820116820180604052508101906129e2919061507b565b505b836001600160a01b0316600080516020615b3e8339815191528689893060405161164a9493929190615134565b6123c78133613ed3565b612a258282611166565b6109b3576000828152600f602090815260408083206001600160a01b03851684529091529020805460ff19166001179055612a5d3390565b6001600160a01b0316816001600160a01b0316837f2f8788117e7eff1d82e926ec794901d17c78024a50270940304540a733656f0d60405160405180910390a45050565b612aab8282611166565b156109b3576000828152600f602090815260408083206001600160a01b0385168085529252808320805460ff1916905551339285917ff6391f5c32d9c69d2a47ea670b442974b53935d1edc7fd64eb21e047a839171b9190a45050565b600c5460405163563eccdb60e11b81526000916001600160a01b03169063ac7d99b690612b399030906004016147f9565b602060405180830381865afa158015612b56573d6000803e3d6000fd5b505050506040513d601f19601f82011682018060405250810190612b7a91906152f3565b905090565b6001600160a01b038516612b9257600080fd5b85611c958686612ba3878787613f2c565b6001600160a01b03851692919061402a565b612bbd61474b565b6001600160a01b0386166060820152612bd5846135b3565b6001600160801b031660c082015260a08101859052610120810182905261014081018390525b95945050505050565b60085460a08501516040516320b613eb60e21b81526001600160a01b039092169160009183916382d84fac91612c3f91309190600401615189565b602060405180830381865afa158015612c5c573d6000803e3d6000fd5b505050506040513d601f19601f82011682018060405250810190612c809190615170565b6040516309d3989760e01b81526001600160a01b038416906309d3989790612cac9030906004016147f9565b602060405180830381865afa158015612cc9573d6000803e3d6000fd5b505050506040513d601f19601f82011682018060405250810190612ced9190615170565b612cf79190615524565b600c5460405163563eccdb60e11b81529192506001600160a01b03169063ac7d99b690612d289030906004016147f9565b602060405180830381865afa158015612d45573d6000803e3d6000fd5b505050506040513d601f19601f82011682018060405250810190612d6991906152f3565b6001600160a01b0316637b2aa104868860a001518960c00151612d8e8b610140015190565b6101208c01516040516001600160e01b031960e088901b168152600481019590955260248501939093526001600160801b0390911660448401526064830152608482015286151560a482015260c4810184905260e401602060405180830381865afa158015612e01573d6000803e3d6000fd5b505050506040513d601f19601f82011682018060405250810190612e259190615170565b6080870152612e348684614082565b600084612e4c57600b546001600160a01b0316612e59565b600a546001600160a01b03165b6001600160a01b031663832ca0c9886040518263ffffffff1660e01b8152600401612e849190615459565b610160604051808303816000875af1158015612ea4573d6000803e3d6000fd5b505050506040513d601f19601f82011682018060405250810190612ec8919061507b565b9050612f076040518060400160405280601781526020017667656e6572617465644f726465722e73697a653a20257360481b8152508260a001516140a0565b80606001516001600160a01b0316600080516020615b1e833981519152866001846101000151308660a0015187608001518860c00151612f468a613620565b6101408b01516101208c015160405161164a9a99989796959493929190615468565b6123c781604051602401612f7c91906147f9565b60408051601f198184030181529190526020810180516001600160e01b031663161765e160e11b1790526137df565b60008415612fcf5783612fbe84846156dd565b612fc891906156f4565b905061115e565b506000949350505050565b612fe261474b565b612fea6147a7565b61300b604051806060016040528060258152602001615af960259139612384565b6130188360c001516123ca565b61302583602001516123ca565b600c5460405163563eccdb60e11b81526000916001600160a01b03169063ac7d99b6906130569030906004016147f9565b602060405180830381865afa158015613073573d6000803e3d6000fd5b505050506040513d601f19601f8201168201806040525081019061309791906152f3565b60085460c08601516040516347a994e960e01b81529293506001600160a01b03909116916347a994e9916130da9160009130916001919082908590600401615310565b608060405180830381865afa1580156130f7573d6000803e3d6000fd5b505050506040513d601f19601f8201168201806040525081019061311b9190615348565b606086015260408086019190915260208086019290925282855260a08701518782015160c089015193890151925163f6b8515b60e01b81526001600160a01b0387169563f6b8515b9561317595909290919060040161537e565b602060405180830381865afa158015613192573d6000803e3d6000fd5b505050506040513d601f19601f820116820180604052508101906131b69190615170565b5083516080850151604080516001600160601b0319606094851b81166020808401919091523090951b16603482015291151560f81b6048830152805180830360290181526049909201905280519101208460e0015160ff166000036132415761323c8460c001516001600160801b03166132348760800151156136d7565b869111614082565b61324f565b60e085015160ff1660408501525b84516001600160a01b031660608086019190915285015161326f906135b3565b6001600160801b031660c0850152602085015160a0850152604085015160808501526101408401819052600085608001516132b557600b546001600160a01b03166132c2565b600a546001600160a01b03165b90506132e5604051806060016040528060288152602001615ab160289139612384565b61336a816001600160a01b03166317bf4fd6613300886137a4565b6040518263ffffffff1660e01b815260040161331e91815260200190565b61016060405180830381865afa15801561333c573d6000803e3d6000fd5b505050506040513d601f19601f82011682018060405250810190613360919061507b565b61010001516123ca565b604051634fb1cc1760e11b81526000906001600160a01b03831690639f63982e90613399908990600401615459565b610160604051808303816000875af11580156133b9573d6000803e3d6000fd5b505050506040513d601f19601f820116820180604052508101906133dd919061507b565b905080606001516001600160a01b0316600080516020615b1e83398151915288608001516000846101000151308660a001518d604001518860c001516134228a613620565b60008060405161343b9a99989796959493929190615468565b60405180910390a25050505050919050565b6000836001600160a01b03166389be27816040518163ffffffff1660e01b8152600401602060405180830381865afa15801561348d573d6000803e3d6000fd5b505050506040513d601f19601f820116820180604052508101906134b191906152f3565b9050600080826001600160a01b0316856040516134ce9190615716565b600060405180830381855af49150503d8060008114613509576040519150601f19603f3d011682016040523d82523d6000602084013e61350e565b606091505b5091509150811561352157505050505050565b805115613566576000808280602001905181019061353f9190615732565b915091508115613563578060405162461bcd60e51b81526004016106ce91906156ab565b50505b8360405162461bcd60e51b81526004016106ce91906156ab565b600082826040516020016135959291906157db565b60405160208183030381529060405280519060200120905092915050565b60006001600160801b0382111561361c5760405162461bcd60e51b815260206004820152602760248201527f53616665436173743a2076616c756520646f65736e27742066697420696e20316044820152663238206269747360c81b60648201526084016106ce565b5090565b6000816040015160ff1660010361363957506001919050565b816040015160ff1660020361365057506000919050565b60405162461bcd60e51b815260206004820152601b60248201527a696e76616c6964206f7264657220747269676765722061626f766560281b60448201526064016106ce565b60405181151560248201526123c79060440160408051601f198184030181529190526020810180516001600160e01b03166332458eed60e01b1790526137df565b600c5460405163b25b41b760e01b815260009182916001600160a01b039091169063b25b41b79061370c9030906004016147f9565b602060405180830381865afa158015613729573d6000803e3d6000fd5b505050506040513d601f19601f8201168201806040525081019061374d91906152f3565b6005546040516303b6b4bb60e51b81526001600160a01b03918216600482015285151560248201529192508291908216906376d6976090604401602060405180830381865afa15801561113a573d6000803e3d6000fd5b600081606001518261010001516040516020016137c29291906157db565b604051602081830303815290604052805190602001209050919050565b80516a636f6e736f6c652e6c6f67602083016000808483855afa5050505050565b600061380b836140e5565b61384c5760405162461bcd60e51b81526020600482015260126024820152716d6b743a696e76616c696420706172616d7360701b60448201526064016106ce565b6000613856612b08565b90506000816001600160a01b031663177927296040518163ffffffff1660e01b8152600401602060405180830381865afa158015613898573d6000803e3d6000fd5b505050506040513d601f19601f820116820180604052508101906138bc9190615550565b845160408781015190516335ab1cbf60e01b81528351600482015260248101929092526044820152600160648201529091506001600160a01b038316906335ab1cbf9060840160006040518083038186803b15801561391a57600080fd5b505afa15801561392e573d6000803e3d6000fd5b5050505061396560405180604001604052806012815260200171666565526f757465725f2e6765744665657360701b815250612384565b60085461397a906001600160a01b0316612f68565b6139826147a7565b600854865160808801516040808a015160c08b015191516347a994e960e01b81526001600160a01b03909516946347a994e9946139ca94909330939192600190600401615310565b608060405180830381865afa1580156139e7573d6000803e3d6000fd5b505050506040513d601f19601f82011682018060405250810190613a0b9190615348565b606085015260408401526020830152808252613a26906123ca565b6020808601519087015186516040808a0151855191516375afcdd360e11b81526001600160a01b0389169563eb5f9ba695613a6e958a95600195939492939192600401615591565b60006040518083038186803b158015613a8657600080fd5b505afa158015613a9a573d6000803e3d6000fd5b50505050613ad16040518060400160405280601281526020017176616c6964536c697070616765507269636560701b815250612384565b6060860151608087015160a088015160405163037c3c9b60e01b815285516004820152602481019390935290151560448301526064820152600160848201526001600160a01b0384169063037c3c9b9060a401602060405180830381865afa158015613b41573d6000803e3d6000fd5b505050506040513d601f19601f82011682018060405250810190613b659190615170565b9350613ba56040518060400160405280601c81526020017b2fb4b731b932b0b9b2a837b9b4ba34b7b71736b0b935a83934b1b29d60211b815250856140a0565b80516020870151613bb59061411a565b13613bed5760405162461bcd60e51b81526020600482015260086024820152677061793c6665657360c01b60448201526064016106ce565b6000613c138260000151613c04896020015161411a565b613c0e91906157f8565b614184565b60095488516040808b015160808c01519151630a2eb75760e11b81529495506001600160a01b039093169363145d6eae93613c58939230928892918d916004016155c2565b600060405180830381600087803b158015613c7257600080fd5b505af1158015613c86573d6000803e3d6000fd5b5050885160808a015160095460085460405163a690c69f60e01b81526001600160a01b0394851660048201523060248201529215156044840152908316606483015282166084820152908716925063a690c69f915060a401602060405180830381865afa158015613cfb573d6000803e3d6000fd5b505050506040513d601f19601f82011682018060405250810190613d1f9190615170565b15613d695760405162461bcd60e51b815260206004820152601a602482015279616374696f6e276c6c20726573756c74206c697175696461746560301b60448201526064016106ce565b600854875160608401516040808601516020870151915163169fef1960e31b81526001600160a01b0394851660048201523060248201526044810193909352600060648401819052608484019190915260a483015260c482015291169063b4ff78c89060e401600060405180830381600087803b158015613de957600080fd5b505af1158015613dfd573d6000803e3d6000fd5b5050505086600001516001600160a01b0316600080516020615ad98339815191528289604001518a60800151896000886020015189604001518a6060015130600660009054906101000a90046001600160a01b0316600560009054906101000a90046001600160a01b03166000604051613e829c9b9a999897969594939291906155f8565b60405180910390a28151613e95906141d6565b5050505092915050565b6001600160a01b038416613eb257600080fd5b84610b4285613ec2868686613f2c565b6001600160a01b038416919061436d565b613edd8282611166565b6109b357613eea8161438c565b613ef583602061439e565b604051602001613f06929190615818565b60408051601f198184030181529082905262461bcd60e51b82526106ce916004016156ab565b600080614005846001600160a01b031663ac7d99b6306040518263ffffffff1660e01b8152600401613f5e91906147f9565b602060405180830381865afa158015613f7b573d6000803e3d6000fd5b505050506040513d601f19601f82011682018060405250810190613f9f91906152f3565b6001600160a01b031663177927296040518163ffffffff1660e01b8152600401602060405180830381865afa158015613fdc573d6000803e3d6000fd5b505050506040513d601f19601f820116820180604052508101906140009190615550565b614540565b90508061401660ff8516600a61596b565b61402090876156dd565b612bfb91906156f4565b610847846323b872dd60e01b85858560405160240161404b93929190615977565b60408051601f198184030181529190526020810180516001600160e01b03166001600160e01b031990931692909217909152614556565b8061408e576002614091565b60015b60ff1660409092019190915250565b6109b382826040516024016140b692919061599b565b60408051601f198184030181529190526020810180516001600160e01b0316632d839cb360e21b1790526137df565b600081604001516000036140fb57506000919050565b81516001600160a01b031661411257506000919050565b506001919050565b60006001600160ff1b0382111561361c5760405162461bcd60e51b815260206004820152602860248201527f53616665436173743a2076616c756520646f65736e27742066697420696e2061604482015267371034b73a191a9b60c11b60648201526084016106ce565b60008082121561361c5760405162461bcd60e51b815260206004820181905260248201527f53616665436173743a2076616c7565206d75737420626520706f73697469766560448201526064016106ce565b6142076040518060400160405280601081526020016f5f7472616e736174696f6e734665657360801b815250612384565b60008112156142d75761423960405180604001604052806008815260200167066656573203c20360c41b815250612384565b614265604051806040016040528060018152602001602d60f81b81525082614260906159bd565b6140a0565b6004546006546001600160a01b039182169163d9caed1291163061428b856000196159d9565b6040518463ffffffff1660e01b81526004016142a993929190615977565b600060405180830381600087803b1580156142c357600080fd5b505af1158015610901573d6000803e3d6000fd5b60008113156143425761430960405180604001604052806008815260200167066656573203e20360c41b815250612384565b614312816123ca565b600654600454600c546123c7926001600160a01b03908116928116918591811690600160b01b900460ff16613e9f565b6123c76040518060400160405280600a81526020016966656573203d3d20303b60b01b815250612384565b6108758363a9059cbb60e01b848460405160240161404b929190615189565b60606105446001600160a01b03831660145b606060006143ad8360026156dd565b6143b8906002615524565b6001600160401b038111156143cf576143cf61495b565b6040519080825280601f01601f1916602001820160405280156143f9576020820181803683370190505b509050600360fc1b816000815181106144145761441461515a565b60200101906001600160f81b031916908160001a905350600f60fb1b816001815181106144435761444361515a565b60200101906001600160f81b031916908160001a90535060006144678460026156dd565b614472906001615524565b90505b60018111156144ea576f181899199a1a9b1b9c1cb0b131b232b360811b85600f16601081106144a6576144a661515a565b1a60f81b8282815181106144bc576144bc61515a565b60200101906001600160f81b031916908160001a90535060049490941c936144e381615a09565b9050614475565b5083156145395760405162461bcd60e51b815260206004820181905260248201527f537472696e67733a20686578206c656e67746820696e73756666696369656e7460448201526064016106ce565b9392505050565b80516000906105449060701c60ff16600a61596b565b60006145ab826040518060400160405280602081526020017f5361666545524332303a206c6f772d6c6576656c2063616c6c206661696c6564815250856001600160a01b03166146289092919063ffffffff16565b80519091501561087557808060200190518101906145c991906151a2565b6108755760405162461bcd60e51b815260206004820152602a60248201527f5361666545524332303a204552433230206f7065726174696f6e20646964206e6044820152691bdd081cdd58d8d9595960b21b60648201526084016106ce565b606061115e848460008585600080866001600160a01b0316858760405161464f9190615716565b60006040518083038185875af1925050503d806000811461468c576040519150601f19603f3d011682016040523d82523d6000602084013e614691565b606091505b50915091506146a2878383876146ad565b979650505050505050565b6060831561471c578251600003614715576001600160a01b0385163b6147155760405162461bcd60e51b815260206004820152601d60248201527f416464726573733a2063616c6c20746f206e6f6e2d636f6e747261637400000060448201526064016106ce565b508161115e565b61115e83838151156147315781518083602001fd5b8060405162461bcd60e51b81526004016106ce91906156ab565b6040805161016081018252600080825260208201819052918101829052606081018290526080810182905260a0810182905260c0810182905260e081018290526101008101829052610120810182905261014081019190915290565b6040518060800160405280600081526020016000815260200160008152602001600081525090565b6000602082840312156147e157600080fd5b81356001600160e01b03198116811461453957600080fd5b6001600160a01b0391909116815260200190565b6001600160a01b03811681146123c757600080fd5b80151581146123c757600080fd5b803561483b81614822565b919050565b6000806000806080858703121561485657600080fd5b8435935060208501356148688161480d565b9250604085013561487881614822565b9150606085013561488881614822565b939692955090935050565b60008060008060008060008060006101208a8c0312156148b257600080fd5b89356148bd81614822565b985060208a0135975060408a0135965060608a0135955060808a0135945060a08a0135935060c08a0135925060e08a01356148f781614822565b91506101008a013561490881614822565b809150509295985092959850929598565b60008060006060848603121561492e57600080fd5b833561493981614822565b925060208401359150604084013561495081614822565b809150509250925092565b634e487b7160e01b600052604160045260246000fd5b60405161016081016001600160401b03811182821017156149945761499461495b565b60405290565b604051601f8201601f191681016001600160401b03811182821017156149c2576149c261495b565b604052919050565b60006001600160401b038211156149e3576149e361495b565b5060051b60200190565b600082601f8301126149fe57600080fd5b81356020614a13614a0e836149ca565b61499a565b82815260059290921b84018101918181019086841115614a3257600080fd5b8286015b84811015614a56578035614a4981614822565b8352918301918301614a36565b509695505050505050565b600080600060608486031215614a7657600080fd5b83356001600160401b0380821115614a8d57600080fd5b614a99878388016149ed565b9450602091508186013581811115614ab057600080fd5b8601601f81018813614ac157600080fd5b8035614acf614a0e826149ca565b81815260059190911b8201840190848101908a831115614aee57600080fd5b928501925b82841015614b0c57833582529285019290850190614af3565b96505050506040860135915080821115614b2557600080fd5b50614b32868287016149ed565b9150509250925092565b600060208284031215614b4e57600080fd5b5035919050565b803561483b8161480d565b60008060408385031215614b7357600080fd5b823591506020830135614b858161480d565b809150509250929050565b600060208284031215614ba257600080fd5b81356145398161480d565b600060208284031215614bbf57600080fd5b813561453981614822565b60008060008060008060008060008060006101608c8e031215614bec57600080fd5b8b35614bf78161480d565b9a5060208c0135614c078161480d565b995060408c0135614c178161480d565b985060608c0135614c278161480d565b975060808c0135614c378161480d565b965060a08c0135614c478161480d565b955060c08c0135614c578161480d565b945060e08c0135614c678161480d565b93506101008c0135614c788161480d565b9250614c876101208d01614b55565b9150614c966101408d01614b55565b90509295989b509295989b9093969950565b600080600080600080600060e0888a031215614cc357600080fd5b8735614cce81614822565b9650602088013595506040880135614ce581614822565b9450606088013593506080880135925060a0880135614d0381614822565b915060c0880135614d1381614822565b8091505092959891949750929550565b60008060408385031215614d3657600080fd5b823591506020830135614b8581614822565b600080600060608486031215614d5d57600080fd5b8335925060208401359150604084013561495081614822565b600082601f830112614d8757600080fd5b81356020614d97614a0e836149ca565b82815260059290921b84018101918181019086841115614db657600080fd5b8286015b84811015614a565780358352918301918301614dba565b60008060408385031215614de457600080fd5b82356001600160401b03811115614dfa57600080fd5b614e0685828601614d76565b9250506020830135614b8581614822565b600080600080600060a08688031215614e2f57600080fd5b853594506020860135935060408601359250606086013591506080860135614e5681614822565b809150509295509295909350565b600080600060608486031215614e7957600080fd5b83356001600160401b03811115614e8f57600080fd5b614e9b86828701614d76565b9350506020840135614eac81614822565b9150604084013561495081614822565b60008060408385031215614ecf57600080fd5b8235614eda8161480d565b91506020830135614b8581614822565b60008060008060808587031215614f0057600080fd5b8435935060208501359250604085013561487881614822565b60ff811681146123c757600080fd5b803561483b81614f19565b63ffffffff811681146123c757600080fd5b803561483b81614f33565b6001600160801b03811681146123c757600080fd5b803561483b81614f50565b600080828403610180811215614f8557600080fd5b61016080821215614f9557600080fd5b614f9d614971565b9150614fa885614f28565b8252614fb660208601614f45565b6020830152614fc760408601614f28565b6040830152614fd860608601614b55565b60608301526080850135608083015260a085013560a0830152614ffd60c08601614f65565b60c083015261500e60e08601614f65565b60e08301526101008581013590830152610120808601359083015261014080860135908301529092508290615044818601614830565b925050509250929050565b805161483b81614f19565b805161483b81614f33565b805161483b8161480d565b805161483b81614f50565b6000610160828403121561508e57600080fd5b615096614971565b61509f8361504f565b81526150ad6020840161505a565b60208201526150be6040840161504f565b60408201526150cf60608401615065565b60608201526080830151608082015260a083015160a08201526150f460c08401615070565b60c082015261510560e08401615070565b60e082015261010083810151908201526101208084015190820152610140928301519281019290925250919050565b9315158452911515602084015260408301526001600160a01b0316606082015260800190565b634e487b7160e01b600052603260045260246000fd5b60006020828403121561518257600080fd5b5051919050565b6001600160a01b03929092168252602082015260400190565b6000602082840312156151b457600080fd5b815161453981614822565b6000602082840312156151d157600080fd5b815161453981614f19565b6001600160a01b039384168152919092166020820152901515604082015260600190565b600080600080600080600060e0888a03121561521b57600080fd5b875196506020880151955060408801519450606088015193506080880151925060a088015161524981614822565b8092505060c0880151905092959891949750929550565b6000806000806000806000806000806101408b8d03121561528057600080fd5b8a5161528b81614822565b60208c0151909a5061529c81614f19565b60408c015160608d0151919a5098506152b48161480d565b8097505060808b0151955060a08b0151945060c08b0151935060e08b015192506101008b015191506101208b015190509295989b9194979a5092959850565b60006020828403121561530557600080fd5b81516145398161480d565b6001600160a01b039687168152949095166020850152911515604084015260608301521515608082015290151560a082015260c00190565b6000806000806080858703121561535e57600080fd5b505082516020840151604085015160609095015191969095509092509050565b948552602085019390935260408401919091526060830152608082015260a00190565b6001600160801b03169052565b805160ff16825260208101516153cc602084018263ffffffff169052565b5060408101516153e1604084018260ff169052565b5060608101516153fc60608401826001600160a01b03169052565b506080810151608083015260a081015160a083015260c081015161542360c08401826153a1565b5060e081015161543660e08401826153a1565b506101008181015190830152610120808201519083015261014090810151910152565b610160810161054482846153ae565b9915158a5297151560208a015260408901969096526001600160a01b03949094166060880152608087019290925260a08601526001600160801b031660c0850152151560e08401526101008301526101208201526101400190565b604080825283519082018190526000906020906060840190828701845b828110156154fc578151845292840192908401906001016154e0565b50505093151592019190915250919050565b634e487b7160e01b600052601160045260246000fd5b808201808211156105445761054461550e565b6000600182016155495761554961550e565b5060010190565b60006020828403121561556257600080fd5b604051602081016001600160401b03811182821017156155845761558461495b565b6040529151825250919050565b96518752602087019590955260408601939093526060850191909152608084015260a083015260c082015260e00190565b6001600160a01b03968716815294909516602085015260408401929092526060830152608082015290151560a082015260c00190565b9b8c5260208c019a909a5297151560408b015260608a0196909652608089019490945260a088019290925260c087015260e08601526001600160a01b03908116610100860152908116610120850152166101408301526101608201526101800190565b60005b8381101561567657818101518382015260200161565e565b50506000910152565b6000815180845261569781602086016020860161565b565b601f01601f19169290920160200192915050565b602081526000614539602083018461567f565b61018081016156cd82856153ae565b8215156101608301529392505050565b80820281158282048414176105445761054461550e565b60008261571157634e487b7160e01b600052601260045260246000fd5b500490565b6000825161572881846020870161565b565b9190910192915050565b6000806040838503121561574557600080fd5b825161575081614822565b60208401519092506001600160401b038082111561576d57600080fd5b818501915085601f83011261578157600080fd5b8151818111156157935761579361495b565b6157a6601f8201601f191660200161499a565b91508082528660208285010111156157bd57600080fd5b6157ce81602084016020860161565b565b5080925050509250929050565b60609290921b6001600160601b0319168252601482015260340190565b8181036000831280158383131683831282161715611c7457611c7461550e565b76020b1b1b2b9b9a1b7b73a3937b61d1030b1b1b7bab73a1604d1b81526000835161584a81601785016020880161565b565b7001034b99036b4b9b9b4b733903937b6329607d1b601791840191820152835161587b81602884016020880161565b565b01602801949350505050565b600181815b808511156158c25781600019048211156158a8576158a861550e565b808516156158b557918102915b93841c939080029061588c565b509250929050565b6000826158d957506001610544565b816158e657506000610544565b81600181146158fc576002811461590657615922565b6001915050610544565b60ff8411156159175761591761550e565b50506001821b610544565b5060208310610133831016604e8410600b8410161715615945575081810a610544565b61594f8383615887565b80600019048211156159635761596361550e565b029392505050565b600061453983836158ca565b6001600160a01b039384168152919092166020820152604081019190915260600190565b6040815260006159ae604083018561567f565b90508260208301529392505050565b6000600160ff1b82016159d2576159d261550e565b5060000390565b80820260008212600160ff1b841416156159f5576159f561550e565b81810583148215176105445761054461550e565b600081615a1857615a1861550e565b50600019019056fe6d61726b65742f696e697469617a6c697a652f5f6164647265737350726f76696465722d2d2d2d2d2d2d2d2d2d2d2d2d756470617465206465637265617365206f726465722d2d2d2d2d2d2d2d2d2d2dfb248bbb6ca5a799a6bb9ba79f58aa5cdbe0e5979238a967315e7ffbfd119d1a41821a71fcd4fd9aecd428014f9b7f61fb3bea3424e8a828796db51ad474a2752d2d2d2d2d2d2d2d2d2d2d637265617465206465637265617365206f726465722069642d2d2d2d2dfc1f8b40dd27177b575feb8190e47ed65af3a506a9e92b5df7e089b4b1a3626a2d2d2d2d2d2d6d61726b65742e736f6c2f5f63726561746544656372656173654f72646572fc374e3b93c984ac490912b63f334410bdbf7366a656c07c57aeccde2d95bf1b22a23cce23bf58a4bb883d7a75b1cff31ed1bd99fac269b47537be26f53235cda26469706673582212209b34bf8277554fe386b15b1f5531448970545b152168518ae5f80088023d86bf64736f6c63430008110033",
  "linkReferences": {},
  "deployedLinkReferences": {}
}