{
  "_format": "hh-sol-artifact-1",
  "contractName": "MarketFactory",
  "sourceName": "contracts/market/MarketFactory.sol",
  "abi": [
    {
      "inputs": [],
      "stateMutability": "nonpayable",
      "type": "constructor"
    },
    {
      "anonymous": false,
      "inputs": [
        {
          "indexed": true,
          "internalType": "address",
          "name": "market",
          "type": "address"
        },
        {
          "indexed": false,
          "internalType": "address",
          "name": "marketValid",
          "type": "address"
        },
        {
          "indexed": false,
          "internalType": "address",
          "name": "orderBookLong",
          "type": "address"
        },
        {
          "indexed": false,
          "internalType": "address",
          "name": "orderBookShort",
          "type": "address"
        }
      ],
      "name": "Create",
      "type": "event"
    },
    {
      "anonymous": false,
      "inputs": [
        {
          "indexed": true,
          "internalType": "bytes32",
          "name": "role",
          "type": "bytes32"
        },
        {
          "indexed": true,
          "internalType": "bytes32",
          "name": "previousAdminRole",
          "type": "bytes32"
        },
        {
          "indexed": true,
          "internalType": "bytes32",
          "name": "newAdminRole",
          "type": "bytes32"
        }
      ],
      "name": "RoleAdminChanged",
      "type": "event"
    },
    {
      "anonymous": false,
      "inputs": [
        {
          "indexed": true,
          "internalType": "bytes32",
          "name": "role",
          "type": "bytes32"
        },
        {
          "indexed": true,
          "internalType": "address",
          "name": "account",
          "type": "address"
        },
        {
          "indexed": true,
          "internalType": "address",
          "name": "sender",
          "type": "address"
        }
      ],
      "name": "RoleGranted",
      "type": "event"
    },
    {
      "anonymous": false,
      "inputs": [
        {
          "indexed": true,
          "internalType": "bytes32",
          "name": "role",
          "type": "bytes32"
        },
        {
          "indexed": true,
          "internalType": "address",
          "name": "account",
          "type": "address"
        },
        {
          "indexed": true,
          "internalType": "address",
          "name": "sender",
          "type": "address"
        }
      ],
      "name": "RoleRevoked",
      "type": "event"
    },
    {
      "inputs": [],
      "name": "DEFAULT_ADMIN_ROLE",
      "outputs": [
        {
          "internalType": "bytes32",
          "name": "",
          "type": "bytes32"
        }
      ],
      "stateMutability": "view",
      "type": "function"
    },
    {
      "inputs": [],
      "name": "allMarketsLength",
      "outputs": [
        {
          "internalType": "uint256",
          "name": "",
          "type": "uint256"
        }
      ],
      "stateMutability": "view",
      "type": "function"
    },
    {
      "inputs": [
        {
          "components": [
            {
              "internalType": "string",
              "name": "_name",
              "type": "string"
            },
            {
              "internalType": "address",
              "name": "_marketAddress",
              "type": "address"
            },
            {
              "internalType": "address",
              "name": "_marketValid",
              "type": "address"
            },
            {
              "internalType": "address",
              "name": "_marketRouter",
              "type": "address"
            },
            {
              "internalType": "address",
              "name": "_orderBookLong",
              "type": "address"
            },
            {
              "internalType": "address",
              "name": "_orderBookShort",
              "type": "address"
            },
            {
              "internalType": "address",
              "name": "_indexToken",
              "type": "address"
            },
            {
              "internalType": "address",
              "name": "_feeRouter",
              "type": "address"
            },
            {
              "internalType": "address",
              "name": "_feeVault",
              "type": "address"
            },
            {
              "internalType": "address",
              "name": "_positionBook",
              "type": "address"
            },
            {
              "internalType": "address",
              "name": "_openStoreLong",
              "type": "address"
            },
            {
              "internalType": "address",
              "name": "_closeStoreLong",
              "type": "address"
            },
            {
              "internalType": "address",
              "name": "_openStoreShort",
              "type": "address"
            },
            {
              "internalType": "address",
              "name": "_closeStoreShort",
              "type": "address"
            },
            {
              "internalType": "address",
              "name": "_addressProvider",
              "type": "address"
            },
            {
              "internalType": "uint256",
              "name": "_minSlippage",
              "type": "uint256"
            },
            {
              "internalType": "uint256",
              "name": "_maxSlippage",
              "type": "uint256"
            },
            {
              "internalType": "uint256",
              "name": "_minLeverage",
              "type": "uint256"
            },
            {
              "internalType": "uint256",
              "name": "_maxLeverage",
              "type": "uint256"
            },
            {
              "internalType": "uint256",
              "name": "_maxTradeAmount",
              "type": "uint256"
            },
            {
              "internalType": "uint256",
              "name": "_minPay",
              "type": "uint256"
            },
            {
              "internalType": "uint256",
              "name": "_minCollateral",
              "type": "uint256"
            },
            {
              "internalType": "bool",
              "name": "_allowOpen",
              "type": "bool"
            },
            {
              "internalType": "bool",
              "name": "_allowClose",
              "type": "bool"
            },
            {
              "internalType": "uint256",
              "name": "_tokenDigits",
              "type": "uint256"
            },
            {
              "internalType": "address",
              "name": "_vault",
              "type": "address"
            },
            {
              "internalType": "address",
              "name": "_vaultRouter",
              "type": "address"
            },
            {
              "internalType": "address",
              "name": "_collateralToken",
              "type": "address"
            }
          ],
          "internalType": "struct MarketFactory.CreateInputs",
          "name": "_inputs",
          "type": "tuple"
        }
      ],
      "name": "create",
      "outputs": [],
      "stateMutability": "nonpayable",
      "type": "function"
    },
    {
      "inputs": [
        {
          "internalType": "address",
          "name": "_marketAddr",
          "type": "address"
        }
      ],
      "name": "getMarket",
      "outputs": [
        {
          "components": [
            {
              "internalType": "string",
              "name": "name",
              "type": "string"
            },
            {
              "internalType": "address",
              "name": "addr",
              "type": "address"
            }
          ],
          "internalType": "struct IMarketFactory.Props",
          "name": "",
          "type": "tuple"
        }
      ],
      "stateMutability": "view",
      "type": "function"
    },
    {
      "inputs": [],
      "name": "getMarkets",
      "outputs": [
        {
          "components": [
            {
              "internalType": "string",
              "name": "name",
              "type": "string"
            },
            {
              "internalType": "address",
              "name": "addr",
              "type": "address"
            }
          ],
          "internalType": "struct IMarketFactory.Props[]",
          "name": "_markets",
          "type": "tuple[]"
        }
      ],
      "stateMutability": "view",
      "type": "function"
    },
    {
      "inputs": [],
      "name": "getMarketsV2",
      "outputs": [
        {
          "components": [
            {
              "internalType": "string",
              "name": "name",
              "type": "string"
            },
            {
              "internalType": "address",
              "name": "addr",
              "type": "address"
            },
            {
              "internalType": "bool",
              "name": "allowOpen",
              "type": "bool"
            },
            {
              "internalType": "bool",
              "name": "allowClose",
              "type": "bool"
            }
          ],
          "internalType": "struct IMarketFactory.Outs[]",
          "name": "_outs",
          "type": "tuple[]"
        }
      ],
      "stateMutability": "view",
      "type": "function"
    },
    {
      "inputs": [
        {
          "internalType": "bytes32",
          "name": "role",
          "type": "bytes32"
        }
      ],
      "name": "getRoleAdmin",
      "outputs": [
        {
          "internalType": "bytes32",
          "name": "",
          "type": "bytes32"
        }
      ],
      "stateMutability": "view",
      "type": "function"
    },
    {
      "inputs": [
        {
          "internalType": "bytes32",
          "name": "role",
          "type": "bytes32"
        },
        {
          "internalType": "address",
          "name": "account",
          "type": "address"
        }
      ],
      "name": "grantRole",
      "outputs": [],
      "stateMutability": "nonpayable",
      "type": "function"
    },
    {
      "inputs": [
        {
          "internalType": "bytes32",
          "name": "role",
          "type": "bytes32"
        },
        {
          "internalType": "address",
          "name": "account",
          "type": "address"
        }
      ],
      "name": "hasRole",
      "outputs": [
        {
          "internalType": "bool",
          "name": "",
          "type": "bool"
        }
      ],
      "stateMutability": "view",
      "type": "function"
    },
    {
      "inputs": [
        {
          "internalType": "uint256",
          "name": "",
          "type": "uint256"
        }
      ],
      "name": "markets",
      "outputs": [
        {
          "internalType": "string",
          "name": "name",
          "type": "string"
        },
        {
          "internalType": "address",
          "name": "addr",
          "type": "address"
        }
      ],
      "stateMutability": "view",
      "type": "function"
    },
    {
      "inputs": [
        {
          "internalType": "bytes32",
          "name": "role",
          "type": "bytes32"
        },
        {
          "internalType": "address",
          "name": "account",
          "type": "address"
        }
      ],
      "name": "renounceRole",
      "outputs": [],
      "stateMutability": "nonpayable",
      "type": "function"
    },
    {
      "inputs": [
        {
          "internalType": "bytes32",
          "name": "role",
          "type": "bytes32"
        },
        {
          "internalType": "address",
          "name": "account",
          "type": "address"
        }
      ],
      "name": "revokeRole",
      "outputs": [],
      "stateMutability": "nonpayable",
      "type": "function"
    },
    {
      "inputs": [
        {
          "internalType": "bytes4",
          "name": "interfaceId",
          "type": "bytes4"
        }
      ],
      "name": "supportsInterface",
      "outputs": [
        {
          "internalType": "bool",
          "name": "",
          "type": "bool"
        }
      ],
      "stateMutability": "view",
      "type": "function"
    },
    {
      "inputs": [
        {
          "internalType": "address",
          "name": "_marketAddr",
          "type": "address"
        },
        {
          "internalType": "address",
          "name": "_newMarketAddr",
          "type": "address"
        }
      ],
      "name": "update",
      "outputs": [],
      "stateMutability": "nonpayable",
      "type": "function"
    }
  ],
  "bytecode": "0x608060405234801561001057600080fd5b5061001c600033610036565b610031672927a622afa3a7ab60c11b33610036565b6100d5565b6000828152602081815260408083206001600160a01b038516845290915290205460ff166100d1576000828152602081815260408083206001600160a01b03851684529091529020805460ff191660011790556100903390565b6001600160a01b0316816001600160a01b0316837f2f8788117e7eff1d82e926ec794901d17c78024a50270940304540a733656f0d60405160405180910390a45b5050565b611ad380620000e56000396000f3fe608060405234801561001057600080fd5b50600436106100ba5760003560e01c806301ffc9a7146100bf578063248a9ca3146100e75780632f2ff15d1461010857806336568abe1461011d57806364f956ff1461013057806388dd46a11461014357806391d148541461014b57806398b160221461015e578063a217fddf14610173578063b1283e771461017b578063c640752d1461019c578063d4dfadbf146101af578063d547741f146101cf578063ec2c9016146101e2575b600080fd5b6100d26100cd36600461122d565b6101f7565b60405190151581526020015b60405180910390f35b6100fa6100f5366004611257565b61022e565b6040519081526020016100de565b61011b610116366004611295565b610243565b005b61011b61012b366004611295565b610264565b61011b61013e3660046113a0565b6102e7565b6001546100fa565b6100d2610159366004611295565b61062d565b610166610656565b6040516100de9190611622565b6100fa600081565b61018e610189366004611257565b6109c3565b6040516100de9291906116ba565b61011b6101aa3660046116e4565b610a88565b6101c26101bd366004611712565b610c6b565b6040516100de9190611761565b61011b6101dd366004611295565b610df2565b6101ea610e0e565b6040516100de9190611774565b60006001600160e01b03198216637965db0b60e01b148061022857506301ffc9a760e01b6001600160e01b03198316145b92915050565b60009081526020819052604090206001015490565b61024c8261022e565b61025581610f12565b61025f8383610f1f565b505050565b6001600160a01b03811633146102d95760405162461bcd60e51b815260206004820152602f60248201527f416363657373436f6e74726f6c3a2063616e206f6e6c792072656e6f756e636560448201526e103937b632b9903337b91039b2b63360891b60648201526084015b60405180910390fd5b6102e38282610fa3565b5050565b6102fb672927a622afa3a7ab60c11b610f12565b6040808201516101e08301516102008401516102208501516102408601516102608701516102808801516102a08901516102c08a01516102e08b01516103008c01519a5163d04093d560e01b81526004810199909952602489019790975260448801959095526064870193909352608486019190915260a485015260c4840152151560e48301521515610104820152610124810192909252906001600160a01b0382169063d04093d59061014401600060405180830381600087803b1580156103c357600080fd5b505af11580156103d7573d6000803e3d6000fd5b50505050608082015161014083015161016084015160405163485cc95560e01b81526001600160a01b0384169263485cc95592610416926004016117d6565b600060405180830381600087803b15801561043057600080fd5b505af1158015610444573d6000803e3d6000fd5b5050505060a08301516101808401516101a085015160405163485cc95560e01b81526001600160a01b0384169263485cc95592610483926004016117d6565b600060405180830381600087803b15801561049d57600080fd5b505af11580156104b1573d6000803e3d6000fd5b50505060208501516101208601516101c087015160c088015160e08901516101008a015160608b01516103208c01516103408d01516103608e01516040516376902b8360e01b81526001600160a01b03998a1660048201528d8a1660248201528c8a1660448201529789166064890152958816608488015293871660a487015291861660c4860152851660e4850152841661010484015283166101248301528216610144820152911691506376902b839061016401600060405180830381600087803b15801561058057600080fd5b505af1158015610594573d6000803e3d6000fd5b505050506105a0611215565b845181526020808601516001600160a01b031690820152600180548082018255600091909152815182916002027fb10e2d527612073b26eecdfd717e6a320cf44b4afac2b0732d9fcbe2b7fa0cf6019081906105fc9082611878565b5060209190910151600190910180546001600160a01b0319166001600160a01b039092169190911790555050505050565b6000918252602082815260408084206001600160a01b0393909316845291905290205460ff1690565b606060006001805480602002602001604051908101604052809291908181526020016000905b8282101561075357838290600052602060002090600202016040518060400160405290816000820180546106af906117f0565b80601f01602080910402602001604051908101604052809291908181526020018280546106db906117f0565b80156107285780601f106106fd57610100808354040283529160200191610728565b820191906000526020600020905b81548152906001019060200180831161070b57829003601f168201915b50505091835250506001918201546001600160a01b031660209182015291835292909201910161067c565b50508251929350829150506001600160401b03811115610775576107756112c5565b6040519080825280602002602001820160405280156107c857816020015b604080516080810182526060808252600060208084018290529383018190529082015282526000199092019101816107935790505b50925060005b818110156109bd5760008382815181106107ea576107ea611937565b602002602001015190506000816020015190506000816001600160a01b0316630c9def416040518163ffffffff1660e01b8152600401602060405180830381865afa15801561083d573d6000803e3d6000fd5b505050506040513d601f19601f82011682018060405250810190610861919061194d565b60405163563eccdb60e11b81526001600160a01b038481166004830152919091169063ac7d99b690602401602060405180830381865afa1580156108a9573d6000803e3d6000fd5b505050506040513d601f19601f820116820180604052508101906108cd919061194d565b90506000816001600160a01b031663177927296040518163ffffffff1660e01b8152600401602060405180830381865afa15801561090f573d6000803e3d6000fd5b505050506040513d601f19601f82011682018060405250810190610933919061196a565b905060405180608001604052808560000151815260200185602001516001600160a01b0316815260200161096d8351600f606c1b16151590565b151581526020016109848351600f60681b16151590565b151581525088868151811061099b5761099b611937565b60200260200101819052505050505080806109b5906119c1565b9150506107ce565b50505090565b600181815481106109d357600080fd5b90600052602060002090600202016000915090508060000180546109f6906117f0565b80601f0160208091040260200160405190810160405280929190818152602001828054610a22906117f0565b8015610a6f5780601f10610a4457610100808354040283529160200191610a6f565b820191906000526020600020905b815481529060010190602001808311610a5257829003601f168201915b505050600190930154919250506001600160a01b031682565b610a9c672927a622afa3a7ab60c11b610f12565b60006001805480602002602001604051908101604052809291908181526020016000905b82821015610b975783829060005260206000209060020201604051806040016040529081600082018054610af3906117f0565b80601f0160208091040260200160405190810160405280929190818152602001828054610b1f906117f0565b8015610b6c5780601f10610b4157610100808354040283529160200191610b6c565b820191906000526020600020905b815481529060010190602001808311610b4f57829003601f168201915b50505091835250506001918201546001600160a01b0316602091820152918352929092019101610ac0565b50505050905060005b81518110156100ba576000828281518110610bbd57610bbd611937565b60200260200101519050846001600160a01b031681602001516001600160a01b031603610c58576001600160a01b03841660208201526001805482919084908110610c0a57610c0a611937565b600091825260209091208251600290920201908190610c299082611878565b5060209190910151600190910180546001600160a01b0319166001600160a01b03909216919091179055600080fd5b5080610c63816119c1565b915050610ba0565b610c73611215565b60006001805480602002602001604051908101604052809291908181526020016000905b82821015610d6e5783829060005260206000209060020201604051806040016040529081600082018054610cca906117f0565b80601f0160208091040260200160405190810160405280929190818152602001828054610cf6906117f0565b8015610d435780601f10610d1857610100808354040283529160200191610d43565b820191906000526020600020905b815481529060010190602001808311610d2657829003601f168201915b50505091835250506001918201546001600160a01b0316602091820152918352929092019101610c97565b50505050905060005b81518110156100ba576000828281518110610d9457610d94611937565b60200260200101519050846001600160a01b031681602001516001600160a01b031603610ddf57828281518110610dcd57610dcd611937565b60200260200101519350505050919050565b5080610dea816119c1565b915050610d77565b610dfb8261022e565b610e0481610f12565b61025f8383610fa3565b60606001805480602002602001604051908101604052809291908181526020016000905b82821015610f095783829060005260206000209060020201604051806040016040529081600082018054610e65906117f0565b80601f0160208091040260200160405190810160405280929190818152602001828054610e91906117f0565b8015610ede5780601f10610eb357610100808354040283529160200191610ede565b820191906000526020600020905b815481529060010190602001808311610ec157829003601f168201915b50505091835250506001918201546001600160a01b0316602091820152918352929092019101610e32565b50505050905090565b610f1c8133611008565b50565b610f29828261062d565b6102e3576000828152602081815260408083206001600160a01b03851684529091529020805460ff19166001179055610f5f3390565b6001600160a01b0316816001600160a01b0316837f2f8788117e7eff1d82e926ec794901d17c78024a50270940304540a733656f0d60405160405180910390a45050565b610fad828261062d565b156102e3576000828152602081815260408083206001600160a01b0385168085529252808320805460ff1916905551339285917ff6391f5c32d9c69d2a47ea670b442974b53935d1edc7fd64eb21e047a839171b9190a45050565b611012828261062d565b6102e35761101f81611061565b61102a836020611073565b60405160200161103b9291906119da565b60408051601f198184030181529082905262461bcd60e51b82526102d091600401611a49565b60606102286001600160a01b03831660145b60606000611082836002611a5c565b61108d906002611a73565b6001600160401b038111156110a4576110a46112c5565b6040519080825280601f01601f1916602001820160405280156110ce576020820181803683370190505b509050600360fc1b816000815181106110e9576110e9611937565b60200101906001600160f81b031916908160001a905350600f60fb1b8160018151811061111857611118611937565b60200101906001600160f81b031916908160001a905350600061113c846002611a5c565b611147906001611a73565b90505b60018111156111bf576f181899199a1a9b1b9c1cb0b131b232b360811b85600f166010811061117b5761117b611937565b1a60f81b82828151811061119157611191611937565b60200101906001600160f81b031916908160001a90535060049490941c936111b881611a86565b905061114a565b50831561120e5760405162461bcd60e51b815260206004820181905260248201527f537472696e67733a20686578206c656e67746820696e73756666696369656e7460448201526064016102d0565b9392505050565b60408051808201909152606081526000602082015290565b60006020828403121561123f57600080fd5b81356001600160e01b03198116811461120e57600080fd5b60006020828403121561126957600080fd5b5035919050565b6001600160a01b0381168114610f1c57600080fd5b803561129081611270565b919050565b600080604083850312156112a857600080fd5b8235915060208301356112ba81611270565b809150509250929050565b634e487b7160e01b600052604160045260246000fd5b60405161038081016001600160401b03811182821017156112fe576112fe6112c5565b60405290565b600082601f83011261131557600080fd5b81356001600160401b038082111561132f5761132f6112c5565b604051601f8301601f19908116603f01168101908282118183101715611357576113576112c5565b8160405283815286602085880101111561137057600080fd5b836020870160208301376000602085830101528094505050505092915050565b8035801515811461129057600080fd5b6000602082840312156113b257600080fd5b81356001600160401b03808211156113c957600080fd5b9083019061038082860312156113de57600080fd5b6113e66112db565b8235828111156113f557600080fd5b61140187828601611304565b82525061141060208401611285565b602082015261142160408401611285565b604082015261143260608401611285565b606082015261144360808401611285565b608082015261145460a08401611285565b60a082015261146560c08401611285565b60c082015261147660e08401611285565b60e0820152610100915061148b828401611285565b82820152610120915061149f828401611285565b8282015261014091506114b3828401611285565b8282015261016091506114c7828401611285565b8282015261018091506114db828401611285565b828201526101a091506114ef828401611285565b828201526101c09150611503828401611285565b918101919091526101e08281013590820152610200808301359082015261022080830135908201526102408083013590820152610260808301359082015261028080830135908201526102a080830135908201526102c090611566828401611390565b828201526102e0915061157a828401611390565b8282015261030091508183013582820152610320915061159b828401611285565b8282015261034091506115af828401611285565b8282015261036091506115c3828401611285565b91810191909152949350505050565b60005b838110156115ed5781810151838201526020016115d5565b50506000910152565b6000815180845261160e8160208601602086016115d2565b601f01601f19169290920160200192915050565b60006020808301818452808551808352604092508286019150828160051b87010184880160005b838110156116ac57603f1989840301855281516080815181865261166f828701826115f6565b838b01516001600160a01b0316878c01528984015115158a8801526060938401511515939096019290925250509386019390860190600101611649565b509098975050505050505050565b6040815260006116cd60408301856115f6565b905060018060a01b03831660208301529392505050565b600080604083850312156116f757600080fd5b823561170281611270565b915060208301356112ba81611270565b60006020828403121561172457600080fd5b813561120e81611270565b600081516040845261174460408501826115f6565b6020938401516001600160a01b0316949093019390935250919050565b60208152600061120e602083018461172f565b6000602080830181845280855180835260408601915060408160051b870101925083870160005b828110156117c957603f198886030184526117b785835161172f565b9450928501929085019060010161179b565b5092979650505050505050565b6001600160a01b0392831681529116602082015260400190565b600181811c9082168061180457607f821691505b60208210810361182457634e487b7160e01b600052602260045260246000fd5b50919050565b601f82111561025f57600081815260208120601f850160051c810160208610156118515750805b601f850160051c820191505b818110156118705782815560010161185d565b505050505050565b81516001600160401b03811115611891576118916112c5565b6118a58161189f84546117f0565b8461182a565b602080601f8311600181146118da57600084156118c25750858301515b600019600386901b1c1916600185901b178555611870565b600085815260208120601f198616915b82811015611909578886015182559484019460019091019084016118ea565b50858210156119275787850151600019600388901b60f8161c191681555b5050505050600190811b01905550565b634e487b7160e01b600052603260045260246000fd5b60006020828403121561195f57600080fd5b815161120e81611270565b60006020828403121561197c57600080fd5b604051602081016001600160401b038111828210171561199e5761199e6112c5565b6040529151825250919050565b634e487b7160e01b600052601160045260246000fd5b6000600182016119d3576119d36119ab565b5060010190565b76020b1b1b2b9b9a1b7b73a3937b61d1030b1b1b7bab73a1604d1b815260008351611a0c8160178501602088016115d2565b7001034b99036b4b9b9b4b733903937b6329607d1b6017918401918201528351611a3d8160288401602088016115d2565b01602801949350505050565b60208152600061120e60208301846115f6565b8082028115828204841417610228576102286119ab565b80820180821115610228576102286119ab565b600081611a9557611a956119ab565b50600019019056fea264697066735822122038dc6b21bbd20da5ed0de882d359953b4c0db15868cdd334df960df2c54d73c364736f6c63430008110033",
  "linkReferences": {},
  "deployedLinkReferences": {}
}