{
  "_format": "hh-sol-artifact-1",
  "contractName": "Market",
  "sourceName": "contracts/market/Market.sol",
  "abi": [
    {
      "inputs": [
        {
          "internalType": "string",
          "name": "_name",
          "type": "string"
        }
      ],
      "stateMutability": "nonpayable",
      "type": "constructor"
    },
    {
      "anonymous": false,
      "inputs": [
        {
          "indexed": true,
          "internalType": "address",
          "name": "account",
          "type": "address"
        },
        {
          "indexed": false,
          "internalType": "bool",
          "name": "isLong",
          "type": "bool"
        },
        {
          "indexed": false,
          "internalType": "bool",
          "name": "isIncrease",
          "type": "bool"
        },
        {
          "indexed": false,
          "internalType": "uint256",
          "name": "orderID",
          "type": "uint256"
        },
        {
          "indexed": false,
          "internalType": "address",
          "name": "market",
          "type": "address"
        }
      ],
      "name": "DeleteOrder",
      "type": "event"
    },
    {
      "anonymous": false,
      "inputs": [
        {
          "indexed": true,
          "internalType": "bytes32",
          "name": "role",
          "type": "bytes32"
        },
        {
          "indexed": true,
          "internalType": "bytes32",
          "name": "previousAdminRole",
          "type": "bytes32"
        },
        {
          "indexed": true,
          "internalType": "bytes32",
          "name": "newAdminRole",
          "type": "bytes32"
        }
      ],
      "name": "RoleAdminChanged",
      "type": "event"
    },
    {
      "anonymous": false,
      "inputs": [
        {
          "indexed": true,
          "internalType": "bytes32",
          "name": "role",
          "type": "bytes32"
        },
        {
          "indexed": true,
          "internalType": "address",
          "name": "account",
          "type": "address"
        },
        {
          "indexed": true,
          "internalType": "address",
          "name": "sender",
          "type": "address"
        }
      ],
      "name": "RoleGranted",
      "type": "event"
    },
    {
      "anonymous": false,
      "inputs": [
        {
          "indexed": true,
          "internalType": "bytes32",
          "name": "role",
          "type": "bytes32"
        },
        {
          "indexed": true,
          "internalType": "address",
          "name": "account",
          "type": "address"
        },
        {
          "indexed": true,
          "internalType": "address",
          "name": "sender",
          "type": "address"
        }
      ],
      "name": "RoleRevoked",
      "type": "event"
    },
    {
      "anonymous": false,
      "inputs": [
        {
          "indexed": true,
          "internalType": "address",
          "name": "account",
          "type": "address"
        },
        {
          "indexed": false,
          "internalType": "bool",
          "name": "isLong",
          "type": "bool"
        },
        {
          "indexed": false,
          "internalType": "bool",
          "name": "isIncrease",
          "type": "bool"
        },
        {
          "indexed": false,
          "internalType": "uint256",
          "name": "orderID",
          "type": "uint256"
        },
        {
          "indexed": false,
          "internalType": "address",
          "name": "market",
          "type": "address"
        },
        {
          "indexed": false,
          "internalType": "uint256",
          "name": "size",
          "type": "uint256"
        },
        {
          "indexed": false,
          "internalType": "uint256",
          "name": "collateral",
          "type": "uint256"
        },
        {
          "indexed": false,
          "internalType": "uint256",
          "name": "triggerPrice",
          "type": "uint256"
        },
        {
          "indexed": false,
          "internalType": "uint256",
          "name": "tp",
          "type": "uint256"
        },
        {
          "indexed": false,
          "internalType": "uint256",
          "name": "sl",
          "type": "uint256"
        }
      ],
      "name": "UpdateOrder",
      "type": "event"
    },
    {
      "anonymous": false,
      "inputs": [
        {
          "indexed": true,
          "internalType": "address",
          "name": "account",
          "type": "address"
        },
        {
          "indexed": false,
          "internalType": "uint256",
          "name": "collateralDelta",
          "type": "uint256"
        },
        {
          "indexed": false,
          "internalType": "uint256",
          "name": "sizeDelta",
          "type": "uint256"
        },
        {
          "indexed": false,
          "internalType": "bool",
          "name": "isLong",
          "type": "bool"
        },
        {
          "indexed": false,
          "internalType": "uint256",
          "name": "price",
          "type": "uint256"
        },
        {
          "indexed": false,
          "internalType": "int256",
          "name": "pnl",
          "type": "int256"
        },
        {
          "indexed": false,
          "internalType": "uint256",
          "name": "execFee",
          "type": "uint256"
        },
        {
          "indexed": false,
          "internalType": "int256",
          "name": "fundFee",
          "type": "int256"
        },
        {
          "indexed": false,
          "internalType": "uint256",
          "name": "tradeFee",
          "type": "uint256"
        },
        {
          "indexed": false,
          "internalType": "address",
          "name": "market",
          "type": "address"
        },
        {
          "indexed": false,
          "internalType": "address",
          "name": "collateralToken",
          "type": "address"
        },
        {
          "indexed": false,
          "internalType": "address",
          "name": "indexToken",
          "type": "address"
        },
        {
          "indexed": false,
          "internalType": "uint256",
          "name": "category",
          "type": "uint256"
        }
      ],
      "name": "UpdatePosition",
      "type": "event"
    },
    {
      "inputs": [],
      "name": "DEFAULT_ADMIN_ROLE",
      "outputs": [
        {
          "internalType": "bytes32",
          "name": "",
          "type": "bytes32"
        }
      ],
      "stateMutability": "view",
      "type": "function"
    },
    {
      "inputs": [],
      "name": "ROLE_FACTORY",
      "outputs": [
        {
          "internalType": "bytes32",
          "name": "",
          "type": "bytes32"
        }
      ],
      "stateMutability": "view",
      "type": "function"
    },
    {
      "inputs": [],
      "name": "ROLE_POS_KEEPER",
      "outputs": [
        {
          "internalType": "bytes32",
          "name": "",
          "type": "bytes32"
        }
      ],
      "stateMutability": "view",
      "type": "function"
    },
    {
      "inputs": [
        {
          "internalType": "bool",
          "name": "_isIncrease",
          "type": "bool"
        },
        {
          "internalType": "uint256",
          "name": "_orderID",
          "type": "uint256"
        },
        {
          "internalType": "bool",
          "name": "_isLong",
          "type": "bool"
        }
      ],
      "name": "cancelOrder",
      "outputs": [],
      "stateMutability": "nonpayable",
      "type": "function"
    },
    {
      "inputs": [
        {
          "internalType": "bool[]",
          "name": "_isIncreaseList",
          "type": "bool[]"
        },
        {
          "internalType": "uint256[]",
          "name": "_orderIDList",
          "type": "uint256[]"
        },
        {
          "internalType": "bool[]",
          "name": "_isLongList",
          "type": "bool[]"
        }
      ],
      "name": "cancelOrderList",
      "outputs": [],
      "stateMutability": "nonpayable",
      "type": "function"
    },
    {
      "inputs": [],
      "name": "collateralToken",
      "outputs": [
        {
          "internalType": "address",
          "name": "",
          "type": "address"
        }
      ],
      "stateMutability": "view",
      "type": "function"
    },
    {
      "inputs": [
        {
          "internalType": "uint256",
          "name": "",
          "type": "uint256"
        },
        {
          "internalType": "bool",
          "name": "",
          "type": "bool"
        }
      ],
      "name": "decreaseCollateral",
      "outputs": [],
      "stateMutability": "nonpayable",
      "type": "function"
    },
    {
      "inputs": [
        {
          "components": [
            {
              "internalType": "uint8",
              "name": "version",
              "type": "uint8"
            },
            {
              "internalType": "uint32",
              "name": "updatedAtBlock",
              "type": "uint32"
            },
            {
              "internalType": "bool",
              "name": "triggerAbove",
              "type": "bool"
            },
            {
              "internalType": "address",
              "name": "account",
              "type": "address"
            },
            {
              "internalType": "uint256",
              "name": "collateral",
              "type": "uint256"
            },
            {
              "internalType": "uint256",
              "name": "size",
              "type": "uint256"
            },
            {
              "internalType": "uint128",
              "name": "price",
              "type": "uint128"
            },
            {
              "internalType": "uint128",
              "name": "priceExtra",
              "type": "uint128"
            },
            {
              "internalType": "uint256",
              "name": "orderID",
              "type": "uint256"
            },
            {
              "internalType": "uint256",
              "name": "extra0",
              "type": "uint256"
            },
            {
              "internalType": "uint256",
              "name": "extra1",
              "type": "uint256"
            }
          ],
          "internalType": "struct Order.Props",
          "name": "",
          "type": "tuple"
        },
        {
          "internalType": "bool",
          "name": "",
          "type": "bool"
        }
      ],
      "name": "decreasePositionFromOrder",
      "outputs": [],
      "stateMutability": "nonpayable",
      "type": "function"
    },
    {
      "inputs": [
        {
          "internalType": "bool",
          "name": "_isLimit",
          "type": "bool"
        },
        {
          "internalType": "uint256",
          "name": "_sizeDelta",
          "type": "uint256"
        },
        {
          "internalType": "bool",
          "name": "_isKeepLev",
          "type": "bool"
        },
        {
          "internalType": "uint256",
          "name": "_price",
          "type": "uint256"
        },
        {
          "internalType": "uint256",
          "name": "_slippage",
          "type": "uint256"
        },
        {
          "internalType": "bool",
          "name": "_isLong",
          "type": "bool"
        },
        {
          "internalType": "bool",
          "name": "_isExec",
          "type": "bool"
        }
      ],
      "name": "decreaseTrade",
      "outputs": [],
      "stateMutability": "nonpayable",
      "type": "function"
    },
    {
      "inputs": [
        {
          "internalType": "uint256",
          "name": "_start",
          "type": "uint256"
        },
        {
          "internalType": "uint256",
          "name": "_end",
          "type": "uint256"
        },
        {
          "internalType": "address",
          "name": "_receiver",
          "type": "address"
        },
        {
          "internalType": "bool",
          "name": "_isLong",
          "type": "bool"
        },
        {
          "internalType": "bool",
          "name": "_isIncrease",
          "type": "bool"
        }
      ],
      "name": "execOrders",
      "outputs": [],
      "stateMutability": "nonpayable",
      "type": "function"
    },
    {
      "inputs": [],
      "name": "feeRouter",
      "outputs": [
        {
          "internalType": "contract IFeeRouter",
          "name": "",
          "type": "address"
        }
      ],
      "stateMutability": "view",
      "type": "function"
    },
    {
      "inputs": [
        {
          "internalType": "bytes32",
          "name": "role",
          "type": "bytes32"
        }
      ],
      "name": "getRoleAdmin",
      "outputs": [
        {
          "internalType": "bytes32",
          "name": "",
          "type": "bytes32"
        }
      ],
      "stateMutability": "view",
      "type": "function"
    },
    {
      "inputs": [
        {
          "internalType": "bytes32",
          "name": "role",
          "type": "bytes32"
        },
        {
          "internalType": "address",
          "name": "account",
          "type": "address"
        }
      ],
      "name": "grantRole",
      "outputs": [],
      "stateMutability": "nonpayable",
      "type": "function"
    },
    {
      "inputs": [
        {
          "internalType": "bytes32",
          "name": "role",
          "type": "bytes32"
        },
        {
          "internalType": "address",
          "name": "account",
          "type": "address"
        }
      ],
      "name": "hasRole",
      "outputs": [
        {
          "internalType": "bool",
          "name": "",
          "type": "bool"
        }
      ],
      "stateMutability": "view",
      "type": "function"
    },
    {
      "inputs": [
        {
          "internalType": "uint256",
          "name": "_collateralDelta",
          "type": "uint256"
        },
        {
          "internalType": "bool",
          "name": "_isLong",
          "type": "bool"
        }
      ],
      "name": "increaseCollateral",
      "outputs": [],
      "stateMutability": "nonpayable",
      "type": "function"
    },
    {
      "inputs": [
        {
          "components": [
            {
              "internalType": "uint8",
              "name": "version",
              "type": "uint8"
            },
            {
              "internalType": "uint32",
              "name": "updatedAtBlock",
              "type": "uint32"
            },
            {
              "internalType": "bool",
              "name": "triggerAbove",
              "type": "bool"
            },
            {
              "internalType": "address",
              "name": "account",
              "type": "address"
            },
            {
              "internalType": "uint256",
              "name": "collateral",
              "type": "uint256"
            },
            {
              "internalType": "uint256",
              "name": "size",
              "type": "uint256"
            },
            {
              "internalType": "uint128",
              "name": "price",
              "type": "uint128"
            },
            {
              "internalType": "uint128",
              "name": "priceExtra",
              "type": "uint128"
            },
            {
              "internalType": "uint256",
              "name": "orderID",
              "type": "uint256"
            },
            {
              "internalType": "uint256",
              "name": "extra0",
              "type": "uint256"
            },
            {
              "internalType": "uint256",
              "name": "extra1",
              "type": "uint256"
            }
          ],
          "internalType": "struct Order.Props",
          "name": "order",
          "type": "tuple"
        },
        {
          "internalType": "bool",
          "name": "_isLong",
          "type": "bool"
        }
      ],
      "name": "increasePositionFromOrder",
      "outputs": [],
      "stateMutability": "nonpayable",
      "type": "function"
    },
    {
      "inputs": [
        {
          "internalType": "bool",
          "name": "_isLimit",
          "type": "bool"
        },
        {
          "internalType": "uint256",
          "name": "_payDelta",
          "type": "uint256"
        },
        {
          "internalType": "uint256",
          "name": "_sizeDelta",
          "type": "uint256"
        },
        {
          "internalType": "uint256",
          "name": "_price",
          "type": "uint256"
        },
        {
          "internalType": "uint256",
          "name": "_tpPrice",
          "type": "uint256"
        },
        {
          "internalType": "uint256",
          "name": "_slPrice",
          "type": "uint256"
        },
        {
          "internalType": "uint256",
          "name": "_slippage",
          "type": "uint256"
        },
        {
          "internalType": "bool",
          "name": "_isLong",
          "type": "bool"
        },
        {
          "internalType": "bool",
          "name": "_isExec",
          "type": "bool"
        }
      ],
      "name": "increaseTrade",
      "outputs": [],
      "stateMutability": "nonpayable",
      "type": "function"
    },
    {
      "inputs": [],
      "name": "indexToken",
      "outputs": [
        {
          "internalType": "address",
          "name": "",
          "type": "address"
        }
      ],
      "stateMutability": "view",
      "type": "function"
    },
    {
      "inputs": [
        {
          "internalType": "address",
          "name": "_positionBook",
          "type": "address"
        },
        {
          "internalType": "contract IOrderBook",
          "name": "_orderBookLong",
          "type": "address"
        },
        {
          "internalType": "contract IOrderBook",
          "name": "_orderBookShort",
          "type": "address"
        },
        {
          "internalType": "address",
          "name": "_addressProvider",
          "type": "address"
        },
        {
          "internalType": "address",
          "name": "_indexToken",
          "type": "address"
        },
        {
          "internalType": "address",
          "name": "_feeRouter",
          "type": "address"
        },
        {
          "internalType": "address",
          "name": "_feeVault",
          "type": "address"
        },
        {
          "internalType": "address",
          "name": "_marketRouter",
          "type": "address"
        },
        {
          "internalType": "address",
          "name": "_vault",
          "type": "address"
        },
        {
          "internalType": "address",
          "name": "_vaultRouter",
          "type": "address"
        },
        {
          "internalType": "address",
          "name": "_collateralToken",
          "type": "address"
        }
      ],
      "name": "initialize",
      "outputs": [],
      "stateMutability": "nonpayable",
      "type": "function"
    },
    {
      "inputs": [
        {
          "internalType": "address",
          "name": "_account",
          "type": "address"
        },
        {
          "internalType": "bool",
          "name": "",
          "type": "bool"
        }
      ],
      "name": "liquidatePosition",
      "outputs": [
        {
          "internalType": "uint256",
          "name": "",
          "type": "uint256"
        }
      ],
      "stateMutability": "nonpayable",
      "type": "function"
    },
    {
      "inputs": [],
      "name": "marketAddressesProvider",
      "outputs": [
        {
          "internalType": "contract IMarketAddressesProvider",
          "name": "",
          "type": "address"
        }
      ],
      "stateMutability": "view",
      "type": "function"
    },
    {
      "inputs": [],
      "name": "orderBookLong",
      "outputs": [
        {
          "internalType": "contract IOrderBook",
          "name": "",
          "type": "address"
        }
      ],
      "stateMutability": "view",
      "type": "function"
    },
    {
      "inputs": [],
      "name": "orderBookShort",
      "outputs": [
        {
          "internalType": "contract IOrderBook",
          "name": "",
          "type": "address"
        }
      ],
      "stateMutability": "view",
      "type": "function"
    },
    {
      "inputs": [],
      "name": "positionBook",
      "outputs": [
        {
          "internalType": "contract IPositionBook",
          "name": "",
          "type": "address"
        }
      ],
      "stateMutability": "view",
      "type": "function"
    },
    {
      "inputs": [
        {
          "internalType": "bytes32",
          "name": "role",
          "type": "bytes32"
        },
        {
          "internalType": "address",
          "name": "account",
          "type": "address"
        }
      ],
      "name": "renounceRole",
      "outputs": [],
      "stateMutability": "nonpayable",
      "type": "function"
    },
    {
      "inputs": [
        {
          "internalType": "bytes32",
          "name": "role",
          "type": "bytes32"
        },
        {
          "internalType": "address",
          "name": "account",
          "type": "address"
        }
      ],
      "name": "revokeRole",
      "outputs": [],
      "stateMutability": "nonpayable",
      "type": "function"
    },
    {
      "inputs": [
        {
          "internalType": "bool",
          "name": "_p",
          "type": "bool"
        }
      ],
      "name": "setOpenDebug",
      "outputs": [],
      "stateMutability": "nonpayable",
      "type": "function"
    },
    {
      "inputs": [
        {
          "internalType": "uint256",
          "name": "_spread",
          "type": "uint256"
        }
      ],
      "name": "setSpread",
      "outputs": [],
      "stateMutability": "nonpayable",
      "type": "function"
    },
    {
      "inputs": [],
      "name": "spread",
      "outputs": [
        {
          "internalType": "uint256",
          "name": "",
          "type": "uint256"
        }
      ],
      "stateMutability": "view",
      "type": "function"
    },
    {
      "inputs": [
        {
          "internalType": "bytes4",
          "name": "interfaceId",
          "type": "bytes4"
        }
      ],
      "name": "supportsInterface",
      "outputs": [
        {
          "internalType": "bool",
          "name": "",
          "type": "bool"
        }
      ],
      "stateMutability": "view",
      "type": "function"
    },
    {
      "inputs": [
        {
          "internalType": "uint256",
          "name": "_orderID",
          "type": "uint256"
        },
        {
          "internalType": "uint256",
          "name": "_triggerPrice",
          "type": "uint256"
        },
        {
          "internalType": "bool",
          "name": "_isLong",
          "type": "bool"
        }
      ],
      "name": "updateDecreaseOrder",
      "outputs": [],
      "stateMutability": "nonpayable",
      "type": "function"
    },
    {
      "inputs": [
        {
          "internalType": "uint256",
          "name": "_orderID",
          "type": "uint256"
        },
        {
          "internalType": "uint256",
          "name": "_triggerPrice",
          "type": "uint256"
        },
        {
          "internalType": "uint256",
          "name": "_tpPrice",
          "type": "uint256"
        },
        {
          "internalType": "uint256",
          "name": "_slPrice",
          "type": "uint256"
        },
        {
          "internalType": "bool",
          "name": "_isLong",
          "type": "bool"
        }
      ],
      "name": "updateIncreaseOrder",
      "outputs": [],
      "stateMutability": "nonpayable",
      "type": "function"
    },
    {
      "inputs": [],
      "name": "vault",
      "outputs": [
        {
          "internalType": "address",
          "name": "",
          "type": "address"
        }
      ],
      "stateMutability": "view",
      "type": "function"
    }
  ],
  "bytecode": "0x60806040523480156200001157600080fd5b5060405162004b9038038062004b90833981016040819052620000349162000182565b6001600e556002620000478282620002e6565b50600c805460ff60a01b1916600160a01b17905562000068600033620000c7565b620000947f41821a71fcd4fd9aecd428014f9b7f61fb3bea3424e8a828796db51ad474a27533620000c7565b620000c07ffb248bbb6ca5a799a6bb9ba79f58aa5cdbe0e5979238a967315e7ffbfd119d1a33620000c7565b50620003b2565b6000828152600f602090815260408083206001600160a01b038516845290915290205460ff1662000168576000828152600f602090815260408083206001600160a01b03851684529091529020805460ff19166001179055620001273390565b6001600160a01b0316816001600160a01b0316837f2f8788117e7eff1d82e926ec794901d17c78024a50270940304540a733656f0d60405160405180910390a45b5050565b634e487b7160e01b600052604160045260246000fd5b600060208083850312156200019657600080fd5b82516001600160401b0380821115620001ae57600080fd5b818501915085601f830112620001c357600080fd5b815181811115620001d857620001d86200016c565b604051601f8201601f19908116603f011681019083821181831017156200020357620002036200016c565b8160405282815288868487010111156200021c57600080fd5b600093505b8284101562000240578484018601518185018701529285019262000221565b600086848301015280965050505050505092915050565b600181811c908216806200026c57607f821691505b6020821081036200028d57634e487b7160e01b600052602260045260246000fd5b50919050565b601f821115620002e157600081815260208120601f850160051c81016020861015620002bc5750805b601f850160051c820191505b81811015620002dd57828155600101620002c8565b5050505b505050565b81516001600160401b038111156200030257620003026200016c565b6200031a8162000313845462000257565b8462000293565b602080601f831160018114620003525760008415620003395750858301515b600019600386901b1c1916600185901b178555620002dd565b600085815260208120601f198616915b82811015620003835788860151825594840194600190910190840162000362565b5085821015620003a25787850151600019600388901b60f8161c191681555b5050505050600190811b01905550565b6147ce80620003c26000396000f3fe608060405234801561001057600080fd5b506004361061018b5760003560e01c806301ffc9a71461019057806305ba9ae9146101b85780630c9def41146101d2578063112d3b7b146101e3578063185c09fa146101f85780631c8b58041461020b5780631f86cb541461021e578063248a9ca3146102315780632f2ff15d1461025257806336568abe146102655780633a24f74d14610278578063553107f91461028b5780635c25c76c146102a057806376902b83146102a85780637b2fd1e5146102bb57806391d14854146102cc57806392e1f776146102df5780639b498f3c146102f25780639cb9b65714610305578063a217fddf14610331578063a22b509614610339578063ac0b05a61461034c578063b2016bd41461035d578063b3f7edcf1461036e578063b66a261c14610383578063d547741f14610396578063dac16549146103a9578063e20965b5146103bc578063e52740f7146103cf578063e7d015f2146103e2578063f29ebf61146103f3578063f915995414610404578063fbfa77cf14610417575b600080fd5b6101a361019e366004613899565b610428565b60405190151581526020015b60405180910390f35b600b546001600160a01b03165b6040516101af91906138c3565b600c546001600160a01b03166101c5565b6101f66101f13660046138f5565b61045f565b005b6101f6610206366004613a61565b61057a565b6101f6610219366004613b40565b6106d1565b6101f661022c366004613c19565b61095e565b61024461023f366004613cf4565b6109f9565b6040519081526020016101af565b6101f6610260366004613d0d565b610a0e565b6101f6610273366004613d0d565b610a2a565b6101f6610286366004613a61565b610aa9565b61024460008051602061472c83398151915281565b600054610244565b6101f66102b6366004613d3d565b610c05565b600a546001600160a01b03166101c5565b6101a36102da366004613d0d565b610d4c565b6101f66102ed366004613e1b565b610d77565b6101f6610300366004613e49565b6111f9565b6101f6610313366004613e6e565b600c8054911515600160a01b0260ff60a01b19909216919091179055565b610244600081565b6101f6610347366004613e8b565b61137d565b6009546001600160a01b03166101c5565b6006546001600160a01b03166101c5565b61024460008051602061470c83398151915281565b6101f6610391366004613cf4565b61173d565b6101f66103a4366004613d0d565b61175b565b6101f66103b7366004613ed8565b611777565b6102446103ca366004613f29565b6119d5565b6101f66103dd366004613f57565b611b29565b6005546001600160a01b03166101c5565b6008546001600160a01b03166101c5565b6101f6610412366004613e49565b611d37565b6007546001600160a01b03166101c5565b60006001600160e01b03198216637965db0b60e01b148061045957506301ffc9a760e01b6001600160e01b03198316145b92915050565b6006543390610479906001600160a01b031682308c612080565b8915610519576006546040516370a0823160e01b81526104f7916001600160a01b0316906370a08231906104b19085906004016138c3565b602060405180830381865afa1580156104ce573d6000803e3d6000fd5b505050506040513d601f19601f820116820180604052508101906104f29190613fd2565b6120de565b6000610506828a8a8a8a612126565b9050610513818b8661216e565b5061056e565b61056e604051806101200160405280836001600160a01b031681526020018b81526020018a81526020018981526020018515158152602001868152602001841515815260200188815260200187815250612497565b50505050505050505050565b6105826126e4565b60008051602061470c83398151915261059a8161273d565b61061f60405180610120016040528085606001516001600160a01b03168152602001856080015181526020018560a0015181526020018560c001516001600160801b0316815260200184151581526020016000815260200160011515815260200161060786610140015190565b815260200161061886610120015190565b9052612497565b60008261063757600b546001600160a01b0316610644565b600a546001600160a01b03165b9050806001600160a01b03166398ddd31961065e86612747565b6040518263ffffffff1660e01b815260040161067c91815260200190565b610160604051808303816000875af115801561069c573d6000803e3d6000fd5b505050506040513d601f19601f820116820180604052508101906106c09190614022565b5050506106cd6001600e55565b5050565b6106d96126e4565b3360006106e68285612782565b905060008361070057600b546001600160a01b031661070d565b600a546001600160a01b03165b905061071761383d565b861561081b5760405163e3c5b96960e01b8152600481018490526001600160a01b0383169063e3c5b9699060240161016060405180830381865afa158015610763573d6000803e3d6000fd5b505050506040513d601f19601f820116820180604052508101906107879190614022565b6040516398ddd31960e01b8152600481018590529091506001600160a01b038316906398ddd31990602401610160604051808303816000875af11580156107d2573d6000803e3d6000fd5b505050506040513d601f19601f820116820180604052508101906107f69190614022565b506080810151600654610816916001600160a01b039091169086906127b5565b6108f6565b604051630bdfa7eb60e11b8152600481018490526001600160a01b038316906317bf4fd69060240161016060405180830381865afa158015610861573d6000803e3d6000fd5b505050506040513d601f19601f820116820180604052508101906108859190614022565b604051635008d4d160e11b8152600481018590529091506001600160a01b0383169063a011a9a290602401610160604051808303816000875af11580156108d0573d6000803e3d6000fd5b505050506040513d601f19601f820116820180604052508101906108f49190614022565b505b60408051861515815288151560208201529081018790523060608201526001600160a01b038516907f22a23cce23bf58a4bb883d7a75b1cff31ed1bd99fac269b47537be26f53235cd9060800160405180910390a2505050506109596001600e55565b505050565b6109666126e4565b815183511461097457600080fd5b815181511461098257600080fd5b815160005b818110156109ed576109e58582815181106109a4576109a46140db565b60200260200101518583815181106109be576109be6140db565b60200260200101518584815181106109d8576109d86140db565b60200260200101516106d1565b600101610987565b50506109596001600e55565b6000908152600f602052604090206001015490565b610a17826109f9565b610a208161273d565b61095983836127d4565b6001600160a01b0381163314610a9f5760405162461bcd60e51b815260206004820152602f60248201527f416363657373436f6e74726f6c3a2063616e206f6e6c792072656e6f756e636560448201526e103937b632b9903337b91039b2b63360891b60648201526084015b60405180910390fd5b6106cd828261285a565b610ab16126e4565b60008051602061470c833981519152610ac98161273d565b600c54604080516389be278160e01b815290516000926001600160a01b0316916389be27819160048083019260209291908290030181865afa158015610b13573d6000803e3d6000fd5b505050506040513d601f19601f82011682018060405250810190610b3791906140f1565b9050600080826001600160a01b0316600036604051610b5792919061410e565b600060405180830381855af49150503d8060008114610b92576040519150601f19603f3d011682016040523d82523d6000602084013e610b97565b606091505b509150915081610bf75760405162461bcd60e51b815260206004820152602560248201527f6d61726b65743a6465637265617365506f736974696f6e46726f6d4f726465726044820152640819985a5b60da1b6064820152608401610a96565b505050506106cd6001600e55565b60008051602061472c833981519152610c1d8161273d565b610c3e6040518060600160405280602381526020016146bc602391396128c1565b610c4789612904565b610c856040518060400160405280602081526020017f6d61726b65742f696e697469617a6c697a652f616464726573732874686973298152506128c1565b610c8e30612904565b50600980546001600160a01b03199081166001600160a01b039d8e1617909155600a805482169b8d169b909b17909a55600b80548b16998c1699909917909855600c80548a16978b1697909717909655600580548916958a16959095179094556004805488169289169290921790915560088054871692881692909217909155600d80548616918716919091179055600780548516918616919091179055600380548416918516919091179055600680549092169216919091179055565b6000918252600f602090815260408084206001600160a01b0393909316845291905290205460ff1690565b610d7f6126e4565b33600082610d9857600b546001600160a01b0316610da5565b600a546001600160a01b03165b9050600080826001600160a01b031663554a0eb7610dc3868a612782565b6040518263ffffffff1660e01b8152600401610de191815260200190565b61014060405180830381865afa158015610dff573d6000803e3d6000fd5b505050506040513d601f19601f82011682018060405250810190610e23919061411e565b505050505094505093505050600080600015610e57576801158e460913d000009150610e5082600a6141c7565b9050610ed8565b60095460405163118272bf60e31b81526001600160a01b0390911690638c1395f890610e8b90899030908c906004016141de565b60e060405180830381865afa158015610ea8573d6000803e3d6000fd5b505050506040513d601f19601f82011682018060405250810190610ecc9190614202565b50939650939450505050505b600c5460405163563eccdb60e11b81526000916001600160a01b03169063ac7d99b690610f099030906004016138c3565b602060405180830381865afa158015610f26573d6000803e3d6000fd5b505050506040513d601f19601f82011682018060405250810190610f4a91906140f1565b600c54909150600090600160a01b900460ff1615610fe2576008546040516347a994e960e01b81526001600160a01b03909116906347a994e990610f9e9060009030906001908b9082908590600401614262565b602060405180830381865afa158015610fbb573d6000803e3d6000fd5b505050506040513d601f19601f82011682018060405250810190610fdf9190613fd2565b90505b60405163f6b8515b60e01b81526001600160a01b0383169063f6b8515b906110169087908a9088908b90889060040161429a565b602060405180830381865afa158015611033573d6000803e3d6000fd5b505050506040513d601f19601f820116820180604052508101906110579190613fd2565b506000876001600160a01b03166317bf4fd6611073338f612782565b6040518263ffffffff1660e01b815260040161109191815260200190565b61016060405180830381865afa1580156110af573d6000803e3d6000fd5b505050506040513d601f19601f820116820180604052508101906110d39190614022565b90506110de8b612947565b6001600160801b031660c082015261110d6040518060600160405280602d81526020016146df602d91396128c1565b6111168c6120de565b60405163016c883560e51b81526001600160a01b03891690632d9106a0906111429084906004016142ca565b610160604051808303816000875af1158015611162573d6000803e3d6000fd5b505050506040513d601f19601f820116820180604052508101906111869190614022565b5080606001516001600160a01b031660008051602061469c8339815191528b6001846101000151308660a0015187608001518860c001518961012001518a61014001516040516111de9998979695949392919061437f565b60405180910390a25050505050505050506109596001600e55565b6112016126e4565b61122c6040518060400160405280600a8152602001696d6b742061646472657360b01b8152506128c1565b61123530612904565b600c54604080516389be278160e01b815290516000926001600160a01b0316916389be27819160048083019260209291908290030181865afa15801561127f573d6000803e3d6000fd5b505050506040513d601f19601f820116820180604052508101906112a391906140f1565b90506112c6604051806060016040528060258152602001614677602591396128c1565b6112cf33612904565b6000816001600160a01b03166000366040516112ec92919061410e565b600060405180830381855af49150503d8060008114611327576040519150601f19603f3d011682016040523d82523d6000602084013e61132c565b606091505b50509050806113715760405162461bcd60e51b8152602060048201526011602482015270135add0e991958dc99585cd94818dbdb1b607a1b6044820152606401610a96565b50506106cd6001600e55565b6113856126e4565b60008161139d57600b546001600160a01b03166113aa565b600a546001600160a01b03165b90506000816001600160a01b031663e3c5b9696113c7338a612782565b6040518263ffffffff1660e01b81526004016113e591815260200190565b61016060405180830381865afa158015611403573d6000803e3d6000fd5b505050506040513d601f19601f820116820180604052508101906114279190614022565b90506114368160600151612904565b600c5460405163563eccdb60e11b81526000916001600160a01b03169063ac7d99b6906114679030906004016138c3565b602060405180830381865afa158015611484573d6000803e3d6000fd5b505050506040513d601f19601f820116820180604052508101906114a891906140f1565b60085460a08401516040516320b613eb60e21b81529293506001600160a01b039091169160009183916382d84fac916114e6913091906004016143d2565b602060405180830381865afa158015611503573d6000803e3d6000fd5b505050506040513d601f19601f820116820180604052508101906115279190613fd2565b6040516309d3989760e01b81526001600160a01b038416906309d39897906115539030906004016138c3565b602060405180830381865afa158015611570573d6000803e3d6000fd5b505050506040513d601f19601f820116820180604052508101906115949190613fd2565b61159e91906143eb565b608085015160a0860151604051631ecaa84160e21b815260048101929092526024820152604481018b9052606481018a90526084810189905287151560a482015260c481018290529091506001600160a01b03841690637b2aa1049060e401602060405180830381865afa15801561161a573d6000803e3d6000fd5b505050506040513d601f19601f8201168201806040525081019061163e9190613fd2565b50505061164a87612947565b6001600160801b031660c083015261014082018690526101208201859052604051635568635360e11b81526001600160a01b0384169063aad0c6a6906116949085906004016142ca565b610160604051808303816000875af11580156116b4573d6000803e3d6000fd5b505050506040513d601f19601f820116820180604052508101906116d89190614022565b5081606001516001600160a01b031660008051602061469c8339815191528560018b308760a0015188608001518960c001518d8f6040516117219998979695949392919061437f565b60405180910390a25050506117366001600e55565b5050505050565b60008051602061472c8339815191526117558161273d565b50600055565b611764826109f9565b61176d8161273d565b610959838361285a565b60008051602061470c83398151915261178f8161273d565b6000836117a757600b546001600160a01b03166117b4565b600a546001600160a01b03165b604051635c95a1df60e11b815284151560048201529091506000906001600160a01b0383169063b92b43be90602401602060405180830381865afa158015611800573d6000803e3d6000fd5b505050506040513d601f19601f820116820180604052508101906118249190613fd2565b90508088106118345750506119cd565b80871115611840578096505b868810156119ca57604051630ebdfacf60e21b81526004810189905284151560248201526000906001600160a01b03841690633af7eb3c90604401602060405180830381865afa158015611898573d6000803e3d6000fd5b505050506040513d601f19601f820116820180604052508101906118bc9190613fd2565b905084156119435760405163e3c5b96960e01b8152600481018290526000906001600160a01b0385169063e3c5b9699060240161016060405180830381865afa15801561190d573d6000803e3d6000fd5b505050506040513d601f19601f820116820180604052508101906119319190614022565b905061193d818861057a565b506119be565b604051630bdfa7eb60e11b8152600481018290526000906001600160a01b038516906317bf4fd69060240161016060405180830381865afa15801561198c573d6000803e3d6000fd5b505050506040513d601f19601f820116820180604052508101906119b09190614022565b90506119bc8188610aa9565b505b88600101985050611840565b50505b505050505050565b60006119df6126e4565b60008051602061470c8339815191526119f78161273d565b600c54604080516389be278160e01b815290516000926001600160a01b0316916389be27819160048083019260209291908290030181865afa158015611a41573d6000803e3d6000fd5b505050506040513d601f19601f82011682018060405250810190611a6591906140f1565b9050600080826001600160a01b0316600036604051611a8592919061410e565b600060405180830381855af49150503d8060008114611ac0576040519150601f19603f3d011682016040523d82523d6000602084013e611ac5565b606091505b509150915081611b055760405162461bcd60e51b815260206004820152600b60248201526a6d6b743a6c697120706f7360a81b6044820152606401610a96565b80806020019051810190611b199190613fd2565b9450505050506104596001600e55565b611b316126e4565b338715611beb5760008060095460405163118272bf60e31b81526001600160a01b0390911690638c1395f890611b6f90869030908a906004016141de565b60e060405180830381865afa158015611b8c573d6000803e3d6000fd5b505050506040513d601f19601f82011682018060405250810190611bb09190614202565b50939650939450611bc19350505050565b6000611bcf89838c866129b4565b9050611be2848b838b8a88888d156129e4565b50505050611d23565b600c54604080516389be278160e01b815290516000926001600160a01b0316916389be27819160048083019260209291908290030181865afa158015611c35573d6000803e3d6000fd5b505050506040513d601f19601f82011682018060405250810190611c5991906140f1565b604051602481018a90528815156044820152606481018890526084810187905285151560a482015284151560c48201529091506000906001600160a01b0383169060e40160408051601f198184030181529181526020820180516001600160e01b0316630ff70bf960e31b17905251611cd29190614422565b600060405180830381855af49150503d8060008114611d0d576040519150601f19603f3d011682016040523d82523d6000602084013e611d12565b606091505b5050905080611d2057600080fd5b50505b50611d2e6001600e55565b50505050505050565b611d3f6126e4565b60408051808201909152601a8152791a5b98dc99585cd950dbdb1b185d195c985b0bd858d8dbdd5b9d60321b60208201523390611d7b906128c1565b611d8481612904565b60095460405163118272bf60e31b815260009182916001600160a01b0390911690638c1395f890611dbd908690309089906004016141de565b60e060405180830381865afa158015611dda573d6000803e3d6000fd5b505050506040513d601f19601f82011682018060405250810190611dfe9190614202565b505050505091509150611e10826120de565b611e19816120de565b600c54600090600160a01b900460ff1615611ea65760085460405163ddb3d1a760e01b81526001600160a01b039091169063ddb3d1a790611e6290879030908a906004016141de565b602060405180830381865afa158015611e7f573d6000803e3d6000fd5b505050506040513d601f19601f82011682018060405250810190611ea39190613fd2565b90505b600c5460405163563eccdb60e11b81526000916001600160a01b03169063ac7d99b690611ed79030906004016138c3565b602060405180830381865afa158015611ef4573d6000803e3d6000fd5b505050506040513d601f19601f82011682018060405250810190611f1891906140f1565b90506000819050806001600160a01b031663c74d92e6826001600160a01b031663177927296040518163ffffffff1660e01b8152600401602060405180830381865afa158015611f6c573d6000803e3d6000fd5b505050506040513d601f19601f82011682018060405250810190611f90919061443e565b6001878c8a60008a6040518863ffffffff1660e01b8152600401611fba979695949392919061447f565b60006040518083038186803b158015611fd257600080fd5b505afa158015611fe6573d6000803e3d6000fd5b505060065461200392506001600160a01b0316905087308b612080565b600954604051630a2eb75760e11b81526001600160a01b039091169063145d6eae9061203e90899030908d9060009081908f906004016144b0565b600060405180830381600087803b15801561205857600080fd5b505af115801561206c573d6000803e3d6000fd5b505050505050505050506106cd6001600e55565b6120d8846323b872dd60e01b8585856040516024016120a1939291906144e6565b60408051601f198184030181529190526020810180516001600160e01b03166001600160e01b031990931692909217909152612da3565b50505050565b612123816040516024016120f491815260200190565b60408051601f198184030181529190526020810180516001600160e01b031663f82c50f160e01b179052612e75565b50565b61212e61383d565b6001600160a01b038616606082015261214684612947565b6001600160801b031660c082015260a081019490945261012084015261014083015250919050565b60085460a08401516040516320b613eb60e21b81526001600160a01b039092169160009183916382d84fac916121a9913091906004016143d2565b602060405180830381865afa1580156121c6573d6000803e3d6000fd5b505050506040513d601f19601f820116820180604052508101906121ea9190613fd2565b6040516309d3989760e01b81526001600160a01b038416906309d39897906122169030906004016138c3565b602060405180830381865afa158015612233573d6000803e3d6000fd5b505050506040513d601f19601f820116820180604052508101906122579190613fd2565b61226191906143eb565b600c5460405163563eccdb60e11b81529192506001600160a01b03169063ac7d99b6906122929030906004016138c3565b602060405180830381865afa1580156122af573d6000803e3d6000fd5b505050506040513d601f19601f820116820180604052508101906122d391906140f1565b6001600160a01b0316637b2aa104858760a001518860c001516122f88a610140015190565b6101208b01516040516001600160e01b031960e088901b168152600481019590955260248501939093526001600160801b0390911660448401526064830152608482015285151560a482015260c4810184905260e401602060405180830381865afa15801561236b573d6000803e3d6000fd5b505050506040513d601f19601f8201168201806040525081019061238f9190613fd2565b60808601526000836123ac57600b546001600160a01b03166123b9565b600a546001600160a01b03165b6001600160a01b0316634cf56488876040518263ffffffff1660e01b81526004016123e491906142ca565b610160604051808303816000875af1158015612404573d6000803e3d6000fd5b505050506040513d601f19601f820116820180604052508101906124289190614022565b905080606001516001600160a01b031660008051602061469c833981519152856001846101000151308660a0015187608001518860c0015161246c8a610120015190565b6101408b01516040516124879998979695949392919061437f565b60405180910390a2505050505050565b6000806124a581600a6141c7565b600c54909150600160a01b900460ff1615612546576009548351608085015160405163118272bf60e31b81526001600160a01b0390931692638c1395f8926124f49290913091906004016141de565b60e060405180830381865afa158015612511573d6000803e3d6000fd5b505050506040513d601f19601f820116820180604052508101906125359190614202565b509396509394506125839350505050565b6125716040518060400160405280600a8152602001696265666f7265202d2d2d60b01b8152506128c1565b61257a826120de565b612583816120de565b6125a183604051806040016040528084815260200185815250612e96565b60008360e001516000141580156125c857506080840151606085015160e086015111901515145b905060008461010001516000141580156125f45750846101000151856060015111151585608001511515145b90508180156126005750805b156126965760006126378660000151876040015160008960e001518a608001518a8c604001518d6080015115158b151514156129e4565b8651604088015161010089015160808a015193945060009361266593929185918b848a1515831515146129e4565b905061267b61267382612747565b610120840152565b61268f61268783612747565b610120830152565b5050611736565b818061269f5750805b15611736576000611d2e866000015187604001516000866126c5578961010001516126cb565b8960e001515b60808b015160408c01518b908a151583151514156129e4565b6002600e54036127365760405162461bcd60e51b815260206004820152601f60248201527f5265656e7472616e637947756172643a207265656e7472616e742063616c6c006044820152606401610a96565b6002600e55565b6121238133613347565b6000816060015182610100015160405160200161276592919061450a565b604051602081830303815290604052805190602001209050919050565b6000828260405160200161279792919061450a565b60405160208183030381529060405280519060200120905092915050565b6109598363a9059cbb60e01b84846040516024016120a19291906143d2565b6127de8282610d4c565b6106cd576000828152600f602090815260408083206001600160a01b03851684529091529020805460ff191660011790556128163390565b6001600160a01b0316816001600160a01b0316837f2f8788117e7eff1d82e926ec794901d17c78024a50270940304540a733656f0d60405160405180910390a45050565b6128648282610d4c565b156106cd576000828152600f602090815260408083206001600160a01b0385168085529252808320805460ff1916905551339285917ff6391f5c32d9c69d2a47ea670b442974b53935d1edc7fd64eb21e047a839171b9190a45050565b612123816040516024016128d59190614527565b60408051601f198184030181529190526020810180516001600160e01b031663104c13eb60e21b179052612e75565b6121238160405160240161291891906138c3565b60408051601f198184030181529190526020810180516001600160e01b031663161765e160e11b179052612e75565b60006001600160801b038211156129b05760405162461bcd60e51b815260206004820152602760248201527f53616665436173743a2076616c756520646f65736e27742066697420696e20316044820152663238206269747360c81b6064820152608401610a96565b5090565b600084156129d857836129c784846141c7565b6129d1919061455a565b90506129dc565b5060005b949350505050565b6129ec61383d565b612a0d604051806060016040528060258152602001614774602591396128c1565b612a16836120de565b612a1f886120de565b600c5460405163563eccdb60e11b81526000916001600160a01b03169063ac7d99b690612a509030906004016138c3565b602060405180830381865afa158015612a6d573d6000803e3d6000fd5b505050506040513d601f19601f82011682018060405250810190612a9191906140f1565b600c54909150600090600160a01b900460ff1615612b29576008546040516347a994e960e01b81526001600160a01b03909116906347a994e990612ae59060009030906001908b9082908590600401614262565b602060405180830381865afa158015612b02573d6000803e3d6000fd5b505050506040513d601f19601f82011682018060405250810190612b269190613fd2565b90505b816001600160a01b031663f6b8515b878b888e866040518663ffffffff1660e01b8152600401612b5d95949392919061429a565b602060405180830381865afa158015612b7a573d6000803e3d6000fd5b505050506040513d601f19601f82011682018060405250810190612b9e9190613fd2565b506009546040516311c7138560e11b81526000916001600160a01b03169063238e270a90612bd4908f9030908d906004016141de565b602060405180830381865afa158015612bf1573d6000803e3d6000fd5b505050506040513d601f19601f82011682018060405250810190612c159190613fd2565b851515604086015290506001600160a01b038c166060850152612c3789612947565b6001600160801b031660c085015260a084018b90526101408401819052600088612c6c57600b546001600160a01b0316612c79565b600a546001600160a01b03165b6040516330e4348f60e01b81529091506001600160a01b038216906330e4348f90612ca89088906004016142ca565b610160604051808303816000875af1158015612cc8573d6000803e3d6000fd5b505050506040513d601f19601f82011682018060405250810190612cec9190614022565b50612d0e60405180606001604052806028815260200161474c602891396128c1565b612d93816001600160a01b03166317bf4fd6612d2988612747565b6040518263ffffffff1660e01b8152600401612d4791815260200190565b61016060405180830381865afa158015612d65573d6000803e3d6000fd5b505050506040513d601f19601f82011682018060405250810190612d899190614022565b61010001516120de565b5050505098975050505050505050565b6000612df8826040518060400160405280602081526020017f5361666545524332303a206c6f772d6c6576656c2063616c6c206661696c6564815250856001600160a01b03166133a09092919063ffffffff16565b8051909150156109595780806020019051810190612e16919061457c565b6109595760405162461bcd60e51b815260206004820152602a60248201527f5361666545524332303a204552433230206f7065726174696f6e20646964206e6044820152691bdd081cdd58d8d9595960b21b6064820152608401610a96565b80516a636f6e736f6c652e6c6f67602083016000808483855afa5050505050565b600c5460405163563eccdb60e11b81526000916001600160a01b03169063ac7d99b690612ec79030906004016138c3565b602060405180830381865afa158015612ee4573d6000803e3d6000fd5b505050506040513d601f19601f82011682018060405250810190612f0891906140f1565b905060008190506000816001600160a01b031663177927296040518163ffffffff1660e01b8152600401602060405180830381865afa158015612f4f573d6000803e3d6000fd5b505050506040513d601f19601f82011682018060405250810190612f73919061443e565b845160408781015190516335ab1cbf60e01b81528351600482015260248101929092526044820152600160648201529091506001600160a01b038316906335ab1cbf9060840160006040518083038186803b158015612fd157600080fd5b505afa158015612fe5573d6000803e3d6000fd5b5050600c5460009250600160a01b900460ff161590506130be5761303260405180604001604052806012815260200171666565526f757465725f2e6765744665657360701b8152506128c1565b600854865160808801516040808a015160c08b015191516347a994e960e01b81526001600160a01b03909516946347a994e99461307a94909330939192600190600401614262565b602060405180830381865afa158015613097573d6000803e3d6000fd5b505050506040513d601f19601f820116820180604052508101906130bb9190613fd2565b90505b6020808601519087015186516040808a015190516363a6c97360e11b81526001600160a01b0388169463c74d92e6946131009489946001948a9060040161447f565b60006040518083038186803b15801561311857600080fd5b505afa15801561312c573d6000803e3d6000fd5b506000925050506131666040518060400160405280601281526020017176616c6964536c697070616765507269636560701b8152506128c1565b6060870151608088015160a089015160405163037c3c9b60e01b815286516004820152602481019390935290151560448301526064820152600160848201526001600160a01b0385169063037c3c9b9060a401602060405180830381865afa1580156131d6573d6000803e3d6000fd5b505050506040513d601f19601f820116820180604052508101906131fa9190613fd2565b9050600061321e8361320f8a602001516133af565b6132199190614599565b613419565b60095489516040808c015160808d01519151630a2eb75760e11b81529495506001600160a01b039093169363145d6eae93613263939230928892918a916004016144b0565b600060405180830381600087803b15801561327d57600080fd5b505af1158015613291573d6000803e3d6000fd5b505089516040808c01516080808e015160065460055485518a815260208101959095529115159484019490945260608301899052600091830182905260a0830182905260c0830182905260e0830191909152306101008301526001600160a01b0392831661012083015282166101408201526001610160820152911692507ffc1f8b40dd27177b575feb8190e47ed65af3a506a9e92b5df7e089b4b1a3626a91506101800160405180910390a26119ca8361346b565b6133518282610d4c565b6106cd5761335e81613510565b613369836020613522565b60405160200161337a9291906145c0565b60408051601f198184030181529082905262461bcd60e51b8252610a9691600401614527565b60606129dc84846000856136c4565b60006001600160ff1b038211156129b05760405162461bcd60e51b815260206004820152602860248201527f53616665436173743a2076616c756520646f65736e27742066697420696e2061604482015267371034b73a191a9b60c11b6064820152608401610a96565b6000808212156129b05760405162461bcd60e51b815260206004820181905260248201527f53616665436173743a2076616c7565206d75737420626520706f7369746976656044820152606401610a96565b60008113156134d85760048054600654604051636ce5768960e11b81526001600160a01b039283169363d9caed12936134aa93169130918791016144e6565b600060405180830381600087803b1580156134c457600080fd5b505af1158015611736573d6000803e3d6000fd5b600081121561212357600454612123906001600160a01b03166134fd8360001961462f565b6006546001600160a01b031691906127b5565b60606104596001600160a01b03831660145b606060006135318360026141c7565b61353c9060026143eb565b6001600160401b038111156135535761355361397b565b6040519080825280601f01601f19166020018201604052801561357d576020820181803683370190505b509050600360fc1b81600081518110613598576135986140db565b60200101906001600160f81b031916908160001a905350600f60fb1b816001815181106135c7576135c76140db565b60200101906001600160f81b031916908160001a90535060006135eb8460026141c7565b6135f69060016143eb565b90505b600181111561366e576f181899199a1a9b1b9c1cb0b131b232b360811b85600f166010811061362a5761362a6140db565b1a60f81b828281518110613640576136406140db565b60200101906001600160f81b031916908160001a90535060049490941c936136678161465f565b90506135f9565b5083156136bd5760405162461bcd60e51b815260206004820181905260248201527f537472696e67733a20686578206c656e67746820696e73756666696369656e746044820152606401610a96565b9392505050565b6060824710156137255760405162461bcd60e51b815260206004820152602660248201527f416464726573733a20696e73756666696369656e742062616c616e636520666f6044820152651c8818d85b1b60d21b6064820152608401610a96565b600080866001600160a01b031685876040516137419190614422565b60006040518083038185875af1925050503d806000811461377e576040519150601f19603f3d011682016040523d82523d6000602084013e613783565b606091505b50915091506137948783838761379f565b979650505050505050565b6060831561380e578251600003613807576001600160a01b0385163b6138075760405162461bcd60e51b815260206004820152601d60248201527f416464726573733a2063616c6c20746f206e6f6e2d636f6e74726163740000006044820152606401610a96565b50816129dc565b6129dc83838151156138235781518083602001fd5b8060405162461bcd60e51b8152600401610a969190614527565b6040805161016081018252600080825260208201819052918101829052606081018290526080810182905260a0810182905260c0810182905260e081018290526101008101829052610120810182905261014081019190915290565b6000602082840312156138ab57600080fd5b81356001600160e01b0319811681146136bd57600080fd5b6001600160a01b0391909116815260200190565b801515811461212357600080fd5b80356138f0816138d7565b919050565b60008060008060008060008060006101208a8c03121561391457600080fd5b893561391f816138d7565b985060208a0135975060408a0135965060608a0135955060808a0135945060a08a0135935060c08a0135925060e08a0135613959816138d7565b91506101008a013561396a816138d7565b809150509295985092959850929598565b634e487b7160e01b600052604160045260246000fd5b60405161016081016001600160401b03811182821017156139b4576139b461397b565b60405290565b604051601f8201601f191681016001600160401b03811182821017156139e2576139e261397b565b604052919050565b60ff8116811461212357600080fd5b80356138f0816139ea565b63ffffffff8116811461212357600080fd5b80356138f081613a04565b6001600160a01b038116811461212357600080fd5b80356138f081613a21565b6001600160801b038116811461212357600080fd5b80356138f081613a41565b600080828403610180811215613a7657600080fd5b61016080821215613a8657600080fd5b613a8e613991565b9150613a99856139f9565b8252613aa760208601613a16565b6020830152613ab8604086016138e5565b6040830152613ac960608601613a36565b60608301526080850135608083015260a085013560a0830152613aee60c08601613a56565b60c0830152613aff60e08601613a56565b60e08301526101008581013590830152610120808601359083015261014080860135908301529092508290613b358186016138e5565b925050509250929050565b600080600060608486031215613b5557600080fd5b8335613b60816138d7565b9250602084013591506040840135613b77816138d7565b809150509250925092565b60006001600160401b03821115613b9b57613b9b61397b565b5060051b60200190565b600082601f830112613bb657600080fd5b81356020613bcb613bc683613b82565b6139ba565b82815260059290921b84018101918181019086841115613bea57600080fd5b8286015b84811015613c0e578035613c01816138d7565b8352918301918301613bee565b509695505050505050565b600080600060608486031215613c2e57600080fd5b83356001600160401b0380821115613c4557600080fd5b613c5187838801613ba5565b9450602091508186013581811115613c6857600080fd5b8601601f81018813613c7957600080fd5b8035613c87613bc682613b82565b81815260059190911b8201840190848101908a831115613ca657600080fd5b928501925b82841015613cc457833582529285019290850190613cab565b96505050506040860135915080821115613cdd57600080fd5b50613cea86828701613ba5565b9150509250925092565b600060208284031215613d0657600080fd5b5035919050565b60008060408385031215613d2057600080fd5b823591506020830135613d3281613a21565b809150509250929050565b60008060008060008060008060008060006101608c8e031215613d5f57600080fd5b8b35613d6a81613a21565b9a5060208c0135613d7a81613a21565b995060408c0135613d8a81613a21565b985060608c0135613d9a81613a21565b975060808c0135613daa81613a21565b965060a08c0135613dba81613a21565b955060c08c0135613dca81613a21565b945060e08c0135613dda81613a21565b93506101008c0135613deb81613a21565b9250613dfa6101208d01613a36565b9150613e096101408d01613a36565b90509295989b509295989b9093969950565b600080600060608486031215613e3057600080fd5b83359250602084013591506040840135613b77816138d7565b60008060408385031215613e5c57600080fd5b823591506020830135613d32816138d7565b600060208284031215613e8057600080fd5b81356136bd816138d7565b600080600080600060a08688031215613ea357600080fd5b853594506020860135935060408601359250606086013591506080860135613eca816138d7565b809150509295509295909350565b600080600080600060a08688031215613ef057600080fd5b85359450602086013593506040860135613f0981613a21565b92506060860135613f19816138d7565b91506080860135613eca816138d7565b60008060408385031215613f3c57600080fd5b8235613f4781613a21565b91506020830135613d32816138d7565b600080600080600080600060e0888a031215613f7257600080fd5b8735613f7d816138d7565b9650602088013595506040880135613f94816138d7565b9450606088013593506080880135925060a0880135613fb2816138d7565b915060c0880135613fc2816138d7565b8091505092959891949750929550565b600060208284031215613fe457600080fd5b5051919050565b80516138f0816139ea565b80516138f081613a04565b80516138f0816138d7565b80516138f081613a21565b80516138f081613a41565b6000610160828403121561403557600080fd5b61403d613991565b61404683613feb565b815261405460208401613ff6565b602082015261406560408401614001565b60408201526140766060840161400c565b60608201526080830151608082015260a083015160a082015261409b60c08401614017565b60c08201526140ac60e08401614017565b60e082015261010083810151908201526101208084015190820152610140928301519281019290925250919050565b634e487b7160e01b600052603260045260246000fd5b60006020828403121561410357600080fd5b81516136bd81613a21565b8183823760009101908152919050565b6000806000806000806000806000806101408b8d03121561413e57600080fd5b8a51614149816138d7565b60208c0151909a5061415a816139ea565b60408c015160608d0151919a50985061417281613a21565b8097505060808b0151955060a08b0151945060c08b0151935060e08b015192506101008b015191506101208b015190509295989b9194979a5092959850565b634e487b7160e01b600052601160045260246000fd5b8082028115828204841417610459576104596141b1565b6001600160a01b039384168152919092166020820152901515604082015260600190565b600080600080600080600060e0888a03121561421d57600080fd5b875196506020880151955060408801519450606088015193506080880151925060a088015161424b816138d7565b8092505060c0880151905092959891949750929550565b6001600160a01b039687168152949095166020850152911515604084015260608301521515608082015290151560a082015260c00190565b948552602085019390935260408401919091526060830152608082015260a00190565b6001600160801b03169052565b815160ff168152610160810160208301516142ed602084018263ffffffff169052565b506040830151614301604084018215159052565b50606083015161431c60608401826001600160a01b03169052565b506080830151608083015260a083015160a083015260c083015161434360c08401826142bd565b5060e083015161435660e08401826142bd565b506101008381015190830152610120808401519083015261014092830151929091019190915290565b9815158952961515602089015260408801959095526001600160a01b03939093166060870152608086019190915260a08501526001600160801b031660c084015260e08301526101008201526101200190565b6001600160a01b03929092168252602082015260400190565b80820180821115610459576104596141b1565b60005b83811015614419578181015183820152602001614401565b50506000910152565b600082516144348184602087016143fe565b9190910192915050565b60006020828403121561445057600080fd5b604051602081016001600160401b03811182821017156144725761447261397b565b6040529151825250919050565b96518752941515602087015260408601939093526060850191909152608084015260a083015260c082015260e00190565b6001600160a01b03968716815294909516602085015260408401929092526060830152608082015290151560a082015260c00190565b6001600160a01b039384168152919092166020820152604081019190915260600190565b60609290921b6001600160601b0319168252601482015260340190565b60208152600082518060208401526145468160408501602087016143fe565b601f01601f19169190910160400192915050565b60008261457757634e487b7160e01b600052601260045260246000fd5b500490565b60006020828403121561458e57600080fd5b81516136bd816138d7565b81810360008312801583831316838312821617156145b9576145b96141b1565b5092915050565b76020b1b1b2b9b9a1b7b73a3937b61d1030b1b1b7bab73a1604d1b8152600083516145f28160178501602088016143fe565b7001034b99036b4b9b9b4b733903937b6329607d1b60179184019182015283516146238160288401602088016143fe565b01602801949350505050565b80820260008212600160ff1b8414161561464b5761464b6141b1565b8181058314821517610459576104596141b1565b60008161466e5761466e6141b1565b50600019019056fe4d61726b65742e736f6c2f6465637265617365436f6c6c61746572616c2f6163636f756e74d2ac4688baaf870dba21f18c3a385e1ae58b102c0d60258cf384dc361df60fe46d61726b65742f696e697469617a6c697a652f5f6164647265737350726f76696465722d2d2d2d2d2d2d2d2d2d2d2d2d756470617465206465637265617365206f726465722d2d2d2d2d2d2d2d2d2d2dfb248bbb6ca5a799a6bb9ba79f58aa5cdbe0e5979238a967315e7ffbfd119d1a41821a71fcd4fd9aecd428014f9b7f61fb3bea3424e8a828796db51ad474a2752d2d2d2d2d2d2d2d2d2d2d637265617465206465637265617365206f726465722069642d2d2d2d2d2d2d2d2d2d2d6d61726b65742e736f6c2f5f63726561746544656372656173654f72646572a26469706673582212209d9c78eb9f0622510006316c61b7c4979917747960faf622903cde1b33657a2c64736f6c63430008110033",
  "linkReferences": {},
  "deployedLinkReferences": {}
}