{
  "_format": "hh-sol-artifact-1",
  "contractName": "MarketReader",
  "sourceName": "contracts/market/MarketReader.sol",
  "abi": [
    {
      "inputs": [],
      "stateMutability": "nonpayable",
      "type": "constructor"
    },
    {
      "inputs": [
        {
          "internalType": "address",
          "name": "_market",
          "type": "address"
        },
        {
          "internalType": "address",
          "name": "_account",
          "type": "address"
        },
        {
          "internalType": "bool",
          "name": "_isLong",
          "type": "bool"
        }
      ],
      "name": "availableLiquidity",
      "outputs": [
        {
          "internalType": "uint256",
          "name": "",
          "type": "uint256"
        }
      ],
      "stateMutability": "view",
      "type": "function"
    },
    {
      "inputs": [
        {
          "internalType": "address",
          "name": "_account",
          "type": "address"
        },
        {
          "internalType": "address",
          "name": "_market",
          "type": "address"
        },
        {
          "internalType": "bool",
          "name": "_isLong",
          "type": "bool"
        }
      ],
      "name": "getFundingFee",
      "outputs": [
        {
          "internalType": "int256",
          "name": "",
          "type": "int256"
        }
      ],
      "stateMutability": "view",
      "type": "function"
    },
    {
      "inputs": [
        {
          "internalType": "address",
          "name": "_market",
          "type": "address"
        },
        {
          "internalType": "bool",
          "name": "_isLong",
          "type": "bool"
        }
      ],
      "name": "getFundingRate",
      "outputs": [
        {
          "internalType": "int256",
          "name": "",
          "type": "int256"
        },
        {
          "internalType": "int256",
          "name": "",
          "type": "int256"
        }
      ],
      "stateMutability": "view",
      "type": "function"
    },
    {
      "inputs": [
        {
          "internalType": "address",
          "name": "_marketAddr",
          "type": "address"
        }
      ],
      "name": "getMarket",
      "outputs": [
        {
          "components": [
            {
              "internalType": "uint256",
              "name": "minSlippage",
              "type": "uint256"
            },
            {
              "internalType": "uint256",
              "name": "maxSlippage",
              "type": "uint256"
            },
            {
              "internalType": "uint256",
              "name": "slippageDigits",
              "type": "uint256"
            },
            {
              "internalType": "uint256",
              "name": "minLev",
              "type": "uint256"
            },
            {
              "internalType": "uint256",
              "name": "maxLev",
              "type": "uint256"
            },
            {
              "internalType": "uint256",
              "name": "minCollateral",
              "type": "uint256"
            },
            {
              "internalType": "uint256",
              "name": "maxTradeAmount",
              "type": "uint256"
            },
            {
              "internalType": "bool",
              "name": "allowOpen",
              "type": "bool"
            },
            {
              "internalType": "bool",
              "name": "allowClose",
              "type": "bool"
            }
          ],
          "internalType": "struct IMarketReader.ValidOuts",
          "name": "validOuts",
          "type": "tuple"
        },
        {
          "components": [
            {
              "internalType": "uint256",
              "name": "tokenDigits",
              "type": "uint256"
            },
            {
              "internalType": "uint256",
              "name": "closeFeeRate",
              "type": "uint256"
            },
            {
              "internalType": "uint256",
              "name": "openFeeRate",
              "type": "uint256"
            },
            {
              "internalType": "uint256",
              "name": "liquidationFeeUsd",
              "type": "uint256"
            },
            {
              "internalType": "uint256",
              "name": "spread",
              "type": "uint256"
            },
            {
              "internalType": "address",
              "name": "indexToken",
              "type": "address"
            },
            {
              "internalType": "address",
              "name": "collateralToken",
              "type": "address"
            },
            {
              "internalType": "address",
              "name": "vault",
              "type": "address"
            },
            {
              "internalType": "address",
              "name": "marketAddressesProvider",
              "type": "address"
            },
            {
              "internalType": "address",
              "name": "orderBookLong",
              "type": "address"
            },
            {
              "internalType": "address",
              "name": "orderBookShort",
              "type": "address"
            },
            {
              "internalType": "address",
              "name": "positionBook",
              "type": "address"
            }
          ],
          "internalType": "struct IMarketReader.MarketOuts",
          "name": "mktOuts",
          "type": "tuple"
        },
        {
          "components": [
            {
              "internalType": "uint256",
              "name": "closeFeeRate",
              "type": "uint256"
            },
            {
              "internalType": "uint256",
              "name": "openFeeRate",
              "type": "uint256"
            },
            {
              "internalType": "uint256",
              "name": "execFee",
              "type": "uint256"
            },
            {
              "internalType": "uint256",
              "name": "liquidateFee",
              "type": "uint256"
            },
            {
              "internalType": "uint256",
              "name": "digits",
              "type": "uint256"
            }
          ],
          "internalType": "struct IMarketReader.FeeOuts",
          "name": "feeOuts",
          "type": "tuple"
        }
      ],
      "stateMutability": "view",
      "type": "function"
    },
    {
      "inputs": [
        {
          "internalType": "address",
          "name": "_account",
          "type": "address"
        },
        {
          "internalType": "address",
          "name": "_market",
          "type": "address"
        }
      ],
      "name": "getPositions",
      "outputs": [
        {
          "components": [
            {
              "internalType": "uint256",
              "name": "size",
              "type": "uint256"
            },
            {
              "internalType": "uint256",
              "name": "collateral",
              "type": "uint256"
            },
            {
              "internalType": "uint256",
              "name": "averagePrice",
              "type": "uint256"
            },
            {
              "internalType": "int256",
              "name": "entryFundingRate",
              "type": "int256"
            },
            {
              "internalType": "uint256",
              "name": "realisedPnl",
              "type": "uint256"
            },
            {
              "internalType": "bool",
              "name": "hasProfit",
              "type": "bool"
            },
            {
              "internalType": "uint256",
              "name": "lastTime",
              "type": "uint256"
            },
            {
              "internalType": "bool",
              "name": "isLong",
              "type": "bool"
            },
            {
              "internalType": "uint256[]",
              "name": "orderIDs",
              "type": "uint256[]"
            }
          ],
          "internalType": "struct IMarketReader.PositionOuts[]",
          "name": "_positions",
          "type": "tuple[]"
        }
      ],
      "stateMutability": "view",
      "type": "function"
    },
    {
      "inputs": [
        {
          "internalType": "address",
          "name": "_mkt",
          "type": "address"
        },
        {
          "internalType": "address",
          "name": "_user",
          "type": "address"
        }
      ],
      "name": "getUserFee",
      "outputs": [
        {
          "components": [
            {
              "internalType": "uint256",
              "name": "openFee",
              "type": "uint256"
            },
            {
              "internalType": "uint256",
              "name": "closeFee",
              "type": "uint256"
            },
            {
              "internalType": "int256",
              "name": "fundFee",
              "type": "int256"
            },
            {
              "internalType": "uint256",
              "name": "liquidateFee",
              "type": "uint256"
            },
            {
              "internalType": "uint256",
              "name": "execFee",
              "type": "uint256"
            }
          ],
          "internalType": "struct IMarketReader.UserFeeOuts",
          "name": "_outs",
          "type": "tuple"
        }
      ],
      "stateMutability": "view",
      "type": "function"
    }
  ],
  "bytecode": "0x608060405234801561001057600080fd5b50611a4c806100206000396000f3fe608060405234801561001057600080fd5b50600436106100625760003560e01c806320981df41461006757806363b7a87914610094578063735a2885146100e9578063739118a41461010a578063889be2851461012a578063d4dfadbf1461013d575b600080fd5b61007a6100753660046113c0565b61015f565b604080519283526020830191909152015b60405180910390f35b6100a76100a23660046113f9565b6102ba565b60405161008b9190600060a082019050825182526020830151602083015260408301516040830152606083015160608301526080830151608083015292915050565b6100fc6100f7366004611427565b6103ea565b60405190815260200161008b565b61011d6101183660046113f9565b6104cc565b60405161008b91906114ad565b6100fc610138366004611427565b61079d565b61015061014b366004611570565b610835565b60405161008b9392919061165e565b6000806000846001600160a01b031663ac0b05a66040518163ffffffff1660e01b8152600401602060405180830381865afa1580156101a2573d6000803e3d6000fd5b505050506040513d601f19601f820116820180604052508101906101c6919061170b565b90506000816001600160a01b03166320981df487876040518363ffffffff1660e01b81526004016101f8929190611728565b602060405180830381865afa158015610215573d6000803e3d6000fd5b505050506040513d601f19601f820116820180604052508101906102399190611743565b90506000826001600160a01b03166334f32e2588886040518363ffffffff1660e01b815260040161026b929190611728565b602060405180830381865afa158015610288573d6000803e3d6000fd5b505050506040513d601f19601f820116820180604052508101906102ac9190611743565b919791965090945050505050565b6102ec6040518060a0016040528060008152602001600081526020016000815260200160008152602001600081525090565b60008390506000816001600160a01b031663f29ebf616040518163ffffffff1660e01b8152600401602060405180830381865afa158015610331573d6000803e3d6000fd5b505050506040513d601f19601f82011682018060405250810190610355919061170b565b60405163ba23329360e01b81526001600160a01b03878116600483015286811660248301529192509082169063ba2332939060440160a060405180830381865afa1580156103a7573d6000803e3d6000fd5b505050506040513d601f19601f820116820180604052508101906103cb919061175c565b6080880152606087015260408601526020850152835250909392505050565b600080846001600160a01b031663ac0b05a66040518163ffffffff1660e01b8152600401602060405180830381865afa15801561042b573d6000803e3d6000fd5b505050506040513d601f19601f8201168201806040525081019061044f919061170b565b60405163582e444b60e11b81529091506001600160a01b0382169063b05c8896906104829088908890889060040161179c565b602060405180830381865afa15801561049f573d6000803e3d6000fd5b505050506040513d601f19601f820116820180604052508101906104c39190611743565b95945050505050565b60606000826001600160a01b031663ac0b05a66040518163ffffffff1660e01b8152600401602060405180830381865afa15801561050e573d6000803e3d6000fd5b505050506040513d601f19601f82011682018060405250810190610532919061170b565b90506105736040518060400160405280601d81526020017f676574506f736974696f6e732e706f736974696f6e426f6f6b3a20257300000081525082611261565b6040805160028082526060820190925290816020015b61059161134a565b8152602001906001900390816105895790505091506105ae61134a565b60405163118272bf60e31b81526001600160a01b03831690638c1395f8906105df908890889060019060040161179c565b60e060405180830381865afa1580156105fc573d6000803e3d6000fd5b505050506040513d601f19601f8201168201806040525081019061062091906117c0565b60c0880152151560a087015260808601526060850152604084015260208301528152600160e08201526000604051908082528060200260200182016040528015610674578160200160208202803683370190505b50816101000181905250808360008151811061069257610692611820565b60200260200101819052506106a561134a565b60405163118272bf60e31b81526001600160a01b03841690638c1395f8906106d6908990899060009060040161179c565b60e060405180830381865afa1580156106f3573d6000803e3d6000fd5b505050506040513d601f19601f8201168201806040525081019061071791906117c0565b60c0880152151560a087015260808601526060850152604084015260208301528152600060e0820181905260405190808252806020026020018201604052801561076b578160200160208202803683370190505b50816101000181905250808460018151811061078957610789611820565b602002602001018190525050505092915050565b600080836001600160a01b031663f29ebf616040518163ffffffff1660e01b8152600401602060405180830381865afa1580156107de573d6000803e3d6000fd5b505050506040513d601f19601f82011682018060405250810190610802919061170b565b60405163889be28560e01b81529091506001600160a01b0382169063889be285906104829088908890889060040161179c565b610888604051806101200160405280600081526020016000815260200160008152602001600081526020016000815260200160008152602001600081526020016000151581526020016000151581525090565b6040805161018081018252600080825260208201819052918101829052606081018290526080810182905260a0810182905260c0810182905260e0810182905261010081018290526101208101829052610140810182905261016081019190915261091b6040518060a0016040528060008152602001600081526020016000815260200160008152602001600081525090565b6109466040518060400160405280600981526020016819d95d13585c9ad95d60ba1b81525085611261565b60008490506000816001600160a01b031663f29ebf616040518163ffffffff1660e01b8152600401602060405180830381865afa15801561098b573d6000803e3d6000fd5b505050506040513d601f19601f820116820180604052508101906109af919061170b565b90506000826001600160a01b0316630c9def416040518163ffffffff1660e01b8152600401602060405180830381865afa1580156109f1573d6000803e3d6000fd5b505050506040513d601f19601f82011682018060405250810190610a15919061170b565b90506000816001600160a01b031663ac7d99b6896040518263ffffffff1660e01b8152600401610a459190611836565b602060405180830381865afa158015610a62573d6000803e3d6000fd5b505050506040513d601f19601f82011682018060405250810190610a86919061170b565b90506000816001600160a01b031663177927296040518163ffffffff1660e01b8152600401602060405180830381865afa158015610ac8573d6000803e3d6000fd5b505050506040513d601f19601f82011682018060405250810190610aec919061184a565b9050604051806101200160405280610b068351610fff1690565b81528251602090910190600c1c610fff168152602001610b276127106112aa565b8152825160181c610fff9081166020830152835160241c166040820152606001610b50836112cf565b8152602001610b5e836112f3565b8152602001610b738351600f606c1b16151590565b15158152602001610b8a8351600f60681b16151590565b15158152509750604051806101800160405280610bae835160ff60709190911c1690565b8152602001856001600160a01b03166362c6a895886040518263ffffffff1660e01b8152600401610bdf9190611836565b602060405180830381865afa158015610bfc573d6000803e3d6000fd5b505050506040513d601f19601f82011682018060405250810190610c209190611743565b8152602001856001600160a01b0316633408d625886040518263ffffffff1660e01b8152600401610c519190611836565b602060405180830381865afa158015610c6e573d6000803e3d6000fd5b505050506040513d601f19601f82011682018060405250810190610c929190611743565b815260200160008152602001866001600160a01b0316635c25c76c6040518163ffffffff1660e01b8152600401602060405180830381865afa158015610cdc573d6000803e3d6000fd5b505050506040513d601f19601f82011682018060405250810190610d009190611743565b8152602001866001600160a01b031663e7d015f26040518163ffffffff1660e01b8152600401602060405180830381865afa158015610d43573d6000803e3d6000fd5b505050506040513d601f19601f82011682018060405250810190610d67919061170b565b6001600160a01b03168152602001866001600160a01b031663b2016bd46040518163ffffffff1660e01b8152600401602060405180830381865afa158015610db3573d6000803e3d6000fd5b505050506040513d601f19601f82011682018060405250810190610dd7919061170b565b6001600160a01b03168152602001866001600160a01b031663fbfa77cf6040518163ffffffff1660e01b8152600401602060405180830381865afa158015610e23573d6000803e3d6000fd5b505050506040513d601f19601f82011682018060405250810190610e47919061170b565b6001600160a01b03168152602001866001600160a01b0316630c9def416040518163ffffffff1660e01b8152600401602060405180830381865afa158015610e93573d6000803e3d6000fd5b505050506040513d601f19601f82011682018060405250810190610eb7919061170b565b6001600160a01b03168152602001866001600160a01b0316637b2fd1e56040518163ffffffff1660e01b8152600401602060405180830381865afa158015610f03573d6000803e3d6000fd5b505050506040513d601f19601f82011682018060405250810190610f27919061170b565b6001600160a01b03168152602001866001600160a01b03166305ba9ae96040518163ffffffff1660e01b8152600401602060405180830381865afa158015610f73573d6000803e3d6000fd5b505050506040513d601f19601f82011682018060405250810190610f97919061170b565b6001600160a01b03168152602001866001600160a01b031663ac0b05a66040518163ffffffff1660e01b8152600401602060405180830381865afa158015610fe3573d6000803e3d6000fd5b505050506040513d601f19601f82011682018060405250810190611007919061170b565b6001600160a01b031681525096506040518060a00160405280856001600160a01b03166362c6a8958c6040518263ffffffff1660e01b815260040161104c9190611836565b602060405180830381865afa158015611069573d6000803e3d6000fd5b505050506040513d601f19601f8201168201806040525081019061108d9190611743565b8152602001856001600160a01b0316633408d6258c6040518263ffffffff1660e01b81526004016110be9190611836565b602060405180830381865afa1580156110db573d6000803e3d6000fd5b505050506040513d601f19601f820116820180604052508101906110ff9190611743565b8152602001856001600160a01b03166309d398978c6040518263ffffffff1660e01b81526004016111309190611836565b602060405180830381865afa15801561114d573d6000803e3d6000fd5b505050506040513d601f19601f820116820180604052508101906111719190611743565b8152602001856001600160a01b031663114300fc8c6040518263ffffffff1660e01b81526004016111a29190611836565b602060405180830381865afa1580156111bf573d6000803e3d6000fd5b505050506040513d601f19601f820116820180604052508101906111e39190611743565b8152602001611252866001600160a01b0316639670c0bc6040518163ffffffff1660e01b8152600401602060405180830381865afa158015611229573d6000803e3d6000fd5b505050506040513d601f19601f8201168201806040525081019061124d9190611743565b6112aa565b90529799969850505050505050565b6112a68282604051602401611277929190611899565b60408051601f198184030181529190526020810180516001600160e01b031663319af33360e01b179052611313565b5050565b600060015b6001909101906112c0600a8261190f565b90508281036112af5750919050565b60006112da82611334565b82516112ed9190603c1c610fff1661190f565b92915050565b60006112fe82611334565b82516112ed919060481c63ffffffff1661190f565b80516a636f6e736f6c652e6c6f67602083016000808483855afa5050505050565b80516000906112ed9060701c60ff16600a611a0a565b604051806101200160405280600081526020016000815260200160008152602001600081526020016000815260200160001515815260200160008152602001600015158152602001606081525090565b6001600160a01b03811681146113af57600080fd5b50565b80151581146113af57600080fd5b600080604083850312156113d357600080fd5b82356113de8161139a565b915060208301356113ee816113b2565b809150509250929050565b6000806040838503121561140c57600080fd5b82356114178161139a565b915060208301356113ee8161139a565b60008060006060848603121561143c57600080fd5b83356114478161139a565b925060208401356114578161139a565b91506040840135611467816113b2565b809150509250925092565b600081518084526020808501945080840160005b838110156114a257815187529582019590820190600101611486565b509495945050505050565b60006020808301818452808551808352604092508286019150828160051b87010184880160005b8381101561156257888303603f1901855281518051845287810151888501528681015187850152606080820151908501526080808201519085015260a08082015115159085015260c0808201519085015260e080820151151590850152610100908101516101209185018290529061154e81860183611472565b9689019694505050908601906001016114d4565b509098975050505050505050565b60006020828403121561158257600080fd5b813561158d8161139a565b9392505050565b6001600160a01b03169052565b805182526020810151602083015260408101516040830152606081015160608301526080810151608083015260a08101516115df60a0840182611594565b5060c08101516115f260c0840182611594565b5060e081015161160560e0840182611594565b506101008082015161161982850182611594565b50506101208082015161162e82850182611594565b50506101408082015161164382850182611594565b50506101608082015161165882850182611594565b50505050565b600061034082019050845182526020850151602083015260408501516040830152606085015160608301526080850151608083015260a085015160a083015260c085015160c083015260e0850151151560e083015261010080860151151581840152506116cf6101208301856115a1565b82516102a083015260208301516102c083015260408301516102e083015260608301516103008301526080830151610320830152949350505050565b60006020828403121561171d57600080fd5b815161158d8161139a565b6001600160a01b039290921682521515602082015260400190565b60006020828403121561175557600080fd5b5051919050565b600080600080600060a0868803121561177457600080fd5b5050835160208501516040860151606087015160809097015192989197509594509092509050565b6001600160a01b039384168152919092166020820152901515604082015260600190565b600080600080600080600060e0888a0312156117db57600080fd5b875196506020880151955060408801519450606088015193506080880151925060a0880151611809816113b2565b8092505060c0880151905092959891949750929550565b634e487b7160e01b600052603260045260246000fd5b6001600160a01b0391909116815260200190565b60006020828403121561185c57600080fd5b604051602081016001600160401b038111828210171561188c57634e487b7160e01b600052604160045260246000fd5b6040529151825250919050565b604081526000835180604084015260005b818110156118c757602081870181015160608684010152016118aa565b50600060608285018101919091526001600160a01b03949094166020840152601f01601f191690910190910192915050565b634e487b7160e01b600052601160045260246000fd5b80820281158282048414176112ed576112ed6118f9565b600181815b80851115611961578160001904821115611947576119476118f9565b8085161561195457918102915b93841c939080029061192b565b509250929050565b600082611978575060016112ed565b81611985575060006112ed565b816001811461199b57600281146119a5576119c1565b60019150506112ed565b60ff8411156119b6576119b66118f9565b50506001821b6112ed565b5060208310610133831016604e8410600b84101617156119e4575081810a6112ed565b6119ee8383611926565b8060001904821115611a0257611a026118f9565b029392505050565b600061158d838361196956fea2646970667358221220010af16aa0b77cc343e3e701ce74462addab5241a474decad702a59e7910b11364736f6c63430008110033",
  "linkReferences": {},
  "deployedLinkReferences": {}
}