{
  "_format": "hh-sol-artifact-1",
  "contractName": "Market",
  "sourceName": "contracts/market/Market.sol",
  "abi": [
    {
      "inputs": [
        {
          "internalType": "string",
          "name": "_name",
          "type": "string"
        }
      ],
      "stateMutability": "nonpayable",
      "type": "constructor"
    },
    {
      "anonymous": false,
      "inputs": [
        {
          "indexed": true,
          "internalType": "address",
          "name": "account",
          "type": "address"
        },
        {
          "indexed": false,
          "internalType": "bool",
          "name": "isLong",
          "type": "bool"
        },
        {
          "indexed": false,
          "internalType": "bool",
          "name": "isIncrease",
          "type": "bool"
        },
        {
          "indexed": false,
          "internalType": "uint256",
          "name": "orderID",
          "type": "uint256"
        },
        {
          "indexed": false,
          "internalType": "address",
          "name": "market",
          "type": "address"
        }
      ],
      "name": "DeleteOrder",
      "type": "event"
    },
    {
      "anonymous": false,
      "inputs": [
        {
          "indexed": true,
          "internalType": "bytes32",
          "name": "role",
          "type": "bytes32"
        },
        {
          "indexed": true,
          "internalType": "bytes32",
          "name": "previousAdminRole",
          "type": "bytes32"
        },
        {
          "indexed": true,
          "internalType": "bytes32",
          "name": "newAdminRole",
          "type": "bytes32"
        }
      ],
      "name": "RoleAdminChanged",
      "type": "event"
    },
    {
      "anonymous": false,
      "inputs": [
        {
          "indexed": true,
          "internalType": "bytes32",
          "name": "role",
          "type": "bytes32"
        },
        {
          "indexed": true,
          "internalType": "address",
          "name": "account",
          "type": "address"
        },
        {
          "indexed": true,
          "internalType": "address",
          "name": "sender",
          "type": "address"
        }
      ],
      "name": "RoleGranted",
      "type": "event"
    },
    {
      "anonymous": false,
      "inputs": [
        {
          "indexed": true,
          "internalType": "bytes32",
          "name": "role",
          "type": "bytes32"
        },
        {
          "indexed": true,
          "internalType": "address",
          "name": "account",
          "type": "address"
        },
        {
          "indexed": true,
          "internalType": "address",
          "name": "sender",
          "type": "address"
        }
      ],
      "name": "RoleRevoked",
      "type": "event"
    },
    {
      "anonymous": false,
      "inputs": [
        {
          "indexed": true,
          "internalType": "address",
          "name": "account",
          "type": "address"
        },
        {
          "indexed": false,
          "internalType": "bool",
          "name": "isLong",
          "type": "bool"
        },
        {
          "indexed": false,
          "internalType": "bool",
          "name": "isIncrease",
          "type": "bool"
        },
        {
          "indexed": false,
          "internalType": "uint256",
          "name": "orderID",
          "type": "uint256"
        },
        {
          "indexed": false,
          "internalType": "address",
          "name": "market",
          "type": "address"
        },
        {
          "indexed": false,
          "internalType": "uint256",
          "name": "size",
          "type": "uint256"
        },
        {
          "indexed": false,
          "internalType": "uint256",
          "name": "collateral",
          "type": "uint256"
        },
        {
          "indexed": false,
          "internalType": "uint256",
          "name": "triggerPrice",
          "type": "uint256"
        },
        {
          "indexed": false,
          "internalType": "uint256",
          "name": "tp",
          "type": "uint256"
        },
        {
          "indexed": false,
          "internalType": "uint256",
          "name": "sl",
          "type": "uint256"
        }
      ],
      "name": "UpdateOrder",
      "type": "event"
    },
    {
      "anonymous": false,
      "inputs": [
        {
          "indexed": true,
          "internalType": "address",
          "name": "account",
          "type": "address"
        },
        {
          "indexed": false,
          "internalType": "uint256",
          "name": "collateralDelta",
          "type": "uint256"
        },
        {
          "indexed": false,
          "internalType": "uint256",
          "name": "sizeDelta",
          "type": "uint256"
        },
        {
          "indexed": false,
          "internalType": "bool",
          "name": "isLong",
          "type": "bool"
        },
        {
          "indexed": false,
          "internalType": "uint256",
          "name": "price",
          "type": "uint256"
        },
        {
          "indexed": false,
          "internalType": "int256",
          "name": "pnl",
          "type": "int256"
        },
        {
          "indexed": false,
          "internalType": "uint256",
          "name": "execFee",
          "type": "uint256"
        },
        {
          "indexed": false,
          "internalType": "int256",
          "name": "fundFee",
          "type": "int256"
        },
        {
          "indexed": false,
          "internalType": "uint256",
          "name": "tradeFee",
          "type": "uint256"
        },
        {
          "indexed": false,
          "internalType": "address",
          "name": "market",
          "type": "address"
        },
        {
          "indexed": false,
          "internalType": "address",
          "name": "collateralToken",
          "type": "address"
        },
        {
          "indexed": false,
          "internalType": "address",
          "name": "indexToken",
          "type": "address"
        },
        {
          "indexed": false,
          "internalType": "uint256",
          "name": "category",
          "type": "uint256"
        }
      ],
      "name": "UpdatePosition",
      "type": "event"
    },
    {
      "inputs": [],
      "name": "DEFAULT_ADMIN_ROLE",
      "outputs": [
        {
          "internalType": "bytes32",
          "name": "",
          "type": "bytes32"
        }
      ],
      "stateMutability": "view",
      "type": "function"
    },
    {
      "inputs": [],
      "name": "ROLE_FACTORY",
      "outputs": [
        {
          "internalType": "bytes32",
          "name": "",
          "type": "bytes32"
        }
      ],
      "stateMutability": "view",
      "type": "function"
    },
    {
      "inputs": [],
      "name": "ROLE_POS_KEEPER",
      "outputs": [
        {
          "internalType": "bytes32",
          "name": "",
          "type": "bytes32"
        }
      ],
      "stateMutability": "view",
      "type": "function"
    },
    {
      "inputs": [
        {
          "internalType": "bool",
          "name": "_isIncrease",
          "type": "bool"
        },
        {
          "internalType": "uint256",
          "name": "_orderID",
          "type": "uint256"
        },
        {
          "internalType": "bool",
          "name": "_isLong",
          "type": "bool"
        }
      ],
      "name": "cancelOrder",
      "outputs": [],
      "stateMutability": "nonpayable",
      "type": "function"
    },
    {
      "inputs": [
        {
          "internalType": "bool[]",
          "name": "_isIncreaseList",
          "type": "bool[]"
        },
        {
          "internalType": "uint256[]",
          "name": "_orderIDList",
          "type": "uint256[]"
        },
        {
          "internalType": "bool[]",
          "name": "_isLongList",
          "type": "bool[]"
        }
      ],
      "name": "cancelOrderList",
      "outputs": [],
      "stateMutability": "nonpayable",
      "type": "function"
    },
    {
      "inputs": [],
      "name": "collateralToken",
      "outputs": [
        {
          "internalType": "address",
          "name": "",
          "type": "address"
        }
      ],
      "stateMutability": "view",
      "type": "function"
    },
    {
      "inputs": [
        {
          "internalType": "uint256",
          "name": "",
          "type": "uint256"
        },
        {
          "internalType": "bool",
          "name": "",
          "type": "bool"
        }
      ],
      "name": "decreaseCollateral",
      "outputs": [],
      "stateMutability": "nonpayable",
      "type": "function"
    },
    {
      "inputs": [
        {
          "components": [
            {
              "internalType": "uint8",
              "name": "version",
              "type": "uint8"
            },
            {
              "internalType": "uint32",
              "name": "updatedAtBlock",
              "type": "uint32"
            },
            {
              "internalType": "uint8",
              "name": "triggerAbove",
              "type": "uint8"
            },
            {
              "internalType": "address",
              "name": "account",
              "type": "address"
            },
            {
              "internalType": "uint256",
              "name": "collateral",
              "type": "uint256"
            },
            {
              "internalType": "uint256",
              "name": "size",
              "type": "uint256"
            },
            {
              "internalType": "uint128",
              "name": "price",
              "type": "uint128"
            },
            {
              "internalType": "uint128",
              "name": "priceExtra",
              "type": "uint128"
            },
            {
              "internalType": "uint256",
              "name": "orderID",
              "type": "uint256"
            },
            {
              "internalType": "uint256",
              "name": "extra0",
              "type": "uint256"
            },
            {
              "internalType": "uint256",
              "name": "extra1",
              "type": "uint256"
            }
          ],
          "internalType": "struct Order.Props",
          "name": "",
          "type": "tuple"
        },
        {
          "internalType": "bool",
          "name": "",
          "type": "bool"
        }
      ],
      "name": "decreasePositionFromOrder",
      "outputs": [],
      "stateMutability": "nonpayable",
      "type": "function"
    },
    {
      "inputs": [
        {
          "internalType": "bool",
          "name": "_isLimit",
          "type": "bool"
        },
        {
          "internalType": "uint256",
          "name": "_sizeDelta",
          "type": "uint256"
        },
        {
          "internalType": "bool",
          "name": "_isKeepLev",
          "type": "bool"
        },
        {
          "internalType": "uint256",
          "name": "_price",
          "type": "uint256"
        },
        {
          "internalType": "uint256",
          "name": "_slippage",
          "type": "uint256"
        },
        {
          "internalType": "bool",
          "name": "_isLong",
          "type": "bool"
        },
        {
          "internalType": "bool",
          "name": "_isExec",
          "type": "bool"
        }
      ],
      "name": "decreaseTrade",
      "outputs": [],
      "stateMutability": "nonpayable",
      "type": "function"
    },
    {
      "inputs": [
        {
          "internalType": "bytes32",
          "name": "_orderKey",
          "type": "bytes32"
        },
        {
          "internalType": "contract IOrderBook",
          "name": "_orderBook",
          "type": "address"
        },
        {
          "internalType": "bool",
          "name": "_isLong",
          "type": "bool"
        },
        {
          "internalType": "bool",
          "name": "_isIncrease",
          "type": "bool"
        }
      ],
      "name": "execOrderKey",
      "outputs": [],
      "stateMutability": "nonpayable",
      "type": "function"
    },
    {
      "inputs": [
        {
          "internalType": "bytes32[]",
          "name": "_orderKeyList",
          "type": "bytes32[]"
        },
        {
          "internalType": "bool",
          "name": "_isLong",
          "type": "bool"
        },
        {
          "internalType": "bool",
          "name": "_isIncrease",
          "type": "bool"
        }
      ],
      "name": "execOrderKeys",
      "outputs": [],
      "stateMutability": "nonpayable",
      "type": "function"
    },
    {
      "inputs": [
        {
          "internalType": "uint256",
          "name": "_start",
          "type": "uint256"
        },
        {
          "internalType": "uint256",
          "name": "_end",
          "type": "uint256"
        },
        {
          "internalType": "bool",
          "name": "_isLong",
          "type": "bool"
        },
        {
          "internalType": "bool",
          "name": "_isIncrease",
          "type": "bool"
        }
      ],
      "name": "execOrders",
      "outputs": [],
      "stateMutability": "nonpayable",
      "type": "function"
    },
    {
      "inputs": [],
      "name": "feeRouter",
      "outputs": [
        {
          "internalType": "contract IFeeRouter",
          "name": "",
          "type": "address"
        }
      ],
      "stateMutability": "view",
      "type": "function"
    },
    {
      "inputs": [
        {
          "internalType": "bytes32",
          "name": "role",
          "type": "bytes32"
        }
      ],
      "name": "getRoleAdmin",
      "outputs": [
        {
          "internalType": "bytes32",
          "name": "",
          "type": "bytes32"
        }
      ],
      "stateMutability": "view",
      "type": "function"
    },
    {
      "inputs": [
        {
          "internalType": "bytes32",
          "name": "role",
          "type": "bytes32"
        },
        {
          "internalType": "address",
          "name": "account",
          "type": "address"
        }
      ],
      "name": "grantRole",
      "outputs": [],
      "stateMutability": "nonpayable",
      "type": "function"
    },
    {
      "inputs": [
        {
          "internalType": "bytes32",
          "name": "role",
          "type": "bytes32"
        },
        {
          "internalType": "address",
          "name": "account",
          "type": "address"
        }
      ],
      "name": "hasRole",
      "outputs": [
        {
          "internalType": "bool",
          "name": "",
          "type": "bool"
        }
      ],
      "stateMutability": "view",
      "type": "function"
    },
    {
      "inputs": [
        {
          "internalType": "uint256",
          "name": "_collateralDelta",
          "type": "uint256"
        },
        {
          "internalType": "bool",
          "name": "_isLong",
          "type": "bool"
        }
      ],
      "name": "increaseCollateral",
      "outputs": [],
      "stateMutability": "nonpayable",
      "type": "function"
    },
    {
      "inputs": [
        {
          "components": [
            {
              "internalType": "uint8",
              "name": "version",
              "type": "uint8"
            },
            {
              "internalType": "uint32",
              "name": "updatedAtBlock",
              "type": "uint32"
            },
            {
              "internalType": "uint8",
              "name": "triggerAbove",
              "type": "uint8"
            },
            {
              "internalType": "address",
              "name": "account",
              "type": "address"
            },
            {
              "internalType": "uint256",
              "name": "collateral",
              "type": "uint256"
            },
            {
              "internalType": "uint256",
              "name": "size",
              "type": "uint256"
            },
            {
              "internalType": "uint128",
              "name": "price",
              "type": "uint128"
            },
            {
              "internalType": "uint128",
              "name": "priceExtra",
              "type": "uint128"
            },
            {
              "internalType": "uint256",
              "name": "orderID",
              "type": "uint256"
            },
            {
              "internalType": "uint256",
              "name": "extra0",
              "type": "uint256"
            },
            {
              "internalType": "uint256",
              "name": "extra1",
              "type": "uint256"
            }
          ],
          "internalType": "struct Order.Props",
          "name": "order",
          "type": "tuple"
        },
        {
          "internalType": "bool",
          "name": "_isLong",
          "type": "bool"
        }
      ],
      "name": "increasePositionFromOrder",
      "outputs": [],
      "stateMutability": "nonpayable",
      "type": "function"
    },
    {
      "inputs": [
        {
          "internalType": "bool",
          "name": "_isLimit",
          "type": "bool"
        },
        {
          "internalType": "uint256",
          "name": "_payDelta",
          "type": "uint256"
        },
        {
          "internalType": "uint256",
          "name": "_sizeDelta",
          "type": "uint256"
        },
        {
          "internalType": "uint256",
          "name": "_price",
          "type": "uint256"
        },
        {
          "internalType": "uint256",
          "name": "_tpPrice",
          "type": "uint256"
        },
        {
          "internalType": "uint256",
          "name": "_slPrice",
          "type": "uint256"
        },
        {
          "internalType": "uint256",
          "name": "_slippage",
          "type": "uint256"
        },
        {
          "internalType": "bool",
          "name": "_isLong",
          "type": "bool"
        },
        {
          "internalType": "bool",
          "name": "_isExec",
          "type": "bool"
        }
      ],
      "name": "increaseTrade",
      "outputs": [],
      "stateMutability": "nonpayable",
      "type": "function"
    },
    {
      "inputs": [],
      "name": "indexToken",
      "outputs": [
        {
          "internalType": "address",
          "name": "",
          "type": "address"
        }
      ],
      "stateMutability": "view",
      "type": "function"
    },
    {
      "inputs": [
        {
          "internalType": "address",
          "name": "_positionBook",
          "type": "address"
        },
        {
          "internalType": "contract IOrderBook",
          "name": "_orderBookLong",
          "type": "address"
        },
        {
          "internalType": "contract IOrderBook",
          "name": "_orderBookShort",
          "type": "address"
        },
        {
          "internalType": "address",
          "name": "_addressProvider",
          "type": "address"
        },
        {
          "internalType": "address",
          "name": "_indexToken",
          "type": "address"
        },
        {
          "internalType": "address",
          "name": "_feeRouter",
          "type": "address"
        },
        {
          "internalType": "address",
          "name": "_feeVault",
          "type": "address"
        },
        {
          "internalType": "address",
          "name": "_marketRouter",
          "type": "address"
        },
        {
          "internalType": "address",
          "name": "_vault",
          "type": "address"
        },
        {
          "internalType": "address",
          "name": "_vaultRouter",
          "type": "address"
        },
        {
          "internalType": "address",
          "name": "_collateralToken",
          "type": "address"
        }
      ],
      "name": "initialize",
      "outputs": [],
      "stateMutability": "nonpayable",
      "type": "function"
    },
    {
      "inputs": [
        {
          "internalType": "address",
          "name": "_account",
          "type": "address"
        },
        {
          "internalType": "bool",
          "name": "",
          "type": "bool"
        }
      ],
      "name": "liquidatePosition",
      "outputs": [
        {
          "internalType": "uint256",
          "name": "",
          "type": "uint256"
        }
      ],
      "stateMutability": "nonpayable",
      "type": "function"
    },
    {
      "inputs": [
        {
          "internalType": "bytes32[]",
          "name": "keys",
          "type": "bytes32[]"
        },
        {
          "internalType": "bool",
          "name": "isLong",
          "type": "bool"
        }
      ],
      "name": "liquidatePositionByKey",
      "outputs": [],
      "stateMutability": "nonpayable",
      "type": "function"
    },
    {
      "inputs": [],
      "name": "marketAddressesProvider",
      "outputs": [
        {
          "internalType": "contract IMarketAddressesProvider",
          "name": "",
          "type": "address"
        }
      ],
      "stateMutability": "view",
      "type": "function"
    },
    {
      "inputs": [],
      "name": "orderBookLong",
      "outputs": [
        {
          "internalType": "contract IOrderBook",
          "name": "",
          "type": "address"
        }
      ],
      "stateMutability": "view",
      "type": "function"
    },
    {
      "inputs": [],
      "name": "orderBookShort",
      "outputs": [
        {
          "internalType": "contract IOrderBook",
          "name": "",
          "type": "address"
        }
      ],
      "stateMutability": "view",
      "type": "function"
    },
    {
      "inputs": [],
      "name": "positionBook",
      "outputs": [
        {
          "internalType": "contract IPositionBook",
          "name": "",
          "type": "address"
        }
      ],
      "stateMutability": "view",
      "type": "function"
    },
    {
      "inputs": [
        {
          "internalType": "bytes32",
          "name": "role",
          "type": "bytes32"
        },
        {
          "internalType": "address",
          "name": "account",
          "type": "address"
        }
      ],
      "name": "renounceRole",
      "outputs": [],
      "stateMutability": "nonpayable",
      "type": "function"
    },
    {
      "inputs": [
        {
          "internalType": "bytes32",
          "name": "role",
          "type": "bytes32"
        },
        {
          "internalType": "address",
          "name": "account",
          "type": "address"
        }
      ],
      "name": "revokeRole",
      "outputs": [],
      "stateMutability": "nonpayable",
      "type": "function"
    },
    {
      "inputs": [
        {
          "internalType": "bool",
          "name": "_p",
          "type": "bool"
        }
      ],
      "name": "setOpenDebug",
      "outputs": [],
      "stateMutability": "nonpayable",
      "type": "function"
    },
    {
      "inputs": [
        {
          "internalType": "uint256",
          "name": "_spread",
          "type": "uint256"
        }
      ],
      "name": "setSpread",
      "outputs": [],
      "stateMutability": "nonpayable",
      "type": "function"
    },
    {
      "inputs": [],
      "name": "spread",
      "outputs": [
        {
          "internalType": "uint256",
          "name": "",
          "type": "uint256"
        }
      ],
      "stateMutability": "view",
      "type": "function"
    },
    {
      "inputs": [
        {
          "internalType": "bytes4",
          "name": "interfaceId",
          "type": "bytes4"
        }
      ],
      "name": "supportsInterface",
      "outputs": [
        {
          "internalType": "bool",
          "name": "",
          "type": "bool"
        }
      ],
      "stateMutability": "view",
      "type": "function"
    },
    {
      "inputs": [
        {
          "internalType": "uint256",
          "name": "_orderID",
          "type": "uint256"
        },
        {
          "internalType": "uint256",
          "name": "_triggerPrice",
          "type": "uint256"
        },
        {
          "internalType": "bool",
          "name": "_isLong",
          "type": "bool"
        }
      ],
      "name": "updateDecreaseOrder",
      "outputs": [],
      "stateMutability": "nonpayable",
      "type": "function"
    },
    {
      "inputs": [
        {
          "internalType": "uint256",
          "name": "_orderID",
          "type": "uint256"
        },
        {
          "internalType": "uint256",
          "name": "_triggerPrice",
          "type": "uint256"
        },
        {
          "internalType": "uint256",
          "name": "_tpPrice",
          "type": "uint256"
        },
        {
          "internalType": "uint256",
          "name": "_slPrice",
          "type": "uint256"
        },
        {
          "internalType": "bool",
          "name": "_isLong",
          "type": "bool"
        }
      ],
      "name": "updateIncreaseOrder",
      "outputs": [],
      "stateMutability": "nonpayable",
      "type": "function"
    },
    {
      "inputs": [],
      "name": "vault",
      "outputs": [
        {
          "internalType": "address",
          "name": "",
          "type": "address"
        }
      ],
      "stateMutability": "view",
      "type": "function"
    }
  ],
  "bytecode": "0x60806040523480156200001157600080fd5b50604051620055e9380380620055e9833981016040819052620000349162000182565b6001600e556002620000478282620002e6565b50600c805460ff60a01b1916600160a01b17905562000068600033620000c7565b620000947f41821a71fcd4fd9aecd428014f9b7f61fb3bea3424e8a828796db51ad474a27533620000c7565b620000c07ffb248bbb6ca5a799a6bb9ba79f58aa5cdbe0e5979238a967315e7ffbfd119d1a33620000c7565b50620003b2565b6000828152600f602090815260408083206001600160a01b038516845290915290205460ff1662000168576000828152600f602090815260408083206001600160a01b03851684529091529020805460ff19166001179055620001273390565b6001600160a01b0316816001600160a01b0316837f2f8788117e7eff1d82e926ec794901d17c78024a50270940304540a733656f0d60405160405180910390a45b5050565b634e487b7160e01b600052604160045260246000fd5b600060208083850312156200019657600080fd5b82516001600160401b0380821115620001ae57600080fd5b818501915085601f830112620001c357600080fd5b815181811115620001d857620001d86200016c565b604051601f8201601f19908116603f011681019083821181831017156200020357620002036200016c565b8160405282815288868487010111156200021c57600080fd5b600093505b8284101562000240578484018601518185018701529285019262000221565b600086848301015280965050505050505092915050565b600181811c908216806200026c57607f821691505b6020821081036200028d57634e487b7160e01b600052602260045260246000fd5b50919050565b601f821115620002e157600081815260208120601f850160051c81016020861015620002bc5750805b601f850160051c820191505b81811015620002dd57828155600101620002c8565b5050505b505050565b81516001600160401b038111156200030257620003026200016c565b6200031a8162000313845462000257565b8462000293565b602080601f831160018114620003525760008415620003395750858301515b600019600386901b1c1916600185901b178555620002dd565b600085815260208120601f198616915b82811015620003835788860151825594840194600190910190840162000362565b5085821015620003a25787850151600019600388901b60f8161c191681555b5050505050600190811b01905550565b61522780620003c26000396000f3fe608060405234801561001057600080fd5b50600436106101ac5760003560e01c806301ffc9a7146101b157806305ba9ae9146101d95780630ad074f8146101f35780630c9def4114610208578063112d3b7b146102195780631c8b58041461022c5780631f86cb541461023f578063248a9ca3146102525780632f2ff15d1461027357806336568abe14610286578063553107f9146102995780635c25c76c146102ae57806376902b83146102b65780637b2fd1e5146102c957806391d14854146102da57806392e1f776146102ed5780639b498f3c146103005780639cb9b65714610313578063a01ffe5b1461033f578063a217fddf14610352578063a22b50961461035a578063ac0b05a61461036d578063b057bfae1461037e578063b2016bd414610391578063b3f7edcf146103a2578063b66a261c146103b7578063d547741f146103ca578063e20965b5146103dd578063e52740f7146103f0578063e7d015f214610403578063e936fcfb14610414578063f105e28314610427578063f29ebf611461043a578063f65cf1571461044b578063f91599541461045e578063fbfa77cf14610471575b600080fd5b6101c46101bf3660046140b9565b610482565b60405190151581526020015b60405180910390f35b600b546001600160a01b03165b6040516101d091906140e3565b61020661020136600461412a565b6104b9565b005b600c546001600160a01b03166101e6565b61020661022736600461417d565b610728565b61020661023a366004614203565b610875565b61020661024d36600461434b565b610ae2565b610265610260366004614426565b610b7d565b6040519081526020016101d0565b61020661028136600461444a565b610b92565b61020661029436600461444a565b610bae565b61026560008051602061516583398151915281565b600054610265565b6102066102c436600461447a565b610c31565b600a546001600160a01b03166101e6565b6101c46102e836600461444a565b610d78565b6102066102fb366004614558565b610da3565b61020661030e366004614586565b611210565b6102066103213660046145ab565b600c8054911515600160a01b0260ff60a01b19909216919091179055565b61020661034d366004614623565b611394565b610265600081565b610206610368366004614669565b6114f3565b6009546001600160a01b03166101e6565b61020661038c3660046146b6565b6118ab565b6006546001600160a01b03166101e6565b61026560008051602061514583398151915281565b6102066103c5366004614426565b6119cf565b6102066103d836600461444a565b6119ed565b6102656103eb36600461470e565b611a09565b6102066103fe36600461473c565b611b3f565b6005546001600160a01b03166101e6565b6102066104223660046147b7565b611d83565b61020661043536600461483d565b611ff1565b6008546001600160a01b03166101e6565b61020661045936600461483d565b612118565b61020661046c366004614586565b61224c565b6007546001600160a01b03166101e6565b60006001600160e01b03198216637965db0b60e01b14806104b357506301ffc9a760e01b6001600160e01b03198316145b92915050565b80156106a75760405163e3c5b96960e01b8152600481018590526000906001600160a01b0385169063e3c5b9699060240161016060405180830381865afa158015610508573d6000803e3d6000fd5b505050506040513d601f19601f8201168201806040525081019061052c9190614948565b90506105566040518060400160405280600781526020016633b2ba1037b13560c91b815250612580565b61056c8160c001516001600160801b03166125c6565b6105f160405180610120016040528083606001516001600160a01b03168152602001836080015181526020018360a0015181526020018360c001516001600160801b031681526020018515158152602001600081526020016001151581526020016105d984610140015190565b81526020016105ea84610120015190565b905261260b565b6040516398ddd31960e01b8152600481018690526000906001600160a01b038616906398ddd31990602401610160604051808303816000875af115801561063c573d6000803e3d6000fd5b505050506040513d601f19601f820116820180604052508101906106609190614948565b905080606001516001600160a01b03166000805160206151d28339815191528585846101000151306040516106989493929190614a01565b60405180910390a25050610722565b604051630bdfa7eb60e11b8152600481018590526000906001600160a01b038516906317bf4fd69060240161016060405180830381865afa1580156106f0573d6000803e3d6000fd5b505050506040513d601f19601f820116820180604052508101906107149190614948565b90506107208184612118565b505b50505050565b6040805180820190915260098152685f70617944656c746160b81b6020820152339061075390612580565b61075c896125c6565b600654610774906001600160a01b031682308c61281f565b8915610814576006546040516370a0823160e01b81526107f2916001600160a01b0316906370a08231906107ac9085906004016140e3565b602060405180830381865afa1580156107c9573d6000803e3d6000fd5b505050506040513d601f19601f820116820180604052508101906107ed9190614a27565b6125c6565b6000610801828a8a8a8a612877565b905061080e818b866128bf565b50610869565b610869604051806101200160405280836001600160a01b031681526020018b81526020018a8152602001898152602001851515815260200186815260200184151581526020018881526020018781525061260b565b50505050505050505050565b61087d612c48565b33600061088a8285612ca1565b90506000836108a457600b546001600160a01b03166108b1565b600a546001600160a01b03165b90506108bb61405d565b86156109bf5760405163e3c5b96960e01b8152600481018490526001600160a01b0383169063e3c5b9699060240161016060405180830381865afa158015610907573d6000803e3d6000fd5b505050506040513d601f19601f8201168201806040525081019061092b9190614948565b6040516398ddd31960e01b8152600481018590529091506001600160a01b038316906398ddd31990602401610160604051808303816000875af1158015610976573d6000803e3d6000fd5b505050506040513d601f19601f8201168201806040525081019061099a9190614948565b5060808101516006546109ba916001600160a01b03909116908690612cd4565b610a9a565b604051630bdfa7eb60e11b8152600481018490526001600160a01b038316906317bf4fd69060240161016060405180830381865afa158015610a05573d6000803e3d6000fd5b505050506040513d601f19601f82011682018060405250810190610a299190614948565b604051635008d4d160e11b8152600481018590529091506001600160a01b0383169063a011a9a290602401610160604051808303816000875af1158015610a74573d6000803e3d6000fd5b505050506040513d601f19601f82011682018060405250810190610a989190614948565b505b836001600160a01b03166000805160206151d283398151915286898930604051610ac79493929190614a01565b60405180910390a250505050610add6001600e55565b505050565b610aea612c48565b8151835114610af857600080fd5b8151815114610b0657600080fd5b815160005b81811015610b7157610b69858281518110610b2857610b28614a40565b6020026020010151858381518110610b4257610b42614a40565b6020026020010151858481518110610b5c57610b5c614a40565b6020026020010151610875565b600101610b0b565b5050610add6001600e55565b6000908152600f602052604090206001015490565b610b9b82610b7d565b610ba481612cf3565b610add8383612cfd565b6001600160a01b0381163314610c235760405162461bcd60e51b815260206004820152602f60248201527f416363657373436f6e74726f6c3a2063616e206f6e6c792072656e6f756e636560448201526e103937b632b9903337b91039b2b63360891b60648201526084015b60405180910390fd5b610c2d8282612d83565b5050565b600080516020615165833981519152610c4981612cf3565b610c6a6040518060600160405280602381526020016150f560239139612580565b610c7389612dea565b610cb16040518060400160405280602081526020017f6d61726b65742f696e697469617a6c697a652f61646472657373287468697329815250612580565b610cba30612dea565b50600980546001600160a01b03199081166001600160a01b039d8e1617909155600a805482169b8d169b909b17909a55600b80548b16998c1699909917909855600c80548a16978b1697909717909655600580548916958a16959095179094556004805488169289169290921790915560088054871692881692909217909155600d80548616918716919091179055600780548516918616919091179055600380548416918516919091179055600680549092169216919091179055565b6000918252600f602090815260408084206001600160a01b0393909316845291905290205460ff1690565b610dab612c48565b33600082610dc457600b546001600160a01b0316610dd1565b600a546001600160a01b03165b9050600080826001600160a01b031663554a0eb7610def868a612ca1565b6040518263ffffffff1660e01b8152600401610e0d91815260200190565b61014060405180830381865afa158015610e2b573d6000803e3d6000fd5b505050506040513d601f19601f82011682018060405250810190610e4f9190614a56565b505050505094505093505050600080600015610e83576801158e460913d000009150610e7c82600a614aff565b9050610f04565b60095460405163118272bf60e31b81526001600160a01b0390911690638c1395f890610eb790899030908c90600401614b16565b60e060405180830381865afa158015610ed4573d6000803e3d6000fd5b505050506040513d601f19601f82011682018060405250810190610ef89190614b3a565b50939650939450505050505b600c5460405163563eccdb60e11b81526000916001600160a01b03169063ac7d99b690610f359030906004016140e3565b602060405180830381865afa158015610f52573d6000803e3d6000fd5b505050506040513d601f19601f82011682018060405250810190610f769190614b9a565b905060006008546040516347a994e960e01b81526001600160a01b03909116906347a994e990610fb69060009030906001908b9082908590600401614bb7565b602060405180830381865afa158015610fd3573d6000803e3d6000fd5b505050506040513d601f19601f82011682018060405250810190610ff79190614a27565b905060405163f6b8515b60e01b81526001600160a01b0383169063f6b8515b9061102d9087908a9088908b908890600401614bef565b602060405180830381865afa15801561104a573d6000803e3d6000fd5b505050506040513d601f19601f8201168201806040525081019061106e9190614a27565b506000876001600160a01b03166317bf4fd661108a338f612ca1565b6040518263ffffffff1660e01b81526004016110a891815260200190565b61016060405180830381865afa1580156110c6573d6000803e3d6000fd5b505050506040513d601f19601f820116820180604052508101906110ea9190614948565b90506110f58b612e2d565b6001600160801b031660c08201526111246040518060600160405280602d8152602001615118602d9139612580565b61112d8c6125c6565b604051636b0243b560e01b81526001600160a01b03891690636b0243b590611159908490600401614c1f565b610160604051808303816000875af1158015611179573d6000803e3d6000fd5b505050506040513d601f19601f8201168201806040525081019061119d9190614948565b5080606001516001600160a01b03166000805160206150d58339815191528b6001846101000151308660a0015187608001518860c001518961012001518a61014001516040516111f599989796959493929190614cd5565b60405180910390a2505050505050505050610add6001600e55565b611218612c48565b6112436040518060400160405280600a8152602001696d6b742061646472657360b01b815250612580565b61124c30612dea565b600c54604080516389be278160e01b815290516000926001600160a01b0316916389be27819160048083019260209291908290030181865afa158015611296573d6000803e3d6000fd5b505050506040513d601f19601f820116820180604052508101906112ba9190614b9a565b90506112dd6040518060600160405280602581526020016150b060259139612580565b6112e633612dea565b6000816001600160a01b0316600036604051611303929190614d28565b600060405180830381855af49150503d806000811461133e576040519150601f19603f3d011682016040523d82523d6000602084013e611343565b606091505b50509050806113885760405162461bcd60e51b8152602060048201526011602482015270135add0e991958dc99585cd94818dbdb1b607a1b6044820152606401610c1a565b5050610c2d6001600e55565b61139c612c48565b6000805160206151458339815191526113b481612cf3565b600c54604080516389be278160e01b815290516000926001600160a01b0316916389be27819160048083019260209291908290030181865afa1580156113fe573d6000803e3d6000fd5b505050506040513d601f19601f820116820180604052508101906114229190614b9a565b905060008484604051602401611439929190614d38565b60408051601f198184030181529181526020820180516001600160e01b031663a01ffe5b60e01b1790525190915060009081906001600160a01b03851690611482908590614da7565b600060405180830381855af49150503d80600081146114bd576040519150601f19603f3d011682016040523d82523d6000602084013e6114c2565b606091505b5091509150816114e45760405162461bcd60e51b8152600401610c1a90614dc3565b5050505050610c2d6001600e55565b6114fb612c48565b60008161151357600b546001600160a01b0316611520565b600a546001600160a01b03165b90506000816001600160a01b031663e3c5b96961153d338a612ca1565b6040518263ffffffff1660e01b815260040161155b91815260200190565b61016060405180830381865afa158015611579573d6000803e3d6000fd5b505050506040513d601f19601f8201168201806040525081019061159d9190614948565b90506115ac8160600151612dea565b600c5460405163563eccdb60e11b81526000916001600160a01b03169063ac7d99b6906115dd9030906004016140e3565b602060405180830381865afa1580156115fa573d6000803e3d6000fd5b505050506040513d601f19601f8201168201806040525081019061161e9190614b9a565b60085460a08401516040516320b613eb60e21b81529293506001600160a01b039091169160009183916382d84fac9161165c91309190600401614de8565b602060405180830381865afa158015611679573d6000803e3d6000fd5b505050506040513d601f19601f8201168201806040525081019061169d9190614a27565b6040516309d3989760e01b81526001600160a01b038416906309d39897906116c99030906004016140e3565b602060405180830381865afa1580156116e6573d6000803e3d6000fd5b505050506040513d601f19601f8201168201806040525081019061170a9190614a27565b6117149190614e01565b608085015160a0860151604051631ecaa84160e21b815260048101929092526024820152604481018b9052606481018a90526084810189905287151560a482015260c481018290529091506001600160a01b03841690637b2aa1049060e401602060405180830381865afa158015611790573d6000803e3d6000fd5b505050506040513d601f19601f820116820180604052508101906117b49190614a27565b5050506117c087612e2d565b6001600160801b031660c08301526101408201869052610120820185905260405162fde88d60e81b81526001600160a01b0384169063fde88d0090611809908590600401614c1f565b610160604051808303816000875af1158015611829573d6000803e3d6000fd5b505050506040513d601f19601f8201168201806040525081019061184d9190614948565b5081606001516001600160a01b03166000805160206150d58339815191528560018b308760a0015188608001518960c001518d8f60405161189699989796959493929190614cd5565b60405180910390a25050506107206001600e55565b6118b3612c48565b6000826118cb57600b546001600160a01b03166118d8565b600a546001600160a01b03165b90506119086040518060400160405280600d81526020016c657865634f726465724b65797360981b815250612580565b61191183612e9a565b61191a82612e9a565b60005b8451811015610b7157600085828151811061193a5761193a614a40565b602090810291909101015160405163015a0e9f60e31b8152600481018290526001600160a01b0385166024820152861515604482015285151560648201529091503090630ad074f890608401600060405180830381600087803b1580156119a057600080fd5b505af19250505080156119b1575060015b6119bb57506119bd565b505b806119c781614e14565b91505061191d565b6000805160206151658339815191526119e781612cf3565b50600055565b6119f682610b7d565b6119ff81612cf3565b610add8383612d83565b6000611a13612c48565b600080516020615145833981519152611a2b81612cf3565b600c54604080516389be278160e01b815290516000926001600160a01b0316916389be27819160048083019260209291908290030181865afa158015611a75573d6000803e3d6000fd5b505050506040513d601f19601f82011682018060405250810190611a999190614b9a565b9050600080826001600160a01b0316600036604051611ab9929190614d28565b600060405180830381855af49150503d8060008114611af4576040519150601f19603f3d011682016040523d82523d6000602084013e611af9565b606091505b509150915081611b1b5760405162461bcd60e51b8152600401610c1a90614dc3565b80806020019051810190611b2f9190614a27565b9450505050506104b36001600e55565b611b47612c48565b338715611c015760095460405163118272bf60e31b815260009182916001600160a01b0390911690638c1395f890611b8790869030908a90600401614b16565b60e060405180830381865afa158015611ba4573d6000803e3d6000fd5b505050506040513d601f19601f82011682018060405250810190611bc89190614b3a565b5093965093945060009350611be592508b91508490508c86612edb565b9050611bf8848b838b8a88886000612f0b565b50505050611d6f565b600c54604080516389be278160e01b815290516000926001600160a01b0316916389be27819160048083019260209291908290030181865afa158015611c4b573d6000803e3d6000fd5b505050506040513d601f19601f82011682018060405250810190611c6f9190614b9a565b604051602481018a90528815156044820152606481018890526084810187905285151560a482015284151560c48201529091506000906001600160a01b0383169060e40160408051601f198184030181529181526020820180516001600160e01b0316630ff70bf960e31b17905251611ce89190614da7565b600060405180830381855af49150503d8060008114611d23576040519150601f19603f3d011682016040523d82523d6000602084013e611d28565b606091505b5050905080611d6c5760405162461bcd60e51b815260206004820152601060248201526f3232b1b932b0b9b2a837b9b4ba34b7b760811b6044820152606401610c1a565b50505b50611d7a6001600e55565b50505050505050565b600080516020615145833981519152611d9b81612cf3565b600083611db357600b546001600160a01b0316611dc0565b600a546001600160a01b03165b604051635c95a1df60e11b815284151560048201529091506000906001600160a01b0383169063b92b43be90602401602060405180830381865afa158015611e0c573d6000803e3d6000fd5b505050506040513d601f19601f82011682018060405250810190611e309190614a27565b9050611e3b876125c6565b611e44866125c6565b611e4d816125c6565b808710611e5b575050610720565b80861115611e67578095505b85871015611d7a57604051630ebdfacf60e21b81526004810188905284151560248201526000906001600160a01b03841690633af7eb3c90604401602060405180830381865afa158015611ebf573d6000803e3d6000fd5b505050506040513d601f19601f82011682018060405250810190611ee39190614a27565b90508415611f6a5760405163e3c5b96960e01b8152600481018290526000906001600160a01b0385169063e3c5b9699060240161016060405180830381865afa158015611f34573d6000803e3d6000fd5b505050506040513d601f19601f82011682018060405250810190611f589190614948565b9050611f648188611ff1565b50611fe5565b604051630bdfa7eb60e11b8152600481018290526000906001600160a01b038516906317bf4fd69060240161016060405180830381865afa158015611fb3573d6000803e3d6000fd5b505050506040513d601f19601f82011682018060405250810190611fd79190614948565b9050611fe38188612118565b505b87600101975050611e67565b611ff9612c48565b61207760405180610120016040528084606001516001600160a01b03168152602001846080015181526020018460a0015181526020018460c001516001600160801b0316815260200183151581526020016000815260200160011515815260200161206685610140015190565b81526020016105ea85610120015190565b60008161208f57600b546001600160a01b031661209c565b600a546001600160a01b03165b9050806001600160a01b03166398ddd3196120b685613324565b6040518263ffffffff1660e01b81526004016120d491815260200190565b610160604051808303816000875af11580156120f4573d6000803e3d6000fd5b505050506040513d601f19601f820116820180604052508101906113889190614948565b612120612c48565b600c54604080516389be278160e01b815290516000926001600160a01b0316916389be27819160048083019260209291908290030181865afa15801561216a573d6000803e3d6000fd5b505050506040513d601f19601f8201168201806040525081019061218e9190614b9a565b90506000816001600160a01b03166000366040516121ad929190614d28565b600060405180830381855af49150503d80600081146121e8576040519150601f19603f3d011682016040523d82523d6000602084013e6121ed565b606091505b50509050806113885760405162461bcd60e51b815260206004820152602560248201527f6d61726b65743a6465637265617365506f736974696f6e46726f6d4f726465726044820152640819985a5b60da1b6064820152608401610c1a565b612254612c48565b60408051808201909152601a8152791a5b98dc99585cd950dbdb1b185d195c985b0bd858d8dbdd5b9d60321b6020820152339061229090612580565b61229981612dea565b60095460405163118272bf60e31b815260009182916001600160a01b0390911690638c1395f8906122d290869030908990600401614b16565b60e060405180830381865afa1580156122ef573d6000803e3d6000fd5b505050506040513d601f19601f820116820180604052508101906123139190614b3a565b505050505091509150612325826125c6565b61232e816125c6565b60085460405163ddb3d1a760e01b81526000916001600160a01b03169063ddb3d1a79061236390879030908a90600401614b16565b602060405180830381865afa158015612380573d6000803e3d6000fd5b505050506040513d601f19601f820116820180604052508101906123a49190614a27565b9050600c5460405163563eccdb60e11b81526000916001600160a01b03169063ac7d99b6906123d79030906004016140e3565b602060405180830381865afa1580156123f4573d6000803e3d6000fd5b505050506040513d601f19601f820116820180604052508101906124189190614b9a565b90506000819050806001600160a01b031663c74d92e6826001600160a01b031663177927296040518163ffffffff1660e01b8152600401602060405180830381865afa15801561246c573d6000803e3d6000fd5b505050506040513d601f19601f820116820180604052508101906124909190614e2d565b6001878c8a60008a6040518863ffffffff1660e01b81526004016124ba9796959493929190614e6e565b60006040518083038186803b1580156124d257600080fd5b505afa1580156124e6573d6000803e3d6000fd5b505060065461250392506001600160a01b0316905087308b61281f565b600954604051630a2eb75760e11b81526001600160a01b039091169063145d6eae9061253e90899030908d9060009081908f90600401614e9f565b600060405180830381600087803b15801561255857600080fd5b505af115801561256c573d6000803e3d6000fd5b50505050505050505050610c2d6001600e55565b6125c3816040516024016125949190614f01565b60408051601f198184030181529190526020810180516001600160e01b031663104c13eb60e21b17905261335f565b50565b6125c3816040516024016125dc91815260200190565b60408051601f198184030181529190526020810180516001600160e01b031663f82c50f160e01b17905261335f565b60008061261981600a614aff565b90506009548351608085015160405163118272bf60e31b81526001600160a01b0390931692638c1395f892612655929091309190600401614b16565b60e060405180830381865afa158015612672573d6000803e3d6000fd5b505050506040513d601f19601f820116820180604052508101906126969190614b3a565b509396509394506126a79350505050565b6126c583604051806040016040528084815260200185815250613380565b60008360e001516000141580156126ec57506080840151606085015160e086015111901515145b905060008461010001516000141580156127185750846101000151856060015111151585608001511515145b90508180156127245750805b156127cc5760006127678660000151876040015160008960e001518a608001518a8c604001518d6080015115158b151503612760576002612f0b565b6001612f0b565b8651604088015161010089015160808a015193945060009361279b93929185918b848a151583151514612760576002612f0b565b90506127b16127a982613324565b610120840152565b6127c56127bd83613324565b610120830152565b5050610720565b81806127d55750805b15610720576000611d7a866000015187604001516000866127fb57896101000151612801565b8960e001515b60808b015160408c01518b908215158b151503612760576002612f0b565b610722846323b872dd60e01b85858560405160240161284093929190614f14565b60408051601f198184030181529190526020810180516001600160e01b03166001600160e01b031990931692909217909152613862565b61287f61405d565b6001600160a01b038616606082015261289784612e2d565b6001600160801b031660c082015260a081019490945261012084015261014083015250919050565b60085460a08401516040516320b613eb60e21b81526001600160a01b039092169160009183916382d84fac916128fa91309190600401614de8565b602060405180830381865afa158015612917573d6000803e3d6000fd5b505050506040513d601f19601f8201168201806040525081019061293b9190614a27565b6040516309d3989760e01b81526001600160a01b038416906309d39897906129679030906004016140e3565b602060405180830381865afa158015612984573d6000803e3d6000fd5b505050506040513d601f19601f820116820180604052508101906129a89190614a27565b6129b29190614e01565b600c5460405163563eccdb60e11b81529192506001600160a01b03169063ac7d99b6906129e39030906004016140e3565b602060405180830381865afa158015612a00573d6000803e3d6000fd5b505050506040513d601f19601f82011682018060405250810190612a249190614b9a565b6001600160a01b0316637b2aa104858760a001518860c00151612a498a610140015190565b6101208b01516040516001600160e01b031960e088901b168152600481019590955260248501939093526001600160801b0390911660448401526064830152608482015285151560a482015260c4810184905260e401602060405180830381865afa158015612abc573d6000803e3d6000fd5b505050506040513d601f19601f82011682018060405250810190612ae09190614a27565b608086015260c0850151612b08906001600160801b0316612b0085613934565b879111613a25565b600083612b2057600b546001600160a01b0316612b2d565b600a546001600160a01b03165b6001600160a01b031663832ca0c9876040518263ffffffff1660e01b8152600401612b589190614c1f565b610160604051808303816000875af1158015612b78573d6000803e3d6000fd5b505050506040513d601f19601f82011682018060405250810190612b9c9190614948565b9050612bdb6040518060400160405280601781526020017667656e6572617465644f726465722e73697a653a20257360481b8152508260a00151613a43565b80606001516001600160a01b03166000805160206150d5833981519152856001846101000151308660a0015187608001518860c00151612c1d8a610120015190565b6101408b0151604051612c3899989796959493929190614cd5565b60405180910390a2505050505050565b6002600e5403612c9a5760405162461bcd60e51b815260206004820152601f60248201527f5265656e7472616e637947756172643a207265656e7472616e742063616c6c006044820152606401610c1a565b6002600e55565b60008282604051602001612cb6929190614f38565b60405160208183030381529060405280519060200120905092915050565b610add8363a9059cbb60e01b8484604051602401612840929190614de8565b6125c38133613a88565b612d078282610d78565b610c2d576000828152600f602090815260408083206001600160a01b03851684529091529020805460ff19166001179055612d3f3390565b6001600160a01b0316816001600160a01b0316837f2f8788117e7eff1d82e926ec794901d17c78024a50270940304540a733656f0d60405160405180910390a45050565b612d8d8282610d78565b15610c2d576000828152600f602090815260408083206001600160a01b0385168085529252808320805460ff1916905551339285917ff6391f5c32d9c69d2a47ea670b442974b53935d1edc7fd64eb21e047a839171b9190a45050565b6125c381604051602401612dfe91906140e3565b60408051601f198184030181529190526020810180516001600160e01b031663161765e160e11b17905261335f565b60006001600160801b03821115612e965760405162461bcd60e51b815260206004820152602760248201527f53616665436173743a2076616c756520646f65736e27742066697420696e20316044820152663238206269747360c81b6064820152608401610c1a565b5090565b60405181151560248201526125c39060440160408051601f198184030181529190526020810180516001600160e01b03166332458eed60e01b17905261335f565b60008415612eff5783612eee8484614aff565b612ef89190614f55565b9050612f03565b5060005b949350505050565b612f1361405d565b612f346040518060600160405280602581526020016151ad60259139612580565b612f3d836125c6565b612f46886125c6565b600c5460405163563eccdb60e11b81526000916001600160a01b03169063ac7d99b690612f779030906004016140e3565b602060405180830381865afa158015612f94573d6000803e3d6000fd5b505050506040513d601f19601f82011682018060405250810190612fb89190614b9a565b905060006008546040516347a994e960e01b81526001600160a01b03909116906347a994e990612ff89060009030906001908b9082908590600401614bb7565b602060405180830381865afa158015613015573d6000803e3d6000fd5b505050506040513d601f19601f820116820180604052508101906130399190614a27565b9050816001600160a01b031663f6b8515b878b888e866040518663ffffffff1660e01b815260040161306f959493929190614bef565b602060405180830381865afa15801561308c573d6000803e3d6000fd5b505050506040513d601f19601f820116820180604052508101906130b09190614a27565b506040805160608d811b6001600160601b03199081166020808501919091523090921b16603483015289151560f81b604883015282516029818403018152604990920190925280519101208460ff1660000361312d576131288460c001516001600160801b03166131208a613934565b869111613a25565b613137565b60ff851660408501525b6001600160a01b038c16606085015261314f89612e2d565b6001600160801b031660c085015260a084018b9052610140840181905260008861318457600b546001600160a01b0316613191565b600a546001600160a01b03165b90506131b460405180606001604052806028815260200161518560289139612580565b613239816001600160a01b03166317bf4fd66131cf88613324565b6040518263ffffffff1660e01b81526004016131ed91815260200190565b61016060405180830381865afa15801561320b573d6000803e3d6000fd5b505050506040513d601f19601f8201168201806040525081019061322f9190614948565b61010001516125c6565b604051634fb1cc1760e11b81526000906001600160a01b03831690639f63982e90613268908990600401614c1f565b610160604051808303816000875af1158015613288573d6000803e3d6000fd5b505050506040513d601f19601f820116820180604052508101906132ac9190614948565b905080606001516001600160a01b03166000805160206150d58339815191528b6000846101000151308660a0015187608001518860c001516132f08a610120015190565b6101408b015160405161330b99989796959493929190614cd5565b60405180910390a2505050505098975050505050505050565b60008160600151826101000151604051602001613342929190614f38565b604051602081830303815290604052805190602001209050919050565b80516a636f6e736f6c652e6c6f67602083016000808483855afa5050505050565b600c5460405163563eccdb60e11b81526000916001600160a01b03169063ac7d99b6906133b19030906004016140e3565b602060405180830381865afa1580156133ce573d6000803e3d6000fd5b505050506040513d601f19601f820116820180604052508101906133f29190614b9a565b905060008190506000816001600160a01b031663177927296040518163ffffffff1660e01b8152600401602060405180830381865afa158015613439573d6000803e3d6000fd5b505050506040513d601f19601f8201168201806040525081019061345d9190614e2d565b845160408781015190516335ab1cbf60e01b81528351600482015260248101929092526044820152600160648201529091506001600160a01b038316906335ab1cbf9060840160006040518083038186803b1580156134bb57600080fd5b505afa1580156134cf573d6000803e3d6000fd5b5060009250505061350960405180604001604052806012815260200171666565526f757465725f2e6765744665657360701b815250612580565b600854865160808801516040808a015160c08b015191516347a994e960e01b81526001600160a01b03909516946347a994e99461355194909330939192600190600401614bb7565b602060405180830381865afa15801561356e573d6000803e3d6000fd5b505050506040513d601f19601f820116820180604052508101906135929190614a27565b90506020808601519087015186516040808a015190516363a6c97360e11b81526001600160a01b0388169463c74d92e6946135d69489946001948a90600401614e6e565b60006040518083038186803b1580156135ee57600080fd5b505afa158015613602573d6000803e3d6000fd5b5060009250505061363c6040518060400160405280601281526020017176616c6964536c697070616765507269636560701b815250612580565b6060870151608088015160a089015160405163037c3c9b60e01b815286516004820152602481019390935290151560448301526064820152600160848201526001600160a01b0385169063037c3c9b9060a401602060405180830381865afa1580156136ac573d6000803e3d6000fd5b505050506040513d601f19601f820116820180604052508101906136d09190614a27565b90506137106040518060400160405280601c81526020017b2fb4b731b932b0b9b2a837b9b4ba34b7b71736b0b935a83934b1b29d60211b81525082613a43565b6000613732836137238a60200151613ae1565b61372d9190614f77565b613b4b565b60095489516040808c015160808d01519151630a2eb75760e11b81529495506001600160a01b039093169363145d6eae93613777939230928892918a91600401614e9f565b600060405180830381600087803b15801561379157600080fd5b505af11580156137a5573d6000803e3d6000fd5b505089516040808c01516080808e015160065460055485518a815260208101959095529115159484019490945260608301899052600091830182905260a0830182905260c0830182905260e08301829052306101008401526001600160a01b039384166101208401528316610140830152610160820152911692507ffc1f8b40dd27177b575feb8190e47ed65af3a506a9e92b5df7e089b4b1a3626a91506101800160405180910390a261385883613b9d565b5050505050505050565b60006138b7826040518060400160405280602081526020017f5361666545524332303a206c6f772d6c6576656c2063616c6c206661696c6564815250856001600160a01b0316613d219092919063ffffffff16565b805190915015610add57808060200190518101906138d59190614f9e565b610add5760405162461bcd60e51b815260206004820152602a60248201527f5361666545524332303a204552433230206f7065726174696f6e20646964206e6044820152691bdd081cdd58d8d9595960b21b6064820152608401610c1a565b600c5460405163b25b41b760e01b815260009182916001600160a01b039091169063b25b41b7906139699030906004016140e3565b602060405180830381865afa158015613986573d6000803e3d6000fd5b505050506040513d601f19601f820116820180604052508101906139aa9190614b9a565b6005546040516303b6b4bb60e51b81526001600160a01b03918216600482015285151560248201529192508291908216906376d6976090604401602060405180830381865afa158015613a01573d6000803e3d6000fd5b505050506040513d601f19601f82011682018060405250810190612f039190614a27565b80613a31576002613a34565b60015b60ff1660409092019190915250565b610c2d8282604051602401613a59929190614fbb565b60408051601f198184030181529190526020810180516001600160e01b0316632d839cb360e21b17905261335f565b613a928282610d78565b610c2d57613a9f81613d30565b613aaa836020613d42565b604051602001613abb929190614fdd565b60408051601f198184030181529082905262461bcd60e51b8252610c1a91600401614f01565b60006001600160ff1b03821115612e965760405162461bcd60e51b815260206004820152602860248201527f53616665436173743a2076616c756520646f65736e27742066697420696e2061604482015267371034b73a191a9b60c11b6064820152608401610c1a565b600080821215612e965760405162461bcd60e51b815260206004820181905260248201527f53616665436173743a2076616c7565206d75737420626520706f7369746976656044820152606401610c1a565b613bce6040518060400160405280601081526020016f5f7472616e736174696f6e734665657360801b815250612580565b6000811215613c9e57613c0060405180604001604052806008815260200167066656573203c20360c41b815250612580565b613c2c604051806040016040528060018152602001602d60f81b81525082613c279061504c565b613a43565b6004546006546001600160a01b039182169163d9caed12911630613c5285600019615068565b6040518463ffffffff1660e01b8152600401613c7093929190614f14565b600060405180830381600087803b158015613c8a57600080fd5b505af1158015610720573d6000803e3d6000fd5b6000811315613cf657613cd060405180604001604052806008815260200167066656573203e20360c41b815250612580565b613cd9816125c6565b6004546006546125c3916001600160a01b03918216911683612cd4565b6125c36040518060400160405280600a81526020016966656573203d3d20303b60b01b815250612580565b6060612f038484600085613ee4565b60606104b36001600160a01b03831660145b60606000613d51836002614aff565b613d5c906002614e01565b6001600160401b03811115613d7357613d73614245565b6040519080825280601f01601f191660200182016040528015613d9d576020820181803683370190505b509050600360fc1b81600081518110613db857613db8614a40565b60200101906001600160f81b031916908160001a905350600f60fb1b81600181518110613de757613de7614a40565b60200101906001600160f81b031916908160001a9053506000613e0b846002614aff565b613e16906001614e01565b90505b6001811115613e8e576f181899199a1a9b1b9c1cb0b131b232b360811b85600f1660108110613e4a57613e4a614a40565b1a60f81b828281518110613e6057613e60614a40565b60200101906001600160f81b031916908160001a90535060049490941c93613e8781615098565b9050613e19565b508315613edd5760405162461bcd60e51b815260206004820181905260248201527f537472696e67733a20686578206c656e67746820696e73756666696369656e746044820152606401610c1a565b9392505050565b606082471015613f455760405162461bcd60e51b815260206004820152602660248201527f416464726573733a20696e73756666696369656e742062616c616e636520666f6044820152651c8818d85b1b60d21b6064820152608401610c1a565b600080866001600160a01b03168587604051613f619190614da7565b60006040518083038185875af1925050503d8060008114613f9e576040519150601f19603f3d011682016040523d82523d6000602084013e613fa3565b606091505b5091509150613fb487838387613fbf565b979650505050505050565b6060831561402e578251600003614027576001600160a01b0385163b6140275760405162461bcd60e51b815260206004820152601d60248201527f416464726573733a2063616c6c20746f206e6f6e2d636f6e74726163740000006044820152606401610c1a565b5081612f03565b612f0383838151156140435781518083602001fd5b8060405162461bcd60e51b8152600401610c1a9190614f01565b6040805161016081018252600080825260208201819052918101829052606081018290526080810182905260a0810182905260c0810182905260e081018290526101008101829052610120810182905261014081019190915290565b6000602082840312156140cb57600080fd5b81356001600160e01b031981168114613edd57600080fd5b6001600160a01b0391909116815260200190565b6001600160a01b03811681146125c357600080fd5b80151581146125c357600080fd5b80356141258161410c565b919050565b6000806000806080858703121561414057600080fd5b843593506020850135614152816140f7565b925060408501356141628161410c565b915060608501356141728161410c565b939692955090935050565b60008060008060008060008060006101208a8c03121561419c57600080fd5b89356141a78161410c565b985060208a0135975060408a0135965060608a0135955060808a0135945060a08a0135935060c08a0135925060e08a01356141e18161410c565b91506101008a01356141f28161410c565b809150509295985092959850929598565b60008060006060848603121561421857600080fd5b83356142238161410c565b925060208401359150604084013561423a8161410c565b809150509250925092565b634e487b7160e01b600052604160045260246000fd5b60405161016081016001600160401b038111828210171561427e5761427e614245565b60405290565b604051601f8201601f191681016001600160401b03811182821017156142ac576142ac614245565b604052919050565b60006001600160401b038211156142cd576142cd614245565b5060051b60200190565b600082601f8301126142e857600080fd5b813560206142fd6142f8836142b4565b614284565b82815260059290921b8401810191818101908684111561431c57600080fd5b8286015b848110156143405780356143338161410c565b8352918301918301614320565b509695505050505050565b60008060006060848603121561436057600080fd5b83356001600160401b038082111561437757600080fd5b614383878388016142d7565b945060209150818601358181111561439a57600080fd5b8601601f810188136143ab57600080fd5b80356143b96142f8826142b4565b81815260059190911b8201840190848101908a8311156143d857600080fd5b928501925b828410156143f6578335825292850192908501906143dd565b9650505050604086013591508082111561440f57600080fd5b5061441c868287016142d7565b9150509250925092565b60006020828403121561443857600080fd5b5035919050565b8035614125816140f7565b6000806040838503121561445d57600080fd5b82359150602083013561446f816140f7565b809150509250929050565b60008060008060008060008060008060006101608c8e03121561449c57600080fd5b8b356144a7816140f7565b9a5060208c01356144b7816140f7565b995060408c01356144c7816140f7565b985060608c01356144d7816140f7565b975060808c01356144e7816140f7565b965060a08c01356144f7816140f7565b955060c08c0135614507816140f7565b945060e08c0135614517816140f7565b93506101008c0135614528816140f7565b92506145376101208d0161443f565b91506145466101408d0161443f565b90509295989b509295989b9093969950565b60008060006060848603121561456d57600080fd5b8335925060208401359150604084013561423a8161410c565b6000806040838503121561459957600080fd5b82359150602083013561446f8161410c565b6000602082840312156145bd57600080fd5b8135613edd8161410c565b600082601f8301126145d957600080fd5b813560206145e96142f8836142b4565b82815260059290921b8401810191818101908684111561460857600080fd5b8286015b84811015614340578035835291830191830161460c565b6000806040838503121561463657600080fd5b82356001600160401b0381111561464c57600080fd5b614658858286016145c8565b925050602083013561446f8161410c565b600080600080600060a0868803121561468157600080fd5b8535945060208601359350604086013592506060860135915060808601356146a88161410c565b809150509295509295909350565b6000806000606084860312156146cb57600080fd5b83356001600160401b038111156146e157600080fd5b6146ed868287016145c8565b93505060208401356146fe8161410c565b9150604084013561423a8161410c565b6000806040838503121561472157600080fd5b823561472c816140f7565b9150602083013561446f8161410c565b600080600080600080600060e0888a03121561475757600080fd5b87356147628161410c565b96506020880135955060408801356147798161410c565b9450606088013593506080880135925060a08801356147978161410c565b915060c08801356147a78161410c565b8091505092959891949750929550565b600080600080608085870312156147cd57600080fd5b843593506020850135925060408501356141628161410c565b60ff811681146125c357600080fd5b8035614125816147e6565b63ffffffff811681146125c357600080fd5b803561412581614800565b6001600160801b03811681146125c357600080fd5b80356141258161481d565b60008082840361018081121561485257600080fd5b6101608082121561486257600080fd5b61486a61425b565b9150614875856147f5565b825261488360208601614812565b6020830152614894604086016147f5565b60408301526148a56060860161443f565b60608301526080850135608083015260a085013560a08301526148ca60c08601614832565b60c08301526148db60e08601614832565b60e0830152610100858101359083015261012080860135908301526101408086013590830152909250829061491181860161411a565b925050509250929050565b8051614125816147e6565b805161412581614800565b8051614125816140f7565b80516141258161481d565b6000610160828403121561495b57600080fd5b61496361425b565b61496c8361491c565b815261497a60208401614927565b602082015261498b6040840161491c565b604082015261499c60608401614932565b60608201526080830151608082015260a083015160a08201526149c160c0840161493d565b60c08201526149d260e0840161493d565b60e082015261010083810151908201526101208084015190820152610140928301519281019290925250919050565b9315158452911515602084015260408301526001600160a01b0316606082015260800190565b600060208284031215614a3957600080fd5b5051919050565b634e487b7160e01b600052603260045260246000fd5b6000806000806000806000806000806101408b8d031215614a7657600080fd5b8a51614a818161410c565b60208c0151909a50614a92816147e6565b60408c015160608d0151919a509850614aaa816140f7565b8097505060808b0151955060a08b0151945060c08b0151935060e08b015192506101008b015191506101208b015190509295989b9194979a5092959850565b634e487b7160e01b600052601160045260246000fd5b80820281158282048414176104b3576104b3614ae9565b6001600160a01b039384168152919092166020820152901515604082015260600190565b600080600080600080600060e0888a031215614b5557600080fd5b875196506020880151955060408801519450606088015193506080880151925060a0880151614b838161410c565b8092505060c0880151905092959891949750929550565b600060208284031215614bac57600080fd5b8151613edd816140f7565b6001600160a01b039687168152949095166020850152911515604084015260608301521515608082015290151560a082015260c00190565b948552602085019390935260408401919091526060830152608082015260a00190565b6001600160801b03169052565b815160ff16815261016081016020830151614c42602084018263ffffffff169052565b506040830151614c57604084018260ff169052565b506060830151614c7260608401826001600160a01b03169052565b506080830151608083015260a083015160a083015260c0830151614c9960c0840182614c12565b5060e0830151614cac60e0840182614c12565b506101008381015190830152610120808401519083015261014092830151929091019190915290565b9815158952961515602089015260408801959095526001600160a01b03939093166060870152608086019190915260a08501526001600160801b031660c084015260e08301526101008201526101200190565b8183823760009101908152919050565b604080825283519082018190526000906020906060840190828701845b82811015614d7157815184529284019290840190600101614d55565b50505093151592019190915250919050565b60005b83811015614d9e578181015183820152602001614d86565b50506000910152565b60008251614db9818460208701614d83565b9190910192915050565b6020808252600b908201526a6d6b743a6c697120706f7360a81b604082015260600190565b6001600160a01b03929092168252602082015260400190565b808201808211156104b3576104b3614ae9565b600060018201614e2657614e26614ae9565b5060010190565b600060208284031215614e3f57600080fd5b604051602081016001600160401b0381118282101715614e6157614e61614245565b6040529151825250919050565b96518752941515602087015260408601939093526060850191909152608084015260a083015260c082015260e00190565b6001600160a01b03968716815294909516602085015260408401929092526060830152608082015290151560a082015260c00190565b60008151808452614eed816020860160208601614d83565b601f01601f19169290920160200192915050565b602081526000613edd6020830184614ed5565b6001600160a01b039384168152919092166020820152604081019190915260600190565b60609290921b6001600160601b0319168252601482015260340190565b600082614f7257634e487b7160e01b600052601260045260246000fd5b500490565b8181036000831280158383131683831282161715614f9757614f97614ae9565b5092915050565b600060208284031215614fb057600080fd5b8151613edd8161410c565b604081526000614fce6040830185614ed5565b90508260208301529392505050565b76020b1b1b2b9b9a1b7b73a3937b61d1030b1b1b7bab73a1604d1b81526000835161500f816017850160208801614d83565b7001034b99036b4b9b9b4b733903937b6329607d1b6017918401918201528351615040816028840160208801614d83565b01602801949350505050565b6000600160ff1b820161506157615061614ae9565b5060000390565b80820260008212600160ff1b8414161561508457615084614ae9565b81810583148215176104b3576104b3614ae9565b6000816150a7576150a7614ae9565b50600019019056fe4d61726b65742e736f6c2f6465637265617365436f6c6c61746572616c2f6163636f756e74d2ac4688baaf870dba21f18c3a385e1ae58b102c0d60258cf384dc361df60fe46d61726b65742f696e697469617a6c697a652f5f6164647265737350726f76696465722d2d2d2d2d2d2d2d2d2d2d2d2d756470617465206465637265617365206f726465722d2d2d2d2d2d2d2d2d2d2dfb248bbb6ca5a799a6bb9ba79f58aa5cdbe0e5979238a967315e7ffbfd119d1a41821a71fcd4fd9aecd428014f9b7f61fb3bea3424e8a828796db51ad474a2752d2d2d2d2d2d2d2d2d2d2d637265617465206465637265617365206f726465722069642d2d2d2d2d2d2d2d2d2d2d6d61726b65742e736f6c2f5f63726561746544656372656173654f7264657222a23cce23bf58a4bb883d7a75b1cff31ed1bd99fac269b47537be26f53235cda2646970667358221220eac79ba553d344afedee8bfa47773fec00b1c9443e120c98af9d031dc3ab0b3e64736f6c63430008110033",
  "linkReferences": {},
  "deployedLinkReferences": {}
}