{
  "_format": "hh-sol-artifact-1",
  "contractName": "Market",
  "sourceName": "contracts/market/Market.sol",
  "abi": [
    {
      "inputs": [
        {
          "internalType": "string",
          "name": "_name",
          "type": "string"
        }
      ],
      "stateMutability": "nonpayable",
      "type": "constructor"
    },
    {
      "anonymous": false,
      "inputs": [
        {
          "indexed": true,
          "internalType": "address",
          "name": "account",
          "type": "address"
        },
        {
          "indexed": false,
          "internalType": "bool",
          "name": "isLong",
          "type": "bool"
        },
        {
          "indexed": false,
          "internalType": "bool",
          "name": "isIncrease",
          "type": "bool"
        },
        {
          "indexed": false,
          "internalType": "uint256",
          "name": "orderID",
          "type": "uint256"
        },
        {
          "indexed": false,
          "internalType": "address",
          "name": "market",
          "type": "address"
        }
      ],
      "name": "DeleteOrder",
      "type": "event"
    },
    {
      "anonymous": false,
      "inputs": [
        {
          "indexed": true,
          "internalType": "bytes32",
          "name": "role",
          "type": "bytes32"
        },
        {
          "indexed": true,
          "internalType": "bytes32",
          "name": "previousAdminRole",
          "type": "bytes32"
        },
        {
          "indexed": true,
          "internalType": "bytes32",
          "name": "newAdminRole",
          "type": "bytes32"
        }
      ],
      "name": "RoleAdminChanged",
      "type": "event"
    },
    {
      "anonymous": false,
      "inputs": [
        {
          "indexed": true,
          "internalType": "bytes32",
          "name": "role",
          "type": "bytes32"
        },
        {
          "indexed": true,
          "internalType": "address",
          "name": "account",
          "type": "address"
        },
        {
          "indexed": true,
          "internalType": "address",
          "name": "sender",
          "type": "address"
        }
      ],
      "name": "RoleGranted",
      "type": "event"
    },
    {
      "anonymous": false,
      "inputs": [
        {
          "indexed": true,
          "internalType": "bytes32",
          "name": "role",
          "type": "bytes32"
        },
        {
          "indexed": true,
          "internalType": "address",
          "name": "account",
          "type": "address"
        },
        {
          "indexed": true,
          "internalType": "address",
          "name": "sender",
          "type": "address"
        }
      ],
      "name": "RoleRevoked",
      "type": "event"
    },
    {
      "anonymous": false,
      "inputs": [
        {
          "indexed": true,
          "internalType": "address",
          "name": "account",
          "type": "address"
        },
        {
          "indexed": false,
          "internalType": "bool",
          "name": "isLong",
          "type": "bool"
        },
        {
          "indexed": false,
          "internalType": "bool",
          "name": "isIncrease",
          "type": "bool"
        },
        {
          "indexed": false,
          "internalType": "uint256",
          "name": "orderID",
          "type": "uint256"
        },
        {
          "indexed": false,
          "internalType": "address",
          "name": "market",
          "type": "address"
        },
        {
          "indexed": false,
          "internalType": "uint256",
          "name": "size",
          "type": "uint256"
        },
        {
          "indexed": false,
          "internalType": "uint256",
          "name": "collateral",
          "type": "uint256"
        },
        {
          "indexed": false,
          "internalType": "uint256",
          "name": "triggerPrice",
          "type": "uint256"
        },
        {
          "indexed": false,
          "internalType": "uint8",
          "name": "triggerAbove",
          "type": "uint8"
        },
        {
          "indexed": false,
          "internalType": "uint256",
          "name": "tp",
          "type": "uint256"
        },
        {
          "indexed": false,
          "internalType": "uint256",
          "name": "sl",
          "type": "uint256"
        }
      ],
      "name": "UpdateOrder",
      "type": "event"
    },
    {
      "anonymous": false,
      "inputs": [
        {
          "indexed": true,
          "internalType": "address",
          "name": "account",
          "type": "address"
        },
        {
          "indexed": false,
          "internalType": "uint256",
          "name": "collateralDelta",
          "type": "uint256"
        },
        {
          "indexed": false,
          "internalType": "uint256",
          "name": "sizeDelta",
          "type": "uint256"
        },
        {
          "indexed": false,
          "internalType": "bool",
          "name": "isLong",
          "type": "bool"
        },
        {
          "indexed": false,
          "internalType": "uint256",
          "name": "price",
          "type": "uint256"
        },
        {
          "indexed": false,
          "internalType": "int256",
          "name": "pnl",
          "type": "int256"
        },
        {
          "indexed": false,
          "internalType": "uint256",
          "name": "execFee",
          "type": "uint256"
        },
        {
          "indexed": false,
          "internalType": "int256",
          "name": "fundFee",
          "type": "int256"
        },
        {
          "indexed": false,
          "internalType": "uint256",
          "name": "tradeFee",
          "type": "uint256"
        },
        {
          "indexed": false,
          "internalType": "address",
          "name": "market",
          "type": "address"
        },
        {
          "indexed": false,
          "internalType": "address",
          "name": "collateralToken",
          "type": "address"
        },
        {
          "indexed": false,
          "internalType": "address",
          "name": "indexToken",
          "type": "address"
        },
        {
          "indexed": false,
          "internalType": "uint256",
          "name": "category",
          "type": "uint256"
        }
      ],
      "name": "UpdatePosition",
      "type": "event"
    },
    {
      "inputs": [],
      "name": "DEFAULT_ADMIN_ROLE",
      "outputs": [
        {
          "internalType": "bytes32",
          "name": "",
          "type": "bytes32"
        }
      ],
      "stateMutability": "view",
      "type": "function"
    },
    {
      "inputs": [],
      "name": "ROLE_FACTORY",
      "outputs": [
        {
          "internalType": "bytes32",
          "name": "",
          "type": "bytes32"
        }
      ],
      "stateMutability": "view",
      "type": "function"
    },
    {
      "inputs": [],
      "name": "ROLE_POS_KEEPER",
      "outputs": [
        {
          "internalType": "bytes32",
          "name": "",
          "type": "bytes32"
        }
      ],
      "stateMutability": "view",
      "type": "function"
    },
    {
      "inputs": [
        {
          "internalType": "bool",
          "name": "_isIncrease",
          "type": "bool"
        },
        {
          "internalType": "uint256",
          "name": "_orderID",
          "type": "uint256"
        },
        {
          "internalType": "bool",
          "name": "_isLong",
          "type": "bool"
        }
      ],
      "name": "cancelOrder",
      "outputs": [],
      "stateMutability": "nonpayable",
      "type": "function"
    },
    {
      "inputs": [
        {
          "internalType": "bool[]",
          "name": "_isIncreaseList",
          "type": "bool[]"
        },
        {
          "internalType": "uint256[]",
          "name": "_orderIDList",
          "type": "uint256[]"
        },
        {
          "internalType": "bool[]",
          "name": "_isLongList",
          "type": "bool[]"
        }
      ],
      "name": "cancelOrderList",
      "outputs": [],
      "stateMutability": "nonpayable",
      "type": "function"
    },
    {
      "inputs": [],
      "name": "collateralToken",
      "outputs": [
        {
          "internalType": "address",
          "name": "",
          "type": "address"
        }
      ],
      "stateMutability": "view",
      "type": "function"
    },
    {
      "inputs": [
        {
          "internalType": "uint256",
          "name": "",
          "type": "uint256"
        },
        {
          "internalType": "bool",
          "name": "",
          "type": "bool"
        }
      ],
      "name": "decreaseCollateral",
      "outputs": [],
      "stateMutability": "nonpayable",
      "type": "function"
    },
    {
      "inputs": [
        {
          "components": [
            {
              "internalType": "uint8",
              "name": "version",
              "type": "uint8"
            },
            {
              "internalType": "uint32",
              "name": "updatedAtBlock",
              "type": "uint32"
            },
            {
              "internalType": "uint8",
              "name": "triggerAbove",
              "type": "uint8"
            },
            {
              "internalType": "address",
              "name": "account",
              "type": "address"
            },
            {
              "internalType": "uint256",
              "name": "collateral",
              "type": "uint256"
            },
            {
              "internalType": "uint256",
              "name": "size",
              "type": "uint256"
            },
            {
              "internalType": "uint128",
              "name": "price",
              "type": "uint128"
            },
            {
              "internalType": "uint128",
              "name": "priceExtra",
              "type": "uint128"
            },
            {
              "internalType": "uint256",
              "name": "orderID",
              "type": "uint256"
            },
            {
              "internalType": "uint256",
              "name": "extra0",
              "type": "uint256"
            },
            {
              "internalType": "uint256",
              "name": "extra1",
              "type": "uint256"
            }
          ],
          "internalType": "struct Order.Props",
          "name": "",
          "type": "tuple"
        },
        {
          "internalType": "bool",
          "name": "",
          "type": "bool"
        }
      ],
      "name": "decreasePositionFromOrder",
      "outputs": [],
      "stateMutability": "nonpayable",
      "type": "function"
    },
    {
      "inputs": [
        {
          "internalType": "bool",
          "name": "_isLimit",
          "type": "bool"
        },
        {
          "internalType": "uint256",
          "name": "_sizeDelta",
          "type": "uint256"
        },
        {
          "internalType": "bool",
          "name": "_isKeepLev",
          "type": "bool"
        },
        {
          "internalType": "uint256",
          "name": "_price",
          "type": "uint256"
        },
        {
          "internalType": "uint256",
          "name": "_slippage",
          "type": "uint256"
        },
        {
          "internalType": "bool",
          "name": "_isLong",
          "type": "bool"
        },
        {
          "internalType": "bool",
          "name": "_isExec",
          "type": "bool"
        }
      ],
      "name": "decreaseTrade",
      "outputs": [],
      "stateMutability": "nonpayable",
      "type": "function"
    },
    {
      "inputs": [
        {
          "internalType": "bytes32",
          "name": "_orderKey",
          "type": "bytes32"
        },
        {
          "internalType": "contract IOrderBook",
          "name": "_orderBook",
          "type": "address"
        },
        {
          "internalType": "bool",
          "name": "_isLong",
          "type": "bool"
        },
        {
          "internalType": "bool",
          "name": "_isIncrease",
          "type": "bool"
        }
      ],
      "name": "execOrderKey",
      "outputs": [],
      "stateMutability": "nonpayable",
      "type": "function"
    },
    {
      "inputs": [
        {
          "internalType": "bytes32[]",
          "name": "_orderKeyList",
          "type": "bytes32[]"
        },
        {
          "internalType": "bool",
          "name": "_isLong",
          "type": "bool"
        },
        {
          "internalType": "bool",
          "name": "_isIncrease",
          "type": "bool"
        }
      ],
      "name": "execOrderKeys",
      "outputs": [],
      "stateMutability": "nonpayable",
      "type": "function"
    },
    {
      "inputs": [
        {
          "internalType": "uint256",
          "name": "_start",
          "type": "uint256"
        },
        {
          "internalType": "uint256",
          "name": "_end",
          "type": "uint256"
        },
        {
          "internalType": "bool",
          "name": "_isLong",
          "type": "bool"
        },
        {
          "internalType": "bool",
          "name": "_isIncrease",
          "type": "bool"
        }
      ],
      "name": "execOrders",
      "outputs": [],
      "stateMutability": "nonpayable",
      "type": "function"
    },
    {
      "inputs": [],
      "name": "feeRouter",
      "outputs": [
        {
          "internalType": "contract IFeeRouter",
          "name": "",
          "type": "address"
        }
      ],
      "stateMutability": "view",
      "type": "function"
    },
    {
      "inputs": [
        {
          "internalType": "bytes32",
          "name": "role",
          "type": "bytes32"
        }
      ],
      "name": "getRoleAdmin",
      "outputs": [
        {
          "internalType": "bytes32",
          "name": "",
          "type": "bytes32"
        }
      ],
      "stateMutability": "view",
      "type": "function"
    },
    {
      "inputs": [
        {
          "internalType": "bytes32",
          "name": "role",
          "type": "bytes32"
        },
        {
          "internalType": "address",
          "name": "account",
          "type": "address"
        }
      ],
      "name": "grantRole",
      "outputs": [],
      "stateMutability": "nonpayable",
      "type": "function"
    },
    {
      "inputs": [
        {
          "internalType": "bytes32",
          "name": "role",
          "type": "bytes32"
        },
        {
          "internalType": "address",
          "name": "account",
          "type": "address"
        }
      ],
      "name": "hasRole",
      "outputs": [
        {
          "internalType": "bool",
          "name": "",
          "type": "bool"
        }
      ],
      "stateMutability": "view",
      "type": "function"
    },
    {
      "inputs": [
        {
          "internalType": "uint256",
          "name": "_collateralDelta",
          "type": "uint256"
        },
        {
          "internalType": "bool",
          "name": "_isLong",
          "type": "bool"
        }
      ],
      "name": "increaseCollateral",
      "outputs": [],
      "stateMutability": "nonpayable",
      "type": "function"
    },
    {
      "inputs": [
        {
          "components": [
            {
              "internalType": "uint8",
              "name": "version",
              "type": "uint8"
            },
            {
              "internalType": "uint32",
              "name": "updatedAtBlock",
              "type": "uint32"
            },
            {
              "internalType": "uint8",
              "name": "triggerAbove",
              "type": "uint8"
            },
            {
              "internalType": "address",
              "name": "account",
              "type": "address"
            },
            {
              "internalType": "uint256",
              "name": "collateral",
              "type": "uint256"
            },
            {
              "internalType": "uint256",
              "name": "size",
              "type": "uint256"
            },
            {
              "internalType": "uint128",
              "name": "price",
              "type": "uint128"
            },
            {
              "internalType": "uint128",
              "name": "priceExtra",
              "type": "uint128"
            },
            {
              "internalType": "uint256",
              "name": "orderID",
              "type": "uint256"
            },
            {
              "internalType": "uint256",
              "name": "extra0",
              "type": "uint256"
            },
            {
              "internalType": "uint256",
              "name": "extra1",
              "type": "uint256"
            }
          ],
          "internalType": "struct Order.Props",
          "name": "order",
          "type": "tuple"
        },
        {
          "internalType": "bool",
          "name": "_isLong",
          "type": "bool"
        }
      ],
      "name": "increasePositionFromOrder",
      "outputs": [],
      "stateMutability": "nonpayable",
      "type": "function"
    },
    {
      "inputs": [
        {
          "internalType": "bool",
          "name": "_isLimit",
          "type": "bool"
        },
        {
          "internalType": "uint256",
          "name": "_payDelta",
          "type": "uint256"
        },
        {
          "internalType": "uint256",
          "name": "_sizeDelta",
          "type": "uint256"
        },
        {
          "internalType": "uint256",
          "name": "_price",
          "type": "uint256"
        },
        {
          "internalType": "uint256",
          "name": "_tpPrice",
          "type": "uint256"
        },
        {
          "internalType": "uint256",
          "name": "_slPrice",
          "type": "uint256"
        },
        {
          "internalType": "uint256",
          "name": "_slippage",
          "type": "uint256"
        },
        {
          "internalType": "bool",
          "name": "_isLong",
          "type": "bool"
        },
        {
          "internalType": "bool",
          "name": "_isExec",
          "type": "bool"
        }
      ],
      "name": "increaseTrade",
      "outputs": [],
      "stateMutability": "nonpayable",
      "type": "function"
    },
    {
      "inputs": [],
      "name": "indexToken",
      "outputs": [
        {
          "internalType": "address",
          "name": "",
          "type": "address"
        }
      ],
      "stateMutability": "view",
      "type": "function"
    },
    {
      "inputs": [
        {
          "internalType": "address",
          "name": "_positionBook",
          "type": "address"
        },
        {
          "internalType": "contract IOrderBook",
          "name": "_orderBookLong",
          "type": "address"
        },
        {
          "internalType": "contract IOrderBook",
          "name": "_orderBookShort",
          "type": "address"
        },
        {
          "internalType": "address",
          "name": "_addressProvider",
          "type": "address"
        },
        {
          "internalType": "address",
          "name": "_indexToken",
          "type": "address"
        },
        {
          "internalType": "address",
          "name": "_feeRouter",
          "type": "address"
        },
        {
          "internalType": "address",
          "name": "_feeVault",
          "type": "address"
        },
        {
          "internalType": "address",
          "name": "_marketRouter",
          "type": "address"
        },
        {
          "internalType": "address",
          "name": "_vault",
          "type": "address"
        },
        {
          "internalType": "address",
          "name": "_vaultRouter",
          "type": "address"
        },
        {
          "internalType": "address",
          "name": "_collateralToken",
          "type": "address"
        }
      ],
      "name": "initialize",
      "outputs": [],
      "stateMutability": "nonpayable",
      "type": "function"
    },
    {
      "inputs": [
        {
          "internalType": "bytes32",
          "name": "_key",
          "type": "bytes32"
        },
        {
          "internalType": "bool",
          "name": "_isLong",
          "type": "bool"
        }
      ],
      "name": "isLiquidate",
      "outputs": [
        {
          "internalType": "uint256",
          "name": "_state",
          "type": "uint256"
        }
      ],
      "stateMutability": "view",
      "type": "function"
    },
    {
      "inputs": [
        {
          "internalType": "address",
          "name": "_account",
          "type": "address"
        },
        {
          "internalType": "bool",
          "name": "",
          "type": "bool"
        }
      ],
      "name": "liquidatePosition",
      "outputs": [
        {
          "internalType": "uint256",
          "name": "",
          "type": "uint256"
        }
      ],
      "stateMutability": "nonpayable",
      "type": "function"
    },
    {
      "inputs": [
        {
          "internalType": "bytes32[]",
          "name": "keys",
          "type": "bytes32[]"
        },
        {
          "internalType": "bool",
          "name": "isLong",
          "type": "bool"
        }
      ],
      "name": "liquidatePositionByKey",
      "outputs": [],
      "stateMutability": "nonpayable",
      "type": "function"
    },
    {
      "inputs": [],
      "name": "marketAddressesProvider",
      "outputs": [
        {
          "internalType": "contract IMarketAddressesProvider",
          "name": "",
          "type": "address"
        }
      ],
      "stateMutability": "view",
      "type": "function"
    },
    {
      "inputs": [],
      "name": "orderBookLong",
      "outputs": [
        {
          "internalType": "contract IOrderBook",
          "name": "",
          "type": "address"
        }
      ],
      "stateMutability": "view",
      "type": "function"
    },
    {
      "inputs": [],
      "name": "orderBookShort",
      "outputs": [
        {
          "internalType": "contract IOrderBook",
          "name": "",
          "type": "address"
        }
      ],
      "stateMutability": "view",
      "type": "function"
    },
    {
      "inputs": [],
      "name": "positionBook",
      "outputs": [
        {
          "internalType": "contract IPositionBook",
          "name": "",
          "type": "address"
        }
      ],
      "stateMutability": "view",
      "type": "function"
    },
    {
      "inputs": [
        {
          "internalType": "bytes32",
          "name": "role",
          "type": "bytes32"
        },
        {
          "internalType": "address",
          "name": "account",
          "type": "address"
        }
      ],
      "name": "renounceRole",
      "outputs": [],
      "stateMutability": "nonpayable",
      "type": "function"
    },
    {
      "inputs": [
        {
          "internalType": "bytes32",
          "name": "role",
          "type": "bytes32"
        },
        {
          "internalType": "address",
          "name": "account",
          "type": "address"
        }
      ],
      "name": "revokeRole",
      "outputs": [],
      "stateMutability": "nonpayable",
      "type": "function"
    },
    {
      "inputs": [
        {
          "internalType": "bool",
          "name": "_delete",
          "type": "bool"
        }
      ],
      "name": "setDeleteOrdersWhenPositionClosed",
      "outputs": [],
      "stateMutability": "nonpayable",
      "type": "function"
    },
    {
      "inputs": [
        {
          "internalType": "bool",
          "name": "_p",
          "type": "bool"
        }
      ],
      "name": "setOpenDebug",
      "outputs": [],
      "stateMutability": "nonpayable",
      "type": "function"
    },
    {
      "inputs": [
        {
          "internalType": "uint256",
          "name": "_spread",
          "type": "uint256"
        }
      ],
      "name": "setSpread",
      "outputs": [],
      "stateMutability": "nonpayable",
      "type": "function"
    },
    {
      "inputs": [],
      "name": "spread",
      "outputs": [
        {
          "internalType": "uint256",
          "name": "",
          "type": "uint256"
        }
      ],
      "stateMutability": "view",
      "type": "function"
    },
    {
      "inputs": [
        {
          "internalType": "bytes4",
          "name": "interfaceId",
          "type": "bytes4"
        }
      ],
      "name": "supportsInterface",
      "outputs": [
        {
          "internalType": "bool",
          "name": "",
          "type": "bool"
        }
      ],
      "stateMutability": "view",
      "type": "function"
    },
    {
      "inputs": [
        {
          "internalType": "uint256",
          "name": "_orderID",
          "type": "uint256"
        },
        {
          "internalType": "uint256",
          "name": "_triggerPrice",
          "type": "uint256"
        },
        {
          "internalType": "bool",
          "name": "_isLong",
          "type": "bool"
        }
      ],
      "name": "updateDecreaseOrder",
      "outputs": [],
      "stateMutability": "nonpayable",
      "type": "function"
    },
    {
      "inputs": [
        {
          "internalType": "uint256",
          "name": "_orderID",
          "type": "uint256"
        },
        {
          "internalType": "uint256",
          "name": "_triggerPrice",
          "type": "uint256"
        },
        {
          "internalType": "uint256",
          "name": "_tpPrice",
          "type": "uint256"
        },
        {
          "internalType": "uint256",
          "name": "_slPrice",
          "type": "uint256"
        },
        {
          "internalType": "bool",
          "name": "_isLong",
          "type": "bool"
        }
      ],
      "name": "updateIncreaseOrder",
      "outputs": [],
      "stateMutability": "nonpayable",
      "type": "function"
    },
    {
      "inputs": [],
      "name": "vault",
      "outputs": [
        {
          "internalType": "address",
          "name": "",
          "type": "address"
        }
      ],
      "stateMutability": "view",
      "type": "function"
    }
  ],
  "bytecode": "0x60806040523480156200001157600080fd5b506040516200603d3803806200603d83398101604081905262000034916200018f565b6001600e556002620000478282620002f3565b50600c805460ff60a01b1916600160a01b17905562000068600033620000d4565b620000947f41821a71fcd4fd9aecd428014f9b7f61fb3bea3424e8a828796db51ad474a27533620000d4565b620000c07ffb248bbb6ca5a799a6bb9ba79f58aa5cdbe0e5979238a967315e7ffbfd119d1a33620000d4565b50600c805460ff60a81b19169055620003bf565b6000828152600f602090815260408083206001600160a01b038516845290915290205460ff1662000175576000828152600f602090815260408083206001600160a01b03851684529091529020805460ff19166001179055620001343390565b6001600160a01b0316816001600160a01b0316837f2f8788117e7eff1d82e926ec794901d17c78024a50270940304540a733656f0d60405160405180910390a45b5050565b634e487b7160e01b600052604160045260246000fd5b60006020808385031215620001a357600080fd5b82516001600160401b0380821115620001bb57600080fd5b818501915085601f830112620001d057600080fd5b815181811115620001e557620001e562000179565b604051601f8201601f19908116603f0116810190838211818310171562000210576200021062000179565b8160405282815288868487010111156200022957600080fd5b600093505b828410156200024d57848401860151818501870152928501926200022e565b600086848301015280965050505050505092915050565b600181811c908216806200027957607f821691505b6020821081036200029a57634e487b7160e01b600052602260045260246000fd5b50919050565b601f821115620002ee57600081815260208120601f850160051c81016020861015620002c95750805b601f850160051c820191505b81811015620002ea57828155600101620002d5565b5050505b505050565b81516001600160401b038111156200030f576200030f62000179565b620003278162000320845462000264565b84620002a0565b602080601f8311600181146200035f5760008415620003465750858301515b600019600386901b1c1916600185901b178555620002ea565b600085815260208120601f198616915b8281101562000390578886015182559484019460019091019084016200036f565b5085821015620003af5787850151600019600388901b60f8161c191681555b5050505050600190811b01905550565b615c6e80620003cf6000396000f3fe608060405234801561001057600080fd5b50600436106101c25760003560e01c806301ffc9a7146101c757806305ba9ae9146101ef5780630ad074f8146102095780630c9def411461021e578063112d3b7b1461022f5780631c8b5804146102425780631f86cb5414610255578063248a9ca3146102685780632f2ff15d1461028957806336568abe1461029c578063553107f9146102af5780635c25c76c146102c457806368bf08a1146102cc57806376902b83146102f85780637b2fd1e51461030b5780638fab7bd81461031c57806391d148541461032f57806392e1f776146103425780639b498f3c146103555780639cb9b65714610368578063a01ffe5b14610394578063a217fddf146103a7578063a22b5096146103af578063ac0b05a6146103c2578063b057bfae146103d3578063b2016bd4146103e6578063b3f7edcf146103f7578063b66a261c1461040c578063d547741f1461041f578063e20965b514610432578063e52740f714610445578063e7d015f214610458578063e936fcfb14610469578063f105e2831461047c578063f29ebf611461048f578063f65cf157146104a0578063f9159954146104b3578063fbfa77cf146104c6575b600080fd5b6101da6101d5366004614931565b6104d7565b60405190151581526020015b60405180910390f35b600b546001600160a01b03165b6040516101e6919061495b565b61021c6102173660046149a2565b61050e565b005b600c546001600160a01b03166101fc565b61021c61023d3660046149f5565b610811565b61021c610250366004614a7b565b6109e8565b61021c610263366004614bc3565b610c67565b61027b610276366004614c9e565b610d02565b6040519081526020016101e6565b61021c610297366004614cc2565b610d17565b61021c6102aa366004614cc2565b610d33565b61027b600080516020615b6c83398151915281565b60005461027b565b61021c6102da366004614cf2565b600c8054911515600160a81b0260ff60a81b19909216919091179055565b61021c610306366004614d0f565b610db1565b600a546001600160a01b03166101fc565b61027b61032a366004614ded565b610f5c565b6101da61033d366004614cc2565b610ff9565b61021c610350366004614e12565b611024565b61021c610363366004614ded565b6114ea565b61021c610376366004614cf2565b600c8054911515600160a01b0260ff60a01b19909216919091179055565b61021c6103a2366004614e9b565b61166e565b61027b600081565b61021c6103bd366004614ee1565b6117b4565b6009546001600160a01b03166101fc565b61021c6103e1366004614f2e565b611b11565b6006546001600160a01b03166101fc565b61027b600080516020615b4c83398151915281565b61021c61041a366004614c9e565b611c35565b61021c61042d366004614cc2565b611c53565b61027b610440366004614f86565b611c6f565b61021c610453366004614fb4565b611da5565b6005546001600160a01b03166101fc565b61021c61047736600461502f565b612029565b61021c61048a3660046150b5565b612297565b6008546001600160a01b03166101fc565b61021c6104ae3660046150b5565b612414565b61021c6104c1366004614ded565b612548565b6007546001600160a01b03166101fc565b60006001600160e01b03198216637965db0b60e01b148061050857506301ffc9a760e01b6001600160e01b03198316145b92915050565b80156107525760405163e3c5b96960e01b8152600481018590526000906001600160a01b0385169063e3c5b9699060240161016060405180830381865afa15801561055d573d6000803e3d6000fd5b505050506040513d601f19601f8201168201806040525081019061058191906151c0565b90506105ab6040518060400160405280600781526020016633b2ba1037b13560c91b815250612878565b6105c18160c001516001600160801b03166128be565b600061064860405180610120016040528084606001516001600160a01b03168152602001846080015181526020018460a0015181526020018460c001516001600160801b0316815260200186151581526020016000815260200160011515815260200161063085610140015190565b815260200161064185610120015190565b9052612903565b90506106548282612c0f565b61069b5760405162461bcd60e51b81526020600482015260136024820152726d61726b65743a7472696767657261626f766560681b60448201526064015b60405180910390fd5b6040516398ddd31960e01b8152600481018790526000906001600160a01b038716906398ddd31990602401610160604051808303816000875af11580156106e6573d6000803e3d6000fd5b505050506040513d601f19601f8201168201806040525081019061070a91906151c0565b905080606001516001600160a01b0316600080516020615c198339815191528686846101000151306040516107429493929190615279565b60405180910390a250505061080b565b604051630bdfa7eb60e11b8152600481018590526000906001600160a01b038516906317bf4fd69060240161016060405180830381865afa15801561079b573d6000803e3d6000fd5b505050506040513d601f19601f820116820180604052508101906107bf91906151c0565b90506107cb8184612414565b80606001516001600160a01b0316600080516020615c198339815191528484846101000151306040516108019493929190615279565b60405180910390a2505b50505050565b8260000361081e57601e92505b6040805180820190915260098152685f70617944656c746160b81b6020820152339061084990612878565b610852896128be565b61085a612c35565b6001600160a01b031663015fc6138a6040518263ffffffff1660e01b815260040161088791815260200190565b60006040518083038186803b15801561089f57600080fd5b505afa1580156108b3573d6000803e3d6000fd5b5050600654600c546108e593506001600160a01b039182169250849130918e91811690600160b01b900460ff16612cac565b8915610985576006546040516370a0823160e01b8152610963916001600160a01b0316906370a082319061091d90859060040161495b565b602060405180830381865afa15801561093a573d6000803e3d6000fd5b505050506040513d601f19601f8201168201806040525081019061095e919061529f565b6128be565b6000610972828a8a8a8a612ccf565b905061097f818b86612d1e565b506109dc565b6109da604051806101200160405280836001600160a01b031681526020018b81526020018a81526020018981526020018515158152602001868152602001841515815260200188815260200187815250612903565b505b50505050505050505050565b6109f06130ad565b3360006109fd8285613106565b9050600083610a1757600b546001600160a01b0316610a24565b600a546001600160a01b03165b9050610a2e6148ad565b8615610b445760405163e3c5b96960e01b8152600481018490526001600160a01b0383169063e3c5b9699060240161016060405180830381865afa158015610a7a573d6000803e3d6000fd5b505050506040513d601f19601f82011682018060405250810190610a9e91906151c0565b6040516398ddd31960e01b8152600481018590529091506001600160a01b038316906398ddd31990602401610160604051808303816000875af1158015610ae9573d6000803e3d6000fd5b505050506040513d601f19601f82011682018060405250810190610b0d91906151c0565b506006546080820151600c54610b3f926001600160a01b039081169288929091811690600160b01b900460ff16613139565b610c1f565b604051630bdfa7eb60e11b8152600481018490526001600160a01b038316906317bf4fd69060240161016060405180830381865afa158015610b8a573d6000803e3d6000fd5b505050506040513d601f19601f82011682018060405250810190610bae91906151c0565b604051635008d4d160e11b8152600481018590529091506001600160a01b0383169063a011a9a290602401610160604051808303816000875af1158015610bf9573d6000803e3d6000fd5b505050506040513d601f19601f82011682018060405250810190610c1d91906151c0565b505b836001600160a01b0316600080516020615c1983398151915286898930604051610c4c9493929190615279565b60405180910390a250505050610c626001600e55565b505050565b610c6f6130ad565b8151835114610c7d57600080fd5b8151815114610c8b57600080fd5b815160005b81811015610cf657610cee858281518110610cad57610cad6152b8565b6020026020010151858381518110610cc757610cc76152b8565b6020026020010151858481518110610ce157610ce16152b8565b60200260200101516109e8565b600101610c90565b5050610c626001600e55565b6000908152600f602052604090206001015490565b610d2082610d02565b610d2981613162565b610c62838361316c565b6001600160a01b0381163314610da35760405162461bcd60e51b815260206004820152602f60248201527f416363657373436f6e74726f6c3a2063616e206f6e6c792072656e6f756e636560448201526e103937b632b9903337b91039b2b63360891b6064820152608401610692565b610dad82826131f2565b5050565b600080516020615b6c833981519152610dc981613162565b610dea604051806060016040528060238152602001615afc60239139612878565b610df389613259565b610e316040518060400160405280602081526020017f6d61726b65742f696e697469617a6c697a652f61646472657373287468697329815250612878565b610e3a30613259565b600980546001600160a01b03199081166001600160a01b038f811691909117909255600a805482168e8416179055600b805482168d8416179055600c805482168c84161790556005805482168b84161790556004805482168984161781556008805483168b8516179055600d80548316898516179055600780548316888516179055600380548316878516179055600680549092169285169283179091556040805163313ce56760e01b8152905163313ce567928281019260209291908290030181865afa158015610f10573d6000803e3d6000fd5b505050506040513d601f19601f82011682018060405250810190610f3491906152ce565b600c60166101000a81548160ff021916908360ff160217905550505050505050505050505050565b600080610f67612c35565b600954600854604051630734f97160e41b81526004810188905286151560248201526001600160a01b039283166044820152908216606482015291925082169063734f971090608401602060405180830381865afa158015610fcd573d6000803e3d6000fd5b505050506040513d601f19601f82011682018060405250810190610ff1919061529f565b949350505050565b6000918252600f602090815260408084206001600160a01b0393909316845291905290205460ff1690565b61102c6130ad565b61108460405180610120016040528060006001600160a01b0316815260200160008152602001600081526020016000815260200160008152602001600081526020016000815260200160008152602001600081525090565b33815260008261109f57600b546001600160a01b03166110ac565b600a546001600160a01b03165b9050806001600160a01b031663554a0eb76110cb846000015188613106565b6040518263ffffffff1660e01b81526004016110e991815260200190565b61014060405180830381865afa158015611107573d6000803e3d6000fd5b505050506040513d601f19601f8201168201806040525081019061112b91906152eb565b50505050604080890192909252506020870192909252506009548551915163118272bf60e31b81526001600160a01b039091169350638c1395f8925061117891903090889060040161537e565b60e060405180830381865afa158015611195573d6000803e3d6000fd5b505050506040513d601f19601f820116820180604052508101906111b991906153a2565b505050505060608401526080830152600c5460405163563eccdb60e11b81526000916001600160a01b03169063ac7d99b6906111f990309060040161495b565b602060405180830381865afa158015611216573d6000803e3d6000fd5b505050506040513d601f19601f8201168201806040525081019061123a9190615402565b60085460408086015190516347a994e960e01b81529293506001600160a01b03909116916347a994e99161127d916000913091600191908290859060040161541f565b608060405180830381865afa15801561129a573d6000803e3d6000fd5b505050506040513d601f19601f820116820180604052508101906112be9190615457565b61010087015260e086015260c085015260a08401819052606084015160208501516080860151604080880151905163f6b8515b60e01b81526001600160a01b0387169563f6b8515b9561131c9590949093909290919060040161548d565b602060405180830381865afa158015611339573d6000803e3d6000fd5b505050506040513d601f19601f8201168201806040525081019061135d919061529f565b506000826001600160a01b03166317bf4fd6611379338a613106565b6040518263ffffffff1660e01b815260040161139791815260200190565b61016060405180830381865afa1580156113b5573d6000803e3d6000fd5b505050506040513d601f19601f820116820180604052508101906113d991906151c0565b90506113e48661329c565b6001600160801b031660c08201526114136040518060600160405280602d8152602001615b1f602d9139612878565b61141c876128be565b604051636b0243b560e01b81526001600160a01b03841690636b0243b5906114489084906004016154bd565b610160604051808303816000875af1158015611468573d6000803e3d6000fd5b505050506040513d601f19601f8201168201806040525081019061148c91906151c0565b5080606001516001600160a01b0316600080516020615b8c833981519152866000846101000151308660a0015187608001518860c0015189604001518a61014001518b6101200151604051610c4c9a99989796959493929190615573565b6114f26130ad565b61151d6040518060400160405280600a8152602001696d6b742061646472657360b01b815250612878565b61152630613259565b600c54604080516389be278160e01b815290516000926001600160a01b0316916389be27819160048083019260209291908290030181865afa158015611570573d6000803e3d6000fd5b505050506040513d601f19601f820116820180604052508101906115949190615402565b90506115b7604051806060016040528060258152602001615ad760259139612878565b6115c033613259565b6000816001600160a01b03166000366040516115dd9291906155cf565b600060405180830381855af49150503d8060008114611618576040519150601f19603f3d011682016040523d82523d6000602084013e61161d565b606091505b50509050806116625760405162461bcd60e51b8152602060048201526011602482015270135add0e991958dc99585cd94818dbdb1b607a1b6044820152606401610692565b5050610dad6001600e55565b6116766130ad565b600c54604080516389be278160e01b815290516000926001600160a01b0316916389be27819160048083019260209291908290030181865afa1580156116c0573d6000803e3d6000fd5b505050506040513d601f19601f820116820180604052508101906116e49190615402565b9050600083836040516024016116fb9291906155df565b60408051601f198184030181529181526020820180516001600160e01b031663a01ffe5b60e01b1790525190915060009081906001600160a01b0385169061174490859061564e565b600060405180830381855af49150503d806000811461177f576040519150601f19603f3d011682016040523d82523d6000602084013e611784565b606091505b5091509150816117a65760405162461bcd60e51b81526004016106929061566a565b50505050610dad6001600e55565b6117bc6130ad565b6000816117d457600b546001600160a01b03166117e1565b600a546001600160a01b03165b90506000816001600160a01b031663e3c5b9696117fe338a613106565b6040518263ffffffff1660e01b815260040161181c91815260200190565b61016060405180830381865afa15801561183a573d6000803e3d6000fd5b505050506040513d601f19601f8201168201806040525081019061185e91906151c0565b905061186d8160600151613259565b6000611877612c35565b60085460a08401516040516320b613eb60e21b81529293506001600160a01b039091169160009183916382d84fac916118b59130919060040161568f565b602060405180830381865afa1580156118d2573d6000803e3d6000fd5b505050506040513d601f19601f820116820180604052508101906118f6919061529f565b6040516309d3989760e01b81526001600160a01b038416906309d398979061192290309060040161495b565b602060405180830381865afa15801561193f573d6000803e3d6000fd5b505050506040513d601f19601f82011682018060405250810190611963919061529f565b61196d91906156be565b608085015160a0860151604051631ecaa84160e21b815260048101929092526024820152604481018b9052606481018a90526084810189905287151560a482015260c481018290529091506001600160a01b03841690637b2aa1049060e401602060405180830381865afa1580156119e9573d6000803e3d6000fd5b505050506040513d601f19601f82011682018060405250810190611a0d919061529f565b505050611a198761329c565b6001600160801b031660c08301526101408201869052610120820185905260405162fde88d60e81b81526001600160a01b0384169063fde88d0090611a629085906004016154bd565b610160604051808303816000875af1158015611a82573d6000803e3d6000fd5b505050506040513d601f19601f82011682018060405250810190611aa691906151c0565b5081606001516001600160a01b0316600080516020615b8c8339815191528560018b308760a0015188608001518960c001518a604001518f8f604051611af59a99989796959493929190615573565b60405180910390a2505050611b0a6001600e55565b5050505050565b611b196130ad565b600082611b3157600b546001600160a01b0316611b3e565b600a546001600160a01b03165b9050611b6e6040518060400160405280600d81526020016c657865634f726465724b65797360981b815250612878565b611b7783613309565b611b8082613309565b60005b8451811015610cf6576000858281518110611ba057611ba06152b8565b602090810291909101015160405163015a0e9f60e31b8152600481018290526001600160a01b0385166024820152861515604482015285151560648201529091503090630ad074f890608401600060405180830381600087803b158015611c0657600080fd5b505af1925050508015611c17575060015b611c215750611c23565b505b80611c2d816156d1565b915050611b83565b600080516020615b6c833981519152611c4d81613162565b50600055565b611c5c82610d02565b611c6581613162565b610c6283836131f2565b6000611c796130ad565b600080516020615b4c833981519152611c9181613162565b600c54604080516389be278160e01b815290516000926001600160a01b0316916389be27819160048083019260209291908290030181865afa158015611cdb573d6000803e3d6000fd5b505050506040513d601f19601f82011682018060405250810190611cff9190615402565b9050600080826001600160a01b0316600036604051611d1f9291906155cf565b600060405180830381855af49150503d8060008114611d5a576040519150601f19603f3d011682016040523d82523d6000602084013e611d5f565b606091505b509150915081611d815760405162461bcd60e51b81526004016106929061566a565b80806020019051810190611d95919061529f565b9450505050506105086001600e55565b611dad6130ad565b338715611ea75760095460405163118272bf60e31b815260009182916001600160a01b0390911690638c1395f890611ded90869030908a9060040161537e565b60e060405180830381865afa158015611e0a573d6000803e3d6000fd5b505050506040513d601f19601f82011682018060405250810190611e2e91906153a2565b5093965093945060009350611e4b92508b91508490508c8661334a565b9050611e9e604051806101000160405280866001600160a01b031681526020018c81526020018381526020018a81526020018815158152602001858152602001848152602001600060ff16815250613379565b50505050612015565b600c54604080516389be278160e01b815290516000926001600160a01b0316916389be27819160048083019260209291908290030181865afa158015611ef1573d6000803e3d6000fd5b505050506040513d601f19601f82011682018060405250810190611f159190615402565b604051602481018a90528815156044820152606481018890526084810187905285151560a482015284151560c48201529091506000906001600160a01b0383169060e40160408051601f198184030181529181526020820180516001600160e01b0316630ff70bf960e31b17905251611f8e919061564e565b600060405180830381855af49150503d8060008114611fc9576040519150601f19603f3d011682016040523d82523d6000602084013e611fce565b606091505b50509050806120125760405162461bcd60e51b815260206004820152601060248201526f3232b1b932b0b9b2a837b9b4ba34b7b760811b6044820152606401610692565b50505b506120206001600e55565b50505050505050565b600080516020615b4c83398151915261204181613162565b60008361205957600b546001600160a01b0316612066565b600a546001600160a01b03165b604051635c95a1df60e11b815284151560048201529091506000906001600160a01b0383169063b92b43be90602401602060405180830381865afa1580156120b2573d6000803e3d6000fd5b505050506040513d601f19601f820116820180604052508101906120d6919061529f565b90506120e1876128be565b6120ea866128be565b6120f3816128be565b808710612101575050611b0a565b8086111561210d578095505b8587101561202057604051630ebdfacf60e21b81526004810188905284151560248201526000906001600160a01b03841690633af7eb3c90604401602060405180830381865afa158015612165573d6000803e3d6000fd5b505050506040513d601f19601f82011682018060405250810190612189919061529f565b905084156122105760405163e3c5b96960e01b8152600481018290526000906001600160a01b0385169063e3c5b9699060240161016060405180830381865afa1580156121da573d6000803e3d6000fd5b505050506040513d601f19601f820116820180604052508101906121fe91906151c0565b905061220a8188612297565b5061228b565b604051630bdfa7eb60e11b8152600481018290526000906001600160a01b038516906317bf4fd69060240161016060405180830381865afa158015612259573d6000803e3d6000fd5b505050506040513d601f19601f8201168201806040525081019061227d91906151c0565b90506122898188612414565b505b8760010197505061210d565b61229f6130ad565b600061231f60405180610120016040528085606001516001600160a01b03168152602001856080015181526020018560a0015181526020018560c001516001600160801b0316815260200184151581526020016000815260200160011515815260200161230e86610140015190565b815260200161064186610120015190565b905061232b8382612c0f565b6123665760405162461bcd60e51b815260206004820152600c60248201526b7472696767657241626f766560a01b6044820152606401610692565b60008261237e57600b546001600160a01b031661238b565b600a546001600160a01b03165b9050806001600160a01b03166398ddd3196123a5866137f7565b6040518263ffffffff1660e01b81526004016123c391815260200190565b610160604051808303816000875af11580156123e3573d6000803e3d6000fd5b505050506040513d601f19601f8201168201806040525081019061240791906151c0565b505050610dad6001600e55565b61241c6130ad565b600c54604080516389be278160e01b815290516000926001600160a01b0316916389be27819160048083019260209291908290030181865afa158015612466573d6000803e3d6000fd5b505050506040513d601f19601f8201168201806040525081019061248a9190615402565b90506000816001600160a01b03166000366040516124a99291906155cf565b600060405180830381855af49150503d80600081146124e4576040519150601f19603f3d011682016040523d82523d6000602084013e6124e9565b606091505b50509050806116625760405162461bcd60e51b815260206004820152602560248201527f6d61726b65743a6465637265617365506f736974696f6e46726f6d4f726465726044820152640819985a5b60da1b6064820152608401610692565b6125506130ad565b60408051808201909152601a8152791a5b98dc99585cd950dbdb1b185d195c985b0bd858d8dbdd5b9d60321b6020820152339061258c90612878565b61259581613259565b60095460405163118272bf60e31b8152600091829182916001600160a01b031690638c1395f8906125ce90879030908a9060040161537e565b60e060405180830381865afa1580156125eb573d6000803e3d6000fd5b505050506040513d601f19601f8201168201806040525081019061260f91906153a2565b50505050925092509250612622836128be565b61262b826128be565b60085460405163ddb3d1a760e01b81526000916001600160a01b03169063ddb3d1a79061266090889030908b9060040161537e565b602060405180830381865afa15801561267d573d6000803e3d6000fd5b505050506040513d601f19601f820116820180604052508101906126a1919061529f565b905060006126ad612c35565b9050806001600160a01b031663eb5f9ba6826001600160a01b031663177927296040518163ffffffff1660e01b8152600401602060405180830381865afa1580156126fc573d6000803e3d6000fd5b505050506040513d601f19601f8201168201806040525081019061272091906156ea565b6002878c8a6000896040518863ffffffff1660e01b815260040161274a979695949392919061572b565b60006040518083038186803b15801561276257600080fd5b505afa158015612776573d6000803e3d6000fd5b5050600654600c546127a893506001600160a01b039182169250899130918d91811690600160b01b900460ff16612cac565b600954604051630a2eb75760e11b81526001600160a01b039091169063145d6eae906127e390899030908d9060009081908f9060040161575c565b600060405180830381600087803b1580156127fd57600080fd5b505af1158015612811573d6000803e3d6000fd5b50506006546005546040516001600160a01b03808c169550600080516020615bd48339815191529450612860938e936000938f938c938693849384938493309390821692911690600290615792565b60405180910390a2505050505050610dad6001600e55565b6128bb8160405160240161288c9190615821565b60408051601f198184030181529190526020810180516001600160e01b031663104c13eb60e21b179052613832565b50565b6128bb816040516024016128d491815260200190565b60408051601f198184030181529190526020810180516001600160e01b031663f82c50f160e01b179052613832565b600061292960405180606001604052806000815260200160008152602001600081525090565b6009548351608085015160405163118272bf60e31b81526001600160a01b0390931692638c1395f89261296392909130919060040161537e565b60e060405180830381865afa158015612980573d6000803e3d6000fd5b505050506040513d601f19601f820116820180604052508101906129a491906153a2565b5050505050602083015281526129ba8382613853565b915060008360e001516000141580156129e357506080840151606085015160e086015111901515145b90506000846101000151600014158015612a0f5750846101000151856060015111151585608001511515145b9050818015612a1b5750805b15612b40576000612a9c60405180610100016040528088600001516001600160a01b0316815260200188604001518152602001600081526020018860e00151815260200188608001511515815260200186602001518152602001886040015181526020018860800151612a8f576002612a92565b60015b60ff169052613379565b90506000612b0f60405180610100016040528089600001516001600160a01b03168152602001896040015181526020016000815260200189610100015181526020018960800151151581526020018760200151815260200189604001518152602001896080015115612a8f576002612a92565b9050612b25612b1d826137f7565b610120840152565b612b39612b31836137f7565b610120830152565b5050612c07565b8180612b495750805b15612c075760008215612b70578560800151612b66576002612b69565b60015b9050612b87565b856080015115612b81576002612b84565b60015b90505b6000612c0360405180610100016040528089600001516001600160a01b03168152602001896040015181526020016000815260200186612bcc57896101000151612bd2565b8960e001515b815260200189608001511515815260200187602001518152602001896040015181526020018460ff16815250613379565b5050505b505050919050565b60c08201516000906001600160801b03168211612c2b84613ef2565b1515149392505050565b600c5460405163563eccdb60e11b81526000916001600160a01b03169063ac7d99b690612c6690309060040161495b565b602060405180830381865afa158015612c83573d6000803e3d6000fd5b505050506040513d601f19601f82011682018060405250810190612ca79190615402565b905090565b856120208686612cbd878787613f68565b6001600160a01b038516929190614066565b612cd76148ad565b6001600160a01b0386166060820152612cef8461329c565b6001600160801b031660c082015260a08101859052610120810182905261014081018390525b95945050505050565b60085460a08401516040516320b613eb60e21b81526001600160a01b039092169160009183916382d84fac91612d599130919060040161568f565b602060405180830381865afa158015612d76573d6000803e3d6000fd5b505050506040513d601f19601f82011682018060405250810190612d9a919061529f565b6040516309d3989760e01b81526001600160a01b038416906309d3989790612dc690309060040161495b565b602060405180830381865afa158015612de3573d6000803e3d6000fd5b505050506040513d601f19601f82011682018060405250810190612e07919061529f565b612e1191906156be565b600c5460405163563eccdb60e11b81529192506001600160a01b03169063ac7d99b690612e4290309060040161495b565b602060405180830381865afa158015612e5f573d6000803e3d6000fd5b505050506040513d601f19601f82011682018060405250810190612e839190615402565b6001600160a01b0316637b2aa104858760a001518860c00151612ea88a610140015190565b6101208b01516040516001600160e01b031960e088901b168152600481019590955260248501939093526001600160801b0390911660448401526064830152608482015285151560a482015260c4810184905260e401602060405180830381865afa158015612f1b573d6000803e3d6000fd5b505050506040513d601f19601f82011682018060405250810190612f3f919061529f565b608086015260c0850151612f67906001600160801b0316612f5f856140be565b87911161418b565b600083612f7f57600b546001600160a01b0316612f8c565b600a546001600160a01b03165b6001600160a01b031663832ca0c9876040518263ffffffff1660e01b8152600401612fb791906154bd565b610160604051808303816000875af1158015612fd7573d6000803e3d6000fd5b505050506040513d601f19601f82011682018060405250810190612ffb91906151c0565b905061303a6040518060400160405280601781526020017667656e6572617465644f726465722e73697a653a20257360481b8152508260a001516141a9565b80606001516001600160a01b0316600080516020615b8c833981519152856001846101000151308660a0015187608001518860c0015189604001516130818b610140015190565b6101208c015160405161309d9a99989796959493929190615573565b60405180910390a2505050505050565b6002600e54036130ff5760405162461bcd60e51b815260206004820152601f60248201527f5265656e7472616e637947756172643a207265656e7472616e742063616c6c006044820152606401610692565b6002600e55565b6000828260405160200161311b929190615834565b60405160208183030381529060405280519060200120905092915050565b8461315a85613149868686613f68565b6001600160a01b03841691906141ee565b505050505050565b6128bb813361420d565b6131768282610ff9565b610dad576000828152600f602090815260408083206001600160a01b03851684529091529020805460ff191660011790556131ae3390565b6001600160a01b0316816001600160a01b0316837f2f8788117e7eff1d82e926ec794901d17c78024a50270940304540a733656f0d60405160405180910390a45050565b6131fc8282610ff9565b15610dad576000828152600f602090815260408083206001600160a01b0385168085529252808320805460ff1916905551339285917ff6391f5c32d9c69d2a47ea670b442974b53935d1edc7fd64eb21e047a839171b9190a45050565b6128bb8160405160240161326d919061495b565b60408051601f198184030181529190526020810180516001600160e01b031663161765e160e11b179052613832565b60006001600160801b038211156133055760405162461bcd60e51b815260206004820152602760248201527f53616665436173743a2076616c756520646f65736e27742066697420696e20316044820152663238206269747360c81b6064820152608401610692565b5090565b60405181151560248201526128bb9060440160408051601f198184030181529190526020810180516001600160e01b03166332458eed60e01b179052613832565b6000841561336e578361335d8484615851565b6133679190615868565b9050610ff1565b506000949350505050565b6133816148ad565b613389614909565b6133aa604051806060016040528060258152602001615bf460259139612878565b6133b78360c001516128be565b6133c483602001516128be565b600c5460405163563eccdb60e11b81526000916001600160a01b03169063ac7d99b6906133f590309060040161495b565b602060405180830381865afa158015613412573d6000803e3d6000fd5b505050506040513d601f19601f820116820180604052508101906134369190615402565b60085460c08601516040516347a994e960e01b81529293506001600160a01b03909116916347a994e991613479916000913091600191908290859060040161541f565b608060405180830381865afa158015613496573d6000803e3d6000fd5b505050506040513d601f19601f820116820180604052508101906134ba9190615457565b606086015260408086019190915260208086019290925282855260a08701518782015160c089015193890151925163f6b8515b60e01b81526001600160a01b0387169563f6b8515b9561351495909290919060040161548d565b602060405180830381865afa158015613531573d6000803e3d6000fd5b505050506040513d601f19601f82011682018060405250810190613555919061529f565b5083516080850151604080516001600160601b0319606094851b81166020808401919091523090951b16603482015291151560f81b6048830152805180830360290181526049909201905280519101208460e0015160ff166000036135e0576135db8460c001516001600160801b03166135d38760800151156140be565b86911161418b565b6135ee565b60e085015160ff1660408501525b84516001600160a01b031660608086019190915285015161360e9061329c565b6001600160801b031660c0850152602085015160a08501526040850151608085015261014084018190526000856080015161365457600b546001600160a01b0316613661565b600a546001600160a01b03165b9050613684604051806060016040528060288152602001615bac60289139612878565b613709816001600160a01b03166317bf4fd661369f886137f7565b6040518263ffffffff1660e01b81526004016136bd91815260200190565b61016060405180830381865afa1580156136db573d6000803e3d6000fd5b505050506040513d601f19601f820116820180604052508101906136ff91906151c0565b61010001516128be565b604051634fb1cc1760e11b81526000906001600160a01b03831690639f63982e906137389089906004016154bd565b610160604051808303816000875af1158015613758573d6000803e3d6000fd5b505050506040513d601f19601f8201168201806040525081019061377c91906151c0565b905080606001516001600160a01b0316600080516020615b8c83398151915288608001516000846101000151308660a001518d604001518860c0015189604001516137c98b610140015190565b6101208c01516040516137e59a99989796959493929190615573565b60405180910390a25050505050919050565b60008160600151826101000151604051602001613815929190615834565b604051602081830303815290604052805190602001209050919050565b80516a636f6e736f6c652e6c6f67602083016000808483855afa5050505050565b600061385e83614266565b61389f5760405162461bcd60e51b81526020600482015260126024820152716d6b743a696e76616c696420706172616d7360701b6044820152606401610692565b60006138a9612c35565b90506000816001600160a01b031663177927296040518163ffffffff1660e01b8152600401602060405180830381865afa1580156138eb573d6000803e3d6000fd5b505050506040513d601f19601f8201168201806040525081019061390f91906156ea565b845160408781015190516335ab1cbf60e01b81528351600482015260248101929092526044820152600160648201529091506001600160a01b038316906335ab1cbf9060840160006040518083038186803b15801561396d57600080fd5b505afa158015613981573d6000803e3d6000fd5b505050506139b860405180604001604052806012815260200171666565526f757465725f2e6765744665657360701b815250612878565b6008546139cd906001600160a01b0316613259565b6139d5614909565b600854865160808801516040808a015160c08b015191516347a994e960e01b81526001600160a01b03909516946347a994e994613a1d9490933093919260019060040161541f565b608060405180830381865afa158015613a3a573d6000803e3d6000fd5b505050506040513d601f19601f82011682018060405250810190613a5e9190615457565b606085015260408401526020830152808252613a79906128be565b6020808601519087015186516040808a0151855191516375afcdd360e11b81526001600160a01b0389169563eb5f9ba695613ac1958a9560019593949293919260040161572b565b60006040518083038186803b158015613ad957600080fd5b505afa158015613aed573d6000803e3d6000fd5b50505050613b246040518060400160405280601281526020017176616c6964536c697070616765507269636560701b815250612878565b6060860151608087015160a088015160405163037c3c9b60e01b815285516004820152602481019390935290151560448301526064820152600160848201526001600160a01b0384169063037c3c9b9060a401602060405180830381865afa158015613b94573d6000803e3d6000fd5b505050506040513d601f19601f82011682018060405250810190613bb8919061529f565b9350613bf86040518060400160405280601c81526020017b2fb4b731b932b0b9b2a837b9b4ba34b7b71736b0b935a83934b1b29d60211b815250856141a9565b80516020870151613c089061429b565b13613c405760405162461bcd60e51b81526020600482015260086024820152677061793c6665657360c01b6044820152606401610692565b6000613c668260000151613c57896020015161429b565b613c61919061588a565b614305565b60095488516040808b015160808c01519151630a2eb75760e11b81529495506001600160a01b039093169363145d6eae93613cab939230928892918d9160040161575c565b600060405180830381600087803b158015613cc557600080fd5b505af1158015613cd9573d6000803e3d6000fd5b5050885160808a015160095460085460405163a690c69f60e01b81526001600160a01b0394851660048201523060248201529215156044840152908316606483015282166084820152908716925063a690c69f915060a401602060405180830381865afa158015613d4e573d6000803e3d6000fd5b505050506040513d601f19601f82011682018060405250810190613d72919061529f565b15613dbc5760405162461bcd60e51b815260206004820152601a602482015279616374696f6e276c6c20726573756c74206c697175696461746560301b6044820152606401610692565b600854875160608401516040808601516020870151915163169fef1960e31b81526001600160a01b0394851660048201523060248201526044810193909352600060648401819052608484019190915260a483015260c482015291169063b4ff78c89060e401600060405180830381600087803b158015613e3c57600080fd5b505af1158015613e50573d6000803e3d6000fd5b5050505086600001516001600160a01b0316600080516020615bd48339815191528289604001518a60800151896000886020015189604001518a6060015130600660009054906101000a90046001600160a01b0316600560009054906101000a90046001600160a01b03166000604051613ed59c9b9a99989796959493929190615792565b60405180910390a28151613ee890614357565b5050505092915050565b6000816040015160ff16600103613f0b57506001919050565b816040015160ff16600203613f2257506000919050565b60405162461bcd60e51b815260206004820152601b60248201527a696e76616c6964206f7264657220747269676765722061626f766560281b6044820152606401610692565b600080614041846001600160a01b031663ac7d99b6306040518263ffffffff1660e01b8152600401613f9a919061495b565b602060405180830381865afa158015613fb7573d6000803e3d6000fd5b505050506040513d601f19601f82011682018060405250810190613fdb9190615402565b6001600160a01b031663177927296040518163ffffffff1660e01b8152600401602060405180830381865afa158015614018573d6000803e3d6000fd5b505050506040513d601f19601f8201168201806040525081019061403c91906156ea565b6144ee565b90508061405260ff8516600a615995565b61405c9087615851565b612d159190615868565b61080b846323b872dd60e01b858585604051602401614087939291906159a1565b60408051601f198184030181529190526020810180516001600160e01b03166001600160e01b031990931692909217909152614504565b600c5460405163b25b41b760e01b815260009182916001600160a01b039091169063b25b41b7906140f390309060040161495b565b602060405180830381865afa158015614110573d6000803e3d6000fd5b505050506040513d601f19601f820116820180604052508101906141349190615402565b6005546040516303b6b4bb60e51b81526001600160a01b03918216600482015285151560248201529192508291908216906376d6976090604401602060405180830381865afa158015610fcd573d6000803e3d6000fd5b8061419757600261419a565b60015b60ff1660409092019190915250565b610dad82826040516024016141bf9291906159c5565b60408051601f198184030181529190526020810180516001600160e01b0316632d839cb360e21b179052613832565b610c628363a9059cbb60e01b848460405160240161408792919061568f565b6142178282610ff9565b610dad57614224816145d6565b61422f8360206145e8565b6040516020016142409291906159e7565b60408051601f198184030181529082905262461bcd60e51b825261069291600401615821565b6000816040015160000361427c57506000919050565b81516001600160a01b031661429357506000919050565b506001919050565b60006001600160ff1b038211156133055760405162461bcd60e51b815260206004820152602860248201527f53616665436173743a2076616c756520646f65736e27742066697420696e2061604482015267371034b73a191a9b60c11b6064820152608401610692565b6000808212156133055760405162461bcd60e51b815260206004820181905260248201527f53616665436173743a2076616c7565206d75737420626520706f7369746976656044820152606401610692565b6143886040518060400160405280601081526020016f5f7472616e736174696f6e734665657360801b815250612878565b6000811215614458576143ba60405180604001604052806008815260200167066656573203c20360c41b815250612878565b6143e6604051806040016040528060018152602001602d60f81b815250826143e190615a56565b6141a9565b6004546006546001600160a01b039182169163d9caed1291163061440c85600019615a72565b6040518463ffffffff1660e01b815260040161442a939291906159a1565b600060405180830381600087803b15801561444457600080fd5b505af1158015611b0a573d6000803e3d6000fd5b60008113156144c35761448a60405180604001604052806008815260200167066656573203e20360c41b815250612878565b614493816128be565b600654600454600c546128bb926001600160a01b03908116928116918591811690600160b01b900460ff16613139565b6128bb6040518060400160405280600a81526020016966656573203d3d20303b60b01b815250612878565b80516000906105089060701c60ff16600a615995565b6000614559826040518060400160405280602081526020017f5361666545524332303a206c6f772d6c6576656c2063616c6c206661696c6564815250856001600160a01b031661478a9092919063ffffffff16565b805190915015610c6257808060200190518101906145779190615aa2565b610c625760405162461bcd60e51b815260206004820152602a60248201527f5361666545524332303a204552433230206f7065726174696f6e20646964206e6044820152691bdd081cdd58d8d9595960b21b6064820152608401610692565b60606105086001600160a01b03831660145b606060006145f7836002615851565b6146029060026156be565b6001600160401b0381111561461957614619614abd565b6040519080825280601f01601f191660200182016040528015614643576020820181803683370190505b509050600360fc1b8160008151811061465e5761465e6152b8565b60200101906001600160f81b031916908160001a905350600f60fb1b8160018151811061468d5761468d6152b8565b60200101906001600160f81b031916908160001a90535060006146b1846002615851565b6146bc9060016156be565b90505b6001811115614734576f181899199a1a9b1b9c1cb0b131b232b360811b85600f16601081106146f0576146f06152b8565b1a60f81b828281518110614706576147066152b8565b60200101906001600160f81b031916908160001a90535060049490941c9361472d81615abf565b90506146bf565b5083156147835760405162461bcd60e51b815260206004820181905260248201527f537472696e67733a20686578206c656e67746820696e73756666696369656e746044820152606401610692565b9392505050565b6060610ff1848460008585600080866001600160a01b031685876040516147b1919061564e565b60006040518083038185875af1925050503d80600081146147ee576040519150601f19603f3d011682016040523d82523d6000602084013e6147f3565b606091505b50915091506148048783838761480f565b979650505050505050565b6060831561487e578251600003614877576001600160a01b0385163b6148775760405162461bcd60e51b815260206004820152601d60248201527f416464726573733a2063616c6c20746f206e6f6e2d636f6e74726163740000006044820152606401610692565b5081610ff1565b610ff183838151156148935781518083602001fd5b8060405162461bcd60e51b81526004016106929190615821565b6040805161016081018252600080825260208201819052918101829052606081018290526080810182905260a0810182905260c0810182905260e081018290526101008101829052610120810182905261014081019190915290565b6040518060800160405280600081526020016000815260200160008152602001600081525090565b60006020828403121561494357600080fd5b81356001600160e01b03198116811461478357600080fd5b6001600160a01b0391909116815260200190565b6001600160a01b03811681146128bb57600080fd5b80151581146128bb57600080fd5b803561499d81614984565b919050565b600080600080608085870312156149b857600080fd5b8435935060208501356149ca8161496f565b925060408501356149da81614984565b915060608501356149ea81614984565b939692955090935050565b60008060008060008060008060006101208a8c031215614a1457600080fd5b8935614a1f81614984565b985060208a0135975060408a0135965060608a0135955060808a0135945060a08a0135935060c08a0135925060e08a0135614a5981614984565b91506101008a0135614a6a81614984565b809150509295985092959850929598565b600080600060608486031215614a9057600080fd5b8335614a9b81614984565b9250602084013591506040840135614ab281614984565b809150509250925092565b634e487b7160e01b600052604160045260246000fd5b60405161016081016001600160401b0381118282101715614af657614af6614abd565b60405290565b604051601f8201601f191681016001600160401b0381118282101715614b2457614b24614abd565b604052919050565b60006001600160401b03821115614b4557614b45614abd565b5060051b60200190565b600082601f830112614b6057600080fd5b81356020614b75614b7083614b2c565b614afc565b82815260059290921b84018101918181019086841115614b9457600080fd5b8286015b84811015614bb8578035614bab81614984565b8352918301918301614b98565b509695505050505050565b600080600060608486031215614bd857600080fd5b83356001600160401b0380821115614bef57600080fd5b614bfb87838801614b4f565b9450602091508186013581811115614c1257600080fd5b8601601f81018813614c2357600080fd5b8035614c31614b7082614b2c565b81815260059190911b8201840190848101908a831115614c5057600080fd5b928501925b82841015614c6e57833582529285019290850190614c55565b96505050506040860135915080821115614c8757600080fd5b50614c9486828701614b4f565b9150509250925092565b600060208284031215614cb057600080fd5b5035919050565b803561499d8161496f565b60008060408385031215614cd557600080fd5b823591506020830135614ce78161496f565b809150509250929050565b600060208284031215614d0457600080fd5b813561478381614984565b60008060008060008060008060008060006101608c8e031215614d3157600080fd5b8b35614d3c8161496f565b9a5060208c0135614d4c8161496f565b995060408c0135614d5c8161496f565b985060608c0135614d6c8161496f565b975060808c0135614d7c8161496f565b965060a08c0135614d8c8161496f565b955060c08c0135614d9c8161496f565b945060e08c0135614dac8161496f565b93506101008c0135614dbd8161496f565b9250614dcc6101208d01614cb7565b9150614ddb6101408d01614cb7565b90509295989b509295989b9093969950565b60008060408385031215614e0057600080fd5b823591506020830135614ce781614984565b600080600060608486031215614e2757600080fd5b83359250602084013591506040840135614ab281614984565b600082601f830112614e5157600080fd5b81356020614e61614b7083614b2c565b82815260059290921b84018101918181019086841115614e8057600080fd5b8286015b84811015614bb85780358352918301918301614e84565b60008060408385031215614eae57600080fd5b82356001600160401b03811115614ec457600080fd5b614ed085828601614e40565b9250506020830135614ce781614984565b600080600080600060a08688031215614ef957600080fd5b853594506020860135935060408601359250606086013591506080860135614f2081614984565b809150509295509295909350565b600080600060608486031215614f4357600080fd5b83356001600160401b03811115614f5957600080fd5b614f6586828701614e40565b9350506020840135614f7681614984565b91506040840135614ab281614984565b60008060408385031215614f9957600080fd5b8235614fa48161496f565b91506020830135614ce781614984565b600080600080600080600060e0888a031215614fcf57600080fd5b8735614fda81614984565b9650602088013595506040880135614ff181614984565b9450606088013593506080880135925060a088013561500f81614984565b915060c088013561501f81614984565b8091505092959891949750929550565b6000806000806080858703121561504557600080fd5b843593506020850135925060408501356149da81614984565b60ff811681146128bb57600080fd5b803561499d8161505e565b63ffffffff811681146128bb57600080fd5b803561499d81615078565b6001600160801b03811681146128bb57600080fd5b803561499d81615095565b6000808284036101808112156150ca57600080fd5b610160808212156150da57600080fd5b6150e2614ad3565b91506150ed8561506d565b82526150fb6020860161508a565b602083015261510c6040860161506d565b604083015261511d60608601614cb7565b60608301526080850135608083015260a085013560a083015261514260c086016150aa565b60c083015261515360e086016150aa565b60e08301526101008581013590830152610120808601359083015261014080860135908301529092508290615189818601614992565b925050509250929050565b805161499d8161505e565b805161499d81615078565b805161499d8161496f565b805161499d81615095565b600061016082840312156151d357600080fd5b6151db614ad3565b6151e483615194565b81526151f26020840161519f565b602082015261520360408401615194565b6040820152615214606084016151aa565b60608201526080830151608082015260a083015160a082015261523960c084016151b5565b60c082015261524a60e084016151b5565b60e082015261010083810151908201526101208084015190820152610140928301519281019290925250919050565b9315158452911515602084015260408301526001600160a01b0316606082015260800190565b6000602082840312156152b157600080fd5b5051919050565b634e487b7160e01b600052603260045260246000fd5b6000602082840312156152e057600080fd5b81516147838161505e565b6000806000806000806000806000806101408b8d03121561530b57600080fd5b8a5161531681614984565b60208c0151909a506153278161505e565b60408c015160608d0151919a50985061533f8161496f565b8097505060808b0151955060a08b0151945060c08b0151935060e08b015192506101008b015191506101208b015190509295989b9194979a5092959850565b6001600160a01b039384168152919092166020820152901515604082015260600190565b600080600080600080600060e0888a0312156153bd57600080fd5b875196506020880151955060408801519450606088015193506080880151925060a08801516153eb81614984565b8092505060c0880151905092959891949750929550565b60006020828403121561541457600080fd5b81516147838161496f565b6001600160a01b039687168152949095166020850152911515604084015260608301521515608082015290151560a082015260c00190565b6000806000806080858703121561546d57600080fd5b505082516020840151604085015160609095015191969095509092509050565b948552602085019390935260408401919091526060830152608082015260a00190565b6001600160801b03169052565b815160ff168152610160810160208301516154e0602084018263ffffffff169052565b5060408301516154f5604084018260ff169052565b50606083015161551060608401826001600160a01b03169052565b506080830151608083015260a083015160a083015260c083015161553760c08401826154b0565b5060e083015161554a60e08401826154b0565b506101008381015190830152610120808401519083015261014092830151929091019190915290565b9915158a5297151560208a015260408901969096526001600160a01b03949094166060880152608087019290925260a08601526001600160801b031660c085015260ff1660e08401526101008301526101208201526101400190565b8183823760009101908152919050565b604080825283519082018190526000906020906060840190828701845b82811015615618578151845292840192908401906001016155fc565b50505093151592019190915250919050565b60005b8381101561564557818101518382015260200161562d565b50506000910152565b6000825161566081846020870161562a565b9190910192915050565b6020808252600b908201526a6d6b743a6c697120706f7360a81b604082015260600190565b6001600160a01b03929092168252602082015260400190565b634e487b7160e01b600052601160045260246000fd5b80820180821115610508576105086156a8565b6000600182016156e3576156e36156a8565b5060010190565b6000602082840312156156fc57600080fd5b604051602081016001600160401b038111828210171561571e5761571e614abd565b6040529151825250919050565b96518752602087019590955260408601939093526060850191909152608084015260a083015260c082015260e00190565b6001600160a01b03968716815294909516602085015260408401929092526060830152608082015290151560a082015260c00190565b9b8c5260208c019a909a5297151560408b015260608a0196909652608089019490945260a088019290925260c087015260e08601526001600160a01b03908116610100860152908116610120850152166101408301526101608201526101800190565b6000815180845261580d81602086016020860161562a565b601f01601f19169290920160200192915050565b60208152600061478360208301846157f5565b60609290921b6001600160601b0319168252601482015260340190565b8082028115828204841417610508576105086156a8565b60008261588557634e487b7160e01b600052601260045260246000fd5b500490565b81810360008312801583831316838312821617156158aa576158aa6156a8565b5092915050565b600181815b808511156158ec5781600019048211156158d2576158d26156a8565b808516156158df57918102915b93841c93908002906158b6565b509250929050565b60008261590357506001610508565b8161591057506000610508565b816001811461592657600281146159305761594c565b6001915050610508565b60ff841115615941576159416156a8565b50506001821b610508565b5060208310610133831016604e8410600b841016171561596f575081810a610508565b61597983836158b1565b806000190482111561598d5761598d6156a8565b029392505050565b600061478383836158f4565b6001600160a01b039384168152919092166020820152604081019190915260600190565b6040815260006159d860408301856157f5565b90508260208301529392505050565b76020b1b1b2b9b9a1b7b73a3937b61d1030b1b1b7bab73a1604d1b815260008351615a1981601785016020880161562a565b7001034b99036b4b9b9b4b733903937b6329607d1b6017918401918201528351615a4a81602884016020880161562a565b01602801949350505050565b6000600160ff1b8201615a6b57615a6b6156a8565b5060000390565b80820260008212600160ff1b84141615615a8e57615a8e6156a8565b8181058314821517610508576105086156a8565b600060208284031215615ab457600080fd5b815161478381614984565b600081615ace57615ace6156a8565b50600019019056fe4d61726b65742e736f6c2f6465637265617365436f6c6c61746572616c2f6163636f756e746d61726b65742f696e697469617a6c697a652f5f6164647265737350726f76696465722d2d2d2d2d2d2d2d2d2d2d2d2d756470617465206465637265617365206f726465722d2d2d2d2d2d2d2d2d2d2dfb248bbb6ca5a799a6bb9ba79f58aa5cdbe0e5979238a967315e7ffbfd119d1a41821a71fcd4fd9aecd428014f9b7f61fb3bea3424e8a828796db51ad474a275b8c5fff75533427c858123e48aded65d11f0a9bac29ddb7ab0b9a46232abc8e52d2d2d2d2d2d2d2d2d2d2d637265617465206465637265617365206f726465722069642d2d2d2d2dfc1f8b40dd27177b575feb8190e47ed65af3a506a9e92b5df7e089b4b1a3626a2d2d2d2d2d2d6d61726b65742e736f6c2f5f63726561746544656372656173654f7264657222a23cce23bf58a4bb883d7a75b1cff31ed1bd99fac269b47537be26f53235cda2646970667358221220fd794e275d218e781116c7d7f96bbb55b041a0a67b3751d7a3b35bc31333d65864736f6c63430008110033",
  "linkReferences": {},
  "deployedLinkReferences": {}
}