{
  "_format": "hh-sol-artifact-1",
  "contractName": "Market",
  "sourceName": "contracts/market/Market.sol",
  "abi": [
    {
      "inputs": [
        {
          "internalType": "string",
          "name": "_name",
          "type": "string"
        }
      ],
      "stateMutability": "nonpayable",
      "type": "constructor"
    },
    {
      "anonymous": false,
      "inputs": [
        {
          "indexed": true,
          "internalType": "address",
          "name": "account",
          "type": "address"
        },
        {
          "indexed": false,
          "internalType": "bool",
          "name": "isLong",
          "type": "bool"
        },
        {
          "indexed": false,
          "internalType": "bool",
          "name": "isIncrease",
          "type": "bool"
        },
        {
          "indexed": false,
          "internalType": "uint256",
          "name": "orderID",
          "type": "uint256"
        },
        {
          "indexed": false,
          "internalType": "address",
          "name": "market",
          "type": "address"
        }
      ],
      "name": "DeleteOrder",
      "type": "event"
    },
    {
      "anonymous": false,
      "inputs": [
        {
          "indexed": true,
          "internalType": "bytes32",
          "name": "role",
          "type": "bytes32"
        },
        {
          "indexed": true,
          "internalType": "bytes32",
          "name": "previousAdminRole",
          "type": "bytes32"
        },
        {
          "indexed": true,
          "internalType": "bytes32",
          "name": "newAdminRole",
          "type": "bytes32"
        }
      ],
      "name": "RoleAdminChanged",
      "type": "event"
    },
    {
      "anonymous": false,
      "inputs": [
        {
          "indexed": true,
          "internalType": "bytes32",
          "name": "role",
          "type": "bytes32"
        },
        {
          "indexed": true,
          "internalType": "address",
          "name": "account",
          "type": "address"
        },
        {
          "indexed": true,
          "internalType": "address",
          "name": "sender",
          "type": "address"
        }
      ],
      "name": "RoleGranted",
      "type": "event"
    },
    {
      "anonymous": false,
      "inputs": [
        {
          "indexed": true,
          "internalType": "bytes32",
          "name": "role",
          "type": "bytes32"
        },
        {
          "indexed": true,
          "internalType": "address",
          "name": "account",
          "type": "address"
        },
        {
          "indexed": true,
          "internalType": "address",
          "name": "sender",
          "type": "address"
        }
      ],
      "name": "RoleRevoked",
      "type": "event"
    },
    {
      "anonymous": false,
      "inputs": [
        {
          "indexed": true,
          "internalType": "address",
          "name": "account",
          "type": "address"
        },
        {
          "indexed": false,
          "internalType": "bool",
          "name": "isLong",
          "type": "bool"
        },
        {
          "indexed": false,
          "internalType": "bool",
          "name": "isIncrease",
          "type": "bool"
        },
        {
          "indexed": false,
          "internalType": "uint256",
          "name": "orderID",
          "type": "uint256"
        },
        {
          "indexed": false,
          "internalType": "address",
          "name": "market",
          "type": "address"
        },
        {
          "indexed": false,
          "internalType": "uint256",
          "name": "size",
          "type": "uint256"
        },
        {
          "indexed": false,
          "internalType": "uint256",
          "name": "collateral",
          "type": "uint256"
        },
        {
          "indexed": false,
          "internalType": "uint256",
          "name": "triggerPrice",
          "type": "uint256"
        },
        {
          "indexed": false,
          "internalType": "uint256",
          "name": "tp",
          "type": "uint256"
        },
        {
          "indexed": false,
          "internalType": "uint256",
          "name": "sl",
          "type": "uint256"
        }
      ],
      "name": "UpdateOrder",
      "type": "event"
    },
    {
      "anonymous": false,
      "inputs": [
        {
          "indexed": true,
          "internalType": "address",
          "name": "account",
          "type": "address"
        },
        {
          "indexed": false,
          "internalType": "uint256",
          "name": "collateralDelta",
          "type": "uint256"
        },
        {
          "indexed": false,
          "internalType": "uint256",
          "name": "sizeDelta",
          "type": "uint256"
        },
        {
          "indexed": false,
          "internalType": "bool",
          "name": "isLong",
          "type": "bool"
        },
        {
          "indexed": false,
          "internalType": "uint256",
          "name": "price",
          "type": "uint256"
        },
        {
          "indexed": false,
          "internalType": "int256",
          "name": "pnl",
          "type": "int256"
        },
        {
          "indexed": false,
          "internalType": "uint256",
          "name": "execFee",
          "type": "uint256"
        },
        {
          "indexed": false,
          "internalType": "int256",
          "name": "fundFee",
          "type": "int256"
        },
        {
          "indexed": false,
          "internalType": "uint256",
          "name": "tradeFee",
          "type": "uint256"
        },
        {
          "indexed": false,
          "internalType": "address",
          "name": "market",
          "type": "address"
        },
        {
          "indexed": false,
          "internalType": "address",
          "name": "collateralToken",
          "type": "address"
        },
        {
          "indexed": false,
          "internalType": "address",
          "name": "indexToken",
          "type": "address"
        },
        {
          "indexed": false,
          "internalType": "uint256",
          "name": "category",
          "type": "uint256"
        }
      ],
      "name": "UpdatePosition",
      "type": "event"
    },
    {
      "inputs": [],
      "name": "DEFAULT_ADMIN_ROLE",
      "outputs": [
        {
          "internalType": "bytes32",
          "name": "",
          "type": "bytes32"
        }
      ],
      "stateMutability": "view",
      "type": "function"
    },
    {
      "inputs": [],
      "name": "ROLE_FACTORY",
      "outputs": [
        {
          "internalType": "bytes32",
          "name": "",
          "type": "bytes32"
        }
      ],
      "stateMutability": "view",
      "type": "function"
    },
    {
      "inputs": [],
      "name": "ROLE_POS_KEEPER",
      "outputs": [
        {
          "internalType": "bytes32",
          "name": "",
          "type": "bytes32"
        }
      ],
      "stateMutability": "view",
      "type": "function"
    },
    {
      "inputs": [
        {
          "internalType": "bool",
          "name": "_isIncrease",
          "type": "bool"
        },
        {
          "internalType": "uint256",
          "name": "_orderID",
          "type": "uint256"
        },
        {
          "internalType": "bool",
          "name": "_isLong",
          "type": "bool"
        }
      ],
      "name": "cancelOrder",
      "outputs": [],
      "stateMutability": "nonpayable",
      "type": "function"
    },
    {
      "inputs": [
        {
          "internalType": "bool[]",
          "name": "_isIncreaseList",
          "type": "bool[]"
        },
        {
          "internalType": "uint256[]",
          "name": "_orderIDList",
          "type": "uint256[]"
        },
        {
          "internalType": "bool[]",
          "name": "_isLongList",
          "type": "bool[]"
        }
      ],
      "name": "cancelOrderList",
      "outputs": [],
      "stateMutability": "nonpayable",
      "type": "function"
    },
    {
      "inputs": [],
      "name": "collateralToken",
      "outputs": [
        {
          "internalType": "address",
          "name": "",
          "type": "address"
        }
      ],
      "stateMutability": "view",
      "type": "function"
    },
    {
      "inputs": [
        {
          "internalType": "uint256",
          "name": "",
          "type": "uint256"
        },
        {
          "internalType": "bool",
          "name": "",
          "type": "bool"
        }
      ],
      "name": "decreaseCollateral",
      "outputs": [],
      "stateMutability": "nonpayable",
      "type": "function"
    },
    {
      "inputs": [
        {
          "components": [
            {
              "internalType": "uint8",
              "name": "version",
              "type": "uint8"
            },
            {
              "internalType": "uint32",
              "name": "updatedAtBlock",
              "type": "uint32"
            },
            {
              "internalType": "uint8",
              "name": "triggerAbove",
              "type": "uint8"
            },
            {
              "internalType": "address",
              "name": "account",
              "type": "address"
            },
            {
              "internalType": "uint256",
              "name": "collateral",
              "type": "uint256"
            },
            {
              "internalType": "uint256",
              "name": "size",
              "type": "uint256"
            },
            {
              "internalType": "uint128",
              "name": "price",
              "type": "uint128"
            },
            {
              "internalType": "uint128",
              "name": "priceExtra",
              "type": "uint128"
            },
            {
              "internalType": "uint256",
              "name": "orderID",
              "type": "uint256"
            },
            {
              "internalType": "uint256",
              "name": "extra0",
              "type": "uint256"
            },
            {
              "internalType": "uint256",
              "name": "extra1",
              "type": "uint256"
            }
          ],
          "internalType": "struct Order.Props",
          "name": "",
          "type": "tuple"
        },
        {
          "internalType": "bool",
          "name": "",
          "type": "bool"
        }
      ],
      "name": "decreasePositionFromOrder",
      "outputs": [],
      "stateMutability": "nonpayable",
      "type": "function"
    },
    {
      "inputs": [
        {
          "internalType": "bool",
          "name": "_isLimit",
          "type": "bool"
        },
        {
          "internalType": "uint256",
          "name": "_sizeDelta",
          "type": "uint256"
        },
        {
          "internalType": "bool",
          "name": "_isKeepLev",
          "type": "bool"
        },
        {
          "internalType": "uint256",
          "name": "_price",
          "type": "uint256"
        },
        {
          "internalType": "uint256",
          "name": "_slippage",
          "type": "uint256"
        },
        {
          "internalType": "bool",
          "name": "_isLong",
          "type": "bool"
        },
        {
          "internalType": "bool",
          "name": "_isExec",
          "type": "bool"
        }
      ],
      "name": "decreaseTrade",
      "outputs": [],
      "stateMutability": "nonpayable",
      "type": "function"
    },
    {
      "inputs": [
        {
          "internalType": "bytes32[]",
          "name": "_orderKeyList",
          "type": "bytes32[]"
        },
        {
          "internalType": "bool",
          "name": "_isLong",
          "type": "bool"
        },
        {
          "internalType": "bool",
          "name": "_isIncrease",
          "type": "bool"
        }
      ],
      "name": "execOrderKeys",
      "outputs": [],
      "stateMutability": "nonpayable",
      "type": "function"
    },
    {
      "inputs": [
        {
          "internalType": "uint256",
          "name": "_start",
          "type": "uint256"
        },
        {
          "internalType": "uint256",
          "name": "_end",
          "type": "uint256"
        },
        {
          "internalType": "bool",
          "name": "_isLong",
          "type": "bool"
        },
        {
          "internalType": "bool",
          "name": "_isIncrease",
          "type": "bool"
        }
      ],
      "name": "execOrders",
      "outputs": [],
      "stateMutability": "nonpayable",
      "type": "function"
    },
    {
      "inputs": [],
      "name": "feeRouter",
      "outputs": [
        {
          "internalType": "contract IFeeRouter",
          "name": "",
          "type": "address"
        }
      ],
      "stateMutability": "view",
      "type": "function"
    },
    {
      "inputs": [
        {
          "internalType": "bytes32",
          "name": "role",
          "type": "bytes32"
        }
      ],
      "name": "getRoleAdmin",
      "outputs": [
        {
          "internalType": "bytes32",
          "name": "",
          "type": "bytes32"
        }
      ],
      "stateMutability": "view",
      "type": "function"
    },
    {
      "inputs": [
        {
          "internalType": "bytes32",
          "name": "role",
          "type": "bytes32"
        },
        {
          "internalType": "address",
          "name": "account",
          "type": "address"
        }
      ],
      "name": "grantRole",
      "outputs": [],
      "stateMutability": "nonpayable",
      "type": "function"
    },
    {
      "inputs": [
        {
          "internalType": "bytes32",
          "name": "role",
          "type": "bytes32"
        },
        {
          "internalType": "address",
          "name": "account",
          "type": "address"
        }
      ],
      "name": "hasRole",
      "outputs": [
        {
          "internalType": "bool",
          "name": "",
          "type": "bool"
        }
      ],
      "stateMutability": "view",
      "type": "function"
    },
    {
      "inputs": [
        {
          "internalType": "uint256",
          "name": "_collateralDelta",
          "type": "uint256"
        },
        {
          "internalType": "bool",
          "name": "_isLong",
          "type": "bool"
        }
      ],
      "name": "increaseCollateral",
      "outputs": [],
      "stateMutability": "nonpayable",
      "type": "function"
    },
    {
      "inputs": [
        {
          "components": [
            {
              "internalType": "uint8",
              "name": "version",
              "type": "uint8"
            },
            {
              "internalType": "uint32",
              "name": "updatedAtBlock",
              "type": "uint32"
            },
            {
              "internalType": "uint8",
              "name": "triggerAbove",
              "type": "uint8"
            },
            {
              "internalType": "address",
              "name": "account",
              "type": "address"
            },
            {
              "internalType": "uint256",
              "name": "collateral",
              "type": "uint256"
            },
            {
              "internalType": "uint256",
              "name": "size",
              "type": "uint256"
            },
            {
              "internalType": "uint128",
              "name": "price",
              "type": "uint128"
            },
            {
              "internalType": "uint128",
              "name": "priceExtra",
              "type": "uint128"
            },
            {
              "internalType": "uint256",
              "name": "orderID",
              "type": "uint256"
            },
            {
              "internalType": "uint256",
              "name": "extra0",
              "type": "uint256"
            },
            {
              "internalType": "uint256",
              "name": "extra1",
              "type": "uint256"
            }
          ],
          "internalType": "struct Order.Props",
          "name": "order",
          "type": "tuple"
        },
        {
          "internalType": "bool",
          "name": "_isLong",
          "type": "bool"
        }
      ],
      "name": "increasePositionFromOrder",
      "outputs": [],
      "stateMutability": "nonpayable",
      "type": "function"
    },
    {
      "inputs": [
        {
          "internalType": "bool",
          "name": "_isLimit",
          "type": "bool"
        },
        {
          "internalType": "uint256",
          "name": "_payDelta",
          "type": "uint256"
        },
        {
          "internalType": "uint256",
          "name": "_sizeDelta",
          "type": "uint256"
        },
        {
          "internalType": "uint256",
          "name": "_price",
          "type": "uint256"
        },
        {
          "internalType": "uint256",
          "name": "_tpPrice",
          "type": "uint256"
        },
        {
          "internalType": "uint256",
          "name": "_slPrice",
          "type": "uint256"
        },
        {
          "internalType": "uint256",
          "name": "_slippage",
          "type": "uint256"
        },
        {
          "internalType": "bool",
          "name": "_isLong",
          "type": "bool"
        },
        {
          "internalType": "bool",
          "name": "_isExec",
          "type": "bool"
        }
      ],
      "name": "increaseTrade",
      "outputs": [],
      "stateMutability": "nonpayable",
      "type": "function"
    },
    {
      "inputs": [],
      "name": "indexToken",
      "outputs": [
        {
          "internalType": "address",
          "name": "",
          "type": "address"
        }
      ],
      "stateMutability": "view",
      "type": "function"
    },
    {
      "inputs": [
        {
          "internalType": "address",
          "name": "_positionBook",
          "type": "address"
        },
        {
          "internalType": "contract IOrderBook",
          "name": "_orderBookLong",
          "type": "address"
        },
        {
          "internalType": "contract IOrderBook",
          "name": "_orderBookShort",
          "type": "address"
        },
        {
          "internalType": "address",
          "name": "_addressProvider",
          "type": "address"
        },
        {
          "internalType": "address",
          "name": "_indexToken",
          "type": "address"
        },
        {
          "internalType": "address",
          "name": "_feeRouter",
          "type": "address"
        },
        {
          "internalType": "address",
          "name": "_feeVault",
          "type": "address"
        },
        {
          "internalType": "address",
          "name": "_marketRouter",
          "type": "address"
        },
        {
          "internalType": "address",
          "name": "_vault",
          "type": "address"
        },
        {
          "internalType": "address",
          "name": "_vaultRouter",
          "type": "address"
        },
        {
          "internalType": "address",
          "name": "_collateralToken",
          "type": "address"
        }
      ],
      "name": "initialize",
      "outputs": [],
      "stateMutability": "nonpayable",
      "type": "function"
    },
    {
      "inputs": [
        {
          "internalType": "address",
          "name": "_account",
          "type": "address"
        },
        {
          "internalType": "bool",
          "name": "",
          "type": "bool"
        }
      ],
      "name": "liquidatePosition",
      "outputs": [
        {
          "internalType": "uint256",
          "name": "",
          "type": "uint256"
        }
      ],
      "stateMutability": "nonpayable",
      "type": "function"
    },
    {
      "inputs": [
        {
          "internalType": "bytes32[]",
          "name": "keys",
          "type": "bytes32[]"
        },
        {
          "internalType": "bool",
          "name": "isLong",
          "type": "bool"
        }
      ],
      "name": "liquidatePositionByKey",
      "outputs": [],
      "stateMutability": "nonpayable",
      "type": "function"
    },
    {
      "inputs": [],
      "name": "marketAddressesProvider",
      "outputs": [
        {
          "internalType": "contract IMarketAddressesProvider",
          "name": "",
          "type": "address"
        }
      ],
      "stateMutability": "view",
      "type": "function"
    },
    {
      "inputs": [],
      "name": "orderBookLong",
      "outputs": [
        {
          "internalType": "contract IOrderBook",
          "name": "",
          "type": "address"
        }
      ],
      "stateMutability": "view",
      "type": "function"
    },
    {
      "inputs": [],
      "name": "orderBookShort",
      "outputs": [
        {
          "internalType": "contract IOrderBook",
          "name": "",
          "type": "address"
        }
      ],
      "stateMutability": "view",
      "type": "function"
    },
    {
      "inputs": [],
      "name": "positionBook",
      "outputs": [
        {
          "internalType": "contract IPositionBook",
          "name": "",
          "type": "address"
        }
      ],
      "stateMutability": "view",
      "type": "function"
    },
    {
      "inputs": [
        {
          "internalType": "bytes32",
          "name": "role",
          "type": "bytes32"
        },
        {
          "internalType": "address",
          "name": "account",
          "type": "address"
        }
      ],
      "name": "renounceRole",
      "outputs": [],
      "stateMutability": "nonpayable",
      "type": "function"
    },
    {
      "inputs": [
        {
          "internalType": "bytes32",
          "name": "role",
          "type": "bytes32"
        },
        {
          "internalType": "address",
          "name": "account",
          "type": "address"
        }
      ],
      "name": "revokeRole",
      "outputs": [],
      "stateMutability": "nonpayable",
      "type": "function"
    },
    {
      "inputs": [
        {
          "internalType": "bool",
          "name": "_p",
          "type": "bool"
        }
      ],
      "name": "setOpenDebug",
      "outputs": [],
      "stateMutability": "nonpayable",
      "type": "function"
    },
    {
      "inputs": [
        {
          "internalType": "uint256",
          "name": "_spread",
          "type": "uint256"
        }
      ],
      "name": "setSpread",
      "outputs": [],
      "stateMutability": "nonpayable",
      "type": "function"
    },
    {
      "inputs": [],
      "name": "spread",
      "outputs": [
        {
          "internalType": "uint256",
          "name": "",
          "type": "uint256"
        }
      ],
      "stateMutability": "view",
      "type": "function"
    },
    {
      "inputs": [
        {
          "internalType": "bytes4",
          "name": "interfaceId",
          "type": "bytes4"
        }
      ],
      "name": "supportsInterface",
      "outputs": [
        {
          "internalType": "bool",
          "name": "",
          "type": "bool"
        }
      ],
      "stateMutability": "view",
      "type": "function"
    },
    {
      "inputs": [
        {
          "internalType": "uint256",
          "name": "_orderID",
          "type": "uint256"
        },
        {
          "internalType": "uint256",
          "name": "_triggerPrice",
          "type": "uint256"
        },
        {
          "internalType": "bool",
          "name": "_isLong",
          "type": "bool"
        }
      ],
      "name": "updateDecreaseOrder",
      "outputs": [],
      "stateMutability": "nonpayable",
      "type": "function"
    },
    {
      "inputs": [
        {
          "internalType": "uint256",
          "name": "_orderID",
          "type": "uint256"
        },
        {
          "internalType": "uint256",
          "name": "_triggerPrice",
          "type": "uint256"
        },
        {
          "internalType": "uint256",
          "name": "_tpPrice",
          "type": "uint256"
        },
        {
          "internalType": "uint256",
          "name": "_slPrice",
          "type": "uint256"
        },
        {
          "internalType": "bool",
          "name": "_isLong",
          "type": "bool"
        }
      ],
      "name": "updateIncreaseOrder",
      "outputs": [],
      "stateMutability": "nonpayable",
      "type": "function"
    },
    {
      "inputs": [],
      "name": "vault",
      "outputs": [
        {
          "internalType": "address",
          "name": "",
          "type": "address"
        }
      ],
      "stateMutability": "view",
      "type": "function"
    }
  ],
  "bytecode": "0x60806040523480156200001157600080fd5b506040516200544f3803806200544f833981016040819052620000349162000182565b6001600e556002620000478282620002e6565b50600c805460ff60a01b1916600160a01b17905562000068600033620000c7565b620000947f41821a71fcd4fd9aecd428014f9b7f61fb3bea3424e8a828796db51ad474a27533620000c7565b620000c07ffb248bbb6ca5a799a6bb9ba79f58aa5cdbe0e5979238a967315e7ffbfd119d1a33620000c7565b50620003b2565b6000828152600f602090815260408083206001600160a01b038516845290915290205460ff1662000168576000828152600f602090815260408083206001600160a01b03851684529091529020805460ff19166001179055620001273390565b6001600160a01b0316816001600160a01b0316837f2f8788117e7eff1d82e926ec794901d17c78024a50270940304540a733656f0d60405160405180910390a45b5050565b634e487b7160e01b600052604160045260246000fd5b600060208083850312156200019657600080fd5b82516001600160401b0380821115620001ae57600080fd5b818501915085601f830112620001c357600080fd5b815181811115620001d857620001d86200016c565b604051601f8201601f19908116603f011681019083821181831017156200020357620002036200016c565b8160405282815288868487010111156200021c57600080fd5b600093505b8284101562000240578484018601518185018701529285019262000221565b600086848301015280965050505050505092915050565b600181811c908216806200026c57607f821691505b6020821081036200028d57634e487b7160e01b600052602260045260246000fd5b50919050565b601f821115620002e157600081815260208120601f850160051c81016020861015620002bc5750805b601f850160051c820191505b81811015620002dd57828155600101620002c8565b5050505b505050565b81516001600160401b038111156200030257620003026200016c565b6200031a8162000313845462000257565b8462000293565b602080601f831160018114620003525760008415620003395750858301515b600019600386901b1c1916600185901b178555620002dd565b600085815260208120601f198616915b82811015620003835788860151825594840194600190910190840162000362565b5085821015620003a25787850151600019600388901b60f8161c191681555b5050505050600190811b01905550565b61508d80620003c26000396000f3fe608060405234801561001057600080fd5b50600436106101a15760003560e01c806301ffc9a7146101a657806305ba9ae9146101ce5780630c9def41146101e8578063112d3b7b146101f95780631c8b58041461020e5780631f86cb5414610221578063248a9ca3146102345780632f2ff15d1461025557806336568abe14610268578063553107f91461027b5780635c25c76c1461029057806376902b83146102985780637b2fd1e5146102ab57806391d14854146102bc57806392e1f776146102cf5780639b498f3c146102e25780639cb9b657146102f5578063a01ffe5b14610321578063a217fddf14610334578063a22b50961461033c578063ac0b05a61461034f578063b057bfae14610360578063b2016bd414610373578063b3f7edcf14610384578063b66a261c14610399578063d547741f146103ac578063e20965b5146103bf578063e52740f7146103d2578063e7d015f2146103e5578063e936fcfb146103f6578063f105e28314610409578063f29ebf611461041c578063f65cf1571461042d578063f915995414610440578063fbfa77cf14610453575b600080fd5b6101b96101b4366004613f9e565b610464565b60405190151581526020015b60405180910390f35b600b546001600160a01b03165b6040516101c59190613fc8565b600c546001600160a01b03166101db565b61020c610207366004613ffa565b61049b565b005b61020c61021c366004614080565b6105b6565b61020c61022f3660046141c8565b610843565b6102476102423660046142a3565b6108de565b6040519081526020016101c5565b61020c6102633660046142dc565b6108f3565b61020c6102763660046142dc565b61090f565b610247600080516020614feb83398151915281565b600054610247565b61020c6102a636600461430c565b610992565b600a546001600160a01b03166101db565b6101b96102ca3660046142dc565b610ad9565b61020c6102dd3660046143ea565b610b04565b61020c6102f0366004614418565b610f86565b61020c61030336600461443d565b600c8054911515600160a01b0260ff60a01b19909216919091179055565b61020c61032f3660046144b5565b61110a565b610247600081565b61020c61034a3660046144fb565b611269565b6009546001600160a01b03166101db565b61020c61036e366004614548565b611628565b6006546001600160a01b03166101db565b610247600080516020614fcb83398151915281565b61020c6103a73660046142a3565b61187c565b61020c6103ba3660046142dc565b61189a565b6102476103cd3660046145a0565b6118b6565b61020c6103e03660046145ce565b6119ec565b6005546001600160a01b03166101db565b61020c610404366004614649565b611bfa565b61020c6104173660046146ea565b611e68565b6008546001600160a01b03166101db565b61020c61043b3660046146ea565b611f8f565b61020c61044e366004614418565b6120d2565b6007546001600160a01b03166101db565b60006001600160e01b03198216637965db0b60e01b148061049557506301ffc9a760e01b6001600160e01b03198316145b92915050565b60065433906104b5906001600160a01b031682308c61241b565b8915610555576006546040516370a0823160e01b8152610533916001600160a01b0316906370a08231906104ed908590600401613fc8565b602060405180830381865afa15801561050a573d6000803e3d6000fd5b505050506040513d601f19601f8201168201806040525081019061052e91906147c9565b612479565b6000610542828a8a8a8a6124c1565b905061054f818b86612509565b506105aa565b6105aa604051806101200160405280836001600160a01b031681526020018b81526020018a81526020018981526020018515158152602001868152602001841515815260200188815260200187815250612968565b50505050505050505050565b6105be612bcc565b3360006105cb8285612c25565b90506000836105e557600b546001600160a01b03166105f2565b600a546001600160a01b03165b90506105fc613f42565b86156107005760405163e3c5b96960e01b8152600481018490526001600160a01b0383169063e3c5b9699060240161016060405180830381865afa158015610648573d6000803e3d6000fd5b505050506040513d601f19601f8201168201806040525081019061066c919061480e565b6040516398ddd31960e01b8152600481018590529091506001600160a01b038316906398ddd31990602401610160604051808303816000875af11580156106b7573d6000803e3d6000fd5b505050506040513d601f19601f820116820180604052508101906106db919061480e565b5060808101516006546106fb916001600160a01b03909116908690612c58565b6107db565b604051630bdfa7eb60e11b8152600481018490526001600160a01b038316906317bf4fd69060240161016060405180830381865afa158015610746573d6000803e3d6000fd5b505050506040513d601f19601f8201168201806040525081019061076a919061480e565b604051635008d4d160e11b8152600481018590529091506001600160a01b0383169063a011a9a290602401610160604051808303816000875af11580156107b5573d6000803e3d6000fd5b505050506040513d601f19601f820116820180604052508101906107d9919061480e565b505b60408051861515815288151560208201529081018790523060608201526001600160a01b038516907f22a23cce23bf58a4bb883d7a75b1cff31ed1bd99fac269b47537be26f53235cd9060800160405180910390a25050505061083e6001600e55565b505050565b61084b612bcc565b815183511461085957600080fd5b815181511461086757600080fd5b815160005b818110156108d2576108ca858281518110610889576108896148c7565b60200260200101518583815181106108a3576108a36148c7565b60200260200101518584815181106108bd576108bd6148c7565b60200260200101516105b6565b60010161086c565b505061083e6001600e55565b6000908152600f602052604090206001015490565b6108fc826108de565b61090581612c77565b61083e8383612c81565b6001600160a01b03811633146109845760405162461bcd60e51b815260206004820152602f60248201527f416363657373436f6e74726f6c3a2063616e206f6e6c792072656e6f756e636560448201526e103937b632b9903337b91039b2b63360891b60648201526084015b60405180910390fd5b61098e8282612d07565b5050565b600080516020614feb8339815191526109aa81612c77565b6109cb604051806060016040528060238152602001614f7b60239139612d6e565b6109d489612db1565b610a126040518060400160405280602081526020017f6d61726b65742f696e697469617a6c697a652f61646472657373287468697329815250612d6e565b610a1b30612db1565b50600980546001600160a01b03199081166001600160a01b039d8e1617909155600a805482169b8d169b909b17909a55600b80548b16998c1699909917909855600c80548a16978b1697909717909655600580548916958a16959095179094556004805488169289169290921790915560088054871692881692909217909155600d80548616918716919091179055600780548516918616919091179055600380548416918516919091179055600680549092169216919091179055565b6000918252600f602090815260408084206001600160a01b0393909316845291905290205460ff1690565b610b0c612bcc565b33600082610b2557600b546001600160a01b0316610b32565b600a546001600160a01b03165b9050600080826001600160a01b031663554a0eb7610b50868a612c25565b6040518263ffffffff1660e01b8152600401610b6e91815260200190565b61014060405180830381865afa158015610b8c573d6000803e3d6000fd5b505050506040513d601f19601f82011682018060405250810190610bb091906148dd565b505050505094505093505050600080600015610be4576801158e460913d000009150610bdd82600a614986565b9050610c65565b60095460405163118272bf60e31b81526001600160a01b0390911690638c1395f890610c1890899030908c9060040161499d565b60e060405180830381865afa158015610c35573d6000803e3d6000fd5b505050506040513d601f19601f82011682018060405250810190610c5991906149c1565b50939650939450505050505b600c5460405163563eccdb60e11b81526000916001600160a01b03169063ac7d99b690610c96903090600401613fc8565b602060405180830381865afa158015610cb3573d6000803e3d6000fd5b505050506040513d601f19601f82011682018060405250810190610cd79190614a21565b600c54909150600090600160a01b900460ff1615610d6f576008546040516347a994e960e01b81526001600160a01b03909116906347a994e990610d2b9060009030906001908b9082908590600401614a3e565b602060405180830381865afa158015610d48573d6000803e3d6000fd5b505050506040513d601f19601f82011682018060405250810190610d6c91906147c9565b90505b60405163f6b8515b60e01b81526001600160a01b0383169063f6b8515b90610da39087908a9088908b908890600401614a76565b602060405180830381865afa158015610dc0573d6000803e3d6000fd5b505050506040513d601f19601f82011682018060405250810190610de491906147c9565b506000876001600160a01b03166317bf4fd6610e00338f612c25565b6040518263ffffffff1660e01b8152600401610e1e91815260200190565b61016060405180830381865afa158015610e3c573d6000803e3d6000fd5b505050506040513d601f19601f82011682018060405250810190610e60919061480e565b9050610e6b8b612df4565b6001600160801b031660c0820152610e9a6040518060600160405280602d8152602001614f9e602d9139612d6e565b610ea38c612479565b604051636b0243b560e01b81526001600160a01b03891690636b0243b590610ecf908490600401614aa6565b610160604051808303816000875af1158015610eef573d6000803e3d6000fd5b505050506040513d601f19601f82011682018060405250810190610f13919061480e565b5080606001516001600160a01b0316600080516020614f5b8339815191528b6001846101000151308660a0015187608001518860c001518961012001518a6101400151604051610f6b99989796959493929190614b5c565b60405180910390a250505050505050505061083e6001600e55565b610f8e612bcc565b610fb96040518060400160405280600a8152602001696d6b742061646472657360b01b815250612d6e565b610fc230612db1565b600c54604080516389be278160e01b815290516000926001600160a01b0316916389be27819160048083019260209291908290030181865afa15801561100c573d6000803e3d6000fd5b505050506040513d601f19601f820116820180604052508101906110309190614a21565b9050611053604051806060016040528060258152602001614f3660259139612d6e565b61105c33612db1565b6000816001600160a01b0316600036604051611079929190614baf565b600060405180830381855af49150503d80600081146110b4576040519150601f19603f3d011682016040523d82523d6000602084013e6110b9565b606091505b50509050806110fe5760405162461bcd60e51b8152602060048201526011602482015270135add0e991958dc99585cd94818dbdb1b607a1b604482015260640161097b565b505061098e6001600e55565b611112612bcc565b600080516020614fcb83398151915261112a81612c77565b600c54604080516389be278160e01b815290516000926001600160a01b0316916389be27819160048083019260209291908290030181865afa158015611174573d6000803e3d6000fd5b505050506040513d601f19601f820116820180604052508101906111989190614a21565b9050600084846040516024016111af929190614bbf565b60408051601f198184030181529181526020820180516001600160e01b031663a01ffe5b60e01b1790525190915060009081906001600160a01b038516906111f8908590614c2e565b600060405180830381855af49150503d8060008114611233576040519150601f19603f3d011682016040523d82523d6000602084013e611238565b606091505b50915091508161125a5760405162461bcd60e51b815260040161097b90614c4a565b505050505061098e6001600e55565b611271612bcc565b60008161128957600b546001600160a01b0316611296565b600a546001600160a01b03165b90506000816001600160a01b031663e3c5b9696112b3338a612c25565b6040518263ffffffff1660e01b81526004016112d191815260200190565b61016060405180830381865afa1580156112ef573d6000803e3d6000fd5b505050506040513d601f19601f82011682018060405250810190611313919061480e565b90506113228160600151612db1565b600c5460405163563eccdb60e11b81526000916001600160a01b03169063ac7d99b690611353903090600401613fc8565b602060405180830381865afa158015611370573d6000803e3d6000fd5b505050506040513d601f19601f820116820180604052508101906113949190614a21565b60085460a08401516040516320b613eb60e21b81529293506001600160a01b039091169160009183916382d84fac916113d291309190600401614c6f565b602060405180830381865afa1580156113ef573d6000803e3d6000fd5b505050506040513d601f19601f8201168201806040525081019061141391906147c9565b6040516309d3989760e01b81526001600160a01b038416906309d398979061143f903090600401613fc8565b602060405180830381865afa15801561145c573d6000803e3d6000fd5b505050506040513d601f19601f8201168201806040525081019061148091906147c9565b61148a9190614c88565b608085015160a0860151604051631ecaa84160e21b815260048101929092526024820152604481018b9052606481018a90526084810189905287151560a482015260c481018290529091506001600160a01b03841690637b2aa1049060e401602060405180830381865afa158015611506573d6000803e3d6000fd5b505050506040513d601f19601f8201168201806040525081019061152a91906147c9565b50505061153687612df4565b6001600160801b031660c08301526101408201869052610120820185905260405162fde88d60e81b81526001600160a01b0384169063fde88d009061157f908590600401614aa6565b610160604051808303816000875af115801561159f573d6000803e3d6000fd5b505050506040513d601f19601f820116820180604052508101906115c3919061480e565b5081606001516001600160a01b0316600080516020614f5b8339815191528560018b308760a0015188608001518960c001518d8f60405161160c99989796959493929190614b5c565b60405180910390a25050506116216001600e55565b5050505050565b611630612bcc565b60008261164857600b546001600160a01b0316611655565b600a546001600160a01b03165b905060005b84518110156108d2576000858281518110611677576116776148c7565b6020026020010151905083156117ee5760405163e3c5b96960e01b8152600481018290526000906001600160a01b0385169063e3c5b9699060240161016060405180830381865afa1580156116d0573d6000803e3d6000fd5b505050506040513d601f19601f820116820180604052508101906116f4919061480e565b905061177b60405180610120016040528083606001516001600160a01b03168152602001836080015181526020018360a0015181526020018360c001516001600160801b0316815260200188151581526020016000815260200160011515815260200161176384610140015190565b815260200161177484610120015190565b9052612968565b6040516398ddd31960e01b8152600481018390526001600160a01b038516906398ddd31990602401610160604051808303816000875af11580156117c3573d6000803e3d6000fd5b505050506040513d601f19601f820116820180604052508101906117e7919061480e565b5050611869565b604051630bdfa7eb60e11b8152600481018290526000906001600160a01b038516906317bf4fd69060240161016060405180830381865afa158015611837573d6000803e3d6000fd5b505050506040513d601f19601f8201168201806040525081019061185b919061480e565b90506118678187611f8f565b505b508061187481614c9b565b91505061165a565b600080516020614feb83398151915261189481612c77565b50600055565b6118a3826108de565b6118ac81612c77565b61083e8383612d07565b60006118c0612bcc565b600080516020614fcb8339815191526118d881612c77565b600c54604080516389be278160e01b815290516000926001600160a01b0316916389be27819160048083019260209291908290030181865afa158015611922573d6000803e3d6000fd5b505050506040513d601f19601f820116820180604052508101906119469190614a21565b9050600080826001600160a01b0316600036604051611966929190614baf565b600060405180830381855af49150503d80600081146119a1576040519150601f19603f3d011682016040523d82523d6000602084013e6119a6565b606091505b5091509150816119c85760405162461bcd60e51b815260040161097b90614c4a565b808060200190518101906119dc91906147c9565b9450505050506104956001600e55565b6119f4612bcc565b338715611aae5760008060095460405163118272bf60e31b81526001600160a01b0390911690638c1395f890611a3290869030908a9060040161499d565b60e060405180830381865afa158015611a4f573d6000803e3d6000fd5b505050506040513d601f19601f82011682018060405250810190611a7391906149c1565b50939650939450611a849350505050565b6000611a9289838c86612e61565b9050611aa5848b838b8a88886000612e91565b50505050611be6565b600c54604080516389be278160e01b815290516000926001600160a01b0316916389be27819160048083019260209291908290030181865afa158015611af8573d6000803e3d6000fd5b505050506040513d601f19601f82011682018060405250810190611b1c9190614a21565b604051602481018a90528815156044820152606481018890526084810187905285151560a482015284151560c48201529091506000906001600160a01b0383169060e40160408051601f198184030181529181526020820180516001600160e01b0316630ff70bf960e31b17905251611b959190614c2e565b600060405180830381855af49150503d8060008114611bd0576040519150601f19603f3d011682016040523d82523d6000602084013e611bd5565b606091505b5050905080611be357600080fd5b50505b50611bf16001600e55565b50505050505050565b600080516020614fcb833981519152611c1281612c77565b600083611c2a57600b546001600160a01b0316611c37565b600a546001600160a01b03165b604051635c95a1df60e11b815284151560048201529091506000906001600160a01b0383169063b92b43be90602401602060405180830381865afa158015611c83573d6000803e3d6000fd5b505050506040513d601f19601f82011682018060405250810190611ca791906147c9565b9050611cb287612479565b611cbb86612479565b611cc481612479565b808710611cd2575050611621565b80861115611cde578095505b85871015611bf157604051630ebdfacf60e21b81526004810188905284151560248201526000906001600160a01b03841690633af7eb3c90604401602060405180830381865afa158015611d36573d6000803e3d6000fd5b505050506040513d601f19601f82011682018060405250810190611d5a91906147c9565b90508415611de15760405163e3c5b96960e01b8152600481018290526000906001600160a01b0385169063e3c5b9699060240161016060405180830381865afa158015611dab573d6000803e3d6000fd5b505050506040513d601f19601f82011682018060405250810190611dcf919061480e565b9050611ddb8188611e68565b50611e5c565b604051630bdfa7eb60e11b8152600481018290526000906001600160a01b038516906317bf4fd69060240161016060405180830381865afa158015611e2a573d6000803e3d6000fd5b505050506040513d601f19601f82011682018060405250810190611e4e919061480e565b9050611e5a8188611f8f565b505b87600101975050611cde565b611e70612bcc565b611eee60405180610120016040528084606001516001600160a01b03168152602001846080015181526020018460a0015181526020018460c001516001600160801b03168152602001831515815260200160008152602001600115158152602001611edd85610140015190565b815260200161177485610120015190565b600081611f0657600b546001600160a01b0316611f13565b600a546001600160a01b03165b9050806001600160a01b03166398ddd319611f2d85613400565b6040518263ffffffff1660e01b8152600401611f4b91815260200190565b610160604051808303816000875af1158015611f6b573d6000803e3d6000fd5b505050506040513d601f19601f820116820180604052508101906110fe919061480e565b611f97612bcc565b600c54604080516389be278160e01b815290516000926001600160a01b0316916389be27819160048083019260209291908290030181865afa158015611fe1573d6000803e3d6000fd5b505050506040513d601f19601f820116820180604052508101906120059190614a21565b9050600080826001600160a01b0316600036604051612025929190614baf565b600060405180830381855af49150503d8060008114612060576040519150601f19603f3d011682016040523d82523d6000602084013e612065565b606091505b5091509150816120c55760405162461bcd60e51b815260206004820152602560248201527f6d61726b65743a6465637265617365506f736974696f6e46726f6d4f726465726044820152640819985a5b60da1b606482015260840161097b565b50505061098e6001600e55565b6120da612bcc565b60408051808201909152601a8152791a5b98dc99585cd950dbdb1b185d195c985b0bd858d8dbdd5b9d60321b6020820152339061211690612d6e565b61211f81612db1565b60095460405163118272bf60e31b815260009182916001600160a01b0390911690638c1395f8906121589086903090899060040161499d565b60e060405180830381865afa158015612175573d6000803e3d6000fd5b505050506040513d601f19601f8201168201806040525081019061219991906149c1565b5050505050915091506121ab82612479565b6121b481612479565b600c54600090600160a01b900460ff16156122415760085460405163ddb3d1a760e01b81526001600160a01b039091169063ddb3d1a7906121fd90879030908a9060040161499d565b602060405180830381865afa15801561221a573d6000803e3d6000fd5b505050506040513d601f19601f8201168201806040525081019061223e91906147c9565b90505b600c5460405163563eccdb60e11b81526000916001600160a01b03169063ac7d99b690612272903090600401613fc8565b602060405180830381865afa15801561228f573d6000803e3d6000fd5b505050506040513d601f19601f820116820180604052508101906122b39190614a21565b90506000819050806001600160a01b031663c74d92e6826001600160a01b031663177927296040518163ffffffff1660e01b8152600401602060405180830381865afa158015612307573d6000803e3d6000fd5b505050506040513d601f19601f8201168201806040525081019061232b9190614cb4565b6001878c8a60008a6040518863ffffffff1660e01b81526004016123559796959493929190614cf5565b60006040518083038186803b15801561236d57600080fd5b505afa158015612381573d6000803e3d6000fd5b505060065461239e92506001600160a01b0316905087308b61241b565b600954604051630a2eb75760e11b81526001600160a01b039091169063145d6eae906123d990899030908d9060009081908f90600401614d26565b600060405180830381600087803b1580156123f357600080fd5b505af1158015612407573d6000803e3d6000fd5b5050505050505050505061098e6001600e55565b612473846323b872dd60e01b85858560405160240161243c93929190614d5c565b60408051601f198184030181529190526020810180516001600160e01b03166001600160e01b03199093169290921790915261343b565b50505050565b6124be8160405160240161248f91815260200190565b60408051601f198184030181529190526020810180516001600160e01b031663f82c50f160e01b17905261350d565b50565b6124c9613f42565b6001600160a01b03861660608201526124e184612df4565b6001600160801b031660c082015260a081019490945261012084015261014083015250919050565b60085460a08401516040516320b613eb60e21b81526001600160a01b039092169160009183916382d84fac9161254491309190600401614c6f565b602060405180830381865afa158015612561573d6000803e3d6000fd5b505050506040513d601f19601f8201168201806040525081019061258591906147c9565b6040516309d3989760e01b81526001600160a01b038416906309d39897906125b1903090600401613fc8565b602060405180830381865afa1580156125ce573d6000803e3d6000fd5b505050506040513d601f19601f820116820180604052508101906125f291906147c9565b6125fc9190614c88565b600c5460405163563eccdb60e11b81529192506001600160a01b03169063ac7d99b69061262d903090600401613fc8565b602060405180830381865afa15801561264a573d6000803e3d6000fd5b505050506040513d601f19601f8201168201806040525081019061266e9190614a21565b6001600160a01b0316637b2aa104858760a001518860c001516126938a610140015190565b6101208b01516040516001600160e01b031960e088901b168152600481019590955260248501939093526001600160801b0390911660448401526064830152608482015285151560a482015260c4810184905260e401602060405180830381865afa158015612706573d6000803e3d6000fd5b505050506040513d601f19601f8201168201806040525081019061272a91906147c9565b608086015260c0850151600c5460405163b25b41b760e01b8152612828926001600160801b0316916001600160a01b03169063b25b41b790612770903090600401613fc8565b602060405180830381865afa15801561278d573d6000803e3d6000fd5b505050506040513d601f19601f820116820180604052508101906127b19190614a21565b6001600160a01b03166376d697603060016040518363ffffffff1660e01b81526004016127df929190614d80565b602060405180830381865afa1580156127fc573d6000803e3d6000fd5b505050506040513d601f19601f8201168201806040525081019061282091906147c9565b87911161352e565b60008361284057600b546001600160a01b031661284d565b600a546001600160a01b03165b6001600160a01b031663832ca0c9876040518263ffffffff1660e01b81526004016128789190614aa6565b610160604051808303816000875af1158015612898573d6000803e3d6000fd5b505050506040513d601f19601f820116820180604052508101906128bc919061480e565b90506128fb6040518060400160405280601781526020017667656e6572617465644f726465722e73697a653a20257360481b8152508260a0015161354c565b80606001516001600160a01b0316600080516020614f5b833981519152856001846101000151308660a0015187608001518860c0015161293d8a610120015190565b6101408b015160405161295899989796959493929190614b5c565b60405180910390a2505050505050565b60008061297681600a614986565b600c54909150600160a01b900460ff1615612a17576009548351608085015160405163118272bf60e31b81526001600160a01b0390931692638c1395f8926129c592909130919060040161499d565b60e060405180830381865afa1580156129e2573d6000803e3d6000fd5b505050506040513d601f19601f82011682018060405250810190612a0691906149c1565b50939650939450612a549350505050565b612a426040518060400160405280600a8152602001696265666f7265202d2d2d60b01b815250612d6e565b612a4b82612479565b612a5481612479565b612a7283604051806040016040528084815260200185815250613591565b60008360e00151600014158015612a9957506080840151606085015160e086015111901515145b90506000846101000151600014158015612ac55750846101000151856060015111151585608001511515145b9050818015612ad15750805b15612b79576000612b148660000151876040015160008960e001518a608001518a8c604001518d6080015115158b151503612b0d576002612e91565b6001612e91565b8651604088015161010089015160808a0151939450600093612b4893929185918b848a151583151514612b0d576002612e91565b9050612b5e612b5682613400565b610120840152565b612b72612b6a83613400565b610120830152565b5050611621565b8180612b825750805b15611621576000611bf186600001518760400151600086612ba857896101000151612bae565b8960e001515b60808b015160408c01518b908215158b151503612b0d576002612e91565b6002600e5403612c1e5760405162461bcd60e51b815260206004820152601f60248201527f5265656e7472616e637947756172643a207265656e7472616e742063616c6c00604482015260640161097b565b6002600e55565b60008282604051602001612c3a929190614d9b565b60405160208183030381529060405280519060200120905092915050565b61083e8363a9059cbb60e01b848460405160240161243c929190614c6f565b6124be8133613a4c565b612c8b8282610ad9565b61098e576000828152600f602090815260408083206001600160a01b03851684529091529020805460ff19166001179055612cc33390565b6001600160a01b0316816001600160a01b0316837f2f8788117e7eff1d82e926ec794901d17c78024a50270940304540a733656f0d60405160405180910390a45050565b612d118282610ad9565b1561098e576000828152600f602090815260408083206001600160a01b0385168085529252808320805460ff1916905551339285917ff6391f5c32d9c69d2a47ea670b442974b53935d1edc7fd64eb21e047a839171b9190a45050565b6124be81604051602401612d829190614de4565b60408051601f198184030181529190526020810180516001600160e01b031663104c13eb60e21b17905261350d565b6124be81604051602401612dc59190613fc8565b60408051601f198184030181529190526020810180516001600160e01b031663161765e160e11b17905261350d565b60006001600160801b03821115612e5d5760405162461bcd60e51b815260206004820152602760248201527f53616665436173743a2076616c756520646f65736e27742066697420696e20316044820152663238206269747360c81b606482015260840161097b565b5090565b60008415612e855783612e748484614986565b612e7e9190614df7565b9050612e89565b5060005b949350505050565b612e99613f42565b612eba60405180606001604052806025815260200161503360259139612d6e565b612ec383612479565b612ecc88612479565b600c5460405163563eccdb60e11b81526000916001600160a01b03169063ac7d99b690612efd903090600401613fc8565b602060405180830381865afa158015612f1a573d6000803e3d6000fd5b505050506040513d601f19601f82011682018060405250810190612f3e9190614a21565b600c54909150600090600160a01b900460ff1615612fd6576008546040516347a994e960e01b81526001600160a01b03909116906347a994e990612f929060009030906001908b9082908590600401614a3e565b602060405180830381865afa158015612faf573d6000803e3d6000fd5b505050506040513d601f19601f82011682018060405250810190612fd391906147c9565b90505b816001600160a01b031663f6b8515b878b888e866040518663ffffffff1660e01b815260040161300a959493929190614a76565b602060405180830381865afa158015613027573d6000803e3d6000fd5b505050506040513d601f19601f8201168201806040525081019061304b91906147c9565b506009546040516311c7138560e11b81526000916001600160a01b03169063238e270a90613081908f9030908d9060040161499d565b602060405180830381865afa15801561309e573d6000803e3d6000fd5b505050506040513d601f19601f820116820180604052508101906130c291906147c9565b90508460ff166000036131cd5760c0840151600c5460405163b25b41b760e01b81526131c8926001600160801b0316916001600160a01b03169063b25b41b790613110903090600401613fc8565b602060405180830381865afa15801561312d573d6000803e3d6000fd5b505050506040513d601f19601f820116820180604052508101906131519190614a21565b6001600160a01b03166376d697603060006040518363ffffffff1660e01b815260040161317f929190614d80565b602060405180830381865afa15801561319c573d6000803e3d6000fd5b505050506040513d601f19601f820116820180604052508101906131c091906147c9565b86911061352e565b6131d7565b60ff851660408501525b6001600160a01b038c1660608501526131ef89612df4565b6001600160801b031660c085015260a084018b9052610140840181905260008861322457600b546001600160a01b0316613231565b600a546001600160a01b03165b90506000816001600160a01b0316639f63982e876040518263ffffffff1660e01b81526004016132619190614aa6565b610160604051808303816000875af1158015613281573d6000803e3d6000fd5b505050506040513d601f19601f820116820180604052508101906132a5919061480e565b90506132c860405180606001604052806028815260200161500b60289139612d6e565b61334d826001600160a01b03166317bf4fd66132e389613400565b6040518263ffffffff1660e01b815260040161330191815260200190565b61016060405180830381865afa15801561331f573d6000803e3d6000fd5b505050506040513d601f19601f82011682018060405250810190613343919061480e565b6101000151612479565b61338a6040518060400160405280601781526020017667656e6572617465644f726465722e73697a653a20257360481b8152508260a0015161354c565b80606001516001600160a01b0316600080516020614f5b8339815191528b6000846101000151308660a0015187608001518860c001516133cc8a610120015190565b6101408b01516040516133e799989796959493929190614b5c565b60405180910390a2505050505098975050505050505050565b6000816060015182610100015160405160200161341e929190614d9b565b604051602081830303815290604052805190602001209050919050565b6000613490826040518060400160405280602081526020017f5361666545524332303a206c6f772d6c6576656c2063616c6c206661696c6564815250856001600160a01b0316613aa59092919063ffffffff16565b80519091501561083e57808060200190518101906134ae9190614e19565b61083e5760405162461bcd60e51b815260206004820152602a60248201527f5361666545524332303a204552433230206f7065726174696f6e20646964206e6044820152691bdd081cdd58d8d9595960b21b606482015260840161097b565b80516a636f6e736f6c652e6c6f67602083016000808483855afa5050505050565b8061353a57600261353d565b60015b60ff1660409092019190915250565b61098e8282604051602401613562929190614e36565b60408051601f198184030181529190526020810180516001600160e01b0316632d839cb360e21b17905261350d565b600c5460405163563eccdb60e11b81526000916001600160a01b03169063ac7d99b6906135c2903090600401613fc8565b602060405180830381865afa1580156135df573d6000803e3d6000fd5b505050506040513d601f19601f820116820180604052508101906136039190614a21565b905060008190506000816001600160a01b031663177927296040518163ffffffff1660e01b8152600401602060405180830381865afa15801561364a573d6000803e3d6000fd5b505050506040513d601f19601f8201168201806040525081019061366e9190614cb4565b845160408781015190516335ab1cbf60e01b81528351600482015260248101929092526044820152600160648201529091506001600160a01b038316906335ab1cbf9060840160006040518083038186803b1580156136cc57600080fd5b505afa1580156136e0573d6000803e3d6000fd5b5050600c5460009250600160a01b900460ff161590506137b95761372d60405180604001604052806012815260200171666565526f757465725f2e6765744665657360701b815250612d6e565b600854865160808801516040808a015160c08b015191516347a994e960e01b81526001600160a01b03909516946347a994e99461377594909330939192600190600401614a3e565b602060405180830381865afa158015613792573d6000803e3d6000fd5b505050506040513d601f19601f820116820180604052508101906137b691906147c9565b90505b6020808601519087015186516040808a015190516363a6c97360e11b81526001600160a01b0388169463c74d92e6946137fb9489946001948a90600401614cf5565b60006040518083038186803b15801561381357600080fd5b505afa158015613827573d6000803e3d6000fd5b506000925050506138616040518060400160405280601281526020017176616c6964536c697070616765507269636560701b815250612d6e565b6060870151608088015160a089015160405163037c3c9b60e01b815286516004820152602481019390935290151560448301526064820152600160848201526001600160a01b0385169063037c3c9b9060a401602060405180830381865afa1580156138d1573d6000803e3d6000fd5b505050506040513d601f19601f820116820180604052508101906138f591906147c9565b905060006139198361390a8a60200151613ab4565b6139149190614e58565b613b1e565b60095489516040808c015160808d01519151630a2eb75760e11b81529495506001600160a01b039093169363145d6eae9361395e939230928892918a91600401614d26565b600060405180830381600087803b15801561397857600080fd5b505af115801561398c573d6000803e3d6000fd5b505089516040808c01516080808e015160065460055485518a815260208101959095529115159484019490945260608301899052600091830182905260a0830182905260c0830182905260e0830191909152306101008301526001600160a01b0392831661012083015282166101408201526001610160820152911692507ffc1f8b40dd27177b575feb8190e47ed65af3a506a9e92b5df7e089b4b1a3626a91506101800160405180910390a2613a4283613b70565b5050505050505050565b613a568282610ad9565b61098e57613a6381613c15565b613a6e836020613c27565b604051602001613a7f929190614e7f565b60408051601f198184030181529082905262461bcd60e51b825261097b91600401614de4565b6060612e898484600085613dc9565b60006001600160ff1b03821115612e5d5760405162461bcd60e51b815260206004820152602860248201527f53616665436173743a2076616c756520646f65736e27742066697420696e2061604482015267371034b73a191a9b60c11b606482015260840161097b565b600080821215612e5d5760405162461bcd60e51b815260206004820181905260248201527f53616665436173743a2076616c7565206d75737420626520706f736974697665604482015260640161097b565b6000811315613bdd5760048054600654604051636ce5768960e11b81526001600160a01b039283169363d9caed1293613baf9316913091879101614d5c565b600060405180830381600087803b158015613bc957600080fd5b505af1158015611621573d6000803e3d6000fd5b60008112156124be576004546124be906001600160a01b0316613c0283600019614eee565b6006546001600160a01b03169190612c58565b60606104956001600160a01b03831660145b60606000613c36836002614986565b613c41906002614c88565b6001600160401b03811115613c5857613c586140c2565b6040519080825280601f01601f191660200182016040528015613c82576020820181803683370190505b509050600360fc1b81600081518110613c9d57613c9d6148c7565b60200101906001600160f81b031916908160001a905350600f60fb1b81600181518110613ccc57613ccc6148c7565b60200101906001600160f81b031916908160001a9053506000613cf0846002614986565b613cfb906001614c88565b90505b6001811115613d73576f181899199a1a9b1b9c1cb0b131b232b360811b85600f1660108110613d2f57613d2f6148c7565b1a60f81b828281518110613d4557613d456148c7565b60200101906001600160f81b031916908160001a90535060049490941c93613d6c81614f1e565b9050613cfe565b508315613dc25760405162461bcd60e51b815260206004820181905260248201527f537472696e67733a20686578206c656e67746820696e73756666696369656e74604482015260640161097b565b9392505050565b606082471015613e2a5760405162461bcd60e51b815260206004820152602660248201527f416464726573733a20696e73756666696369656e742062616c616e636520666f6044820152651c8818d85b1b60d21b606482015260840161097b565b600080866001600160a01b03168587604051613e469190614c2e565b60006040518083038185875af1925050503d8060008114613e83576040519150601f19603f3d011682016040523d82523d6000602084013e613e88565b606091505b5091509150613e9987838387613ea4565b979650505050505050565b60608315613f13578251600003613f0c576001600160a01b0385163b613f0c5760405162461bcd60e51b815260206004820152601d60248201527f416464726573733a2063616c6c20746f206e6f6e2d636f6e7472616374000000604482015260640161097b565b5081612e89565b612e898383815115613f285781518083602001fd5b8060405162461bcd60e51b815260040161097b9190614de4565b6040805161016081018252600080825260208201819052918101829052606081018290526080810182905260a0810182905260c0810182905260e081018290526101008101829052610120810182905261014081019190915290565b600060208284031215613fb057600080fd5b81356001600160e01b031981168114613dc257600080fd5b6001600160a01b0391909116815260200190565b80151581146124be57600080fd5b8035613ff581613fdc565b919050565b60008060008060008060008060006101208a8c03121561401957600080fd5b893561402481613fdc565b985060208a0135975060408a0135965060608a0135955060808a0135945060a08a0135935060c08a0135925060e08a013561405e81613fdc565b91506101008a013561406f81613fdc565b809150509295985092959850929598565b60008060006060848603121561409557600080fd5b83356140a081613fdc565b92506020840135915060408401356140b781613fdc565b809150509250925092565b634e487b7160e01b600052604160045260246000fd5b60405161016081016001600160401b03811182821017156140fb576140fb6140c2565b60405290565b604051601f8201601f191681016001600160401b0381118282101715614129576141296140c2565b604052919050565b60006001600160401b0382111561414a5761414a6140c2565b5060051b60200190565b600082601f83011261416557600080fd5b8135602061417a61417583614131565b614101565b82815260059290921b8401810191818101908684111561419957600080fd5b8286015b848110156141bd5780356141b081613fdc565b835291830191830161419d565b509695505050505050565b6000806000606084860312156141dd57600080fd5b83356001600160401b03808211156141f457600080fd5b61420087838801614154565b945060209150818601358181111561421757600080fd5b8601601f8101881361422857600080fd5b803561423661417582614131565b81815260059190911b8201840190848101908a83111561425557600080fd5b928501925b828410156142735783358252928501929085019061425a565b9650505050604086013591508082111561428c57600080fd5b5061429986828701614154565b9150509250925092565b6000602082840312156142b557600080fd5b5035919050565b6001600160a01b03811681146124be57600080fd5b8035613ff5816142bc565b600080604083850312156142ef57600080fd5b823591506020830135614301816142bc565b809150509250929050565b60008060008060008060008060008060006101608c8e03121561432e57600080fd5b8b35614339816142bc565b9a5060208c0135614349816142bc565b995060408c0135614359816142bc565b985060608c0135614369816142bc565b975060808c0135614379816142bc565b965060a08c0135614389816142bc565b955060c08c0135614399816142bc565b945060e08c01356143a9816142bc565b93506101008c01356143ba816142bc565b92506143c96101208d016142d1565b91506143d86101408d016142d1565b90509295989b509295989b9093969950565b6000806000606084860312156143ff57600080fd5b833592506020840135915060408401356140b781613fdc565b6000806040838503121561442b57600080fd5b82359150602083013561430181613fdc565b60006020828403121561444f57600080fd5b8135613dc281613fdc565b600082601f83011261446b57600080fd5b8135602061447b61417583614131565b82815260059290921b8401810191818101908684111561449a57600080fd5b8286015b848110156141bd578035835291830191830161449e565b600080604083850312156144c857600080fd5b82356001600160401b038111156144de57600080fd5b6144ea8582860161445a565b925050602083013561430181613fdc565b600080600080600060a0868803121561451357600080fd5b85359450602086013593506040860135925060608601359150608086013561453a81613fdc565b809150509295509295909350565b60008060006060848603121561455d57600080fd5b83356001600160401b0381111561457357600080fd5b61457f8682870161445a565b935050602084013561459081613fdc565b915060408401356140b781613fdc565b600080604083850312156145b357600080fd5b82356145be816142bc565b9150602083013561430181613fdc565b600080600080600080600060e0888a0312156145e957600080fd5b87356145f481613fdc565b965060208801359550604088013561460b81613fdc565b9450606088013593506080880135925060a088013561462981613fdc565b915060c088013561463981613fdc565b8091505092959891949750929550565b6000806000806080858703121561465f57600080fd5b8435935060208501359250604085013561467881613fdc565b9150606085013561468881613fdc565b939692955090935050565b60ff811681146124be57600080fd5b8035613ff581614693565b63ffffffff811681146124be57600080fd5b8035613ff5816146ad565b6001600160801b03811681146124be57600080fd5b8035613ff5816146ca565b6000808284036101808112156146ff57600080fd5b6101608082121561470f57600080fd5b6147176140d8565b9150614722856146a2565b8252614730602086016146bf565b6020830152614741604086016146a2565b6040830152614752606086016142d1565b60608301526080850135608083015260a085013560a083015261477760c086016146df565b60c083015261478860e086016146df565b60e083015261010085810135908301526101208086013590830152610140808601359083015290925082906147be818601613fea565b925050509250929050565b6000602082840312156147db57600080fd5b5051919050565b8051613ff581614693565b8051613ff5816146ad565b8051613ff5816142bc565b8051613ff5816146ca565b6000610160828403121561482157600080fd5b6148296140d8565b614832836147e2565b8152614840602084016147ed565b6020820152614851604084016147e2565b6040820152614862606084016147f8565b60608201526080830151608082015260a083015160a082015261488760c08401614803565b60c082015261489860e08401614803565b60e082015261010083810151908201526101208084015190820152610140928301519281019290925250919050565b634e487b7160e01b600052603260045260246000fd5b6000806000806000806000806000806101408b8d0312156148fd57600080fd5b8a5161490881613fdc565b60208c0151909a5061491981614693565b60408c015160608d0151919a509850614931816142bc565b8097505060808b0151955060a08b0151945060c08b0151935060e08b015192506101008b015191506101208b015190509295989b9194979a5092959850565b634e487b7160e01b600052601160045260246000fd5b808202811582820484141761049557610495614970565b6001600160a01b039384168152919092166020820152901515604082015260600190565b600080600080600080600060e0888a0312156149dc57600080fd5b875196506020880151955060408801519450606088015193506080880151925060a0880151614a0a81613fdc565b8092505060c0880151905092959891949750929550565b600060208284031215614a3357600080fd5b8151613dc2816142bc565b6001600160a01b039687168152949095166020850152911515604084015260608301521515608082015290151560a082015260c00190565b948552602085019390935260408401919091526060830152608082015260a00190565b6001600160801b03169052565b815160ff16815261016081016020830151614ac9602084018263ffffffff169052565b506040830151614ade604084018260ff169052565b506060830151614af960608401826001600160a01b03169052565b506080830151608083015260a083015160a083015260c0830151614b2060c0840182614a99565b5060e0830151614b3360e0840182614a99565b506101008381015190830152610120808401519083015261014092830151929091019190915290565b9815158952961515602089015260408801959095526001600160a01b03939093166060870152608086019190915260a08501526001600160801b031660c084015260e08301526101008201526101200190565b8183823760009101908152919050565b604080825283519082018190526000906020906060840190828701845b82811015614bf857815184529284019290840190600101614bdc565b50505093151592019190915250919050565b60005b83811015614c25578181015183820152602001614c0d565b50506000910152565b60008251614c40818460208701614c0a565b9190910192915050565b6020808252600b908201526a6d6b743a6c697120706f7360a81b604082015260600190565b6001600160a01b03929092168252602082015260400190565b8082018082111561049557610495614970565b600060018201614cad57614cad614970565b5060010190565b600060208284031215614cc657600080fd5b604051602081016001600160401b0381118282101715614ce857614ce86140c2565b6040529151825250919050565b96518752941515602087015260408601939093526060850191909152608084015260a083015260c082015260e00190565b6001600160a01b03968716815294909516602085015260408401929092526060830152608082015290151560a082015260c00190565b6001600160a01b039384168152919092166020820152604081019190915260600190565b6001600160a01b039290921682521515602082015260400190565b60609290921b6001600160601b0319168252601482015260340190565b60008151808452614dd0816020860160208601614c0a565b601f01601f19169290920160200192915050565b602081526000613dc26020830184614db8565b600082614e1457634e487b7160e01b600052601260045260246000fd5b500490565b600060208284031215614e2b57600080fd5b8151613dc281613fdc565b604081526000614e496040830185614db8565b90508260208301529392505050565b8181036000831280158383131683831282161715614e7857614e78614970565b5092915050565b76020b1b1b2b9b9a1b7b73a3937b61d1030b1b1b7bab73a1604d1b815260008351614eb1816017850160208801614c0a565b7001034b99036b4b9b9b4b733903937b6329607d1b6017918401918201528351614ee2816028840160208801614c0a565b01602801949350505050565b80820260008212600160ff1b84141615614f0a57614f0a614970565b818105831482151761049557610495614970565b600081614f2d57614f2d614970565b50600019019056fe4d61726b65742e736f6c2f6465637265617365436f6c6c61746572616c2f6163636f756e74d2ac4688baaf870dba21f18c3a385e1ae58b102c0d60258cf384dc361df60fe46d61726b65742f696e697469617a6c697a652f5f6164647265737350726f76696465722d2d2d2d2d2d2d2d2d2d2d2d2d756470617465206465637265617365206f726465722d2d2d2d2d2d2d2d2d2d2dfb248bbb6ca5a799a6bb9ba79f58aa5cdbe0e5979238a967315e7ffbfd119d1a41821a71fcd4fd9aecd428014f9b7f61fb3bea3424e8a828796db51ad474a2752d2d2d2d2d2d2d2d2d2d2d637265617465206465637265617365206f726465722069642d2d2d2d2d2d2d2d2d2d2d6d61726b65742e736f6c2f5f63726561746544656372656173654f72646572a26469706673582212207ca1e0d5bf2621a8294010c771f0c1f642c01640924617af29b4472d8ce0b45964736f6c63430008110033",
  "linkReferences": {},
  "deployedLinkReferences": {}
}