{
  "_format": "hh-sol-artifact-1",
  "contractName": "Market",
  "sourceName": "contracts/market/Market.sol",
  "abi": [
    {
      "inputs": [
        {
          "internalType": "string",
          "name": "_name",
          "type": "string"
        }
      ],
      "stateMutability": "nonpayable",
      "type": "constructor"
    },
    {
      "anonymous": false,
      "inputs": [
        {
          "indexed": true,
          "internalType": "address",
          "name": "account",
          "type": "address"
        },
        {
          "indexed": false,
          "internalType": "bool",
          "name": "isLong",
          "type": "bool"
        },
        {
          "indexed": false,
          "internalType": "bool",
          "name": "isIncrease",
          "type": "bool"
        },
        {
          "indexed": false,
          "internalType": "uint256",
          "name": "orderID",
          "type": "uint256"
        },
        {
          "indexed": false,
          "internalType": "address",
          "name": "market",
          "type": "address"
        }
      ],
      "name": "DeleteOrder",
      "type": "event"
    },
    {
      "anonymous": false,
      "inputs": [
        {
          "indexed": true,
          "internalType": "bytes32",
          "name": "role",
          "type": "bytes32"
        },
        {
          "indexed": true,
          "internalType": "bytes32",
          "name": "previousAdminRole",
          "type": "bytes32"
        },
        {
          "indexed": true,
          "internalType": "bytes32",
          "name": "newAdminRole",
          "type": "bytes32"
        }
      ],
      "name": "RoleAdminChanged",
      "type": "event"
    },
    {
      "anonymous": false,
      "inputs": [
        {
          "indexed": true,
          "internalType": "bytes32",
          "name": "role",
          "type": "bytes32"
        },
        {
          "indexed": true,
          "internalType": "address",
          "name": "account",
          "type": "address"
        },
        {
          "indexed": true,
          "internalType": "address",
          "name": "sender",
          "type": "address"
        }
      ],
      "name": "RoleGranted",
      "type": "event"
    },
    {
      "anonymous": false,
      "inputs": [
        {
          "indexed": true,
          "internalType": "bytes32",
          "name": "role",
          "type": "bytes32"
        },
        {
          "indexed": true,
          "internalType": "address",
          "name": "account",
          "type": "address"
        },
        {
          "indexed": true,
          "internalType": "address",
          "name": "sender",
          "type": "address"
        }
      ],
      "name": "RoleRevoked",
      "type": "event"
    },
    {
      "anonymous": false,
      "inputs": [
        {
          "indexed": true,
          "internalType": "address",
          "name": "account",
          "type": "address"
        },
        {
          "indexed": false,
          "internalType": "bool",
          "name": "isLong",
          "type": "bool"
        },
        {
          "indexed": false,
          "internalType": "bool",
          "name": "isIncrease",
          "type": "bool"
        },
        {
          "indexed": false,
          "internalType": "uint256",
          "name": "orderID",
          "type": "uint256"
        },
        {
          "indexed": false,
          "internalType": "address",
          "name": "market",
          "type": "address"
        },
        {
          "indexed": false,
          "internalType": "uint256",
          "name": "size",
          "type": "uint256"
        },
        {
          "indexed": false,
          "internalType": "uint256",
          "name": "collateral",
          "type": "uint256"
        },
        {
          "indexed": false,
          "internalType": "uint256",
          "name": "triggerPrice",
          "type": "uint256"
        },
        {
          "indexed": false,
          "internalType": "uint8",
          "name": "triggerAbove",
          "type": "uint8"
        },
        {
          "indexed": false,
          "internalType": "uint256",
          "name": "tp",
          "type": "uint256"
        },
        {
          "indexed": false,
          "internalType": "uint256",
          "name": "sl",
          "type": "uint256"
        }
      ],
      "name": "UpdateOrder",
      "type": "event"
    },
    {
      "anonymous": false,
      "inputs": [
        {
          "indexed": true,
          "internalType": "address",
          "name": "account",
          "type": "address"
        },
        {
          "indexed": false,
          "internalType": "uint256",
          "name": "collateralDelta",
          "type": "uint256"
        },
        {
          "indexed": false,
          "internalType": "uint256",
          "name": "sizeDelta",
          "type": "uint256"
        },
        {
          "indexed": false,
          "internalType": "bool",
          "name": "isLong",
          "type": "bool"
        },
        {
          "indexed": false,
          "internalType": "uint256",
          "name": "price",
          "type": "uint256"
        },
        {
          "indexed": false,
          "internalType": "int256",
          "name": "pnl",
          "type": "int256"
        },
        {
          "indexed": false,
          "internalType": "uint256",
          "name": "execFee",
          "type": "uint256"
        },
        {
          "indexed": false,
          "internalType": "int256",
          "name": "fundFee",
          "type": "int256"
        },
        {
          "indexed": false,
          "internalType": "uint256",
          "name": "tradeFee",
          "type": "uint256"
        },
        {
          "indexed": false,
          "internalType": "address",
          "name": "market",
          "type": "address"
        },
        {
          "indexed": false,
          "internalType": "address",
          "name": "collateralToken",
          "type": "address"
        },
        {
          "indexed": false,
          "internalType": "address",
          "name": "indexToken",
          "type": "address"
        },
        {
          "indexed": false,
          "internalType": "uint256",
          "name": "category",
          "type": "uint256"
        }
      ],
      "name": "UpdatePosition",
      "type": "event"
    },
    {
      "inputs": [],
      "name": "DEFAULT_ADMIN_ROLE",
      "outputs": [
        {
          "internalType": "bytes32",
          "name": "",
          "type": "bytes32"
        }
      ],
      "stateMutability": "view",
      "type": "function"
    },
    {
      "inputs": [],
      "name": "ROLE_FACTORY",
      "outputs": [
        {
          "internalType": "bytes32",
          "name": "",
          "type": "bytes32"
        }
      ],
      "stateMutability": "view",
      "type": "function"
    },
    {
      "inputs": [],
      "name": "ROLE_POS_KEEPER",
      "outputs": [
        {
          "internalType": "bytes32",
          "name": "",
          "type": "bytes32"
        }
      ],
      "stateMutability": "view",
      "type": "function"
    },
    {
      "inputs": [
        {
          "internalType": "bool",
          "name": "_isIncrease",
          "type": "bool"
        },
        {
          "internalType": "uint256",
          "name": "_orderID",
          "type": "uint256"
        },
        {
          "internalType": "bool",
          "name": "_isLong",
          "type": "bool"
        }
      ],
      "name": "cancelOrder",
      "outputs": [],
      "stateMutability": "nonpayable",
      "type": "function"
    },
    {
      "inputs": [
        {
          "internalType": "bool[]",
          "name": "_isIncreaseList",
          "type": "bool[]"
        },
        {
          "internalType": "uint256[]",
          "name": "_orderIDList",
          "type": "uint256[]"
        },
        {
          "internalType": "bool[]",
          "name": "_isLongList",
          "type": "bool[]"
        }
      ],
      "name": "cancelOrderList",
      "outputs": [],
      "stateMutability": "nonpayable",
      "type": "function"
    },
    {
      "inputs": [],
      "name": "collateralToken",
      "outputs": [
        {
          "internalType": "address",
          "name": "",
          "type": "address"
        }
      ],
      "stateMutability": "view",
      "type": "function"
    },
    {
      "inputs": [
        {
          "internalType": "uint256",
          "name": "",
          "type": "uint256"
        },
        {
          "internalType": "bool",
          "name": "",
          "type": "bool"
        }
      ],
      "name": "decreaseCollateral",
      "outputs": [],
      "stateMutability": "nonpayable",
      "type": "function"
    },
    {
      "inputs": [
        {
          "components": [
            {
              "internalType": "uint8",
              "name": "version",
              "type": "uint8"
            },
            {
              "internalType": "uint32",
              "name": "updatedAtBlock",
              "type": "uint32"
            },
            {
              "internalType": "uint8",
              "name": "triggerAbove",
              "type": "uint8"
            },
            {
              "internalType": "address",
              "name": "account",
              "type": "address"
            },
            {
              "internalType": "uint256",
              "name": "collateral",
              "type": "uint256"
            },
            {
              "internalType": "uint256",
              "name": "size",
              "type": "uint256"
            },
            {
              "internalType": "uint128",
              "name": "price",
              "type": "uint128"
            },
            {
              "internalType": "uint128",
              "name": "priceExtra",
              "type": "uint128"
            },
            {
              "internalType": "uint256",
              "name": "orderID",
              "type": "uint256"
            },
            {
              "internalType": "uint256",
              "name": "extra0",
              "type": "uint256"
            },
            {
              "internalType": "uint256",
              "name": "extra1",
              "type": "uint256"
            }
          ],
          "internalType": "struct Order.Props",
          "name": "",
          "type": "tuple"
        },
        {
          "internalType": "bool",
          "name": "",
          "type": "bool"
        }
      ],
      "name": "decreasePositionFromOrder",
      "outputs": [],
      "stateMutability": "nonpayable",
      "type": "function"
    },
    {
      "inputs": [
        {
          "internalType": "bool",
          "name": "_isLimit",
          "type": "bool"
        },
        {
          "internalType": "uint256",
          "name": "_sizeDelta",
          "type": "uint256"
        },
        {
          "internalType": "bool",
          "name": "_isKeepLev",
          "type": "bool"
        },
        {
          "internalType": "uint256",
          "name": "_price",
          "type": "uint256"
        },
        {
          "internalType": "uint256",
          "name": "_slippage",
          "type": "uint256"
        },
        {
          "internalType": "bool",
          "name": "_isLong",
          "type": "bool"
        },
        {
          "internalType": "bool",
          "name": "_isExec",
          "type": "bool"
        }
      ],
      "name": "decreaseTrade",
      "outputs": [],
      "stateMutability": "nonpayable",
      "type": "function"
    },
    {
      "inputs": [
        {
          "internalType": "bytes32",
          "name": "_orderKey",
          "type": "bytes32"
        },
        {
          "internalType": "contract IOrderBook",
          "name": "_orderBook",
          "type": "address"
        },
        {
          "internalType": "bool",
          "name": "_isLong",
          "type": "bool"
        },
        {
          "internalType": "bool",
          "name": "_isIncrease",
          "type": "bool"
        }
      ],
      "name": "execOrderKey",
      "outputs": [],
      "stateMutability": "nonpayable",
      "type": "function"
    },
    {
      "inputs": [
        {
          "internalType": "bytes32[]",
          "name": "_orderKeyList",
          "type": "bytes32[]"
        },
        {
          "internalType": "bool",
          "name": "_isLong",
          "type": "bool"
        },
        {
          "internalType": "bool",
          "name": "_isIncrease",
          "type": "bool"
        }
      ],
      "name": "execOrderKeys",
      "outputs": [],
      "stateMutability": "nonpayable",
      "type": "function"
    },
    {
      "inputs": [
        {
          "internalType": "uint256",
          "name": "_start",
          "type": "uint256"
        },
        {
          "internalType": "uint256",
          "name": "_end",
          "type": "uint256"
        },
        {
          "internalType": "bool",
          "name": "_isLong",
          "type": "bool"
        },
        {
          "internalType": "bool",
          "name": "_isIncrease",
          "type": "bool"
        }
      ],
      "name": "execOrders",
      "outputs": [],
      "stateMutability": "nonpayable",
      "type": "function"
    },
    {
      "inputs": [],
      "name": "feeRouter",
      "outputs": [
        {
          "internalType": "contract IFeeRouter",
          "name": "",
          "type": "address"
        }
      ],
      "stateMutability": "view",
      "type": "function"
    },
    {
      "inputs": [
        {
          "internalType": "bytes32",
          "name": "role",
          "type": "bytes32"
        }
      ],
      "name": "getRoleAdmin",
      "outputs": [
        {
          "internalType": "bytes32",
          "name": "",
          "type": "bytes32"
        }
      ],
      "stateMutability": "view",
      "type": "function"
    },
    {
      "inputs": [
        {
          "internalType": "bytes32",
          "name": "role",
          "type": "bytes32"
        },
        {
          "internalType": "address",
          "name": "account",
          "type": "address"
        }
      ],
      "name": "grantRole",
      "outputs": [],
      "stateMutability": "nonpayable",
      "type": "function"
    },
    {
      "inputs": [
        {
          "internalType": "bytes32",
          "name": "role",
          "type": "bytes32"
        },
        {
          "internalType": "address",
          "name": "account",
          "type": "address"
        }
      ],
      "name": "hasRole",
      "outputs": [
        {
          "internalType": "bool",
          "name": "",
          "type": "bool"
        }
      ],
      "stateMutability": "view",
      "type": "function"
    },
    {
      "inputs": [
        {
          "internalType": "uint256",
          "name": "_collateralDelta",
          "type": "uint256"
        },
        {
          "internalType": "bool",
          "name": "_isLong",
          "type": "bool"
        }
      ],
      "name": "increaseCollateral",
      "outputs": [],
      "stateMutability": "nonpayable",
      "type": "function"
    },
    {
      "inputs": [
        {
          "components": [
            {
              "internalType": "uint8",
              "name": "version",
              "type": "uint8"
            },
            {
              "internalType": "uint32",
              "name": "updatedAtBlock",
              "type": "uint32"
            },
            {
              "internalType": "uint8",
              "name": "triggerAbove",
              "type": "uint8"
            },
            {
              "internalType": "address",
              "name": "account",
              "type": "address"
            },
            {
              "internalType": "uint256",
              "name": "collateral",
              "type": "uint256"
            },
            {
              "internalType": "uint256",
              "name": "size",
              "type": "uint256"
            },
            {
              "internalType": "uint128",
              "name": "price",
              "type": "uint128"
            },
            {
              "internalType": "uint128",
              "name": "priceExtra",
              "type": "uint128"
            },
            {
              "internalType": "uint256",
              "name": "orderID",
              "type": "uint256"
            },
            {
              "internalType": "uint256",
              "name": "extra0",
              "type": "uint256"
            },
            {
              "internalType": "uint256",
              "name": "extra1",
              "type": "uint256"
            }
          ],
          "internalType": "struct Order.Props",
          "name": "order",
          "type": "tuple"
        },
        {
          "internalType": "bool",
          "name": "_isLong",
          "type": "bool"
        }
      ],
      "name": "increasePositionFromOrder",
      "outputs": [],
      "stateMutability": "nonpayable",
      "type": "function"
    },
    {
      "inputs": [
        {
          "internalType": "bool",
          "name": "_isLimit",
          "type": "bool"
        },
        {
          "internalType": "uint256",
          "name": "_payDelta",
          "type": "uint256"
        },
        {
          "internalType": "uint256",
          "name": "_sizeDelta",
          "type": "uint256"
        },
        {
          "internalType": "uint256",
          "name": "_price",
          "type": "uint256"
        },
        {
          "internalType": "uint256",
          "name": "_tpPrice",
          "type": "uint256"
        },
        {
          "internalType": "uint256",
          "name": "_slPrice",
          "type": "uint256"
        },
        {
          "internalType": "uint256",
          "name": "_slippage",
          "type": "uint256"
        },
        {
          "internalType": "bool",
          "name": "_isLong",
          "type": "bool"
        },
        {
          "internalType": "bool",
          "name": "_isExec",
          "type": "bool"
        }
      ],
      "name": "increaseTrade",
      "outputs": [],
      "stateMutability": "nonpayable",
      "type": "function"
    },
    {
      "inputs": [],
      "name": "indexToken",
      "outputs": [
        {
          "internalType": "address",
          "name": "",
          "type": "address"
        }
      ],
      "stateMutability": "view",
      "type": "function"
    },
    {
      "inputs": [
        {
          "internalType": "address",
          "name": "_positionBook",
          "type": "address"
        },
        {
          "internalType": "contract IOrderBook",
          "name": "_orderBookLong",
          "type": "address"
        },
        {
          "internalType": "contract IOrderBook",
          "name": "_orderBookShort",
          "type": "address"
        },
        {
          "internalType": "address",
          "name": "_addressProvider",
          "type": "address"
        },
        {
          "internalType": "address",
          "name": "_indexToken",
          "type": "address"
        },
        {
          "internalType": "address",
          "name": "_feeRouter",
          "type": "address"
        },
        {
          "internalType": "address",
          "name": "_feeVault",
          "type": "address"
        },
        {
          "internalType": "address",
          "name": "_marketRouter",
          "type": "address"
        },
        {
          "internalType": "address",
          "name": "_vault",
          "type": "address"
        },
        {
          "internalType": "address",
          "name": "_vaultRouter",
          "type": "address"
        },
        {
          "internalType": "address",
          "name": "_collateralToken",
          "type": "address"
        }
      ],
      "name": "initialize",
      "outputs": [],
      "stateMutability": "nonpayable",
      "type": "function"
    },
    {
      "inputs": [
        {
          "internalType": "bytes32",
          "name": "_key",
          "type": "bytes32"
        },
        {
          "internalType": "bool",
          "name": "_isLong",
          "type": "bool"
        }
      ],
      "name": "isLiquidate",
      "outputs": [
        {
          "internalType": "uint256",
          "name": "_state",
          "type": "uint256"
        }
      ],
      "stateMutability": "view",
      "type": "function"
    },
    {
      "inputs": [
        {
          "internalType": "address",
          "name": "_account",
          "type": "address"
        },
        {
          "internalType": "bool",
          "name": "",
          "type": "bool"
        }
      ],
      "name": "liquidatePosition",
      "outputs": [
        {
          "internalType": "uint256",
          "name": "",
          "type": "uint256"
        }
      ],
      "stateMutability": "nonpayable",
      "type": "function"
    },
    {
      "inputs": [
        {
          "internalType": "bytes32[]",
          "name": "keys",
          "type": "bytes32[]"
        },
        {
          "internalType": "bool",
          "name": "isLong",
          "type": "bool"
        }
      ],
      "name": "liquidatePositionByKey",
      "outputs": [],
      "stateMutability": "nonpayable",
      "type": "function"
    },
    {
      "inputs": [],
      "name": "marketAddressesProvider",
      "outputs": [
        {
          "internalType": "contract IMarketAddressesProvider",
          "name": "",
          "type": "address"
        }
      ],
      "stateMutability": "view",
      "type": "function"
    },
    {
      "inputs": [],
      "name": "orderBookLong",
      "outputs": [
        {
          "internalType": "contract IOrderBook",
          "name": "",
          "type": "address"
        }
      ],
      "stateMutability": "view",
      "type": "function"
    },
    {
      "inputs": [],
      "name": "orderBookShort",
      "outputs": [
        {
          "internalType": "contract IOrderBook",
          "name": "",
          "type": "address"
        }
      ],
      "stateMutability": "view",
      "type": "function"
    },
    {
      "inputs": [],
      "name": "positionBook",
      "outputs": [
        {
          "internalType": "contract IPositionBook",
          "name": "",
          "type": "address"
        }
      ],
      "stateMutability": "view",
      "type": "function"
    },
    {
      "inputs": [
        {
          "internalType": "bytes32",
          "name": "role",
          "type": "bytes32"
        },
        {
          "internalType": "address",
          "name": "account",
          "type": "address"
        }
      ],
      "name": "renounceRole",
      "outputs": [],
      "stateMutability": "nonpayable",
      "type": "function"
    },
    {
      "inputs": [
        {
          "internalType": "bytes32",
          "name": "role",
          "type": "bytes32"
        },
        {
          "internalType": "address",
          "name": "account",
          "type": "address"
        }
      ],
      "name": "revokeRole",
      "outputs": [],
      "stateMutability": "nonpayable",
      "type": "function"
    },
    {
      "inputs": [
        {
          "internalType": "bool",
          "name": "_delete",
          "type": "bool"
        }
      ],
      "name": "setDeleteOrdersWhenPositionClosed",
      "outputs": [],
      "stateMutability": "nonpayable",
      "type": "function"
    },
    {
      "inputs": [
        {
          "internalType": "bool",
          "name": "_p",
          "type": "bool"
        }
      ],
      "name": "setOpenDebug",
      "outputs": [],
      "stateMutability": "nonpayable",
      "type": "function"
    },
    {
      "inputs": [
        {
          "internalType": "uint256",
          "name": "_spread",
          "type": "uint256"
        }
      ],
      "name": "setSpread",
      "outputs": [],
      "stateMutability": "nonpayable",
      "type": "function"
    },
    {
      "inputs": [],
      "name": "spread",
      "outputs": [
        {
          "internalType": "uint256",
          "name": "",
          "type": "uint256"
        }
      ],
      "stateMutability": "view",
      "type": "function"
    },
    {
      "inputs": [
        {
          "internalType": "bytes4",
          "name": "interfaceId",
          "type": "bytes4"
        }
      ],
      "name": "supportsInterface",
      "outputs": [
        {
          "internalType": "bool",
          "name": "",
          "type": "bool"
        }
      ],
      "stateMutability": "view",
      "type": "function"
    },
    {
      "inputs": [
        {
          "internalType": "uint256",
          "name": "_orderID",
          "type": "uint256"
        },
        {
          "internalType": "uint256",
          "name": "_triggerPrice",
          "type": "uint256"
        },
        {
          "internalType": "bool",
          "name": "_isLong",
          "type": "bool"
        }
      ],
      "name": "updateDecreaseOrder",
      "outputs": [],
      "stateMutability": "nonpayable",
      "type": "function"
    },
    {
      "inputs": [
        {
          "internalType": "uint256",
          "name": "_orderID",
          "type": "uint256"
        },
        {
          "internalType": "uint256",
          "name": "_triggerPrice",
          "type": "uint256"
        },
        {
          "internalType": "uint256",
          "name": "_tpPrice",
          "type": "uint256"
        },
        {
          "internalType": "uint256",
          "name": "_slPrice",
          "type": "uint256"
        },
        {
          "internalType": "bool",
          "name": "_isLong",
          "type": "bool"
        }
      ],
      "name": "updateIncreaseOrder",
      "outputs": [],
      "stateMutability": "nonpayable",
      "type": "function"
    },
    {
      "inputs": [],
      "name": "vault",
      "outputs": [
        {
          "internalType": "address",
          "name": "",
          "type": "address"
        }
      ],
      "stateMutability": "view",
      "type": "function"
    }
  ],
  "bytecode": "0x60806040523480156200001157600080fd5b50604051620062bf380380620062bf83398101604081905262000034916200018f565b6001600e556002620000478282620002f3565b50600c805460ff60a01b1916600160a01b17905562000068600033620000d4565b620000947f41821a71fcd4fd9aecd428014f9b7f61fb3bea3424e8a828796db51ad474a27533620000d4565b620000c07ffb248bbb6ca5a799a6bb9ba79f58aa5cdbe0e5979238a967315e7ffbfd119d1a33620000d4565b50600c805460ff60a81b19169055620003bf565b6000828152600f602090815260408083206001600160a01b038516845290915290205460ff1662000175576000828152600f602090815260408083206001600160a01b03851684529091529020805460ff19166001179055620001343390565b6001600160a01b0316816001600160a01b0316837f2f8788117e7eff1d82e926ec794901d17c78024a50270940304540a733656f0d60405160405180910390a45b5050565b634e487b7160e01b600052604160045260246000fd5b60006020808385031215620001a357600080fd5b82516001600160401b0380821115620001bb57600080fd5b818501915085601f830112620001d057600080fd5b815181811115620001e557620001e562000179565b604051601f8201601f19908116603f0116810190838211818310171562000210576200021062000179565b8160405282815288868487010111156200022957600080fd5b600093505b828410156200024d57848401860151818501870152928501926200022e565b600086848301015280965050505050505092915050565b600181811c908216806200027957607f821691505b6020821081036200029a57634e487b7160e01b600052602260045260246000fd5b50919050565b601f821115620002ee57600081815260208120601f850160051c81016020861015620002c95750805b601f850160051c820191505b81811015620002ea57828155600101620002d5565b5050505b505050565b81516001600160401b038111156200030f576200030f62000179565b620003278162000320845462000264565b84620002a0565b602080601f8311600181146200035f5760008415620003465750858301515b600019600386901b1c1916600185901b178555620002ea565b600085815260208120601f198616915b8281101562000390578886015182559484019460019091019084016200036f565b5085821015620003af5787850151600019600388901b60f8161c191681555b5050505050600190811b01905550565b615ef080620003cf6000396000f3fe608060405234801561001057600080fd5b50600436106101c25760003560e01c806301ffc9a7146101c757806305ba9ae9146101ef5780630ad074f8146102095780630c9def411461021e578063112d3b7b1461022f5780631c8b5804146102425780631f86cb5414610255578063248a9ca3146102685780632f2ff15d1461028957806336568abe1461029c578063553107f9146102af5780635c25c76c146102c457806368bf08a1146102cc57806376902b83146102f85780637b2fd1e51461030b5780638fab7bd81461031c57806391d148541461032f57806392e1f776146103425780639b498f3c146103555780639cb9b65714610368578063a01ffe5b14610394578063a217fddf146103a7578063a22b5096146103af578063ac0b05a6146103c2578063b057bfae146103d3578063b2016bd4146103e6578063b3f7edcf146103f7578063b66a261c1461040c578063d547741f1461041f578063e20965b514610432578063e52740f714610445578063e7d015f214610458578063e936fcfb14610469578063f105e2831461047c578063f29ebf611461048f578063f65cf157146104a0578063f9159954146104b3578063fbfa77cf146104c6575b600080fd5b6101da6101d5366004614aeb565b6104d7565b60405190151581526020015b60405180910390f35b600b546001600160a01b03165b6040516101e69190614b15565b61021c610217366004614b5c565b61050e565b005b600c546001600160a01b03166101fc565b61021c61023d366004614baf565b610811565b61021c610250366004614c35565b610983565b61021c610263366004614d7d565b610c02565b61027b610276366004614e58565b610c9d565b6040519081526020016101e6565b61021c610297366004614e7c565b610cb2565b61021c6102aa366004614e7c565b610cce565b61027b600080516020615dee83398151915281565b60005461027b565b61021c6102da366004614eac565b600c8054911515600160a81b0260ff60a81b19909216919091179055565b61021c610306366004614ec9565b610d4c565b600a546001600160a01b03166101fc565b61027b61032a366004614fa7565b610ef7565b6101da61033d366004614e7c565b61124e565b61021c610350366004614fcc565b611279565b61021c610363366004614fa7565b61173f565b61021c610376366004614eac565b600c8054911515600160a01b0260ff60a01b19909216919091179055565b61021c6103a2366004615055565b6118c3565b61027b600081565b61021c6103bd36600461509b565b611a09565b6009546001600160a01b03166101fc565b61021c6103e13660046150e8565b611dce565b6006546001600160a01b03166101fc565b61027b600080516020615dce83398151915281565b61021c61041a366004614e58565b611ef2565b61021c61042d366004614e7c565b611f10565b61027b610440366004615140565b611f2c565b61021c61045336600461516e565b612062565b6005546001600160a01b03166101fc565b61021c6104773660046151e9565b6122e6565b61021c61048a36600461526f565b612554565b6008546001600160a01b03166101fc565b61021c6104ae36600461526f565b6126d1565b61021c6104c1366004614fa7565b612805565b6007546001600160a01b03166101fc565b60006001600160e01b03198216637965db0b60e01b148061050857506301ffc9a760e01b6001600160e01b03198316145b92915050565b80156107525760405163e3c5b96960e01b8152600481018590526000906001600160a01b0385169063e3c5b9699060240161016060405180830381865afa15801561055d573d6000803e3d6000fd5b505050506040513d601f19601f82011682018060405250810190610581919061537a565b90506105ab6040518060400160405280600781526020016633b2ba1037b13560c91b815250612bd4565b6105c18160c001516001600160801b0316612c1a565b600061064860405180610120016040528084606001516001600160a01b03168152602001846080015181526020018460a0015181526020018460c001516001600160801b0316815260200186151581526020016000815260200160011515815260200161063085610140015190565b815260200161064185610120015190565b9052612c5f565b90506106548282612f51565b61069b5760405162461bcd60e51b81526020600482015260136024820152726d61726b65743a7472696767657261626f766560681b60448201526064015b60405180910390fd5b6040516398ddd31960e01b8152600481018790526000906001600160a01b038716906398ddd31990602401610160604051808303816000875af11580156106e6573d6000803e3d6000fd5b505050506040513d601f19601f8201168201806040525081019061070a919061537a565b905080606001516001600160a01b0316600080516020615e9b8339815191528686846101000151306040516107429493929190615433565b60405180910390a250505061080b565b604051630bdfa7eb60e11b8152600481018590526000906001600160a01b038516906317bf4fd69060240161016060405180830381865afa15801561079b573d6000803e3d6000fd5b505050506040513d601f19601f820116820180604052508101906107bf919061537a565b90506107cb81846126d1565b80606001516001600160a01b0316600080516020615e9b8339815191528484846101000151306040516108019493929190615433565b60405180910390a2505b50505050565b8260000361081e57601e92505b6040805180820190915260098152685f70617944656c746160b81b6020820152339061084990612bd4565b61085289612c1a565b600654600c54610880916001600160a01b0390811691849130918e91811690600160b01b900460ff16612f77565b8915610920576006546040516370a0823160e01b81526108fe916001600160a01b0316906370a08231906108b8908590600401614b15565b602060405180830381865afa1580156108d5573d6000803e3d6000fd5b505050506040513d601f19601f820116820180604052508101906108f99190615459565b612c1a565b600061090d828a8a8a8a612f9a565b905061091a818b86612fe9565b50610977565b610975604051806101200160405280836001600160a01b031681526020018b81526020018a81526020018981526020018515158152602001868152602001841515815260200188815260200187815250612c5f565b505b50505050505050505050565b61098b613378565b33600061099882856133d1565b90506000836109b257600b546001600160a01b03166109bf565b600a546001600160a01b03165b90506109c9614a67565b8615610adf5760405163e3c5b96960e01b8152600481018490526001600160a01b0383169063e3c5b9699060240161016060405180830381865afa158015610a15573d6000803e3d6000fd5b505050506040513d601f19601f82011682018060405250810190610a39919061537a565b6040516398ddd31960e01b8152600481018590529091506001600160a01b038316906398ddd31990602401610160604051808303816000875af1158015610a84573d6000803e3d6000fd5b505050506040513d601f19601f82011682018060405250810190610aa8919061537a565b506006546080820151600c54610ada926001600160a01b039081169288929091811690600160b01b900460ff16613404565b610bba565b604051630bdfa7eb60e11b8152600481018490526001600160a01b038316906317bf4fd69060240161016060405180830381865afa158015610b25573d6000803e3d6000fd5b505050506040513d601f19601f82011682018060405250810190610b49919061537a565b604051635008d4d160e11b8152600481018590529091506001600160a01b0383169063a011a9a290602401610160604051808303816000875af1158015610b94573d6000803e3d6000fd5b505050506040513d601f19601f82011682018060405250810190610bb8919061537a565b505b836001600160a01b0316600080516020615e9b83398151915286898930604051610be79493929190615433565b60405180910390a250505050610bfd6001600e55565b505050565b610c0a613378565b8151835114610c1857600080fd5b8151815114610c2657600080fd5b815160005b81811015610c9157610c89858281518110610c4857610c48615472565b6020026020010151858381518110610c6257610c62615472565b6020026020010151858481518110610c7c57610c7c615472565b6020026020010151610983565b600101610c2b565b5050610bfd6001600e55565b6000908152600f602052604090206001015490565b610cbb82610c9d565b610cc48161342d565b610bfd8383613437565b6001600160a01b0381163314610d3e5760405162461bcd60e51b815260206004820152602f60248201527f416363657373436f6e74726f6c3a2063616e206f6e6c792072656e6f756e636560448201526e103937b632b9903337b91039b2b63360891b6064820152608401610692565b610d4882826134bd565b5050565b600080516020615dee833981519152610d648161342d565b610d85604051806060016040528060238152602001615d7e60239139612bd4565b610d8e89613524565b610dcc6040518060400160405280602081526020017f6d61726b65742f696e697469617a6c697a652f61646472657373287468697329815250612bd4565b610dd530613524565b600980546001600160a01b03199081166001600160a01b038f811691909117909255600a805482168e8416179055600b805482168d8416179055600c805482168c84161790556005805482168b84161790556004805482168984161781556008805483168b8516179055600d80548316898516179055600780548316888516179055600380548316878516179055600680549092169285169283179091556040805163313ce56760e01b8152905163313ce567928281019260209291908290030181865afa158015610eab573d6000803e3d6000fd5b505050506040513d601f19601f82011682018060405250810190610ecf9190615488565b600c60166101000a81548160ff021916908360ff160217905550505050505050505050505050565b6000610f23604051806040016040528060098152602001686d6b742069736c697160b81b815250612bd4565b610f8b6040518061016001604052806000815260200160008152602001600081526020016000815260200160001515815260200160006001600160a01b0316815260200160008152602001600081526020016000815260200160008152602001600081525090565b610fb260405180604001604052806005815260200164737461746560d81b81525083613567565b600954610fc7906001600160a01b0316613524565b60095460405163a9ea529960e01b81526004810186905284151560248201526001600160a01b039091169063a9ea52999060440161012060405180830381865afa158015611019573d6000803e3d6000fd5b505050506040513d601f19601f8201168201806040525081019061103d91906154a5565b50506001600160a01b0390811660a089018190529115156080890152606088019290925260408088019490945260208701949094528486526008549251639cfd59cd60e01b81526004810194909452306024850152871515604485015260648401949094525090911690639cfd59cd9060840160a060405180830381865afa1580156110cd573d6000803e3d6000fd5b505050506040513d601f19601f820116820180604052508101906110f1919061552d565b61014086015261012085015261010084015260e083015260c0820152600c5460405163563eccdb60e11b81526000916001600160a01b03169063ac7d99b69061113e903090600401614b15565b602060405180830381865afa15801561115b573d6000803e3d6000fd5b505050506040513d601f19601f8201168201806040525081019061117f919061556d565b90506000826080015161119f57826060015161119a906155a0565b6111a5565b82606001515b60c084015161014085015160208601518651604051631eef523560e31b8152600481018690526024810194909452604484019290925260648301526084820152600060a48201529091506001600160a01b0383169063f77a91a89060c401602060405180830381865afa158015611220573d6000803e3d6000fd5b505050506040513d601f19601f820116820180604052508101906112449190615459565b9695505050505050565b6000918252600f602090815260408084206001600160a01b0393909316845291905290205460ff1690565b611281613378565b6112d960405180610120016040528060006001600160a01b0316815260200160008152602001600081526020016000815260200160008152602001600081526020016000815260200160008152602001600081525090565b3381526000826112f457600b546001600160a01b0316611301565b600a546001600160a01b03165b9050806001600160a01b031663554a0eb76113208460000151886133d1565b6040518263ffffffff1660e01b815260040161133e91815260200190565b61014060405180830381865afa15801561135c573d6000803e3d6000fd5b505050506040513d601f19601f8201168201806040525081019061138091906155bc565b50505050604080890192909252506020870192909252506009548551915163118272bf60e31b81526001600160a01b039091169350638c1395f892506113cd91903090889060040161564f565b60e060405180830381865afa1580156113ea573d6000803e3d6000fd5b505050506040513d601f19601f8201168201806040525081019061140e9190615673565b505050505060608401526080830152600c5460405163563eccdb60e11b81526000916001600160a01b03169063ac7d99b69061144e903090600401614b15565b602060405180830381865afa15801561146b573d6000803e3d6000fd5b505050506040513d601f19601f8201168201806040525081019061148f919061556d565b60085460408086015190516347a994e960e01b81529293506001600160a01b03909116916347a994e9916114d291600091309160019190829085906004016156d3565b608060405180830381865afa1580156114ef573d6000803e3d6000fd5b505050506040513d601f19601f82011682018060405250810190611513919061570b565b61010087015260e086015260c085015260a08401819052606084015160208501516080860151604080880151905163f6b8515b60e01b81526001600160a01b0387169563f6b8515b9561157195909490939092909190600401615741565b602060405180830381865afa15801561158e573d6000803e3d6000fd5b505050506040513d601f19601f820116820180604052508101906115b29190615459565b506000826001600160a01b03166317bf4fd66115ce338a6133d1565b6040518263ffffffff1660e01b81526004016115ec91815260200190565b61016060405180830381865afa15801561160a573d6000803e3d6000fd5b505050506040513d601f19601f8201168201806040525081019061162e919061537a565b9050611639866135ac565b6001600160801b031660c08201526116686040518060600160405280602d8152602001615da1602d9139612bd4565b61167187612c1a565b604051636b0243b560e01b81526001600160a01b03841690636b0243b59061169d908490600401615771565b610160604051808303816000875af11580156116bd573d6000803e3d6000fd5b505050506040513d601f19601f820116820180604052508101906116e1919061537a565b5080606001516001600160a01b0316600080516020615e0e833981519152866001846101000151308660a0015187608001518860c0015189604001518a61014001518b6101200151604051610be79a99989796959493929190615827565b611747613378565b6117726040518060400160405280600a8152602001696d6b742061646472657360b01b815250612bd4565b61177b30613524565b600c54604080516389be278160e01b815290516000926001600160a01b0316916389be27819160048083019260209291908290030181865afa1580156117c5573d6000803e3d6000fd5b505050506040513d601f19601f820116820180604052508101906117e9919061556d565b905061180c604051806060016040528060258152602001615d5960259139612bd4565b61181533613524565b6000816001600160a01b0316600036604051611832929190615883565b600060405180830381855af49150503d806000811461186d576040519150601f19603f3d011682016040523d82523d6000602084013e611872565b606091505b50509050806118b75760405162461bcd60e51b8152602060048201526011602482015270135add0e991958dc99585cd94818dbdb1b607a1b6044820152606401610692565b5050610d486001600e55565b6118cb613378565b600c54604080516389be278160e01b815290516000926001600160a01b0316916389be27819160048083019260209291908290030181865afa158015611915573d6000803e3d6000fd5b505050506040513d601f19601f82011682018060405250810190611939919061556d565b905060008383604051602401611950929190615893565b60408051601f198184030181529181526020820180516001600160e01b031663a01ffe5b60e01b1790525190915060009081906001600160a01b03851690611999908590615902565b600060405180830381855af49150503d80600081146119d4576040519150601f19603f3d011682016040523d82523d6000602084013e6119d9565b606091505b5091509150816119fb5760405162461bcd60e51b81526004016106929061591e565b50505050610d486001600e55565b611a11613378565b600081611a2957600b546001600160a01b0316611a36565b600a546001600160a01b03165b90506000816001600160a01b031663e3c5b969611a53338a6133d1565b6040518263ffffffff1660e01b8152600401611a7191815260200190565b61016060405180830381865afa158015611a8f573d6000803e3d6000fd5b505050506040513d601f19601f82011682018060405250810190611ab3919061537a565b9050611ac28160600151613524565b600c5460405163563eccdb60e11b81526000916001600160a01b03169063ac7d99b690611af3903090600401614b15565b602060405180830381865afa158015611b10573d6000803e3d6000fd5b505050506040513d601f19601f82011682018060405250810190611b34919061556d565b60085460a08401516040516320b613eb60e21b81529293506001600160a01b039091169160009183916382d84fac91611b7291309190600401615943565b602060405180830381865afa158015611b8f573d6000803e3d6000fd5b505050506040513d601f19601f82011682018060405250810190611bb39190615459565b6040516309d3989760e01b81526001600160a01b038416906309d3989790611bdf903090600401614b15565b602060405180830381865afa158015611bfc573d6000803e3d6000fd5b505050506040513d601f19601f82011682018060405250810190611c209190615459565b611c2a919061595c565b608085015160a0860151604051631ecaa84160e21b815260048101929092526024820152604481018b9052606481018a90526084810189905287151560a482015260c481018290529091506001600160a01b03841690637b2aa1049060e401602060405180830381865afa158015611ca6573d6000803e3d6000fd5b505050506040513d601f19601f82011682018060405250810190611cca9190615459565b505050611cd6876135ac565b6001600160801b031660c08301526101408201869052610120820185905260405162fde88d60e81b81526001600160a01b0384169063fde88d0090611d1f908590600401615771565b610160604051808303816000875af1158015611d3f573d6000803e3d6000fd5b505050506040513d601f19601f82011682018060405250810190611d63919061537a565b5081606001516001600160a01b0316600080516020615e0e8339815191528560018b308760a0015188608001518960c001518a604001518f8f604051611db29a99989796959493929190615827565b60405180910390a2505050611dc76001600e55565b5050505050565b611dd6613378565b600082611dee57600b546001600160a01b0316611dfb565b600a546001600160a01b03165b9050611e2b6040518060400160405280600d81526020016c657865634f726465724b65797360981b815250612bd4565b611e3483613619565b611e3d82613619565b60005b8451811015610c91576000858281518110611e5d57611e5d615472565b602090810291909101015160405163015a0e9f60e31b8152600481018290526001600160a01b0385166024820152861515604482015285151560648201529091503090630ad074f890608401600060405180830381600087803b158015611ec357600080fd5b505af1925050508015611ed4575060015b611ede5750611ee0565b505b80611eea8161596f565b915050611e40565b600080516020615dee833981519152611f0a8161342d565b50600055565b611f1982610c9d565b611f228161342d565b610bfd83836134bd565b6000611f36613378565b600080516020615dce833981519152611f4e8161342d565b600c54604080516389be278160e01b815290516000926001600160a01b0316916389be27819160048083019260209291908290030181865afa158015611f98573d6000803e3d6000fd5b505050506040513d601f19601f82011682018060405250810190611fbc919061556d565b9050600080826001600160a01b0316600036604051611fdc929190615883565b600060405180830381855af49150503d8060008114612017576040519150601f19603f3d011682016040523d82523d6000602084013e61201c565b606091505b50915091508161203e5760405162461bcd60e51b81526004016106929061591e565b808060200190518101906120529190615459565b9450505050506105086001600e55565b61206a613378565b3387156121645760095460405163118272bf60e31b815260009182916001600160a01b0390911690638c1395f8906120aa90869030908a9060040161564f565b60e060405180830381865afa1580156120c7573d6000803e3d6000fd5b505050506040513d601f19601f820116820180604052508101906120eb9190615673565b509396509394506000935061210892508b91508490508c8661365a565b905061215b604051806101000160405280866001600160a01b031681526020018c81526020018381526020018a81526020018815158152602001858152602001848152602001600060ff1681525061368a565b505050506122d2565b600c54604080516389be278160e01b815290516000926001600160a01b0316916389be27819160048083019260209291908290030181865afa1580156121ae573d6000803e3d6000fd5b505050506040513d601f19601f820116820180604052508101906121d2919061556d565b604051602481018a90528815156044820152606481018890526084810187905285151560a482015284151560c48201529091506000906001600160a01b0383169060e40160408051601f198184030181529181526020820180516001600160e01b0316630ff70bf960e31b1790525161224b9190615902565b600060405180830381855af49150503d8060008114612286576040519150601f19603f3d011682016040523d82523d6000602084013e61228b565b606091505b50509050806122cf5760405162461bcd60e51b815260206004820152601060248201526f3232b1b932b0b9b2a837b9b4ba34b7b760811b6044820152606401610692565b50505b506122dd6001600e55565b50505050505050565b600080516020615dce8339815191526122fe8161342d565b60008361231657600b546001600160a01b0316612323565b600a546001600160a01b03165b604051635c95a1df60e11b815284151560048201529091506000906001600160a01b0383169063b92b43be90602401602060405180830381865afa15801561236f573d6000803e3d6000fd5b505050506040513d601f19601f820116820180604052508101906123939190615459565b905061239e87612c1a565b6123a786612c1a565b6123b081612c1a565b8087106123be575050611dc7565b808611156123ca578095505b858710156122dd57604051630ebdfacf60e21b81526004810188905284151560248201526000906001600160a01b03841690633af7eb3c90604401602060405180830381865afa158015612422573d6000803e3d6000fd5b505050506040513d601f19601f820116820180604052508101906124469190615459565b905084156124cd5760405163e3c5b96960e01b8152600481018290526000906001600160a01b0385169063e3c5b9699060240161016060405180830381865afa158015612497573d6000803e3d6000fd5b505050506040513d601f19601f820116820180604052508101906124bb919061537a565b90506124c78188612554565b50612548565b604051630bdfa7eb60e11b8152600481018290526000906001600160a01b038516906317bf4fd69060240161016060405180830381865afa158015612516573d6000803e3d6000fd5b505050506040513d601f19601f8201168201806040525081019061253a919061537a565b905061254681886126d1565b505b876001019750506123ca565b61255c613378565b60006125dc60405180610120016040528085606001516001600160a01b03168152602001856080015181526020018560a0015181526020018560c001516001600160801b031681526020018415158152602001600081526020016001151581526020016125cb86610140015190565b815260200161064186610120015190565b90506125e88382612f51565b6126235760405162461bcd60e51b815260206004820152600c60248201526b7472696767657241626f766560a01b6044820152606401610692565b60008261263b57600b546001600160a01b0316612648565b600a546001600160a01b03165b9050806001600160a01b03166398ddd31961266286613b08565b6040518263ffffffff1660e01b815260040161268091815260200190565b610160604051808303816000875af11580156126a0573d6000803e3d6000fd5b505050506040513d601f19601f820116820180604052508101906126c4919061537a565b505050610d486001600e55565b6126d9613378565b600c54604080516389be278160e01b815290516000926001600160a01b0316916389be27819160048083019260209291908290030181865afa158015612723573d6000803e3d6000fd5b505050506040513d601f19601f82011682018060405250810190612747919061556d565b90506000816001600160a01b0316600036604051612766929190615883565b600060405180830381855af49150503d80600081146127a1576040519150601f19603f3d011682016040523d82523d6000602084013e6127a6565b606091505b50509050806118b75760405162461bcd60e51b815260206004820152602560248201527f6d61726b65743a6465637265617365506f736974696f6e46726f6d4f726465726044820152640819985a5b60da1b6064820152608401610692565b61280d613378565b60408051808201909152601a8152791a5b98dc99585cd950dbdb1b185d195c985b0bd858d8dbdd5b9d60321b6020820152339061284990612bd4565b61285281613524565b60095460405163118272bf60e31b8152600091829182916001600160a01b031690638c1395f89061288b90879030908a9060040161564f565b60e060405180830381865afa1580156128a8573d6000803e3d6000fd5b505050506040513d601f19601f820116820180604052508101906128cc9190615673565b505050509250925092506128df83612c1a565b6128e882612c1a565b60085460405163ddb3d1a760e01b81526000916001600160a01b03169063ddb3d1a79061291d90889030908b9060040161564f565b602060405180830381865afa15801561293a573d6000803e3d6000fd5b505050506040513d601f19601f8201168201806040525081019061295e9190615459565b9050600c5460405163563eccdb60e11b81526000916001600160a01b03169063ac7d99b690612991903090600401614b15565b602060405180830381865afa1580156129ae573d6000803e3d6000fd5b505050506040513d601f19601f820116820180604052508101906129d2919061556d565b90506000819050806001600160a01b031663eb5f9ba6826001600160a01b031663177927296040518163ffffffff1660e01b8152600401602060405180830381865afa158015612a26573d6000803e3d6000fd5b505050506040513d601f19601f82011682018060405250810190612a4a9190615988565b6002888d8b60008a6040518863ffffffff1660e01b8152600401612a7497969594939291906159c9565b60006040518083038186803b158015612a8c57600080fd5b505afa158015612aa0573d6000803e3d6000fd5b5050600654600c54612ad293506001600160a01b0391821692508a9130918e91811690600160b01b900460ff16612f77565b600960009054906101000a90046001600160a01b03166001600160a01b031663145d6eae88308c6000808e6040518763ffffffff1660e01b8152600401612b1e969594939291906159fa565b600060405180830381600087803b158015612b3857600080fd5b505af1158015612b4c573d6000803e3d6000fd5b50505050866001600160a01b0316600080516020615e568339815191528a60008b8860008060008030600660009054906101000a90046001600160a01b0316600560009054906101000a90046001600160a01b03166002604051612bbb9c9b9a99989796959493929190615a30565b60405180910390a250505050505050610d486001600e55565b612c1781604051602401612be89190615abf565b60408051601f198184030181529190526020810180516001600160e01b031663104c13eb60e21b179052613b43565b50565b612c1781604051602401612c3091815260200190565b60408051601f198184030181529190526020810180516001600160e01b031663f82c50f160e01b179052613b43565b6009548151608083015160405163118272bf60e31b8152600093849384936001600160a01b0390921692638c1395f892612c9f929130919060040161564f565b60e060405180830381865afa158015612cbc573d6000803e3d6000fd5b505050506040513d601f19601f82011682018060405250810190612ce09190615673565b505050505091509150612d0784604051806040016040528085815260200184815250613b64565b925060008460e00151600014158015612d3057506080850151606086015160e087015111901515145b90506000856101000151600014158015612d5c5750856101000151866060015111151586608001511515145b9050818015612d685750805b15612e85576000612de560405180610100016040528089600001516001600160a01b0316815260200189604001518152602001600081526020018960e001518152602001896080015115158152602001868152602001896040015181526020018960800151612dd8576002612ddb565b60015b60ff16905261368a565b90506000612e546040518061010001604052808a600001516001600160a01b031681526020018a604001518152602001600081526020018a610100015181526020018a60800151151581526020018781526020018a6040015181526020018a6080015115612dd8576002612ddb565b9050612e6a612e6282613b08565b610120840152565b612e7e612e7683613b08565b610120830152565b5050612f48565b8180612e8e5750805b15612f485760008215612eb5578660800151612eab576002612eae565b60015b9050612ecc565b866080015115612ec6576002612ec9565b60015b90505b6000612f446040518061010001604052808a600001516001600160a01b031681526020018a6040015181526020016000815260200186612f11578a6101000151612f17565b8a60e001515b81526020018a60800151151581526020018781526020018a6040015181526020018460ff1681525061368a565b5050505b50505050919050565b60c08201516000906001600160801b03168211612f6d84614102565b1515149392505050565b856122dd8686612f88878787614178565b6001600160a01b038516929190614276565b612fa2614a67565b6001600160a01b0386166060820152612fba846135ac565b6001600160801b031660c082015260a08101859052610120810182905261014081018390525b95945050505050565b60085460a08401516040516320b613eb60e21b81526001600160a01b039092169160009183916382d84fac9161302491309190600401615943565b602060405180830381865afa158015613041573d6000803e3d6000fd5b505050506040513d601f19601f820116820180604052508101906130659190615459565b6040516309d3989760e01b81526001600160a01b038416906309d3989790613091903090600401614b15565b602060405180830381865afa1580156130ae573d6000803e3d6000fd5b505050506040513d601f19601f820116820180604052508101906130d29190615459565b6130dc919061595c565b600c5460405163563eccdb60e11b81529192506001600160a01b03169063ac7d99b69061310d903090600401614b15565b602060405180830381865afa15801561312a573d6000803e3d6000fd5b505050506040513d601f19601f8201168201806040525081019061314e919061556d565b6001600160a01b0316637b2aa104858760a001518860c001516131738a610140015190565b6101208b01516040516001600160e01b031960e088901b168152600481019590955260248501939093526001600160801b0390911660448401526064830152608482015285151560a482015260c4810184905260e401602060405180830381865afa1580156131e6573d6000803e3d6000fd5b505050506040513d601f19601f8201168201806040525081019061320a9190615459565b608086015260c0850151613232906001600160801b031661322a856142ce565b8791116143bf565b60008361324a57600b546001600160a01b0316613257565b600a546001600160a01b03165b6001600160a01b031663832ca0c9876040518263ffffffff1660e01b81526004016132829190615771565b610160604051808303816000875af11580156132a2573d6000803e3d6000fd5b505050506040513d601f19601f820116820180604052508101906132c6919061537a565b90506133056040518060400160405280601781526020017667656e6572617465644f726465722e73697a653a20257360481b8152508260a00151613567565b80606001516001600160a01b0316600080516020615e0e833981519152856001846101000151308660a0015187608001518860c00151896040015161334c8b610140015190565b6101208c01516040516133689a99989796959493929190615827565b60405180910390a2505050505050565b6002600e54036133ca5760405162461bcd60e51b815260206004820152601f60248201527f5265656e7472616e637947756172643a207265656e7472616e742063616c6c006044820152606401610692565b6002600e55565b600082826040516020016133e6929190615ad2565b60405160208183030381529060405280519060200120905092915050565b8461342585613414868686614178565b6001600160a01b03841691906143dd565b505050505050565b612c1781336143fc565b613441828261124e565b610d48576000828152600f602090815260408083206001600160a01b03851684529091529020805460ff191660011790556134793390565b6001600160a01b0316816001600160a01b0316837f2f8788117e7eff1d82e926ec794901d17c78024a50270940304540a733656f0d60405160405180910390a45050565b6134c7828261124e565b15610d48576000828152600f602090815260408083206001600160a01b0385168085529252808320805460ff1916905551339285917ff6391f5c32d9c69d2a47ea670b442974b53935d1edc7fd64eb21e047a839171b9190a45050565b612c17816040516024016135389190614b15565b60408051601f198184030181529190526020810180516001600160e01b031663161765e160e11b179052613b43565b610d48828260405160240161357d929190615aef565b60408051601f198184030181529190526020810180516001600160e01b0316632d839cb360e21b179052613b43565b60006001600160801b038211156136155760405162461bcd60e51b815260206004820152602760248201527f53616665436173743a2076616c756520646f65736e27742066697420696e20316044820152663238206269747360c81b6064820152608401610692565b5090565b6040518115156024820152612c179060440160408051601f198184030181529190526020810180516001600160e01b03166332458eed60e01b179052613b43565b6000841561367e578361366d8484615b11565b6136779190615b28565b9050613682565b5060005b949350505050565b613692614a67565b61369a614ac3565b6136bb604051806060016040528060258152602001615e7660259139612bd4565b6136c88360c00151612c1a565b6136d58360200151612c1a565b600c5460405163563eccdb60e11b81526000916001600160a01b03169063ac7d99b690613706903090600401614b15565b602060405180830381865afa158015613723573d6000803e3d6000fd5b505050506040513d601f19601f82011682018060405250810190613747919061556d565b60085460c08601516040516347a994e960e01b81529293506001600160a01b03909116916347a994e99161378a91600091309160019190829085906004016156d3565b608060405180830381865afa1580156137a7573d6000803e3d6000fd5b505050506040513d601f19601f820116820180604052508101906137cb919061570b565b606086015260408086019190915260208086019290925282855260a08701518782015160c089015193890151925163f6b8515b60e01b81526001600160a01b0387169563f6b8515b95613825959092909190600401615741565b602060405180830381865afa158015613842573d6000803e3d6000fd5b505050506040513d601f19601f820116820180604052508101906138669190615459565b5083516080850151604080516001600160601b0319606094851b81166020808401919091523090951b16603482015291151560f81b6048830152805180830360290181526049909201905280519101208460e0015160ff166000036138f1576138ec8460c001516001600160801b03166138e48760800151156142ce565b8691116143bf565b6138ff565b60e085015160ff1660408501525b84516001600160a01b031660608086019190915285015161391f906135ac565b6001600160801b031660c0850152602085015160a08501526040850151608085015261014084018190526000856080015161396557600b546001600160a01b0316613972565b600a546001600160a01b03165b9050613995604051806060016040528060288152602001615e2e60289139612bd4565b613a1a816001600160a01b03166317bf4fd66139b088613b08565b6040518263ffffffff1660e01b81526004016139ce91815260200190565b61016060405180830381865afa1580156139ec573d6000803e3d6000fd5b505050506040513d601f19601f82011682018060405250810190613a10919061537a565b6101000151612c1a565b604051634fb1cc1760e11b81526000906001600160a01b03831690639f63982e90613a49908990600401615771565b610160604051808303816000875af1158015613a69573d6000803e3d6000fd5b505050506040513d601f19601f82011682018060405250810190613a8d919061537a565b905080606001516001600160a01b0316600080516020615e0e83398151915288608001516000846101000151308660a001518d604001518860c001518960400151613ada8b610140015190565b6101208c0151604051613af69a99989796959493929190615827565b60405180910390a25050505050919050565b60008160600151826101000151604051602001613b26929190615ad2565b604051602081830303815290604052805190602001209050919050565b80516a636f6e736f6c652e6c6f67602083016000808483855afa5050505050565b600c5460405163563eccdb60e11b815260009182916001600160a01b039091169063ac7d99b690613b99903090600401614b15565b602060405180830381865afa158015613bb6573d6000803e3d6000fd5b505050506040513d601f19601f82011682018060405250810190613bda919061556d565b905060008190506000816001600160a01b031663177927296040518163ffffffff1660e01b8152600401602060405180830381865afa158015613c21573d6000803e3d6000fd5b505050506040513d601f19601f82011682018060405250810190613c459190615988565b855160408881015190516335ab1cbf60e01b81528351600482015260248101929092526044820152600160648201529091506001600160a01b038316906335ab1cbf9060840160006040518083038186803b158015613ca357600080fd5b505afa158015613cb7573d6000803e3d6000fd5b50505050613cee60405180604001604052806012815260200171666565526f757465725f2e6765744665657360701b815250612bd4565b600854613d03906001600160a01b0316613524565b613d0b614ac3565b600854875160808901516040808b015160c08c015191516347a994e960e01b81526001600160a01b03909516946347a994e994613d53949093309391926001906004016156d3565b608060405180830381865afa158015613d70573d6000803e3d6000fd5b505050506040513d601f19601f82011682018060405250810190613d94919061570b565b606085015260408401526020830152808252613daf90612c1a565b6020808701519088015187516040808b0151855191516375afcdd360e11b81526001600160a01b0389169563eb5f9ba695613df7958a956001959394929391926004016159c9565b60006040518083038186803b158015613e0f57600080fd5b505afa158015613e23573d6000803e3d6000fd5b50505050613e5a6040518060400160405280601281526020017176616c6964536c697070616765507269636560701b815250612bd4565b6060870151608088015160a089015160405163037c3c9b60e01b815285516004820152602481019390935290151560448301526064820152600160848201526001600160a01b0384169063037c3c9b9060a401602060405180830381865afa158015613eca573d6000803e3d6000fd5b505050506040513d601f19601f82011682018060405250810190613eee9190615459565b9450613f2e6040518060400160405280601c81526020017b2fb4b731b932b0b9b2a837b9b4ba34b7b71736b0b935a83934b1b29d60211b81525086613567565b6000613f548260000151613f458a60200151614455565b613f4f9190615b4a565b6144bf565b60095489516040808c015160808d01519151630a2eb75760e11b81529495506001600160a01b039093169363145d6eae93613f99939230928892918e916004016159fa565b600060405180830381600087803b158015613fb357600080fd5b505af1158015613fc7573d6000803e3d6000fd5b50506008548a5160608601516040808801516020890151915163169fef1960e31b81526001600160a01b0394851660048201523060248201526044810193909352600060648401819052608484019190915260a483015260c48201529116925063b4ff78c8915060e401600060405180830381600087803b15801561404b57600080fd5b505af115801561405f573d6000803e3d6000fd5b5050505087600001516001600160a01b0316600080516020615e56833981519152828a604001518b608001518a6000886020015189604001518a6060015130600660009054906101000a90046001600160a01b0316600560009054906101000a90046001600160a01b031660006040516140e49c9b9a99989796959493929190615a30565b60405180910390a281516140f790614511565b505050505092915050565b6000816040015160ff1660010361411b57506001919050565b816040015160ff1660020361413257506000919050565b60405162461bcd60e51b815260206004820152601b60248201527a696e76616c6964206f7264657220747269676765722061626f766560281b6044820152606401610692565b600080614251846001600160a01b031663ac7d99b6306040518263ffffffff1660e01b81526004016141aa9190614b15565b602060405180830381865afa1580156141c7573d6000803e3d6000fd5b505050506040513d601f19601f820116820180604052508101906141eb919061556d565b6001600160a01b031663177927296040518163ffffffff1660e01b8152600401602060405180830381865afa158015614228573d6000803e3d6000fd5b505050506040513d601f19601f8201168201806040525081019061424c9190615988565b6146a8565b90508061426260ff8516600a615c55565b61426c9087615b11565b612fe09190615b28565b61080b846323b872dd60e01b85858560405160240161429793929190615c61565b60408051601f198184030181529190526020810180516001600160e01b03166001600160e01b0319909316929092179091526146be565b600c5460405163b25b41b760e01b815260009182916001600160a01b039091169063b25b41b790614303903090600401614b15565b602060405180830381865afa158015614320573d6000803e3d6000fd5b505050506040513d601f19601f82011682018060405250810190614344919061556d565b6005546040516303b6b4bb60e51b81526001600160a01b03918216600482015285151560248201529192508291908216906376d6976090604401602060405180830381865afa15801561439b573d6000803e3d6000fd5b505050506040513d601f19601f820116820180604052508101906136829190615459565b806143cb5760026143ce565b60015b60ff1660409092019190915250565b610bfd8363a9059cbb60e01b8484604051602401614297929190615943565b614406828261124e565b610d485761441381614790565b61441e8360206147a2565b60405160200161442f929190615c85565b60408051601f198184030181529082905262461bcd60e51b825261069291600401615abf565b60006001600160ff1b038211156136155760405162461bcd60e51b815260206004820152602860248201527f53616665436173743a2076616c756520646f65736e27742066697420696e2061604482015267371034b73a191a9b60c11b6064820152608401610692565b6000808212156136155760405162461bcd60e51b815260206004820181905260248201527f53616665436173743a2076616c7565206d75737420626520706f7369746976656044820152606401610692565b6145426040518060400160405280601081526020016f5f7472616e736174696f6e734665657360801b815250612bd4565b60008112156146125761457460405180604001604052806008815260200167066656573203c20360c41b815250612bd4565b6145a0604051806040016040528060018152602001602d60f81b8152508261459b906155a0565b613567565b6004546006546001600160a01b039182169163d9caed129116306145c685600019615cf4565b6040518463ffffffff1660e01b81526004016145e493929190615c61565b600060405180830381600087803b1580156145fe57600080fd5b505af1158015611dc7573d6000803e3d6000fd5b600081131561467d5761464460405180604001604052806008815260200167066656573203e20360c41b815250612bd4565b61464d81612c1a565b600654600454600c54612c17926001600160a01b03908116928116918591811690600160b01b900460ff16613404565b612c176040518060400160405280600a81526020016966656573203d3d20303b60b01b815250612bd4565b80516000906105089060701c60ff16600a615c55565b6000614713826040518060400160405280602081526020017f5361666545524332303a206c6f772d6c6576656c2063616c6c206661696c6564815250856001600160a01b03166149449092919063ffffffff16565b805190915015610bfd57808060200190518101906147319190615d24565b610bfd5760405162461bcd60e51b815260206004820152602a60248201527f5361666545524332303a204552433230206f7065726174696f6e20646964206e6044820152691bdd081cdd58d8d9595960b21b6064820152608401610692565b60606105086001600160a01b03831660145b606060006147b1836002615b11565b6147bc90600261595c565b6001600160401b038111156147d3576147d3614c77565b6040519080825280601f01601f1916602001820160405280156147fd576020820181803683370190505b509050600360fc1b8160008151811061481857614818615472565b60200101906001600160f81b031916908160001a905350600f60fb1b8160018151811061484757614847615472565b60200101906001600160f81b031916908160001a905350600061486b846002615b11565b61487690600161595c565b90505b60018111156148ee576f181899199a1a9b1b9c1cb0b131b232b360811b85600f16601081106148aa576148aa615472565b1a60f81b8282815181106148c0576148c0615472565b60200101906001600160f81b031916908160001a90535060049490941c936148e781615d41565b9050614879565b50831561493d5760405162461bcd60e51b815260206004820181905260248201527f537472696e67733a20686578206c656e67746820696e73756666696369656e746044820152606401610692565b9392505050565b6060613682848460008585600080866001600160a01b0316858760405161496b9190615902565b60006040518083038185875af1925050503d80600081146149a8576040519150601f19603f3d011682016040523d82523d6000602084013e6149ad565b606091505b50915091506149be878383876149c9565b979650505050505050565b60608315614a38578251600003614a31576001600160a01b0385163b614a315760405162461bcd60e51b815260206004820152601d60248201527f416464726573733a2063616c6c20746f206e6f6e2d636f6e74726163740000006044820152606401610692565b5081613682565b6136828383815115614a4d5781518083602001fd5b8060405162461bcd60e51b81526004016106929190615abf565b6040805161016081018252600080825260208201819052918101829052606081018290526080810182905260a0810182905260c0810182905260e081018290526101008101829052610120810182905261014081019190915290565b6040518060800160405280600081526020016000815260200160008152602001600081525090565b600060208284031215614afd57600080fd5b81356001600160e01b03198116811461493d57600080fd5b6001600160a01b0391909116815260200190565b6001600160a01b0381168114612c1757600080fd5b8015158114612c1757600080fd5b8035614b5781614b3e565b919050565b60008060008060808587031215614b7257600080fd5b843593506020850135614b8481614b29565b92506040850135614b9481614b3e565b91506060850135614ba481614b3e565b939692955090935050565b60008060008060008060008060006101208a8c031215614bce57600080fd5b8935614bd981614b3e565b985060208a0135975060408a0135965060608a0135955060808a0135945060a08a0135935060c08a0135925060e08a0135614c1381614b3e565b91506101008a0135614c2481614b3e565b809150509295985092959850929598565b600080600060608486031215614c4a57600080fd5b8335614c5581614b3e565b9250602084013591506040840135614c6c81614b3e565b809150509250925092565b634e487b7160e01b600052604160045260246000fd5b60405161016081016001600160401b0381118282101715614cb057614cb0614c77565b60405290565b604051601f8201601f191681016001600160401b0381118282101715614cde57614cde614c77565b604052919050565b60006001600160401b03821115614cff57614cff614c77565b5060051b60200190565b600082601f830112614d1a57600080fd5b81356020614d2f614d2a83614ce6565b614cb6565b82815260059290921b84018101918181019086841115614d4e57600080fd5b8286015b84811015614d72578035614d6581614b3e565b8352918301918301614d52565b509695505050505050565b600080600060608486031215614d9257600080fd5b83356001600160401b0380821115614da957600080fd5b614db587838801614d09565b9450602091508186013581811115614dcc57600080fd5b8601601f81018813614ddd57600080fd5b8035614deb614d2a82614ce6565b81815260059190911b8201840190848101908a831115614e0a57600080fd5b928501925b82841015614e2857833582529285019290850190614e0f565b96505050506040860135915080821115614e4157600080fd5b50614e4e86828701614d09565b9150509250925092565b600060208284031215614e6a57600080fd5b5035919050565b8035614b5781614b29565b60008060408385031215614e8f57600080fd5b823591506020830135614ea181614b29565b809150509250929050565b600060208284031215614ebe57600080fd5b813561493d81614b3e565b60008060008060008060008060008060006101608c8e031215614eeb57600080fd5b8b35614ef681614b29565b9a5060208c0135614f0681614b29565b995060408c0135614f1681614b29565b985060608c0135614f2681614b29565b975060808c0135614f3681614b29565b965060a08c0135614f4681614b29565b955060c08c0135614f5681614b29565b945060e08c0135614f6681614b29565b93506101008c0135614f7781614b29565b9250614f866101208d01614e71565b9150614f956101408d01614e71565b90509295989b509295989b9093969950565b60008060408385031215614fba57600080fd5b823591506020830135614ea181614b3e565b600080600060608486031215614fe157600080fd5b83359250602084013591506040840135614c6c81614b3e565b600082601f83011261500b57600080fd5b8135602061501b614d2a83614ce6565b82815260059290921b8401810191818101908684111561503a57600080fd5b8286015b84811015614d72578035835291830191830161503e565b6000806040838503121561506857600080fd5b82356001600160401b0381111561507e57600080fd5b61508a85828601614ffa565b9250506020830135614ea181614b3e565b600080600080600060a086880312156150b357600080fd5b8535945060208601359350604086013592506060860135915060808601356150da81614b3e565b809150509295509295909350565b6000806000606084860312156150fd57600080fd5b83356001600160401b0381111561511357600080fd5b61511f86828701614ffa565b935050602084013561513081614b3e565b91506040840135614c6c81614b3e565b6000806040838503121561515357600080fd5b823561515e81614b29565b91506020830135614ea181614b3e565b600080600080600080600060e0888a03121561518957600080fd5b873561519481614b3e565b96506020880135955060408801356151ab81614b3e565b9450606088013593506080880135925060a08801356151c981614b3e565b915060c08801356151d981614b3e565b8091505092959891949750929550565b600080600080608085870312156151ff57600080fd5b84359350602085013592506040850135614b9481614b3e565b60ff81168114612c1757600080fd5b8035614b5781615218565b63ffffffff81168114612c1757600080fd5b8035614b5781615232565b6001600160801b0381168114612c1757600080fd5b8035614b578161524f565b60008082840361018081121561528457600080fd5b6101608082121561529457600080fd5b61529c614c8d565b91506152a785615227565b82526152b560208601615244565b60208301526152c660408601615227565b60408301526152d760608601614e71565b60608301526080850135608083015260a085013560a08301526152fc60c08601615264565b60c083015261530d60e08601615264565b60e08301526101008581013590830152610120808601359083015261014080860135908301529092508290615343818601614b4c565b925050509250929050565b8051614b5781615218565b8051614b5781615232565b8051614b5781614b29565b8051614b578161524f565b6000610160828403121561538d57600080fd5b615395614c8d565b61539e8361534e565b81526153ac60208401615359565b60208201526153bd6040840161534e565b60408201526153ce60608401615364565b60608201526080830151608082015260a083015160a08201526153f360c0840161536f565b60c082015261540460e0840161536f565b60e082015261010083810151908201526101208084015190820152610140928301519281019290925250919050565b9315158452911515602084015260408301526001600160a01b0316606082015260800190565b60006020828403121561546b57600080fd5b5051919050565b634e487b7160e01b600052603260045260246000fd5b60006020828403121561549a57600080fd5b815161493d81615218565b60008060008060008060008060006101208a8c0312156154c457600080fd5b8951985060208a0151975060408a0151965060608a0151955060808a0151945060a08a01516154f281614b3e565b60c08b015190945061550381614b29565b60e08b015190935061551481614b29565b809250506101008a015190509295985092959850929598565b600080600080600060a0868803121561554557600080fd5b5050835160208501516040860151606087015160809097015192989197509594509092509050565b60006020828403121561557f57600080fd5b815161493d81614b29565b634e487b7160e01b600052601160045260246000fd5b6000600160ff1b82016155b5576155b561558a565b5060000390565b6000806000806000806000806000806101408b8d0312156155dc57600080fd5b8a516155e781614b3e565b60208c0151909a506155f881615218565b60408c015160608d0151919a50985061561081614b29565b8097505060808b0151955060a08b0151945060c08b0151935060e08b015192506101008b015191506101208b015190509295989b9194979a5092959850565b6001600160a01b039384168152919092166020820152901515604082015260600190565b600080600080600080600060e0888a03121561568e57600080fd5b875196506020880151955060408801519450606088015193506080880151925060a08801516156bc81614b3e565b8092505060c0880151905092959891949750929550565b6001600160a01b039687168152949095166020850152911515604084015260608301521515608082015290151560a082015260c00190565b6000806000806080858703121561572157600080fd5b505082516020840151604085015160609095015191969095509092509050565b948552602085019390935260408401919091526060830152608082015260a00190565b6001600160801b03169052565b815160ff16815261016081016020830151615794602084018263ffffffff169052565b5060408301516157a9604084018260ff169052565b5060608301516157c460608401826001600160a01b03169052565b506080830151608083015260a083015160a083015260c08301516157eb60c0840182615764565b5060e08301516157fe60e0840182615764565b506101008381015190830152610120808401519083015261014092830151929091019190915290565b9915158a5297151560208a015260408901969096526001600160a01b03949094166060880152608087019290925260a08601526001600160801b031660c085015260ff1660e08401526101008301526101208201526101400190565b8183823760009101908152919050565b604080825283519082018190526000906020906060840190828701845b828110156158cc578151845292840192908401906001016158b0565b50505093151592019190915250919050565b60005b838110156158f95781810151838201526020016158e1565b50506000910152565b600082516159148184602087016158de565b9190910192915050565b6020808252600b908201526a6d6b743a6c697120706f7360a81b604082015260600190565b6001600160a01b03929092168252602082015260400190565b808201808211156105085761050861558a565b6000600182016159815761598161558a565b5060010190565b60006020828403121561599a57600080fd5b604051602081016001600160401b03811182821017156159bc576159bc614c77565b6040529151825250919050565b96518752602087019590955260408601939093526060850191909152608084015260a083015260c082015260e00190565b6001600160a01b03968716815294909516602085015260408401929092526060830152608082015290151560a082015260c00190565b9b8c5260208c019a909a5297151560408b015260608a0196909652608089019490945260a088019290925260c087015260e08601526001600160a01b03908116610100860152908116610120850152166101408301526101608201526101800190565b60008151808452615aab8160208601602086016158de565b601f01601f19169290920160200192915050565b60208152600061493d6020830184615a93565b60609290921b6001600160601b0319168252601482015260340190565b604081526000615b026040830185615a93565b90508260208301529392505050565b80820281158282048414176105085761050861558a565b600082615b4557634e487b7160e01b600052601260045260246000fd5b500490565b8181036000831280158383131683831282161715615b6a57615b6a61558a565b5092915050565b600181815b80851115615bac578160001904821115615b9257615b9261558a565b80851615615b9f57918102915b93841c9390800290615b76565b509250929050565b600082615bc357506001610508565b81615bd057506000610508565b8160018114615be65760028114615bf057615c0c565b6001915050610508565b60ff841115615c0157615c0161558a565b50506001821b610508565b5060208310610133831016604e8410600b8410161715615c2f575081810a610508565b615c398383615b71565b8060001904821115615c4d57615c4d61558a565b029392505050565b600061493d8383615bb4565b6001600160a01b039384168152919092166020820152604081019190915260600190565b76020b1b1b2b9b9a1b7b73a3937b61d1030b1b1b7bab73a1604d1b815260008351615cb78160178501602088016158de565b7001034b99036b4b9b9b4b733903937b6329607d1b6017918401918201528351615ce88160288401602088016158de565b01602801949350505050565b80820260008212600160ff1b84141615615d1057615d1061558a565b81810583148215176105085761050861558a565b600060208284031215615d3657600080fd5b815161493d81614b3e565b600081615d5057615d5061558a565b50600019019056fe4d61726b65742e736f6c2f6465637265617365436f6c6c61746572616c2f6163636f756e746d61726b65742f696e697469617a6c697a652f5f6164647265737350726f76696465722d2d2d2d2d2d2d2d2d2d2d2d2d756470617465206465637265617365206f726465722d2d2d2d2d2d2d2d2d2d2dfb248bbb6ca5a799a6bb9ba79f58aa5cdbe0e5979238a967315e7ffbfd119d1a41821a71fcd4fd9aecd428014f9b7f61fb3bea3424e8a828796db51ad474a275b8c5fff75533427c858123e48aded65d11f0a9bac29ddb7ab0b9a46232abc8e52d2d2d2d2d2d2d2d2d2d2d637265617465206465637265617365206f726465722069642d2d2d2d2dfc1f8b40dd27177b575feb8190e47ed65af3a506a9e92b5df7e089b4b1a3626a2d2d2d2d2d2d6d61726b65742e736f6c2f5f63726561746544656372656173654f7264657222a23cce23bf58a4bb883d7a75b1cff31ed1bd99fac269b47537be26f53235cda2646970667358221220735f54bd1dd955e862ce713e8552c64d46c7dbf17455d20367dfb3d57c5721ec64736f6c63430008110033",
  "linkReferences": {},
  "deployedLinkReferences": {}
}